{
  "address": "0xBdF42243D843d34204f50CEC4F4308e432B511F6",
  "abi": [
    {
      "inputs": [],
      "stateMutability": "nonpayable",
      "type": "constructor"
    },
    {
      "inputs": [
        {
          "internalType": "address[]",
          "name": "_newRecipients",
          "type": "address[]"
        }
      ],
      "name": "addRecipients",
      "outputs": [],
      "stateMutability": "nonpayable",
      "type": "function"
    },
    {
      "inputs": [
        {
          "internalType": "address",
          "name": "_governor",
          "type": "address"
        }
      ],
      "name": "changeGovernor",
      "outputs": [],
      "stateMutability": "nonpayable",
      "type": "function"
    },
    {
      "inputs": [],
      "name": "governor",
      "outputs": [
        {
          "internalType": "address",
          "name": "",
          "type": "address"
        }
      ],
      "stateMutability": "view",
      "type": "function"
    },
    {
      "inputs": [
        {
          "internalType": "address",
          "name": "_user",
          "type": "address"
        }
      ],
      "name": "isEligible",
      "outputs": [
        {
          "internalType": "bool",
          "name": "",
          "type": "bool"
        }
      ],
      "stateMutability": "view",
      "type": "function"
    },
    {
      "inputs": [
        {
          "internalType": "address",
          "name": "",
          "type": "address"
        }
      ],
      "name": "recipients",
      "outputs": [
        {
          "internalType": "bool",
          "name": "",
          "type": "bool"
        }
      ],
      "stateMutability": "view",
      "type": "function"
    },
    {
      "inputs": [
        {
          "internalType": "address[]",
          "name": "_oldRecipients",
          "type": "address[]"
        }
      ],
      "name": "removeRecipients",
      "outputs": [],
      "stateMutability": "nonpayable",
      "type": "function"
    }
  ],
  "transactionHash": "0x88fd8ecf6ce54e4cdc50c8c61fb968cf80e99f07bb8d42d4f44ae39c62fb36a9",
  "args": [],
  "numDeployments": 1,
  "solcInputHash": "abacbb73ed645c16e226121fb500b7d4",
  "bytecode": "0x6080604052348015600f57600080fd5b50336000806101000a81548173ffffffffffffffffffffffffffffffffffffffff021916908373ffffffffffffffffffffffffffffffffffffffff16021790555061085c8061005f6000396000f3fe608060405234801561001057600080fd5b50600436106100625760003560e01c80630c340a241461006757806329af54cc14610085578063639ab82f146100a157806366e305fd146100bd578063e4c0aaf4146100ed578063eb82031214610109575b600080fd5b61006f610139565b60405161007c919061051a565b60405180910390f35b61009f600480360381019061009a91906106ce565b61015d565b005b6100bb60048036038101906100b691906106ce565b610277565b005b6100d760048036038101906100d29190610717565b610392565b6040516100e4919061075f565b60405180910390f35b61010760048036038101906101029190610717565b6103e8565b005b610123600480360381019061011e9190610717565b6104b9565b604051610130919061075f565b60405180910390f35b60008054906101000a900473ffffffffffffffffffffffffffffffffffffffff1681565b60008054906101000a900473ffffffffffffffffffffffffffffffffffffffff1673ffffffffffffffffffffffffffffffffffffffff163373ffffffffffffffffffffffffffffffffffffffff16146101eb576040517f08c379a00000000000000000000000000000000000000000000000000000000081526004016101e2906107d7565b60405180910390fd5b60005b815181101561027357600180600084848151811061020f5761020e6107f7565b5b602002602001015173ffffffffffffffffffffffffffffffffffffffff1673ffffffffffffffffffffffffffffffffffffffff16815260200190815260200160002060006101000a81548160ff0219169083151502179055508060010190506101ee565b5050565b60008054906101000a900473ffffffffffffffffffffffffffffffffffffffff1673ffffffffffffffffffffffffffffffffffffffff163373ffffffffffffffffffffffffffffffffffffffff1614610305576040517f08c379a00000000000000000000000000000000000000000000000000000000081526004016102fc906107d7565b60405180910390fd5b60005b815181101561038e5760006001600084848151811061032a576103296107f7565b5b602002602001015173ffffffffffffffffffffffffffffffffffffffff1673ffffffffffffffffffffffffffffffffffffffff16815260200190815260200160002060006101000a81548160ff021916908315150217905550806001019050610308565b5050565b6000600160008373ffffffffffffffffffffffffffffffffffffffff1673ffffffffffffffffffffffffffffffffffffffff16815260200190815260200160002060009054906101000a900460ff169050919050565b60008054906101000a900473ffffffffffffffffffffffffffffffffffffffff1673ffffffffffffffffffffffffffffffffffffffff163373ffffffffffffffffffffffffffffffffffffffff1614610476576040517f08c379a000000000000000000000000000000000000000000000000000000000815260040161046d906107d7565b60405180910390fd5b806000806101000a81548173ffffffffffffffffffffffffffffffffffffffff021916908373ffffffffffffffffffffffffffffffffffffffff16021790555050565b60016020528060005260406000206000915054906101000a900460ff1681565b600073ffffffffffffffffffffffffffffffffffffffff82169050919050565b6000610504826104d9565b9050919050565b610514816104f9565b82525050565b600060208201905061052f600083018461050b565b92915050565b6000604051905090565b600080fd5b600080fd5b600080fd5b6000601f19601f8301169050919050565b7f4e487b7100000000000000000000000000000000000000000000000000000000600052604160045260246000fd5b6105978261054e565b810181811067ffffffffffffffff821117156105b6576105b561055f565b5b80604052505050565b60006105c9610535565b90506105d5828261058e565b919050565b600067ffffffffffffffff8211156105f5576105f461055f565b5b602082029050602081019050919050565b600080fd5b610614816104f9565b811461061f57600080fd5b50565b6000813590506106318161060b565b92915050565b600061064a610645846105da565b6105bf565b9050808382526020820190506020840283018581111561066d5761066c610606565b5b835b8181101561069657806106828882610622565b84526020840193505060208101905061066f565b5050509392505050565b600082601f8301126106b5576106b4610549565b5b81356106c5848260208601610637565b91505092915050565b6000602082840312156106e4576106e361053f565b5b600082013567ffffffffffffffff81111561070257610701610544565b5b61070e848285016106a0565b91505092915050565b60006020828403121561072d5761072c61053f565b5b600061073b84828501610622565b91505092915050565b60008115159050919050565b61075981610744565b82525050565b60006020820190506107746000830184610750565b92915050565b600082825260208201905092915050565b7f5468652063616c6c6572206d7573742062652074686520676f7665726e6f7200600082015250565b60006107c1601f8361077a565b91506107cc8261078b565b602082019050919050565b600060208201905081810360008301526107f0816107b4565b9050919050565b7f4e487b7100000000000000000000000000000000000000000000000000000000600052603260045260246000fdfea2646970667358221220b314f47e16ade7c7a3fcf31ce3ae47e4e33c87462a1adfaf55213747bba8368064736f6c634300081c0033",
  "devdoc": {
    "kind": "dev",
    "methods": {
      "addRecipients(address[])": {
        "details": "Add recipients.",
        "params": {
          "_newRecipients": "The recipients to add."
        }
      },
      "changeGovernor(address)": {
        "details": "Change the governor of the contract.",
        "params": {
          "_governor": "The address of the new governor."
        }
      },
      "constructor": {
        "details": "Constructor."
      },
      "isEligible(address)": {
        "details": "Check if an address is elibigle.",
        "params": {
          "_user": "The address to check if eligible."
        }
      },
      "removeRecipients(address[])": {
        "details": "Remove recipients.",
        "params": {
          "_oldRecipients": "The recipients to remove."
        }
      }
    },
    "version": 1
  },
  "userdoc": {
    "kind": "user",
    "methods": {},
    "version": 1
  },
  "storageLayout": {
    "storage": [
      {
        "astId": 472,
        "contract": "src/airdrop/GovernedRecipient.sol:GovernedRecipient",
        "label": "governor",
        "offset": 0,
        "slot": "0",
        "type": "t_address"
      },
      {
        "astId": 476,
        "contract": "src/airdrop/GovernedRecipient.sol:GovernedRecipient",
        "label": "recipients",
        "offset": 0,
        "slot": "1",
        "type": "t_mapping(t_address,t_bool)"
      }
    ],
    "types": {
      "t_address": {
        "encoding": "inplace",
        "label": "address",
        "numberOfBytes": "20"
      },
      "t_bool": {
        "encoding": "inplace",
        "label": "bool",
        "numberOfBytes": "1"
      },
      "t_mapping(t_address,t_bool)": {
        "encoding": "mapping",
        "key": "t_address",
        "label": "mapping(address => bool)",
        "numberOfBytes": "32",
        "value": "t_bool"
      }
    }
  }
}