{
  "address": "0x44921b4c7510Fb306d8E58cF3894fA2bc8a79F00",
  "abi": [
    {
      "inputs": [
        {
          "internalType": "contract IMarketFactory",
          "name": "marketFactory",
          "type": "address"
        },
        {
          "internalType": "address",
          "name": "marketId",
          "type": "address"
        }
      ],
      "name": "getMarket",
      "outputs": [
        {
          "components": [
            {
              "internalType": "address",
              "name": "id",
              "type": "address"
            },
            {
              "internalType": "string",
              "name": "marketName",
              "type": "string"
            },
            {
              "internalType": "string[]",
              "name": "outcomes",
              "type": "string[]"
            },
            {
              "internalType": "uint256",
              "name": "outcomesSupply",
              "type": "uint256"
            },
            {
              "internalType": "uint256",
              "name": "lowerBound",
              "type": "uint256"
            },
            {
              "internalType": "uint256",
              "name": "upperBound",
              "type": "uint256"
            },
            {
              "internalType": "bytes32",
              "name": "conditionId",
              "type": "bytes32"
            },
            {
              "internalType": "bytes32",
              "name": "questionId",
              "type": "bytes32"
            },
            {
              "internalType": "uint256",
              "name": "templateId",
              "type": "uint256"
            },
            {
              "components": [
                {
                  "internalType": "bytes32",
                  "name": "content_hash",
                  "type": "bytes32"
                },
                {
                  "internalType": "address",
                  "name": "arbitrator",
                  "type": "address"
                },
                {
                  "internalType": "uint32",
                  "name": "opening_ts",
                  "type": "uint32"
                },
                {
                  "internalType": "uint32",
                  "name": "timeout",
                  "type": "uint32"
                },
                {
                  "internalType": "uint32",
                  "name": "finalize_ts",
                  "type": "uint32"
                },
                {
                  "internalType": "bool",
                  "name": "is_pending_arbitration",
                  "type": "bool"
                },
                {
                  "internalType": "uint256",
                  "name": "bounty",
                  "type": "uint256"
                },
                {
                  "internalType": "bytes32",
                  "name": "best_answer",
                  "type": "bytes32"
                },
                {
                  "internalType": "bytes32",
                  "name": "history_hash",
                  "type": "bytes32"
                },
                {
                  "internalType": "uint256",
                  "name": "bond",
                  "type": "uint256"
                },
                {
                  "internalType": "uint256",
                  "name": "min_bond",
                  "type": "uint256"
                }
              ],
              "internalType": "struct IRealityETH_v3_0.Question[]",
              "name": "questions",
              "type": "tuple[]"
            },
            {
              "internalType": "bytes32[]",
              "name": "questionsIds",
              "type": "bytes32[]"
            },
            {
              "internalType": "bool",
              "name": "payoutReported",
              "type": "bool"
            }
          ],
          "internalType": "struct MarketView.MarketInfo",
          "name": "",
          "type": "tuple"
        }
      ],
      "stateMutability": "view",
      "type": "function"
    },
    {
      "inputs": [
        {
          "internalType": "uint256",
          "name": "count",
          "type": "uint256"
        },
        {
          "internalType": "contract IMarketFactory",
          "name": "marketFactory",
          "type": "address"
        }
      ],
      "name": "getMarkets",
      "outputs": [
        {
          "components": [
            {
              "internalType": "address",
              "name": "id",
              "type": "address"
            },
            {
              "internalType": "string",
              "name": "marketName",
              "type": "string"
            },
            {
              "internalType": "string[]",
              "name": "outcomes",
              "type": "string[]"
            },
            {
              "internalType": "uint256",
              "name": "outcomesSupply",
              "type": "uint256"
            },
            {
              "internalType": "uint256",
              "name": "lowerBound",
              "type": "uint256"
            },
            {
              "internalType": "uint256",
              "name": "upperBound",
              "type": "uint256"
            },
            {
              "internalType": "bytes32",
              "name": "conditionId",
              "type": "bytes32"
            },
            {
              "internalType": "bytes32",
              "name": "questionId",
              "type": "bytes32"
            },
            {
              "internalType": "uint256",
              "name": "templateId",
              "type": "uint256"
            },
            {
              "components": [
                {
                  "internalType": "bytes32",
                  "name": "content_hash",
                  "type": "bytes32"
                },
                {
                  "internalType": "address",
                  "name": "arbitrator",
                  "type": "address"
                },
                {
                  "internalType": "uint32",
                  "name": "opening_ts",
                  "type": "uint32"
                },
                {
                  "internalType": "uint32",
                  "name": "timeout",
                  "type": "uint32"
                },
                {
                  "internalType": "uint32",
                  "name": "finalize_ts",
                  "type": "uint32"
                },
                {
                  "internalType": "bool",
                  "name": "is_pending_arbitration",
                  "type": "bool"
                },
                {
                  "internalType": "uint256",
                  "name": "bounty",
                  "type": "uint256"
                },
                {
                  "internalType": "bytes32",
                  "name": "best_answer",
                  "type": "bytes32"
                },
                {
                  "internalType": "bytes32",
                  "name": "history_hash",
                  "type": "bytes32"
                },
                {
                  "internalType": "uint256",
                  "name": "bond",
                  "type": "uint256"
                },
                {
                  "internalType": "uint256",
                  "name": "min_bond",
                  "type": "uint256"
                }
              ],
              "internalType": "struct IRealityETH_v3_0.Question[]",
              "name": "questions",
              "type": "tuple[]"
            },
            {
              "internalType": "bytes32[]",
              "name": "questionsIds",
              "type": "bytes32[]"
            },
            {
              "internalType": "bool",
              "name": "payoutReported",
              "type": "bool"
            }
          ],
          "internalType": "struct MarketView.MarketInfo[]",
          "name": "",
          "type": "tuple[]"
        }
      ],
      "stateMutability": "view",
      "type": "function"
    }
  ],
  "transactionHash": "0x7b2cc85aa3089c00d69e1bf51b5e2a5fbd1521c99bf2c159222888cf3a079daa",
  "args": [],
  "numDeployments": 2,
  "solcInputHash": "7d55627a1de4a5f0d6407a64fdd9234f",
  "bytecode": "0x608060405234801561001057600080fd5b506113de806100206000396000f3fe608060405234801561001057600080fd5b50600436106100365760003560e01c8063118cdf611461003b578063714af34b14610064575b600080fd5b61004e610049366004610d1e565b610084565b60405161005b9190610fc0565b60405180910390f35b610077610072366004611022565b610207565b60405161005b9190611050565b60606000826001600160a01b031663375a7cba6040518163ffffffff1660e01b8152600401600060405180830381865afa1580156100c6573d6000803e3d6000fd5b505050506040513d6000823e601f3d908101601f191682016040526100ee91908101906110e9565b90506000846001600160401b0381111561010a5761010a61106a565b60405190808252806020026020018201604052801561014357816020015b610130610c94565b8152602001906001900390816101285790505b50905081516000036101585791506102019050565b60006001835161016891906111b0565b905060008684511161017b576000610188565b86845161018891906111b0565b90506000825b8281106101f8576101b8888783815181106101ab576101ab6111c3565b6020026020010151610207565b85836101c3816111d9565b9450815181106101d5576101d56111c3565b602090810291909101015280156101f857806101f0816111f2565b91505061018e565b50929450505050505b92915050565b61020f610c94565b60008290506000816001600160a01b0316632ddc7de76040518163ffffffff1660e01b8152600401602060405180830381865afa158015610254573d6000803e3d6000fd5b505050506040513d601f19601f820116820180604052508101906102789190611209565b90506000856001600160a01b0316635bd9e2996040518163ffffffff1660e01b8152600401602060405180830381865afa1580156102ba573d6000803e3d6000fd5b505050506040513d601f19601f820116820180604052508101906102de9190611222565b604051636a16e06160e11b8152600481018490529091506000906001600160a01b0383169063d42dc0c290602401602060405180830381865afa158015610329573d6000803e3d6000fd5b505050506040513d601f19601f8201168201806040525081019061034d9190611209565b90506000816001600160401b038111156103695761036961106a565b60405190808252806020026020018201604052801561039c57816020015b60608152602001906001900390816103875790505b5090506000886001600160a01b031663613713256040518163ffffffff1660e01b8152600401602060405180830381865afa1580156103df573d6000803e3d6000fd5b505050506040513d601f19601f820116820180604052508101906104039190611222565b6001600160a01b0316634f64b2be856001600160a01b03166339dd75308c6001600160a01b031663b2016bd46040518163ffffffff1660e01b8152600401602060405180830381865afa15801561045e573d6000803e3d6000fd5b505050506040513d601f19601f820116820180604052508101906104829190611222565b60405163856296f760e01b815260006004820152602481018b9052600160448201526001600160a01b038a169063856296f790606401602060405180830381865afa1580156104d5573d6000803e3d6000fd5b505050506040513d601f19601f820116820180604052508101906104f99190611209565b6040516001600160e01b031960e085901b1681526001600160a01b0390921660048301526024820152604401602060405180830381865afa158015610542573d6000803e3d6000fd5b505050506040513d601f19601f820116820180604052508101906105669190611209565b6040518263ffffffff1660e01b815260040161058491815260200190565b602060405180830381865afa1580156105a1573d6000803e3d6000fd5b505050506040513d601f19601f820116820180604052508101906105c59190611222565b6001600160a01b03166318160ddd6040518163ffffffff1660e01b8152600401602060405180830381865afa158015610602573d6000803e3d6000fd5b505050506040513d601f19601f820116820180604052508101906106269190611209565b905060005b838110156106d05760405163eed2a14760e01b8152600481018290526001600160a01b0388169063eed2a14790602401600060405180830381865afa158015610678573d6000803e3d6000fd5b505050506040513d6000823e601f3d908101601f191682016040526106a0919081019061123f565b8382815181106106b2576106b26111c3565b602002602001018190525080806106c8906111d9565b91505061062b565b506000866001600160a01b031663c2e112d26040518163ffffffff1660e01b8152600401602060405180830381865afa158015610711573d6000803e3d6000fd5b505050506040513d601f19601f820116820180604052508101906107359190611209565b6001600160401b0381111561074c5761074c61106a565b6040519080825280602002602001820160405280156107d357816020015b604080516101608101825260008082526020808301829052928201819052606082018190526080820181905260a0820181905260c0820181905260e0820181905261010082018190526101208201819052610140820152825260001990920191018161076a5790505b509050600081516001600160401b038111156107f1576107f161106a565b60405190808252806020026020018201604052801561081a578160200160208202803683370190505b50905060008b6001600160a01b031663bc8802a26040518163ffffffff1660e01b8152600401602060405180830381865afa15801561085d573d6000803e3d6000fd5b505050506040513d601f19601f820116820180604052508101906108819190611222565b905060005b83518110156109cf5760405163255d109d60e21b8152600481018290526001600160a01b038b1690639574427490602401602060405180830381865afa1580156108d4573d6000803e3d6000fd5b505050506040513d601f19601f820116820180604052508101906108f89190611209565b83828151811061090a5761090a6111c3565b602002602001018181525050816001600160a01b03166395addb90848381518110610937576109376111c3565b60200260200101516040518263ffffffff1660e01b815260040161095d91815260200190565b61016060405180830381865afa15801561097b573d6000803e3d6000fd5b505050506040513d601f19601f8201168201806040525081019061099f91906112f6565b8482815181106109b1576109b16111c3565b602002602001018190525080806109c7906111d9565b915050610886565b50506040518061018001604052808b6001600160a01b03168152602001896001600160a01b031663e6bfd26a6040518163ffffffff1660e01b8152600401600060405180830381865afa158015610a2a573d6000803e3d6000fd5b505050506040513d6000823e601f3d908101601f19168201604052610a52919081019061123f565b8152602001858152602001848152602001896001600160a01b031663a384d6ff6040518163ffffffff1660e01b8152600401602060405180830381865afa158015610aa1573d6000803e3d6000fd5b505050506040513d601f19601f82011682018060405250810190610ac59190611209565b8152602001896001600160a01b031663b09ad8a06040518163ffffffff1660e01b8152600401602060405180830381865afa158015610b08573d6000803e3d6000fd5b505050506040513d601f19601f82011682018060405250810190610b2c9190611209565b8152602001888152602001896001600160a01b031663b06a5c526040518163ffffffff1660e01b8152600401602060405180830381865afa158015610b75573d6000803e3d6000fd5b505050506040513d601f19601f82011682018060405250810190610b999190611209565b8152602001896001600160a01b0316637aa77f296040518163ffffffff1660e01b8152600401602060405180830381865afa158015610bdc573d6000803e3d6000fd5b505050506040513d601f19601f82011682018060405250810190610c009190611209565b81526020018381526020018281526020016000886001600160a01b031663dd34de678b6040518263ffffffff1660e01b8152600401610c4191815260200190565b602060405180830381865afa158015610c5e573d6000803e3d6000fd5b505050506040513d601f19601f82011682018060405250810190610c829190611209565b1190529b9a5050505050505050505050565b60405180610180016040528060006001600160a01b03168152602001606081526020016060815260200160008152602001600081526020016000815260200160008019168152602001600080191681526020016000815260200160608152602001606081526020016000151581525090565b6001600160a01b0381168114610d1b57600080fd5b50565b60008060408385031215610d3157600080fd5b823591506020830135610d4381610d06565b809150509250929050565b60005b83811015610d69578181015183820152602001610d51565b50506000910152565b60008151808452610d8a816020860160208601610d4e565b601f01601f19169290920160200192915050565b600082825180855260208086019550808260051b84010181860160005b84811015610de957601f19868403018952610dd7838351610d72565b98840198925090830190600101610dbb565b5090979650505050505050565b600081518084526020808501945080840160005b83811015610eab57815180518852838101516001600160a01b03168489015260408082015163ffffffff908116918a01919091526060808301518216908a01526080808301519091169089015260a08082015115159089015260c0808201519089015260e080820151908901526101008082015190890152610120808201519089015261014090810151908801526101609096019590820190600101610e0a565b509495945050505050565b600081518084526020808501945080840160005b83811015610eab57815187529582019590820190600101610eca565b80516001600160a01b0316825260006101806020830151816020860152610f0f82860182610d72565b91505060408301518482036040860152610f298282610d9e565b915050606083015160608501526080830151608085015260a083015160a085015260c083015160c085015260e083015160e08501526101008084015181860152506101208084015185830382870152610f828382610df6565b925050506101408084015185830382870152610f9e8382610eb6565b9250505061016080840151610fb68287018215159052565b5090949350505050565b6000602080830181845280855180835260408601915060408160051b870101925083870160005b8281101561101557603f19888603018452611003858351610ee6565b94509285019290850190600101610fe7565b5092979650505050505050565b6000806040838503121561103557600080fd5b823561104081610d06565b91506020830135610d4381610d06565b6020815260006110636020830184610ee6565b9392505050565b634e487b7160e01b600052604160045260246000fd5b60405161016081016001600160401b03811182821017156110a3576110a361106a565b60405290565b604051601f8201601f191681016001600160401b03811182821017156110d1576110d161106a565b604052919050565b80516110e481610d06565b919050565b600060208083850312156110fc57600080fd5b82516001600160401b038082111561111357600080fd5b818501915085601f83011261112757600080fd5b8151818111156111395761113961106a565b8060051b915061114a8483016110a9565b818152918301840191848101908884111561116457600080fd5b938501935b8385101561118e578451925061117e83610d06565b8282529385019390850190611169565b98975050505050505050565b634e487b7160e01b600052601160045260246000fd5b818103818111156102015761020161119a565b634e487b7160e01b600052603260045260246000fd5b6000600182016111eb576111eb61119a565b5060010190565b6000816112015761120161119a565b506000190190565b60006020828403121561121b57600080fd5b5051919050565b60006020828403121561123457600080fd5b815161106381610d06565b60006020828403121561125157600080fd5b81516001600160401b038082111561126857600080fd5b818401915084601f83011261127c57600080fd5b81518181111561128e5761128e61106a565b6112a1601f8201601f19166020016110a9565b91508082528560208285010111156112b857600080fd5b6112c9816020840160208601610d4e565b50949350505050565b805163ffffffff811681146110e457600080fd5b805180151581146110e457600080fd5b6000610160828403121561130957600080fd5b611311611080565b82518152611321602084016110d9565b6020820152611332604084016112d2565b6040820152611343606084016112d2565b6060820152611354608084016112d2565b608082015261136560a084016112e6565b60a082015260c0838101519082015260e080840151908201526101008084015190820152610120808401519082015261014092830151928101929092525091905056fea2646970667358221220b117d05de2ede7b0643ddf09a1a86b6b9975a29c2be4e4262cbee8c2ce20418a64736f6c63430008140033",
  "devdoc": {
    "kind": "dev",
    "methods": {},
    "version": 1
  },
  "userdoc": {
    "kind": "user",
    "methods": {},
    "version": 1
  },
  "storageLayout": {
    "storage": [],
    "types": null
  }
}