{
  "address": "0x886Ef0A78faBbAE942F1dA1791A8ed02a5aF8BC6",
  "abi": [
    {
      "inputs": [
        {
          "internalType": "address",
          "name": "_market",
          "type": "address"
        },
        {
          "internalType": "address",
          "name": "_arbitrator",
          "type": "address"
        },
        {
          "internalType": "contract IRealityETH_v3_0",
          "name": "_realitio",
          "type": "address"
        },
        {
          "internalType": "contract WrappedERC20Factory",
          "name": "_wrappedERC20Factory",
          "type": "address"
        },
        {
          "internalType": "contract IConditionalTokens",
          "name": "_conditionalTokens",
          "type": "address"
        },
        {
          "internalType": "address",
          "name": "_collateralToken",
          "type": "address"
        },
        {
          "internalType": "contract RealityProxy",
          "name": "_realityProxy",
          "type": "address"
        },
        {
          "internalType": "address",
          "name": "_governor",
          "type": "address"
        }
      ],
      "stateMutability": "nonpayable",
      "type": "constructor"
    },
    {
      "inputs": [],
      "name": "ERC1167FailedCreateClone",
      "type": "error"
    },
    {
      "anonymous": false,
      "inputs": [
        {
          "indexed": true,
          "internalType": "address",
          "name": "market",
          "type": "address"
        },
        {
          "indexed": false,
          "internalType": "string",
          "name": "marketName",
          "type": "string"
        },
        {
          "indexed": false,
          "internalType": "string[]",
          "name": "outcomes",
          "type": "string[]"
        },
        {
          "indexed": false,
          "internalType": "uint256",
          "name": "lowerBound",
          "type": "uint256"
        },
        {
          "indexed": false,
          "internalType": "uint256",
          "name": "upperBound",
          "type": "uint256"
        },
        {
          "indexed": false,
          "internalType": "bytes32",
          "name": "conditionId",
          "type": "bytes32"
        },
        {
          "indexed": false,
          "internalType": "bytes32",
          "name": "questionId",
          "type": "bytes32"
        },
        {
          "indexed": false,
          "internalType": "bytes32[]",
          "name": "questionsIds",
          "type": "bytes32[]"
        },
        {
          "indexed": false,
          "internalType": "uint256",
          "name": "templateId",
          "type": "uint256"
        },
        {
          "indexed": false,
          "internalType": "string[]",
          "name": "encodedQuestions",
          "type": "string[]"
        }
      ],
      "name": "NewMarket",
      "type": "event"
    },
    {
      "inputs": [],
      "name": "QUESTION_TIMEOUT",
      "outputs": [
        {
          "internalType": "uint32",
          "name": "",
          "type": "uint32"
        }
      ],
      "stateMutability": "view",
      "type": "function"
    },
    {
      "inputs": [],
      "name": "allMarkets",
      "outputs": [
        {
          "internalType": "address[]",
          "name": "",
          "type": "address[]"
        }
      ],
      "stateMutability": "view",
      "type": "function"
    },
    {
      "inputs": [],
      "name": "arbitrator",
      "outputs": [
        {
          "internalType": "address",
          "name": "",
          "type": "address"
        }
      ],
      "stateMutability": "view",
      "type": "function"
    },
    {
      "inputs": [
        {
          "internalType": "address",
          "name": "_governor",
          "type": "address"
        }
      ],
      "name": "changeGovernor",
      "outputs": [],
      "stateMutability": "nonpayable",
      "type": "function"
    },
    {
      "inputs": [
        {
          "internalType": "address",
          "name": "_market",
          "type": "address"
        }
      ],
      "name": "changeMarket",
      "outputs": [],
      "stateMutability": "nonpayable",
      "type": "function"
    },
    {
      "inputs": [],
      "name": "collateralToken",
      "outputs": [
        {
          "internalType": "address",
          "name": "",
          "type": "address"
        }
      ],
      "stateMutability": "view",
      "type": "function"
    },
    {
      "inputs": [],
      "name": "conditionalTokens",
      "outputs": [
        {
          "internalType": "contract IConditionalTokens",
          "name": "",
          "type": "address"
        }
      ],
      "stateMutability": "view",
      "type": "function"
    },
    {
      "inputs": [
        {
          "components": [
            {
              "internalType": "string",
              "name": "marketName",
              "type": "string"
            },
            {
              "internalType": "string[]",
              "name": "encodedQuestions",
              "type": "string[]"
            },
            {
              "internalType": "string[]",
              "name": "outcomes",
              "type": "string[]"
            },
            {
              "internalType": "uint256",
              "name": "lowerBound",
              "type": "uint256"
            },
            {
              "internalType": "uint256",
              "name": "upperBound",
              "type": "uint256"
            },
            {
              "internalType": "uint256",
              "name": "minBond",
              "type": "uint256"
            },
            {
              "internalType": "uint32",
              "name": "openingTime",
              "type": "uint32"
            },
            {
              "internalType": "string[]",
              "name": "tokenNames",
              "type": "string[]"
            }
          ],
          "internalType": "struct MarketFactory.CreateMarketParams",
          "name": "params",
          "type": "tuple"
        }
      ],
      "name": "createCategoricalMarket",
      "outputs": [
        {
          "internalType": "address",
          "name": "",
          "type": "address"
        }
      ],
      "stateMutability": "nonpayable",
      "type": "function"
    },
    {
      "inputs": [
        {
          "components": [
            {
              "internalType": "string",
              "name": "marketName",
              "type": "string"
            },
            {
              "internalType": "string[]",
              "name": "encodedQuestions",
              "type": "string[]"
            },
            {
              "internalType": "string[]",
              "name": "outcomes",
              "type": "string[]"
            },
            {
              "internalType": "uint256",
              "name": "lowerBound",
              "type": "uint256"
            },
            {
              "internalType": "uint256",
              "name": "upperBound",
              "type": "uint256"
            },
            {
              "internalType": "uint256",
              "name": "minBond",
              "type": "uint256"
            },
            {
              "internalType": "uint32",
              "name": "openingTime",
              "type": "uint32"
            },
            {
              "internalType": "string[]",
              "name": "tokenNames",
              "type": "string[]"
            }
          ],
          "internalType": "struct MarketFactory.CreateMarketParams",
          "name": "params",
          "type": "tuple"
        }
      ],
      "name": "createMultiCategoricalMarket",
      "outputs": [
        {
          "internalType": "address",
          "name": "",
          "type": "address"
        }
      ],
      "stateMutability": "nonpayable",
      "type": "function"
    },
    {
      "inputs": [
        {
          "components": [
            {
              "internalType": "string",
              "name": "marketName",
              "type": "string"
            },
            {
              "internalType": "string[]",
              "name": "encodedQuestions",
              "type": "string[]"
            },
            {
              "internalType": "string[]",
              "name": "outcomes",
              "type": "string[]"
            },
            {
              "internalType": "uint256",
              "name": "lowerBound",
              "type": "uint256"
            },
            {
              "internalType": "uint256",
              "name": "upperBound",
              "type": "uint256"
            },
            {
              "internalType": "uint256",
              "name": "minBond",
              "type": "uint256"
            },
            {
              "internalType": "uint32",
              "name": "openingTime",
              "type": "uint32"
            },
            {
              "internalType": "string[]",
              "name": "tokenNames",
              "type": "string[]"
            }
          ],
          "internalType": "struct MarketFactory.CreateMarketParams",
          "name": "params",
          "type": "tuple"
        }
      ],
      "name": "createMultiScalarMarket",
      "outputs": [
        {
          "internalType": "address",
          "name": "",
          "type": "address"
        }
      ],
      "stateMutability": "nonpayable",
      "type": "function"
    },
    {
      "inputs": [
        {
          "components": [
            {
              "internalType": "string",
              "name": "marketName",
              "type": "string"
            },
            {
              "internalType": "string[]",
              "name": "encodedQuestions",
              "type": "string[]"
            },
            {
              "internalType": "string[]",
              "name": "outcomes",
              "type": "string[]"
            },
            {
              "internalType": "uint256",
              "name": "lowerBound",
              "type": "uint256"
            },
            {
              "internalType": "uint256",
              "name": "upperBound",
              "type": "uint256"
            },
            {
              "internalType": "uint256",
              "name": "minBond",
              "type": "uint256"
            },
            {
              "internalType": "uint32",
              "name": "openingTime",
              "type": "uint32"
            },
            {
              "internalType": "string[]",
              "name": "tokenNames",
              "type": "string[]"
            }
          ],
          "internalType": "struct MarketFactory.CreateMarketParams",
          "name": "params",
          "type": "tuple"
        }
      ],
      "name": "createScalarMarket",
      "outputs": [
        {
          "internalType": "address",
          "name": "",
          "type": "address"
        }
      ],
      "stateMutability": "nonpayable",
      "type": "function"
    },
    {
      "inputs": [],
      "name": "governor",
      "outputs": [
        {
          "internalType": "address",
          "name": "",
          "type": "address"
        }
      ],
      "stateMutability": "view",
      "type": "function"
    },
    {
      "inputs": [],
      "name": "market",
      "outputs": [
        {
          "internalType": "address",
          "name": "",
          "type": "address"
        }
      ],
      "stateMutability": "view",
      "type": "function"
    },
    {
      "inputs": [],
      "name": "marketCount",
      "outputs": [
        {
          "internalType": "uint256",
          "name": "",
          "type": "uint256"
        }
      ],
      "stateMutability": "view",
      "type": "function"
    },
    {
      "inputs": [
        {
          "internalType": "uint256",
          "name": "",
          "type": "uint256"
        }
      ],
      "name": "markets",
      "outputs": [
        {
          "internalType": "address",
          "name": "",
          "type": "address"
        }
      ],
      "stateMutability": "view",
      "type": "function"
    },
    {
      "inputs": [],
      "name": "realitio",
      "outputs": [
        {
          "internalType": "contract IRealityETH_v3_0",
          "name": "",
          "type": "address"
        }
      ],
      "stateMutability": "view",
      "type": "function"
    },
    {
      "inputs": [],
      "name": "realityProxy",
      "outputs": [
        {
          "internalType": "contract RealityProxy",
          "name": "",
          "type": "address"
        }
      ],
      "stateMutability": "view",
      "type": "function"
    },
    {
      "inputs": [],
      "name": "wrappedERC20Factory",
      "outputs": [
        {
          "internalType": "contract WrappedERC20Factory",
          "name": "",
          "type": "address"
        }
      ],
      "stateMutability": "view",
      "type": "function"
    }
  ],
  "transactionHash": "0x46a94666f2d83f01eb7ceeb1f4251a31fe734edf51d631b88cc8b79586758e7b",
  "args": [
    "0x3124e97ebF4c9592A17d40E54623953Ff3c77a73",
    "0x0000000000000000000000000000000000000000",
    "0xaf33DcB6E8c5c4D9dDF579f53031b514d19449CA",
    "0x1F728c2fD6a3008935c1446a965a313E657b7904",
    "0x8bdC504dC3A05310059c1c67E0A2667309D27B93",
    "0xff34b3d4aee8ddcd6f9afffb6fe49bd371b8a357",
    "0xF5ccbf74121edBa492725F325D55356D517723B9",
    "0x4edca105188a0783ab3a6f09c50567d1e3f8591d"
  ],
  "numDeployments": 2,
  "solcInputHash": "8d33669693ba3d8639405847877c972d",
  "bytecode": "0x6101406040523480156200001257600080fd5b5060405162001c2d38038062001c2d8339810160408190526200003591620000a4565b600280546001600160a01b03998a166001600160a01b03199182161790915596881660805294871660a05292861660c05290851660e0528416610100528316610120526000805491909316911617905562000165565b6001600160a01b0381168114620000a157600080fd5b50565b600080600080600080600080610100898b031215620000c257600080fd5b8851620000cf816200008b565b60208a0151909850620000e2816200008b565b60408a0151909750620000f5816200008b565b60608a015190965062000108816200008b565b60808a01519095506200011b816200008b565b60a08a01519094506200012e816200008b565b60c08a015190935062000141816200008b565b60e08a015190925062000154816200008b565b809150509295985092959890939650565b60805160a05160c05160e0516101005161012051611a016200022c600039600081816101430152818161041801528181610586015281816106d8015281816108e50152610a6a01526000818161028701526110500152600081816101b101528181610df201528181610e7201528181610f7d01528181611085015261114a0152600081816101ed015261111b0152600081816102ae01528181610c1301528181610c850152610d2301526000818161022701528181610bd20152610d540152611a016000f3fe608060405234801561001057600080fd5b50600436106100f65760003560e01c806362322c5d1161009257806362322c5d1461020f5780636cc6cde114610222578063807bb32d1461024957806380f556051461025c578063b1283e771461026f578063b2016bd414610282578063bc8802a2146102a9578063e4c0aaf4146102d0578063ec979082146102e357600080fd5b80630c340a24146100fb5780632b6ada671461012b5780632ff8d5041461013e578063375a7cba146101655780634a3382e51461017a5780635724d8fc146101995780635bd9e299146101ac5780635c3ef427146101d357806361371325146101e8575b600080fd5b60005461010e906001600160a01b031681565b6040516001600160a01b0390911681526020015b60405180910390f35b61010e610139366004611444565b6102f4565b61010e7f000000000000000000000000000000000000000000000000000000000000000081565b61016d6104c3565b604051610122919061154c565b6101846201fa4081565b60405163ffffffff9091168152602001610122565b61010e6101a7366004611444565b610525565b61010e7f000000000000000000000000000000000000000000000000000000000000000081565b6101e66101e13660046115ae565b61062b565b005b61010e7f000000000000000000000000000000000000000000000000000000000000000081565b61010e61021d366004611444565b610677565b61010e7f000000000000000000000000000000000000000000000000000000000000000081565b61010e610257366004611444565b61077d565b60025461010e906001600160a01b031681565b61010e61027d3660046115d2565b610943565b61010e7f000000000000000000000000000000000000000000000000000000000000000081565b61010e7f000000000000000000000000000000000000000000000000000000000000000081565b6101e66102de3660046115ae565b61096d565b600154604051908152602001610122565b600081606001518260800151116103435760405162461bcd60e51b815260206004820152600e60248201526d496e76616c696420626f756e647360901b60448201526064015b60405180910390fd5b6103506002600019611601565b8260800151106103975760405162461bcd60e51b8152602060048201526012602482015271125b9d985b1a59081a1a59da081c1bda5b9d60721b604482015260640161033a565b8160400151516002146103df5760405162461bcd60e51b815260206004820152601060248201526f496e76616c6964206f7574636f6d657360801b604482015260640161033a565b60008061043c84602001516000815181106103fc576103fc611614565b602002602001015160018660c001518760a001518860400151517f00000000000000000000000000000000000000000000000000000000000000006109b9565b6040805160018082528183019092529294509092506000919060208083019080368337019050509050828160008151811061047957610479611614565b60200260200101818152505060006104b9866040518060a001604052808781526020018581526020018681526020016002815260200160018152506109e2565b9695505050505050565b6060600180548060200260200160405190810160405280929190818152602001828054801561051b57602002820191906000526020600020905b81546001600160a01b031681526001909101906020018083116104fd575b5050505050905090565b60006002826040015151101561054d5760405162461bcd60e51b815260040161033a9061162a565b6000806105aa846020015160008151811061056a5761056a611614565b602002602001015160038660c001518760a001518860400151517f00000000000000000000000000000000000000000000000000000000000000006109b9565b604080516001808252818301909252929450909250600091906020808301908036833701905050905082816000815181106105e7576105e7611614565b60200260200101818152505060006104b9866040518060a00160405280878152602001858152602001868152602001896040015151815260200160038152506109e2565b6000546001600160a01b031633146106555760405162461bcd60e51b815260040161033a9061165a565b600280546001600160a01b0319166001600160a01b0392909216919091179055565b60006002826040015151101561069f5760405162461bcd60e51b815260040161033a9061162a565b6000806106fc84602001516000815181106106bc576106bc611614565b602002602001015160028660c001518760a001518860400151517f00000000000000000000000000000000000000000000000000000000000000006109b9565b6040805160018082528183019092529294509092506000919060208083019080368337019050509050828160008151811061073957610739611614565b60200260200101818152505060006104b9866040518060a00160405280878152602001858152602001868152602001896040015151815260200160028152506109e2565b6000816020015151826040015151146107ca5760405162461bcd60e51b815260206004820152600f60248201526e098cadcced0e840dad2e6dac2e8c6d608b1b604482015260640161033a565b60008260400151516001600160401b038111156107e9576107e96112a8565b604051908082528060200260200182016040528015610812578160200160208202803683370190505b5090506000805b8460400151518110156108d6576108588560200151828151811061083f5761083f611614565b602002602001015160018760c001518860a00151610b8c565b83828151811061086a5761086a611614565b6020026020010181815250508183828151811061088957610889611614565b60200260200101516040516020016108ab929190918252602082015260400190565b60405160208183030381529060405280519060200120915080806108ce90611682565b915050610819565b506000610909828660400151517f0000000000000000000000000000000000000000000000000000000000000000610dd8565b905060006104b9866040518060a00160405280868152602001878152602001858152602001896040015151815260200160018152506109e2565b6001818154811061095357600080fd5b6000918252602090912001546001600160a01b0316905081565b6000546001600160a01b031633146109975760405162461bcd60e51b815260040161033a9061165a565b600080546001600160a01b0319166001600160a01b0392909216919091179055565b6000806109c888888888610b8c565b91506109d5828585610dd8565b9050965096945050505050565b60025460009081906109fc906001600160a01b0316610eee565b9050610a15836040015184606001518660e00151610f60565b835160408086015160608701516080808901518885015189516020808c0151948c0151908d015197516304b892a960e21b81526001600160a01b038b16996312e24aa499610a929991989197919695949391927f00000000000000000000000000000000000000000000000000000000000000009060040161177b565b600060405180830381600087803b158015610aac57600080fd5b505af1158015610ac0573d6000803e3d6000fd5b50505050806001600160a01b03167faadcf1e7d57b927db65a77362bc2db82150d8fa843662b079edb722342b086928560000151866040015187606001518860800151886040015189600001518a602001518b608001518d60200151604051610b319998979695949392919061180b565b60405180910390a26001805480820182556000919091527fb10e2d527612073b26eecdfd717e6a320cf44b4afac2b0732d9fcbe2b7fa0cf60180546001600160a01b0319166001600160a01b03831617905590505b92915050565b600080848487604051602001610ba49392919061188a565b60408051601f1981840301815282825280516020918201209083018190526bffffffffffffffffffffffff197f0000000000000000000000000000000000000000000000000000000000000000606090811b8216938501939093526107e960e61b6054850152605884018790527f0000000000000000000000000000000000000000000000000000000000000000831b811660788501523090921b909116608c830152600060a083018190529092509060c00160408051808303601f19018152908290528051602090910120634f8812e360e11b82526004820181905291507f00000000000000000000000000000000000000000000000000000000000000006001600160a01b031690639f1025c690602401602060405180830381865afa158015610cd4573d6000803e3d6000fd5b505050506040513d601f19601f82011682018060405250810190610cf891906118c3565b63ffffffff1615610d0c579150610dd09050565b604051631212e4f160e21b81526001600160a01b037f0000000000000000000000000000000000000000000000000000000000000000169063484b93c490610d889089908b907f0000000000000000000000000000000000000000000000000000000000000000906201fa40908c906000908d906004016118e0565b6020604051808303816000875af1158015610da7573d6000803e3d6000fd5b505050506040513d601f19601f82011682018060405250810190610dcb9190611930565b925050505b949350505050565b60405163365bb9d560e21b81526000906001600160a01b037f0000000000000000000000000000000000000000000000000000000000000000169063d96ee75490610e2b90859088908890600401611949565b600060405180830381600087803b158015610e4557600080fd5b505af1158015610e59573d6000803e3d6000fd5b5050604051634296357160e11b81526001600160a01b037f000000000000000000000000000000000000000000000000000000000000000016925063852c6ae29150610ead90859088908890600401611949565b602060405180830381865afa158015610eca573d6000803e3d6000fd5b505050506040513d601f19601f82011682018060405250810190610dd09190611930565b6000763d602d80600a3d3981f3363d3d373d3d3d363d730000008260601b60e81c176000526e5af43d82803e903d91602b57fd5bf38260781b17602052603760096000f090506001600160a01b038116610f5b576040516330be1a3d60e21b815260040160405180910390fd5b919050565b6000610f6b8361121d565b905060005b81518110156112165760007f00000000000000000000000000000000000000000000000000000000000000006001600160a01b031663856296f76000801b88868681518110610fc157610fc1611614565b60200260200101516040518463ffffffff1660e01b8152600401610ff8939291909283526020830191909152604082015260600190565b602060405180830381865afa158015611015573d6000803e3d6000fd5b505050506040513d601f19601f820116820180604052508101906110399190611930565b60405163039dd75360e41b81526001600160a01b037f000000000000000000000000000000000000000000000000000000000000000081166004830152602482018390529192506000917f000000000000000000000000000000000000000000000000000000000000000016906339dd753090604401602060405180830381865afa1580156110cc573d6000803e3d6000fd5b505050506040513d601f19601f820116820180604052508101906110f09190611930565b905084838151811061110457611104611614565b60200260200101515160000361111957600080fd5b7f00000000000000000000000000000000000000000000000000000000000000006001600160a01b031663bb13cd107f00000000000000000000000000000000000000000000000000000000000000008388878151811061117c5761117c611614565b602002602001015189888151811061119657611196611614565b60200260200101516040518563ffffffff1660e01b81526004016111bd949392919061196a565b6020604051808303816000875af11580156111dc573d6000803e3d6000fd5b505050506040513d601f19601f8201168201806040525081019061120091906119ae565b505050808061120e90611682565b915050610f70565b5050505050565b6060816001600160401b03811115611237576112376112a8565b604051908082528060200260200182016040528015611260578160200160208202803683370190505b50905060005b828110156112a257806001901b82828151811061128557611285611614565b60209081029190910101528061129a81611682565b915050611266565b50919050565b634e487b7160e01b600052604160045260246000fd5b60405161010081016001600160401b03811182821017156112e1576112e16112a8565b60405290565b604051601f8201601f191681016001600160401b038111828210171561130f5761130f6112a8565b604052919050565b600082601f83011261132857600080fd5b81356001600160401b03811115611341576113416112a8565b611354601f8201601f19166020016112e7565b81815284602083860101111561136957600080fd5b816020850160208301376000918101602001919091529392505050565b600082601f83011261139757600080fd5b813560206001600160401b03808311156113b3576113b36112a8565b8260051b6113c28382016112e7565b93845285810183019383810190888611156113dc57600080fd5b84880192505b85831015611418578235848111156113fa5760008081fd5b6114088a87838c0101611317565b83525091840191908401906113e2565b98975050505050505050565b63ffffffff8116811461143657600080fd5b50565b8035610f5b81611424565b60006020828403121561145657600080fd5b81356001600160401b038082111561146d57600080fd5b90830190610100828603121561148257600080fd5b61148a6112be565b82358281111561149957600080fd5b6114a587828601611317565b8252506020830135828111156114ba57600080fd5b6114c687828601611386565b6020830152506040830135828111156114de57600080fd5b6114ea87828601611386565b604083015250606083013560608201526080830135608082015260a083013560a082015261151a60c08401611439565b60c082015260e08301358281111561153157600080fd5b61153d87828601611386565b60e08301525095945050505050565b6020808252825182820181905260009190848201906040850190845b8181101561158d5783516001600160a01b031683529284019291840191600101611568565b50909695505050505050565b6001600160a01b038116811461143657600080fd5b6000602082840312156115c057600080fd5b81356115cb81611599565b9392505050565b6000602082840312156115e457600080fd5b5035919050565b634e487b7160e01b600052601160045260246000fd5b81810381811115610b8657610b866115eb565b634e487b7160e01b600052603260045260246000fd5b602080825260169082015275125b9d985b1a59081bdd5d18dbdb595cc818dbdd5b9d60521b604082015260600190565b6020808252600e908201526d139bdd08185d5d1a1bdc9a5e995960921b604082015260600190565b600060018201611694576116946115eb565b5060010190565b60005b838110156116b657818101518382015260200161169e565b50506000910152565b600081518084526116d781602086016020860161169b565b601f01601f19169290920160200192915050565b600081518084526020808501808196508360051b8101915082860160005b858110156117335782840389526117218483516116bf565b98850198935090840190600101611709565b5091979650505050505050565b600081518084526020808501945080840160005b8381101561177057815187529582019590820190600101611754565b509495945050505050565b600061014080835261178f8184018e6116bf565b905082810360208401526117a3818d6116eb565b90508a60408401528960608401528860808401528760a084015282810360c08401526117cf8188611740565b90508560e08401528281036101008401526117ea81866116eb565b91505060018060a01b0383166101208301529b9a5050505050505050505050565b600061012080835261181f8184018d6116bf565b90508281036020840152611833818c6116eb565b90508960408401528860608401528760808401528660a084015282810360c084015261185f8187611740565b90508460e084015282810361010084015261187a81856116eb565b9c9b505050505050505050505050565b83815263ffffffff60e01b8360e01b166020820152600082516118b481602485016020870161169b565b91909101602401949350505050565b6000602082840312156118d557600080fd5b81516115cb81611424565b87815260e0602082015260006118f960e08301896116bf565b6001600160a01b039790971660408301525063ffffffff948516606082015292909316608083015260a082015260c0015292915050565b60006020828403121561194257600080fd5b5051919050565b6001600160a01b039390931683526020830191909152604082015260600190565b60018060a01b038516815283602082015260806040820152600061199160808301856116bf565b82810360608401526119a381856116bf565b979650505050505050565b6000602082840312156119c057600080fd5b81516115cb8161159956fea26469706673582212200f35e91f9a5b351f6ea4208979dcf81f60ccd35a389a3d125e7b247a048d3d1e64736f6c63430008140033",
  "devdoc": {
    "errors": {
      "ERC1167FailedCreateClone()": [
        {
          "details": "A clone instance deployment failed."
        }
      ]
    },
    "kind": "dev",
    "methods": {
      "constructor": {
        "details": "Constructor.",
        "params": {
          "_arbitrator": "Address of the arbitrator that is going to resolve Realitio disputes.",
          "_collateralToken": "Address of the collateral token.",
          "_conditionalTokens": "Address of the ConditionalTokens implementation.",
          "_governor": "Address of the governor of this contract.",
          "_market": "Address of the market contract that is going to be used for each new deployment.",
          "_realitio": "Address of the Realitio implementation.",
          "_realityProxy": "Address of the RealityProxy implementation.",
          "_wrappedERC20Factory": "Address of the WrappedERC20Factory implementation."
        }
      }
    },
    "version": 1
  },
  "userdoc": {
    "kind": "user",
    "methods": {},
    "version": 1
  },
  "storageLayout": {
    "storage": [
      {
        "astId": 2495,
        "contract": "src/MarketFactory.sol:MarketFactory",
        "label": "governor",
        "offset": 0,
        "slot": "0",
        "type": "t_address"
      },
      {
        "astId": 2498,
        "contract": "src/MarketFactory.sol:MarketFactory",
        "label": "markets",
        "offset": 0,
        "slot": "1",
        "type": "t_array(t_address)dyn_storage"
      },
      {
        "astId": 2500,
        "contract": "src/MarketFactory.sol:MarketFactory",
        "label": "market",
        "offset": 0,
        "slot": "2",
        "type": "t_address"
      }
    ],
    "types": {
      "t_address": {
        "encoding": "inplace",
        "label": "address",
        "numberOfBytes": "20"
      },
      "t_array(t_address)dyn_storage": {
        "base": "t_address",
        "encoding": "dynamic_array",
        "label": "address[]",
        "numberOfBytes": "32"
      }
    }
  }
}