{
  "address": "0x179d8F8c811B8C759c33809dbc6c5ceDc62D05DD",
  "abi": [
    {
      "inputs": [
        {
          "internalType": "contract IConditionalTokens",
          "name": "_conditionalTokens",
          "type": "address"
        },
        {
          "internalType": "contract WrappedERC20Factory",
          "name": "_wrappedERC20Factory",
          "type": "address"
        }
      ],
      "stateMutability": "nonpayable",
      "type": "constructor"
    },
    {
      "inputs": [],
      "name": "conditionalTokens",
      "outputs": [
        {
          "internalType": "contract IConditionalTokens",
          "name": "",
          "type": "address"
        }
      ],
      "stateMutability": "view",
      "type": "function"
    },
    {
      "inputs": [
        {
          "internalType": "contract IERC20",
          "name": "collateralToken",
          "type": "address"
        },
        {
          "internalType": "bytes32",
          "name": "parentCollectionId",
          "type": "bytes32"
        },
        {
          "internalType": "bytes32",
          "name": "conditionId",
          "type": "bytes32"
        },
        {
          "internalType": "uint256",
          "name": "indexSet",
          "type": "uint256"
        }
      ],
      "name": "getTokenAddress",
      "outputs": [
        {
          "internalType": "contract IERC20",
          "name": "",
          "type": "address"
        }
      ],
      "stateMutability": "view",
      "type": "function"
    },
    {
      "inputs": [
        {
          "internalType": "contract IERC20",
          "name": "collateralToken",
          "type": "address"
        },
        {
          "internalType": "bytes32",
          "name": "parentCollectionId",
          "type": "bytes32"
        },
        {
          "internalType": "bytes32",
          "name": "conditionId",
          "type": "bytes32"
        },
        {
          "internalType": "uint256",
          "name": "indexSet",
          "type": "uint256"
        }
      ],
      "name": "getTokenId",
      "outputs": [
        {
          "internalType": "uint256",
          "name": "",
          "type": "uint256"
        }
      ],
      "stateMutability": "view",
      "type": "function"
    },
    {
      "inputs": [
        {
          "internalType": "bytes32",
          "name": "conditionId",
          "type": "bytes32"
        }
      ],
      "name": "getWinningOutcomes",
      "outputs": [
        {
          "internalType": "bool[]",
          "name": "",
          "type": "bool[]"
        }
      ],
      "stateMutability": "view",
      "type": "function"
    },
    {
      "inputs": [
        {
          "internalType": "contract IERC20",
          "name": "collateralToken",
          "type": "address"
        },
        {
          "internalType": "bytes32",
          "name": "parentCollectionId",
          "type": "bytes32"
        },
        {
          "internalType": "bytes32",
          "name": "conditionId",
          "type": "bytes32"
        },
        {
          "internalType": "uint256[]",
          "name": "partition",
          "type": "uint256[]"
        },
        {
          "internalType": "uint256",
          "name": "amount",
          "type": "uint256"
        }
      ],
      "name": "mergePositions",
      "outputs": [],
      "stateMutability": "nonpayable",
      "type": "function"
    },
    {
      "inputs": [
        {
          "internalType": "address",
          "name": "",
          "type": "address"
        },
        {
          "internalType": "address",
          "name": "",
          "type": "address"
        },
        {
          "internalType": "uint256[]",
          "name": "",
          "type": "uint256[]"
        },
        {
          "internalType": "uint256[]",
          "name": "",
          "type": "uint256[]"
        },
        {
          "internalType": "bytes",
          "name": "",
          "type": "bytes"
        }
      ],
      "name": "onERC1155BatchReceived",
      "outputs": [
        {
          "internalType": "bytes4",
          "name": "",
          "type": "bytes4"
        }
      ],
      "stateMutability": "nonpayable",
      "type": "function"
    },
    {
      "inputs": [
        {
          "internalType": "address",
          "name": "",
          "type": "address"
        },
        {
          "internalType": "address",
          "name": "",
          "type": "address"
        },
        {
          "internalType": "uint256",
          "name": "",
          "type": "uint256"
        },
        {
          "internalType": "uint256",
          "name": "",
          "type": "uint256"
        },
        {
          "internalType": "bytes",
          "name": "",
          "type": "bytes"
        }
      ],
      "name": "onERC1155Received",
      "outputs": [
        {
          "internalType": "bytes4",
          "name": "",
          "type": "bytes4"
        }
      ],
      "stateMutability": "nonpayable",
      "type": "function"
    },
    {
      "inputs": [
        {
          "internalType": "contract IERC20",
          "name": "collateralToken",
          "type": "address"
        },
        {
          "internalType": "bytes32",
          "name": "parentCollectionId",
          "type": "bytes32"
        },
        {
          "internalType": "bytes32",
          "name": "conditionId",
          "type": "bytes32"
        },
        {
          "internalType": "uint256[]",
          "name": "indexSets",
          "type": "uint256[]"
        }
      ],
      "name": "redeemPositions",
      "outputs": [],
      "stateMutability": "nonpayable",
      "type": "function"
    },
    {
      "inputs": [
        {
          "internalType": "contract IERC20",
          "name": "collateralToken",
          "type": "address"
        },
        {
          "internalType": "bytes32",
          "name": "parentCollectionId",
          "type": "bytes32"
        },
        {
          "internalType": "bytes32",
          "name": "conditionId",
          "type": "bytes32"
        },
        {
          "internalType": "uint256[]",
          "name": "partition",
          "type": "uint256[]"
        },
        {
          "internalType": "uint256",
          "name": "amount",
          "type": "uint256"
        }
      ],
      "name": "splitPosition",
      "outputs": [],
      "stateMutability": "nonpayable",
      "type": "function"
    },
    {
      "inputs": [
        {
          "internalType": "bytes4",
          "name": "interfaceId",
          "type": "bytes4"
        }
      ],
      "name": "supportsInterface",
      "outputs": [
        {
          "internalType": "bool",
          "name": "",
          "type": "bool"
        }
      ],
      "stateMutability": "view",
      "type": "function"
    },
    {
      "inputs": [],
      "name": "wrappedERC20Factory",
      "outputs": [
        {
          "internalType": "contract WrappedERC20Factory",
          "name": "",
          "type": "address"
        }
      ],
      "stateMutability": "view",
      "type": "function"
    }
  ],
  "transactionHash": "0xa4a3647e5f7093fe9d1b16a7dea369eae3a45327d2cfcb06e564c551cedfd755",
  "args": [
    "0x8bdC504dC3A05310059c1c67E0A2667309D27B93",
    "0xfE8bF5140F00de6F75BAFa3Ca0f4ebf2084A46B2"
  ],
  "numDeployments": 1,
  "solcInputHash": "ad7a410fc80262461c4d7bb7ab77987e",
  "bytecode": "0x60806040523480156200001157600080fd5b506040516200196f3803806200196f83398101604081905262000034916200007f565b600080546001600160a01b039384166001600160a01b03199182161790915560018054929093169116179055620000be565b6001600160a01b03811681146200007c57600080fd5b50565b600080604083850312156200009357600080fd5b8251620000a08162000066565b6020840151909250620000b38162000066565b809150509250929050565b6118a180620000ce6000396000f3fe608060405234801561001057600080fd5b50600436106100a95760003560e01c80636137132511610071578063613713251461014c57806372ce42751461015f5780639e7212ad14610172578063a88453d214610185578063bc197c8114610198578063f23a6e61146101d057600080fd5b806301b7037c146100ae57806301ffc9a7146100c357806302bd74c3146100eb5780631a09424a1461010b5780635bd9e2991461012c575b600080fd5b6100c16100bc36600461119c565b6101ef565b005b6100d66100d1366004611205565b610371565b60405190151581526020015b60405180910390f35b6100fe6100f9366004611236565b6103a8565b6040516100e2919061124f565b61011e610119366004611295565b610525565b6040519081526020016100e2565b60005461013f906001600160a01b031681565b6040516100e291906112d0565b60015461013f906001600160a01b031681565b6100c161016d3660046112e4565b61061f565b6100c16101803660046112e4565b6106a9565b61013f610193366004611295565b610728565b6101b76101a6366004611497565b63bc197c8160e01b95945050505050565b6040516001600160e01b031990911681526020016100e2565b6101b76101de366004611544565b63f23a6e6160e01b95945050505050565b6040516370a0823160e01b81526000906001600160a01b038716906370a082319061021e9030906004016112d0565b6020604051808303816000875af115801561023d573d6000803e3d6000fd5b505050506040513d601f19601f8201168201806040525081019061026191906115ac565b905061027086868686866107b0565b6040516370a0823160e01b81526000906001600160a01b038816906370a082319061029f9030906004016112d0565b6020604051808303816000875af11580156102be573d6000803e3d6000fd5b505050506040513d601f19601f820116820180604052508101906102e291906115ac565b905081811115610368576001600160a01b03871663a9059cbb3361030685856115db565b6040518363ffffffff1660e01b81526004016103239291906115ee565b6020604051808303816000875af1158015610342573d6000803e3d6000fd5b505050506040513d601f19601f820116820180604052508101906103669190611607565b505b50505050505050565b60006001600160e01b03198216630271189760e51b14806103a257506301ffc9a760e01b6001600160e01b03198316145b92915050565b60008054604051636a16e06160e11b815260048101849052606092916001600160a01b03169063d42dc0c290602401602060405180830381865afa1580156103f4573d6000803e3d6000fd5b505050506040513d601f19601f8201168201806040525081019061041891906115ac565b6001600160401b0381111561042f5761042f611355565b604051908082528060200260200182016040528015610458578160200160208202803683370190505b50905060005b815181101561051e57600054604051630141320560e21b815260048101869052602481018390526001600160a01b0390911690630504c81490604401602060405180830381865afa1580156104b7573d6000803e3d6000fd5b505050506040513d601f19601f820116820180604052508101906104db91906115ac565b156104e75760016104ea565b60005b8282815181106104fc576104fc611629565b91151560209283029190910190910152806105168161163f565b91505061045e565b5092915050565b6000805460405163856296f760e01b815260048101869052602481018590526044810184905282916001600160a01b03169063856296f790606401602060405180830381865afa15801561057d573d6000803e3d6000fd5b505050506040513d601f19601f820116820180604052508101906105a191906115ac565b60005460405163039dd75360e41b81529192506001600160a01b0316906339dd7530906105d490899085906004016115ee565b602060405180830381865afa1580156105f1573d6000803e3d6000fd5b505050506040513d601f19601f8201168201806040525081019061061591906115ac565b9695505050505050565b6040516323b872dd60e01b81526001600160a01b038716906323b872dd9061064f90339030908690600401611658565b6020604051808303816000875af115801561066e573d6000803e3d6000fd5b505050506040513d601f19601f820116820180604052508101906106929190611607565b506106a1868686868686610b0f565b505050505050565b6106b7868686868686610e56565b60405163a9059cbb60e01b81526001600160a01b0387169063a9059cbb906106e590339085906004016115ee565b6020604051808303816000875af1158015610704573d6000803e3d6000fd5b505050506040513d601f19601f820116820180604052508101906103689190611607565b6001546000906001600160a01b0316634f64b2be61074887878787610525565b6040518263ffffffff1660e01b815260040161076691815260200190565b602060405180830381865afa158015610783573d6000803e3d6000fd5b505050506040513d601f19601f820116820180604052508101906107a7919061167c565b95945050505050565b6001546040805163150c5b9760e01b815290516000926001600160a01b03169163150c5b979160048083019260209291908290030181865afa1580156107fa573d6000803e3d6000fd5b505050506040513d601f19601f8201168201806040525081019061081e919061167c565b905060005b82811015610a9d57600061085188888888888781811061084557610845611629565b90506020020135610525565b6001546040516327b2595f60e11b8152600481018390529192506000916001600160a01b0390911690634f64b2be90602401602060405180830381865afa1580156108a0573d6000803e3d6000fd5b505050506040513d601f19601f820116820180604052508101906108c4919061167c565b90506000816001600160a01b03166370a08231336040518263ffffffff1660e01b81526004016108f491906112d0565b6020604051808303816000875af1158015610913573d6000803e3d6000fd5b505050506040513d601f19601f8201168201806040525081019061093791906115ac565b6040516323b872dd60e01b81529091506001600160a01b038316906323b872dd9061096a90339030908690600401611658565b6020604051808303816000875af1158015610989573d6000803e3d6000fd5b505050506040513d601f19601f820116820180604052508101906109ad9190611607565b506000546001546040516303c2ea1160e61b8152600481018690526001600160a01b03888116936352aecb24939082169288928792309291169063f0ba844090602401600060405180830381865afa158015610a0d573d6000803e3d6000fd5b505050506040513d6000823e601f3d908101601f19168201604052610a3591908101906116bd565b6040518663ffffffff1660e01b8152600401610a55959493929190611756565b600060405180830381600087803b158015610a6f57600080fd5b505af1158015610a83573d6000803e3d6000fd5b505050505050508080610a959061163f565b915050610823565b50600054604051626dc0df60e21b81526001600160a01b03909116906301b7037c90610ad590899089908990899089906004016117c2565b600060405180830381600087803b158015610aef57600080fd5b505af1158015610b03573d6000803e3d6000fd5b50505050505050505050565b60005460405163095ea7b360e01b81526001600160a01b038881169263095ea7b392610b43929091169085906004016115ee565b6020604051808303816000875af1158015610b62573d6000803e3d6000fd5b505050506040513d601f19601f82011682018060405250810190610b869190611607565b506000546040516372ce427560e01b81526001600160a01b03909116906372ce427590610bc1908990899089908990899089906004016117f0565b600060405180830381600087803b158015610bdb57600080fd5b505af1158015610bef573d6000803e3d6000fd5b5050505060005b82811015610368576000610c1888888888888781811061084557610845611629565b6000546001546040805163150c5b9760e01b815290519394506001600160a01b039283169363f242432a933093169163150c5b979160048083019260209291908290030181865afa158015610c71573d6000803e3d6000fd5b505050506040513d601f19601f82011682018060405250810190610c95919061167c565b6001546040516303c2ea1160e61b815260048101879052869189916001600160a01b039091169063f0ba844090602401600060405180830381865afa158015610ce2573d6000803e3d6000fd5b505050506040513d6000823e601f3d908101601f19168201604052610d0a91908101906116bd565b6040518663ffffffff1660e01b8152600401610d2a959493929190611831565b600060405180830381600087803b158015610d4457600080fd5b505af1158015610d58573d6000803e3d6000fd5b50506001546040516327b2595f60e11b815260048101859052600093506001600160a01b039091169150634f64b2be90602401602060405180830381865afa158015610da8573d6000803e3d6000fd5b505050506040513d601f19601f82011682018060405250810190610dcc919061167c565b60405163a9059cbb60e01b81529091506001600160a01b0382169063a9059cbb90610dfd90339088906004016115ee565b6020604051808303816000875af1158015610e1c573d6000803e3d6000fd5b505050506040513d601f19601f82011682018060405250810190610e409190611607565b5050508080610e4e9061163f565b915050610bf6565b6001546040805163150c5b9760e01b815290516000926001600160a01b03169163150c5b979160048083019260209291908290030181865afa158015610ea0573d6000803e3d6000fd5b505050506040513d601f19601f82011682018060405250810190610ec4919061167c565b905060005b838110156110c3576000610eeb89898989898781811061084557610845611629565b6001546040516327b2595f60e11b8152600481018390529192506000916001600160a01b0390911690634f64b2be90602401602060405180830381865afa158015610f3a573d6000803e3d6000fd5b505050506040513d601f19601f82011682018060405250810190610f5e919061167c565b6040516323b872dd60e01b81529091506001600160a01b038216906323b872dd90610f9190339030908a90600401611658565b6020604051808303816000875af1158015610fb0573d6000803e3d6000fd5b505050506040513d601f19601f82011682018060405250810190610fd49190611607565b506000546001546040516303c2ea1160e61b8152600481018590526001600160a01b03878116936352aecb24939082169287928b92309291169063f0ba844090602401600060405180830381865afa158015611034573d6000803e3d6000fd5b505050506040513d6000823e601f3d908101601f1916820160405261105c91908101906116bd565b6040518663ffffffff1660e01b815260040161107c959493929190611756565b600060405180830381600087803b15801561109657600080fd5b505af11580156110aa573d6000803e3d6000fd5b50505050505080806110bb9061163f565b915050610ec9565b50600054604051639e7212ad60e01b81526001600160a01b0390911690639e7212ad906110fe908a908a908a908a908a908a906004016117f0565b600060405180830381600087803b15801561111857600080fd5b505af115801561112c573d6000803e3d6000fd5b5050505050505050505050565b6001600160a01b038116811461114e57600080fd5b50565b60008083601f84011261116357600080fd5b5081356001600160401b0381111561117a57600080fd5b6020830191508360208260051b850101111561119557600080fd5b9250929050565b6000806000806000608086880312156111b457600080fd5b85356111bf81611139565b9450602086013593506040860135925060608601356001600160401b038111156111e857600080fd5b6111f488828901611151565b969995985093965092949392505050565b60006020828403121561121757600080fd5b81356001600160e01b03198116811461122f57600080fd5b9392505050565b60006020828403121561124857600080fd5b5035919050565b6020808252825182820181905260009190848201906040850190845b8181101561128957835115158352928401929184019160010161126b565b50909695505050505050565b600080600080608085870312156112ab57600080fd5b84356112b681611139565b966020860135965060408601359560600135945092505050565b6001600160a01b0391909116815260200190565b60008060008060008060a087890312156112fd57600080fd5b863561130881611139565b9550602087013594506040870135935060608701356001600160401b0381111561133157600080fd5b61133d89828a01611151565b979a9699509497949695608090950135949350505050565b634e487b7160e01b600052604160045260246000fd5b604051601f8201601f191681016001600160401b038111828210171561139357611393611355565b604052919050565b600082601f8301126113ac57600080fd5b813560206001600160401b038211156113c7576113c7611355565b8160051b6113d682820161136b565b92835284810182019282810190878511156113f057600080fd5b83870192505b8483101561140f578235825291830191908301906113f6565b979650505050505050565b60006001600160401b0382111561143357611433611355565b50601f01601f191660200190565b600082601f83011261145257600080fd5b81356114656114608261141a565b61136b565b81815284602083860101111561147a57600080fd5b816020850160208301376000918101602001919091529392505050565b600080600080600060a086880312156114af57600080fd5b85356114ba81611139565b945060208601356114ca81611139565b935060408601356001600160401b03808211156114e657600080fd5b6114f289838a0161139b565b9450606088013591508082111561150857600080fd5b61151489838a0161139b565b9350608088013591508082111561152a57600080fd5b5061153788828901611441565b9150509295509295909350565b600080600080600060a0868803121561155c57600080fd5b853561156781611139565b9450602086013561157781611139565b9350604086013592506060860135915060808601356001600160401b038111156115a057600080fd5b61153788828901611441565b6000602082840312156115be57600080fd5b5051919050565b634e487b7160e01b600052601160045260246000fd5b818103818111156103a2576103a26115c5565b6001600160a01b03929092168252602082015260400190565b60006020828403121561161957600080fd5b8151801515811461122f57600080fd5b634e487b7160e01b600052603260045260246000fd5b600060018201611651576116516115c5565b5060010190565b6001600160a01b039384168152919092166020820152604081019190915260600190565b60006020828403121561168e57600080fd5b815161122f81611139565b60005b838110156116b457818101518382015260200161169c565b50506000910152565b6000602082840312156116cf57600080fd5b81516001600160401b038111156116e557600080fd5b8201601f810184136116f657600080fd5b80516117046114608261141a565b81815285602083850101111561171957600080fd5b6107a7826020830160208601611699565b60008151808452611742816020860160208601611699565b601f01601f19169290920160200192915050565b6001600160a01b03868116825260208201869052604082018590528316606082015260a06080820181905260009061140f9083018461172a565b81835260006001600160fb1b038311156117a957600080fd5b8260051b80836020870137939093016020019392505050565b60018060a01b038616815284602082015283604082015260806060820152600061140f608083018486611790565b60018060a01b038716815285602082015284604082015260a06060820152600061181e60a083018587611790565b9050826080830152979650505050505050565b6001600160a01b03868116825285166020820152604081018490526060810183905260a06080820181905260009061140f9083018461172a56fea26469706673582212202c0070485a7ce14e36ec4a24b49f3101ba294563dc50ea5918aa92463d2f15a964736f6c63430008140033",
  "devdoc": {
    "kind": "dev",
    "methods": {
      "supportsInterface(bytes4)": {
        "details": "See {IERC165-supportsInterface}."
      }
    },
    "version": 1
  },
  "userdoc": {
    "kind": "user",
    "methods": {},
    "version": 1
  },
  "storageLayout": {
    "storage": [
      {
        "astId": 4095,
        "contract": "src/Router.sol:Router",
        "label": "conditionalTokens",
        "offset": 0,
        "slot": "0",
        "type": "t_contract(IConditionalTokens)2046"
      },
      {
        "astId": 4098,
        "contract": "src/Router.sol:Router",
        "label": "wrappedERC20Factory",
        "offset": 0,
        "slot": "1",
        "type": "t_contract(WrappedERC20Factory)4806"
      }
    ],
    "types": {
      "t_contract(IConditionalTokens)2046": {
        "encoding": "inplace",
        "label": "contract IConditionalTokens",
        "numberOfBytes": "20"
      },
      "t_contract(WrappedERC20Factory)4806": {
        "encoding": "inplace",
        "label": "contract WrappedERC20Factory",
        "numberOfBytes": "20"
      }
    }
  }
}