{
  "address": "0x774284d5cDFeC3A0a0eBc7283aD4d5b33013c29c",
  "abi": [
    {
      "inputs": [
        {
          "internalType": "contract IConditionalTokens",
          "name": "_conditionalTokens",
          "type": "address"
        },
        {
          "internalType": "contract IWrapped1155Factory",
          "name": "_wrapped1155Factory",
          "type": "address"
        }
      ],
      "stateMutability": "nonpayable",
      "type": "constructor"
    },
    {
      "inputs": [],
      "name": "conditionalTokens",
      "outputs": [
        {
          "internalType": "contract IConditionalTokens",
          "name": "",
          "type": "address"
        }
      ],
      "stateMutability": "view",
      "type": "function"
    },
    {
      "inputs": [
        {
          "internalType": "contract IERC20",
          "name": "collateralToken",
          "type": "address"
        },
        {
          "internalType": "bytes32",
          "name": "parentCollectionId",
          "type": "bytes32"
        },
        {
          "internalType": "bytes32",
          "name": "conditionId",
          "type": "bytes32"
        },
        {
          "internalType": "uint256",
          "name": "indexSet",
          "type": "uint256"
        }
      ],
      "name": "getTokenId",
      "outputs": [
        {
          "internalType": "uint256",
          "name": "",
          "type": "uint256"
        }
      ],
      "stateMutability": "view",
      "type": "function"
    },
    {
      "inputs": [
        {
          "internalType": "bytes32",
          "name": "conditionId",
          "type": "bytes32"
        }
      ],
      "name": "getWinningOutcomes",
      "outputs": [
        {
          "internalType": "bool[]",
          "name": "",
          "type": "bool[]"
        }
      ],
      "stateMutability": "view",
      "type": "function"
    },
    {
      "inputs": [
        {
          "internalType": "contract IERC20",
          "name": "collateralToken",
          "type": "address"
        },
        {
          "internalType": "contract Market",
          "name": "market",
          "type": "address"
        },
        {
          "internalType": "uint256",
          "name": "amount",
          "type": "uint256"
        }
      ],
      "name": "mergePositions",
      "outputs": [],
      "stateMutability": "nonpayable",
      "type": "function"
    },
    {
      "inputs": [
        {
          "internalType": "address",
          "name": "",
          "type": "address"
        },
        {
          "internalType": "address",
          "name": "",
          "type": "address"
        },
        {
          "internalType": "uint256[]",
          "name": "",
          "type": "uint256[]"
        },
        {
          "internalType": "uint256[]",
          "name": "",
          "type": "uint256[]"
        },
        {
          "internalType": "bytes",
          "name": "",
          "type": "bytes"
        }
      ],
      "name": "onERC1155BatchReceived",
      "outputs": [
        {
          "internalType": "bytes4",
          "name": "",
          "type": "bytes4"
        }
      ],
      "stateMutability": "nonpayable",
      "type": "function"
    },
    {
      "inputs": [
        {
          "internalType": "address",
          "name": "",
          "type": "address"
        },
        {
          "internalType": "address",
          "name": "",
          "type": "address"
        },
        {
          "internalType": "uint256",
          "name": "",
          "type": "uint256"
        },
        {
          "internalType": "uint256",
          "name": "",
          "type": "uint256"
        },
        {
          "internalType": "bytes",
          "name": "",
          "type": "bytes"
        }
      ],
      "name": "onERC1155Received",
      "outputs": [
        {
          "internalType": "bytes4",
          "name": "",
          "type": "bytes4"
        }
      ],
      "stateMutability": "nonpayable",
      "type": "function"
    },
    {
      "inputs": [
        {
          "internalType": "contract IERC20",
          "name": "collateralToken",
          "type": "address"
        },
        {
          "internalType": "contract Market",
          "name": "market",
          "type": "address"
        },
        {
          "internalType": "uint256[]",
          "name": "outcomeIndexes",
          "type": "uint256[]"
        },
        {
          "internalType": "uint256[]",
          "name": "parentOutcomeIndexes",
          "type": "uint256[]"
        },
        {
          "internalType": "uint256[]",
          "name": "amounts",
          "type": "uint256[]"
        }
      ],
      "name": "redeemConditionalToCollateral",
      "outputs": [],
      "stateMutability": "nonpayable",
      "type": "function"
    },
    {
      "inputs": [
        {
          "internalType": "contract IERC20",
          "name": "collateralToken",
          "type": "address"
        },
        {
          "internalType": "contract Market",
          "name": "market",
          "type": "address"
        },
        {
          "internalType": "uint256[]",
          "name": "outcomeIndexes",
          "type": "uint256[]"
        },
        {
          "internalType": "uint256[]",
          "name": "amounts",
          "type": "uint256[]"
        }
      ],
      "name": "redeemPositions",
      "outputs": [],
      "stateMutability": "nonpayable",
      "type": "function"
    },
    {
      "inputs": [
        {
          "internalType": "contract IERC20",
          "name": "collateralToken",
          "type": "address"
        },
        {
          "internalType": "contract Market",
          "name": "market",
          "type": "address"
        },
        {
          "internalType": "uint256",
          "name": "amount",
          "type": "uint256"
        }
      ],
      "name": "splitPosition",
      "outputs": [],
      "stateMutability": "nonpayable",
      "type": "function"
    },
    {
      "inputs": [
        {
          "internalType": "bytes4",
          "name": "interfaceId",
          "type": "bytes4"
        }
      ],
      "name": "supportsInterface",
      "outputs": [
        {
          "internalType": "bool",
          "name": "",
          "type": "bool"
        }
      ],
      "stateMutability": "view",
      "type": "function"
    },
    {
      "inputs": [],
      "name": "wrapped1155Factory",
      "outputs": [
        {
          "internalType": "contract IWrapped1155Factory",
          "name": "",
          "type": "address"
        }
      ],
      "stateMutability": "view",
      "type": "function"
    }
  ],
  "transactionHash": "0x1d7ac2f7ca971675baadc9ccc04ffad170dc98061cac87d6643052d40d05123e",
  "args": [
    "0xCeAfDD6bc0bEF976fdCd1112955828E00543c0Ce",
    "0xD194319D1804C1051DD21Ba1Dc931cA72410B79f"
  ],
  "numDeployments": 1,
  "solcInputHash": "f4f491af58329151c8cc00c9097d256d",
  "bytecode": "0x60c06040523480156200001157600080fd5b50604051620032d5380380620032d5833981016040819052620000349162000065565b6001600160a01b039182166080521660a052620000a4565b6001600160a01b03811681146200006257600080fd5b50565b600080604083850312156200007957600080fd5b825162000086816200004c565b602084015190925062000099816200004c565b809150509250929050565b60805160a05161311e620001b76000396000818160fb01528181610d8e0152818161100a015281816113920152818161175301528181611b490152818161213901526123d2015260008181610150015281816102720152818161034901528181610437015281816104bc01528181610bbf01528181610dbb01528181610e4b01528181610edc01528181610fdb015281816113c10152818161148301528181611514015281816115a4015281816116320152818161172b01528181611b7801528181611c2501528181611ccb01528181611d4701528181611dea01528181611f590152818161201e01528181612166015281816121f40152818161227a015281816123a30152612801015261311e6000f3fe608060405234801561001057600080fd5b50600436106100a95760003560e01c80637abef8d1116100715780637abef8d114610172578063865955a014610187578063bc197c811461019a578063c3eba97a146101d2578063d5f82280146101e5578063f23a6e61146101f857600080fd5b806301ffc9a7146100ae57806302bd74c3146100d6578063150c5b97146100f65780631a09424a1461012a5780635bd9e2991461014b575b600080fd5b6100c16100bc36600461286a565b610217565b60405190151581526020015b60405180910390f35b6100e96100e436600461289b565b61024e565b6040516100cd91906128b4565b61011d7f000000000000000000000000000000000000000000000000000000000000000081565b6040516100cd91906128fa565b61013d610138366004612926565b610406565b6040519081526020016100cd565b61011d7f000000000000000000000000000000000000000000000000000000000000000081565b610185610180366004612961565b61053e565b005b6101856101953660046129ed565b61064f565b6101b96101a8366004612bc3565b63bc197c8160e01b95945050505050565b6040516001600160e01b031990911681526020016100cd565b6101856101e0366004612c70565b61085f565b6101856101f3366004612961565b610a01565b6101b9610206366004612d2e565b63f23a6e6160e01b95945050505050565b60006001600160e01b03198216630271189760e51b148061024857506301ffc9a760e01b6001600160e01b03198316145b92915050565b604051636a16e06160e11b8152600481018290526060906000906001600160a01b037f0000000000000000000000000000000000000000000000000000000000000000169063d42dc0c290602401602060405180830381865afa1580156102b9573d6000803e3d6000fd5b505050506040513d601f19601f820116820180604052508101906102dd9190612d96565b6001600160401b038111156102f4576102f4612a81565b60405190808252806020026020018201604052801561031d578160200160208202803683370190505b50905060005b81518110156103ff57604051630141320560e21b815260048101859052602481018290527f00000000000000000000000000000000000000000000000000000000000000006001600160a01b031690630504c81490604401602060405180830381865afa158015610398573d6000803e3d6000fd5b505050506040513d601f19601f820116820180604052508101906103bc9190612d96565b156103c85760016103cb565b60005b8282815181106103dd576103dd612daf565b91151560209283029190910190910152806103f781612ddb565b915050610323565b5092915050565b60405163856296f760e01b815260048101849052602481018390526044810182905260009081906001600160a01b037f0000000000000000000000000000000000000000000000000000000000000000169063856296f790606401602060405180830381865afa15801561047e573d6000803e3d6000fd5b505050506040513d601f19601f820116820180604052508101906104a29190612d96565b60405163039dd75360e41b81529091506001600160a01b037f000000000000000000000000000000000000000000000000000000000000000016906339dd7530906104f39089908590600401612df4565b602060405180830381865afa158015610510573d6000803e3d6000fd5b505050506040513d601f19601f820116820180604052508101906105349190612d96565b9695505050505050565b610549838383610aec565b6000801b826001600160a01b03166344bea37e6040518163ffffffff1660e01b8152600401602060405180830381865afa15801561058b573d6000803e3d6000fd5b505050506040513d601f19601f820116820180604052508101906105af9190612d96565b0361064a5760405163a9059cbb60e01b81526001600160a01b0384169063a9059cbb906105e29033908590600401612df4565b6020604051808303816000875af1158015610601573d6000803e3d6000fd5b505050506040513d601f19601f820116820180604052508101906106259190612e0d565b61064a5760405162461bcd60e51b815260040161064190612e2f565b60405180910390fd5b505050565b6000856001600160a01b03166344bea37e6040518163ffffffff1660e01b8152600401602060405180830381865afa15801561068f573d6000803e3d6000fd5b505050506040513d601f19601f820116820180604052508101906106b39190612d96565b905060008161072e576040516370a0823160e01b81526001600160a01b038916906370a08231906106e89030906004016128fa565b6020604051808303816000875af1158015610707573d6000803e3d6000fd5b505050506040513d601f19601f8201168201806040525081019061072b9190612d96565b90505b61073c8888888888886110ff565b81610855576040516370a0823160e01b81526000906001600160a01b038a16906370a08231906107709030906004016128fa565b6020604051808303816000875af115801561078f573d6000803e3d6000fd5b505050506040513d601f19601f820116820180604052508101906107b39190612d96565b905081811115610853576001600160a01b03891663a9059cbb336107d78585612e66565b6040518363ffffffff1660e01b81526004016107f4929190612df4565b6020604051808303816000875af1158015610813573d6000803e3d6000fd5b505050506040513d601f19601f820116820180604052508101906108379190612e0d565b6108535760405162461bcd60e51b815260040161064190612e2f565b505b5050505050505050565b6040516370a0823160e01b81526000906001600160a01b038a16906370a082319061088e9030906004016128fa565b6020604051808303816000875af11580156108ad573d6000803e3d6000fd5b505050506040513d601f19601f820116820180604052508101906108d19190612d96565b90506108e389898989898989896118b6565b6040516370a0823160e01b81526000906001600160a01b038b16906370a08231906109129030906004016128fa565b6020604051808303816000875af1158015610931573d6000803e3d6000fd5b505050506040513d601f19601f820116820180604052508101906109559190612d96565b9050818111156109f5576001600160a01b038a1663a9059cbb336109798585612e66565b6040518363ffffffff1660e01b8152600401610996929190612df4565b6020604051808303816000875af11580156109b5573d6000803e3d6000fd5b505050506040513d601f19601f820116820180604052508101906109d99190612e0d565b6109f55760405162461bcd60e51b815260040161064190612e2f565b50505050505050505050565b6000801b826001600160a01b03166344bea37e6040518163ffffffff1660e01b8152600401602060405180830381865afa158015610a43573d6000803e3d6000fd5b505050506040513d601f19601f82011682018060405250810190610a679190612d96565b03610ae1576040516323b872dd60e01b81526001600160a01b038416906323b872dd90610a9c90339030908690600401612e79565b6020604051808303816000875af1158015610abb573d6000803e3d6000fd5b505050506040513d601f19601f82011682018060405250810190610adf9190612e0d565b505b61064a838383611e86565b6000826001600160a01b03166344bea37e6040518163ffffffff1660e01b8152600401602060405180830381865afa158015610b2c573d6000803e3d6000fd5b505050506040513d601f19601f82011682018060405250810190610b509190612d96565b90506000836001600160a01b0316632ddc7de76040518163ffffffff1660e01b8152600401602060405180830381865afa158015610b92573d6000803e3d6000fd5b505050506040513d601f19601f82011682018060405250810190610bb69190612d96565b90506000610c517f00000000000000000000000000000000000000000000000000000000000000006001600160a01b031663d42dc0c2846040518263ffffffff1660e01b8152600401610c0b91815260200190565b602060405180830381865afa158015610c28573d6000803e3d6000fd5b505050506040513d601f19601f82011682018060405250810190610c4c9190612d96565b6124de565b905060005b8151811015610e33576000610c86888686868681518110610c7957610c79612daf565b6020026020010151610406565b9050600080886001600160a01b03166318a988a8856040518263ffffffff1660e01b8152600401610cb991815260200190565b600060405180830381865afa158015610cd6573d6000803e3d6000fd5b505050506040513d6000823e601f3d908101601f19168201604052610cfe9190810190612ec1565b6040516323b872dd60e01b815291935091506001600160a01b038316906323b872dd90610d3390339030908d90600401612e79565b6020604051808303816000875af1158015610d52573d6000803e3d6000fd5b505050506040513d601f19601f82011682018060405250810190610d769190612e0d565b506040516314abb2c960e21b81526001600160a01b037f000000000000000000000000000000000000000000000000000000000000000016906352aecb2490610deb907f00000000000000000000000000000000000000000000000000000000000000009087908d9030908890600401612f79565b600060405180830381600087803b158015610e0557600080fd5b505af1158015610e19573d6000803e3d6000fd5b505050505050508080610e2b90612ddb565b915050610c56565b50604051639e7212ad60e01b81526001600160a01b037f00000000000000000000000000000000000000000000000000000000000000001690639e7212ad90610e889089908790879087908b90600401612fee565b600060405180830381600087803b158015610ea257600080fd5b505af1158015610eb6573d6000803e3d6000fd5b5050841591506110f790505760405163039dd75360e41b81526000906001600160a01b037f000000000000000000000000000000000000000000000000000000000000000016906339dd753090610f13908a908890600401612df4565b602060405180830381865afa158015610f30573d6000803e3d6000fd5b505050506040513d601f19601f82011682018060405250810190610f549190612d96565b9050600080876001600160a01b0316636fc4eddd6040518163ffffffff1660e01b8152600401600060405180830381865afa158015610f97573d6000803e3d6000fd5b505050506040513d6000823e601f3d908101601f19168201604052610fbf9190810190612ec1565b604051637921219560e11b815291935091506001600160a01b037f0000000000000000000000000000000000000000000000000000000000000000169063f242432a906110389030907f00000000000000000000000000000000000000000000000000000000000000009088908d90889060040161302d565b600060405180830381600087803b15801561105257600080fd5b505af1158015611066573d6000803e3d6000fd5b505060405163a9059cbb60e01b81526001600160a01b038516925063a9059cbb91506110989033908b90600401612df4565b6020604051808303816000875af11580156110b7573d6000803e3d6000fd5b505050506040513d601f19601f820116820180604052508101906110db9190612e0d565b6108535760405162461bcd60e51b815260040161064190613067565b505050505050565b6000856001600160a01b03166344bea37e6040518163ffffffff1660e01b8152600401602060405180830381865afa15801561113f573d6000803e3d6000fd5b505050506040513d601f19601f820116820180604052508101906111639190612d96565b90506000866001600160a01b0316632ddc7de76040518163ffffffff1660e01b8152600401602060405180830381865afa1580156111a5573d6000803e3d6000fd5b505050506040513d601f19601f820116820180604052508101906111c99190612d96565b9050600080866001600160401b038111156111e6576111e6612a81565b60405190808252806020026020018201604052801561120f578160200160208202803683370190505b50905060005b878110156114635788888281811061122f5761122f612daf565b905060200201356001901b82828151811061124c5761124c612daf565b6020026020010181815250506112708b8686858581518110610c7957610c79612daf565b92506000808b6001600160a01b03166318a988a88c8c8681811061129657611296612daf565b905060200201356040518263ffffffff1660e01b81526004016112bb91815260200190565b600060405180830381865afa1580156112d8573d6000803e3d6000fd5b505050506040513d6000823e601f3d908101601f191682016040526113009190810190612ec1565b91509150816001600160a01b03166323b872dd33308c8c8881811061132757611327612daf565b905060200201356040518463ffffffff1660e01b815260040161134c93929190612e79565b6020604051808303816000875af115801561136b573d6000803e3d6000fd5b505050506040513d601f19601f8201168201806040525081019061138f9190612e0d565b507f00000000000000000000000000000000000000000000000000000000000000006001600160a01b03166352aecb247f0000000000000000000000000000000000000000000000000000000000000000878c8c888181106113f3576113f3612daf565b9050602002013530866040518663ffffffff1660e01b815260040161141c959493929190612f79565b600060405180830381600087803b15801561143657600080fd5b505af115801561144a573d6000803e3d6000fd5b505050505050808061145b90612ddb565b915050611215565b506000841561158e5760405163039dd75360e41b81526001600160a01b037f000000000000000000000000000000000000000000000000000000000000000016906339dd7530906114ba908e908990600401612df4565b602060405180830381865afa1580156114d7573d6000803e3d6000fd5b505050506040513d601f19601f820116820180604052508101906114fb9190612d96565b604051627eeac760e11b81529093506001600160a01b037f0000000000000000000000000000000000000000000000000000000000000000169062fdd58e9061154a9030908790600401612df4565b602060405180830381865afa158015611567573d6000803e3d6000fd5b505050506040513d601f19601f8201168201806040525081019061158b9190612d96565b90505b604051626dc0df60e21b81526001600160a01b037f000000000000000000000000000000000000000000000000000000000000000016906301b7037c906115df908e9089908990889060040161309e565b600060405180830381600087803b1580156115f957600080fd5b505af115801561160d573d6000803e3d6000fd5b5050861591506118a9905057604051627eeac760e11b81526000906001600160a01b037f0000000000000000000000000000000000000000000000000000000000000000169062fdd58e906116689030908890600401612df4565b602060405180830381865afa158015611685573d6000803e3d6000fd5b505050506040513d601f19601f820116820180604052508101906116a99190612d96565b9050818111156118a7576000808c6001600160a01b0316636fc4eddd6040518163ffffffff1660e01b8152600401600060405180830381865afa1580156116f4573d6000803e3d6000fd5b505050506040513d6000823e601f3d908101601f1916820160405261171c9190810190612ec1565b90925090506001600160a01b037f00000000000000000000000000000000000000000000000000000000000000001663f242432a307f00000000000000000000000000000000000000000000000000000000000000008961177d8989612e66565b866040518663ffffffff1660e01b815260040161179e95949392919061302d565b600060405180830381600087803b1580156117b857600080fd5b505af11580156117cc573d6000803e3d6000fd5b50505050816001600160a01b031663a9059cbb3386866117ec9190612e66565b6040518363ffffffff1660e01b8152600401611809929190612df4565b6020604051808303816000875af1158015611828573d6000803e3d6000fd5b505050506040513d601f19601f8201168201806040525081019061184c9190612e0d565b6118a45760405162461bcd60e51b8152602060048201526024808201527f506172656e74207772617070656420746f6b656e207472616e736665722066616044820152631a5b195960e21b6064820152608401610641565b50505b505b5050505050505050505050565b6000876001600160a01b03166344bea37e6040518163ffffffff1660e01b8152600401602060405180830381865afa1580156118f6573d6000803e3d6000fd5b505050506040513d601f19601f8201168201806040525081019061191a9190612d96565b90506000886001600160a01b0316632ddc7de76040518163ffffffff1660e01b8152600401602060405180830381865afa15801561195c573d6000803e3d6000fd5b505050506040513d601f19601f820116820180604052508101906119809190612d96565b9050600080886001600160401b0381111561199d5761199d612a81565b6040519080825280602002602001820160405280156119c6578160200160208202803683370190505b50905060005b89811015611c1a578a8a828181106119e6576119e6612daf565b905060200201356001901b828281518110611a0357611a03612daf565b602002602001018181525050611a278d8686858581518110610c7957610c79612daf565b92506000808d6001600160a01b03166318a988a88e8e86818110611a4d57611a4d612daf565b905060200201356040518263ffffffff1660e01b8152600401611a7291815260200190565b600060405180830381865afa158015611a8f573d6000803e3d6000fd5b505050506040513d6000823e601f3d908101601f19168201604052611ab79190810190612ec1565b91509150816001600160a01b03166323b872dd33308c8c88818110611ade57611ade612daf565b905060200201356040518463ffffffff1660e01b8152600401611b0393929190612e79565b6020604051808303816000875af1158015611b22573d6000803e3d6000fd5b505050506040513d601f19601f82011682018060405250810190611b469190612e0d565b507f00000000000000000000000000000000000000000000000000000000000000006001600160a01b03166352aecb247f0000000000000000000000000000000000000000000000000000000000000000878c8c88818110611baa57611baa612daf565b9050602002013530866040518663ffffffff1660e01b8152600401611bd3959493929190612f79565b600060405180830381600087803b158015611bed57600080fd5b505af1158015611c01573d6000803e3d6000fd5b5050505050508080611c1290612ddb565b9150506119cc565b5060008415611d45577f00000000000000000000000000000000000000000000000000000000000000006001600160a01b03166339dd75308e876040518363ffffffff1660e01b8152600401611c71929190612df4565b602060405180830381865afa158015611c8e573d6000803e3d6000fd5b505050506040513d601f19601f82011682018060405250810190611cb29190612d96565b604051627eeac760e11b81529093506001600160a01b037f0000000000000000000000000000000000000000000000000000000000000000169062fdd58e90611d019030908790600401612df4565b602060405180830381865afa158015611d1e573d6000803e3d6000fd5b505050506040513d601f19601f82011682018060405250810190611d429190612d96565b90505b7f00000000000000000000000000000000000000000000000000000000000000006001600160a01b03166301b7037c8e8787866040518563ffffffff1660e01b8152600401611d97949392919061309e565b600060405180830381600087803b158015611db157600080fd5b505af1158015611dc5573d6000803e3d6000fd5b505086159150611e77905057604051627eeac760e11b81526000906001600160a01b037f0000000000000000000000000000000000000000000000000000000000000000169062fdd58e90611e209030908890600401612df4565b602060405180830381865afa158015611e3d573d6000803e3d6000fd5b505050506040513d601f19601f82011682018060405250810190611e619190612d96565b9050818111156118a4576118a48e8e8c8c612565565b50505050505050505050505050565b6000826001600160a01b03166344bea37e6040518163ffffffff1660e01b8152600401602060405180830381865afa158015611ec6573d6000803e3d6000fd5b505050506040513d601f19601f82011682018060405250810190611eea9190612d96565b90506000836001600160a01b0316632ddc7de76040518163ffffffff1660e01b8152600401602060405180830381865afa158015611f2c573d6000803e3d6000fd5b505050506040513d601f19601f82011682018060405250810190611f509190612d96565b90506000611fa57f00000000000000000000000000000000000000000000000000000000000000006001600160a01b031663d42dc0c2846040518263ffffffff1660e01b8152600401610c0b91815260200190565b905082156121d057600080866001600160a01b0316636fc4eddd6040518163ffffffff1660e01b8152600401600060405180830381865afa158015611fee573d6000803e3d6000fd5b505050506040513d6000823e601f3d908101601f191682016040526120169190810190612ec1565b9150915060007f00000000000000000000000000000000000000000000000000000000000000006001600160a01b03166339dd75308a886040518363ffffffff1660e01b815260040161206a929190612df4565b602060405180830381865afa158015612087573d6000803e3d6000fd5b505050506040513d601f19601f820116820180604052508101906120ab9190612d96565b6040516323b872dd60e01b81529091506001600160a01b038416906323b872dd906120de90339030908c90600401612e79565b6020604051808303816000875af11580156120fd573d6000803e3d6000fd5b505050506040513d601f19601f820116820180604052508101906121219190612e0d565b506040516314abb2c960e21b81526001600160a01b037f000000000000000000000000000000000000000000000000000000000000000016906352aecb2490612196907f00000000000000000000000000000000000000000000000000000000000000009085908c9030908990600401612f79565b600060405180830381600087803b1580156121b057600080fd5b505af11580156121c4573d6000803e3d6000fd5b50505050505050612263565b60405163095ea7b360e01b81526001600160a01b0387169063095ea7b39061221e907f0000000000000000000000000000000000000000000000000000000000000000908890600401612df4565b6020604051808303816000875af115801561223d573d6000803e3d6000fd5b505050506040513d601f19601f820116820180604052508101906122619190612e0d565b505b6040516372ce427560e01b81526001600160a01b037f000000000000000000000000000000000000000000000000000000000000000016906372ce4275906122b79089908790879087908b90600401612fee565b600060405180830381600087803b1580156122d157600080fd5b505af11580156122e5573d6000803e3d6000fd5b5050505060005b81518110156124d557600061230f888686868681518110610c7957610c79612daf565b9050600080886001600160a01b03166318a988a8856040518263ffffffff1660e01b815260040161234291815260200190565b600060405180830381865afa15801561235f573d6000803e3d6000fd5b505050506040513d6000823e601f3d908101601f191682016040526123879190810190612ec1565b604051637921219560e11b815291935091506001600160a01b037f0000000000000000000000000000000000000000000000000000000000000000169063f242432a906124009030907f00000000000000000000000000000000000000000000000000000000000000009088908e90889060040161302d565b600060405180830381600087803b15801561241a57600080fd5b505af115801561242e573d6000803e3d6000fd5b505060405163a9059cbb60e01b81526001600160a01b038516925063a9059cbb91506124609033908c90600401612df4565b6020604051808303816000875af115801561247f573d6000803e3d6000fd5b505050506040513d601f19601f820116820180604052508101906124a39190612e0d565b6124bf5760405162461bcd60e51b815260040161064190613067565b50505080806124cd90612ddb565b9150506122ec565b50505050505050565b60606000826001600160401b038111156124fa576124fa612a81565b604051908082528060200260200182016040528015612523578160200160208202803683370190505b50905060005b838110156103ff57806001901b82828151811061254857612548612daf565b60209081029190910101528061255d81612ddb565b915050612529565b6000836001600160a01b031663d03ecc646040518163ffffffff1660e01b8152600401602060405180830381865afa1580156125a5573d6000803e3d6000fd5b505050506040513d601f19601f820116820180604052508101906125c991906130cb565b6001600160a01b03166344bea37e6040518163ffffffff1660e01b8152600401602060405180830381865afa158015612606573d6000803e3d6000fd5b505050506040513d601f19601f8201168201806040525081019061262a9190612d96565b905080156126865760405162461bcd60e51b815260206004820152602360248201527f506172656e74206d61726b65742063616e6e6f7420626520636f6e646974696f6044820152621b985b60ea1b6064820152608401610641565b6000846001600160a01b031663d03ecc646040518163ffffffff1660e01b8152600401602060405180830381865afa1580156126c6573d6000803e3d6000fd5b505050506040513d601f19601f820116820180604052508101906126ea91906130cb565b6001600160a01b0316632ddc7de76040518163ffffffff1660e01b8152600401602060405180830381865afa158015612727573d6000803e3d6000fd5b505050506040513d601f19601f8201168201806040525081019061274b9190612d96565b90506000836001600160401b0381111561276757612767612a81565b604051908082528060200260200182016040528015612790578160200160208202803683370190505b50905060005b848110156127ea578585828181106127b0576127b0612daf565b905060200201356001901b8282815181106127cd576127cd612daf565b6020908102919091010152806127e281612ddb565b915050612796565b50604051626dc0df60e21b81526001600160a01b037f000000000000000000000000000000000000000000000000000000000000000016906301b7037c9061283c908a9087908790879060040161309e565b600060405180830381600087803b15801561285657600080fd5b505af11580156118a9573d6000803e3d6000fd5b60006020828403121561287c57600080fd5b81356001600160e01b03198116811461289457600080fd5b9392505050565b6000602082840312156128ad57600080fd5b5035919050565b6020808252825182820181905260009190848201906040850190845b818110156128ee5783511515835292840192918401916001016128d0565b50909695505050505050565b6001600160a01b0391909116815260200190565b6001600160a01b038116811461292357600080fd5b50565b6000806000806080858703121561293c57600080fd5b84356129478161290e565b966020860135965060408601359560600135945092505050565b60008060006060848603121561297657600080fd5b83356129818161290e565b925060208401356129918161290e565b929592945050506040919091013590565b60008083601f8401126129b457600080fd5b5081356001600160401b038111156129cb57600080fd5b6020830191508360208260051b85010111156129e657600080fd5b9250929050565b60008060008060008060808789031215612a0657600080fd5b8635612a118161290e565b95506020870135612a218161290e565b945060408701356001600160401b0380821115612a3d57600080fd5b612a498a838b016129a2565b90965094506060890135915080821115612a6257600080fd5b50612a6f89828a016129a2565b979a9699509497509295939492505050565b634e487b7160e01b600052604160045260246000fd5b604051601f8201601f191681016001600160401b0381118282101715612abf57612abf612a81565b604052919050565b600082601f830112612ad857600080fd5b813560206001600160401b03821115612af357612af3612a81565b8160051b612b02828201612a97565b9283528481018201928281019087851115612b1c57600080fd5b83870192505b84831015612b3b57823582529183019190830190612b22565b979650505050505050565b60006001600160401b03821115612b5f57612b5f612a81565b50601f01601f191660200190565b600082601f830112612b7e57600080fd5b8135612b91612b8c82612b46565b612a97565b818152846020838601011115612ba657600080fd5b816020850160208301376000918101602001919091529392505050565b600080600080600060a08688031215612bdb57600080fd5b8535612be68161290e565b94506020860135612bf68161290e565b935060408601356001600160401b0380821115612c1257600080fd5b612c1e89838a01612ac7565b94506060880135915080821115612c3457600080fd5b612c4089838a01612ac7565b93506080880135915080821115612c5657600080fd5b50612c6388828901612b6d565b9150509295509295909350565b60008060008060008060008060a0898b031215612c8c57600080fd5b8835612c978161290e565b97506020890135612ca78161290e565b965060408901356001600160401b0380821115612cc357600080fd5b612ccf8c838d016129a2565b909850965060608b0135915080821115612ce857600080fd5b612cf48c838d016129a2565b909650945060808b0135915080821115612d0d57600080fd5b50612d1a8b828c016129a2565b999c989b5096995094979396929594505050565b600080600080600060a08688031215612d4657600080fd5b8535612d518161290e565b94506020860135612d618161290e565b9350604086013592506060860135915060808601356001600160401b03811115612d8a57600080fd5b612c6388828901612b6d565b600060208284031215612da857600080fd5b5051919050565b634e487b7160e01b600052603260045260246000fd5b634e487b7160e01b600052601160045260246000fd5b600060018201612ded57612ded612dc5565b5060010190565b6001600160a01b03929092168252602082015260400190565b600060208284031215612e1f57600080fd5b8151801515811461289457600080fd5b6020808252601a908201527f436f6c6c61746572616c207472616e73666572206661696c6564000000000000604082015260600190565b8181038181111561024857610248612dc5565b6001600160a01b039384168152919092166020820152604081019190915260600190565b60005b83811015612eb8578181015183820152602001612ea0565b50506000910152565b60008060408385031215612ed457600080fd5b8251612edf8161290e565b60208401519092506001600160401b03811115612efb57600080fd5b8301601f81018513612f0c57600080fd5b8051612f1a612b8c82612b46565b818152866020838501011115612f2f57600080fd5b612f40826020830160208601612e9d565b8093505050509250929050565b60008151808452612f65816020860160208601612e9d565b601f01601f19169290920160200192915050565b6001600160a01b03868116825260208201869052604082018590528316606082015260a060808201819052600090612b3b90830184612f4d565b600081518084526020808501945080840160005b83811015612fe357815187529582019590820190600101612fc7565b509495945050505050565b60018060a01b038616815284602082015283604082015260a06060820152600061301b60a0830185612fb3565b90508260808301529695505050505050565b6001600160a01b03868116825285166020820152604081018490526060810183905260a060808201819052600090612b3b90830184612f4d565b6020808252601d908201527f5772617070656420746f6b656e207472616e73666572206661696c6564000000604082015260600190565b60018060a01b03851681528360208201528260408201526080606082015260006105346080830184612fb3565b6000602082840312156130dd57600080fd5b81516128948161290e56fea2646970667358221220d790e8a4a0fe9e56a2d489d806080eeb211cabb318aa97fc3334003a437d9bf364736f6c63430008140033",
  "devdoc": {
    "details": "Router implementation with functions to redeem conditional positions to collateral.",
    "kind": "dev",
    "methods": {
      "constructor": {
        "details": "Constructor.",
        "params": {
          "_conditionalTokens": "Conditional Tokens contract.",
          "_wrapped1155Factory": "Wrapped1155Factory contract."
        }
      },
      "getTokenId(address,bytes32,bytes32,uint256)": {
        "params": {
          "collateralToken": "The address of the ERC20 used as collateral.",
          "conditionId": "The id of the condition used to redeem.",
          "indexSet": "Index set of the outcome collection to combine with the parent outcome collection.",
          "parentCollectionId": "The Conditional Tokens parent collection id."
        },
        "returns": {
          "_0": "The token id."
        }
      },
      "getWinningOutcomes(bytes32)": {
        "params": {
          "conditionId": "The id of the condition."
        },
        "returns": {
          "_0": "An array of outcomes where a true value indicates that the outcome is redeemable."
        }
      },
      "mergePositions(address,address,uint256)": {
        "details": "The ERC20 associated to each outcome must be previously created on the wrapped1155Factory.Collateral tokens are withdrawn only if we are not merging a deep position (parentCollectionId is bytes32(0)).",
        "params": {
          "amount": "The amount of outcome tokens to merge.",
          "collateralToken": "The address of the ERC20 used as collateral.",
          "market": "The Market to merge."
        }
      },
      "redeemConditionalToCollateral(address,address,uint256[],uint256[],uint256[])": {
        "details": "The ERC20 associated to each outcome must be previously created on the wrapped1155Factory.",
        "params": {
          "amounts": "Amount to redeem of each outcome.",
          "collateralToken": "The address of the ERC20 used as collateral.",
          "market": "The Market to redeem.",
          "outcomeIndexes": "The index of the outcomes to redeem.",
          "parentOutcomeIndexes": "The index of the parent market outcomes to redeem."
        }
      },
      "redeemPositions(address,address,uint256[],uint256[])": {
        "details": "The ERC20 associated to each outcome must be previously created on the wrapped1155Factory.Collateral tokens are withdrawn only if we are not redeeming a deep position (parentCollectionId is bytes32(0)).",
        "params": {
          "amounts": "Amount to redeem of each outcome.",
          "collateralToken": "The address of the ERC20 used as collateral.",
          "market": "The Market to redeem.",
          "outcomeIndexes": "The index of the outcomes to redeem."
        }
      },
      "splitPosition(address,address,uint256)": {
        "details": "The ERC20 associated to each outcome must be previously created on the wrapped1155Factory.Collateral tokens are deposited only if we are not splitting a deep position (parentCollectionId is bytes32(0)).",
        "params": {
          "amount": "The amount of collateral to split.",
          "collateralToken": "The address of the ERC20 used as collateral.",
          "market": "The Market to split."
        }
      },
      "supportsInterface(bytes4)": {
        "details": "See {IERC165-supportsInterface}."
      }
    },
    "version": 1
  },
  "userdoc": {
    "kind": "user",
    "methods": {
      "getTokenId(address,bytes32,bytes32,uint256)": {
        "notice": "Constructs a tokenId from a collateral token and an outcome collection."
      },
      "getWinningOutcomes(bytes32)": {
        "notice": "Helper function used to know the redeemable outcomes associated to a conditionId."
      },
      "mergePositions(address,address,uint256)": {
        "notice": "Merges positions and sends the collateral tokens to the user."
      },
      "redeemConditionalToCollateral(address,address,uint256[],uint256[],uint256[])": {
        "notice": "Redeems positions and sends collateral to the user."
      },
      "redeemPositions(address,address,uint256[],uint256[])": {
        "notice": "Redeems positions and sends the collateral tokens to the user."
      },
      "splitPosition(address,address,uint256)": {
        "notice": "Transfers the collateral to the Router, splits the position and sends the ERC20 outcome tokens back to the user."
      }
    },
    "version": 1
  },
  "storageLayout": {
    "storage": [],
    "types": null
  }
}