{
  "address": "0x9da1FD006377DDF51bA2222F8DaFC95Bf8000DDD",
  "abi": [
    {
      "inputs": [
        {
          "internalType": "address",
          "name": "_proposal",
          "type": "address"
        },
        {
          "internalType": "address",
          "name": "_arbitrator",
          "type": "address"
        },
        {
          "internalType": "contract IRealityETH_v3_0",
          "name": "_realitio",
          "type": "address"
        },
        {
          "internalType": "contract IWrapped1155Factory",
          "name": "_wrapped1155Factory",
          "type": "address"
        },
        {
          "internalType": "contract IConditionalTokens",
          "name": "_conditionalTokens",
          "type": "address"
        },
        {
          "internalType": "contract FutarchyRealityProxy",
          "name": "_realityProxy",
          "type": "address"
        },
        {
          "internalType": "uint32",
          "name": "_questionTimeout",
          "type": "uint32"
        }
      ],
      "stateMutability": "nonpayable",
      "type": "constructor"
    },
    {
      "inputs": [],
      "name": "ERC1167FailedCreateClone",
      "type": "error"
    },
    {
      "anonymous": false,
      "inputs": [
        {
          "indexed": true,
          "internalType": "address",
          "name": "proposal",
          "type": "address"
        },
        {
          "indexed": false,
          "internalType": "string",
          "name": "marketName",
          "type": "string"
        },
        {
          "indexed": false,
          "internalType": "address",
          "name": "parentMarket",
          "type": "address"
        },
        {
          "indexed": false,
          "internalType": "bytes32",
          "name": "conditionId",
          "type": "bytes32"
        },
        {
          "indexed": false,
          "internalType": "bytes32",
          "name": "questionId",
          "type": "bytes32"
        }
      ],
      "name": "NewProposal",
      "type": "event"
    },
    {
      "inputs": [],
      "name": "allMarkets",
      "outputs": [
        {
          "internalType": "address[]",
          "name": "",
          "type": "address[]"
        }
      ],
      "stateMutability": "view",
      "type": "function"
    },
    {
      "inputs": [],
      "name": "arbitrator",
      "outputs": [
        {
          "internalType": "address",
          "name": "",
          "type": "address"
        }
      ],
      "stateMutability": "view",
      "type": "function"
    },
    {
      "inputs": [],
      "name": "conditionalTokens",
      "outputs": [
        {
          "internalType": "contract IConditionalTokens",
          "name": "",
          "type": "address"
        }
      ],
      "stateMutability": "view",
      "type": "function"
    },
    {
      "inputs": [
        {
          "components": [
            {
              "internalType": "string",
              "name": "marketName",
              "type": "string"
            },
            {
              "internalType": "contract IERC20",
              "name": "collateralToken1",
              "type": "address"
            },
            {
              "internalType": "contract IERC20",
              "name": "collateralToken2",
              "type": "address"
            },
            {
              "internalType": "uint256",
              "name": "parentOutcome",
              "type": "uint256"
            },
            {
              "internalType": "address",
              "name": "parentMarket",
              "type": "address"
            },
            {
              "internalType": "string",
              "name": "category",
              "type": "string"
            },
            {
              "internalType": "string",
              "name": "lang",
              "type": "string"
            },
            {
              "internalType": "uint256",
              "name": "minBond",
              "type": "uint256"
            },
            {
              "internalType": "uint32",
              "name": "openingTime",
              "type": "uint32"
            }
          ],
          "internalType": "struct FutarchyFactory.CreateProposalParams",
          "name": "params",
          "type": "tuple"
        }
      ],
      "name": "createProposal",
      "outputs": [
        {
          "internalType": "address",
          "name": "",
          "type": "address"
        }
      ],
      "stateMutability": "nonpayable",
      "type": "function"
    },
    {
      "inputs": [],
      "name": "marketsCount",
      "outputs": [
        {
          "internalType": "uint256",
          "name": "",
          "type": "uint256"
        }
      ],
      "stateMutability": "view",
      "type": "function"
    },
    {
      "inputs": [],
      "name": "proposal",
      "outputs": [
        {
          "internalType": "address",
          "name": "",
          "type": "address"
        }
      ],
      "stateMutability": "view",
      "type": "function"
    },
    {
      "inputs": [
        {
          "internalType": "uint256",
          "name": "",
          "type": "uint256"
        }
      ],
      "name": "proposals",
      "outputs": [
        {
          "internalType": "address",
          "name": "",
          "type": "address"
        }
      ],
      "stateMutability": "view",
      "type": "function"
    },
    {
      "inputs": [],
      "name": "questionTimeout",
      "outputs": [
        {
          "internalType": "uint32",
          "name": "",
          "type": "uint32"
        }
      ],
      "stateMutability": "view",
      "type": "function"
    },
    {
      "inputs": [],
      "name": "realitio",
      "outputs": [
        {
          "internalType": "contract IRealityETH_v3_0",
          "name": "",
          "type": "address"
        }
      ],
      "stateMutability": "view",
      "type": "function"
    },
    {
      "inputs": [],
      "name": "realityProxy",
      "outputs": [
        {
          "internalType": "contract FutarchyRealityProxy",
          "name": "",
          "type": "address"
        }
      ],
      "stateMutability": "view",
      "type": "function"
    },
    {
      "inputs": [],
      "name": "wrapped1155Factory",
      "outputs": [
        {
          "internalType": "contract IWrapped1155Factory",
          "name": "",
          "type": "address"
        }
      ],
      "stateMutability": "view",
      "type": "function"
    }
  ],
  "transactionHash": "0xa90bd7bf71f381e3cc0da3c22e06689ccb62a816772fb362481986167244571e",
  "args": [
    "0xBbA6c5dE2685150189b1393dF6329Af4DF05BE7d",
    "0x68154ea682f95bf582b80dd6453fa401737491dc",
    "0xE78996A233895bE74a66F451f1019cA9734205cc",
    "0xD194319D1804C1051DD21Ba1Dc931cA72410B79f",
    "0xCeAfDD6bc0bEF976fdCd1112955828E00543c0Ce",
    "0xC64c753685e744cE6905ed76c66B5EB778025D0f",
    302400
  ],
  "numDeployments": 2,
  "solcInputHash": "fb5648a41e48ca082e527d13ea381e27",
  "bytecode": "0x6101606040523480156200001257600080fd5b5060405162001eae38038062001eae83398101604081905262000035916200008b565b6001600160a01b039687166101405294861660a05292851660c05290841660e0528316610100529091166101205263ffffffff166080526200013e565b6001600160a01b03811681146200008857600080fd5b50565b600080600080600080600060e0888a031215620000a757600080fd5b8751620000b48162000072565b6020890151909750620000c78162000072565b6040890151909650620000da8162000072565b6060890151909550620000ed8162000072565b6080890151909450620001008162000072565b60a0890151909350620001138162000072565b60c089015190925063ffffffff811681146200012e57600080fd5b8091505092959891949750929550565b60805160a05160c05160e051610100516101205161014051611c916200021d600039600081816101f401526102f90152600081816101570152818161035301528181610de50152610f3c015260008181610193015281816107f001528181610db601528181610e7e01528181610f0f015281816110490152818161110901526112c701526000818160e3015261129a01526000818161021b01528181610bcf01528181610c410152610cdf0152600081816101cd01528181610b660152610d1001526000818161010a01528181610b9e0152610d320152611c916000f3fe608060405234801561001057600080fd5b50600436106100a95760003560e01c8063375a7cba11610071578063375a7cba146101795780635bd9e2991461018e578063640b6439146101b55780636cc6cde1146101c8578063753ec103146101ef578063bc8802a21461021657600080fd5b8063013cf08b146100ae578063150c5b97146100de5780631ba18b9b146101055780631e8b5708146101415780632ff8d50414610152575b600080fd5b6100c16100bc366004611421565b61023d565b6040516001600160a01b0390911681526020015b60405180910390f35b6100c17f000000000000000000000000000000000000000000000000000000000000000081565b61012c7f000000000000000000000000000000000000000000000000000000000000000081565b60405163ffffffff90911681526020016100d5565b6000546040519081526020016100d5565b6100c17f000000000000000000000000000000000000000000000000000000000000000081565b610181610267565b6040516100d5919061143a565b6100c17f000000000000000000000000000000000000000000000000000000000000000081565b6100c16101c33660046115b3565b6102c9565b6100c17f000000000000000000000000000000000000000000000000000000000000000081565b6100c17f000000000000000000000000000000000000000000000000000000000000000081565b6100c17f000000000000000000000000000000000000000000000000000000000000000081565b6000818154811061024d57600080fd5b6000918252602090912001546001600160a01b0316905081565b606060008054806020026020016040519081016040528092919081815260200182805480156102bf57602002820191906000526020600020905b81546001600160a01b031681526001909101906020018083116102a1575b5050505050905090565b60008060006102e084602001518560400151610451565b9150915060006102f08583610785565b905060006103267f00000000000000000000000000000000000000000000000000000000000000006001600160a01b0316610a4c565b8651604051632e0cccbb60e01b81529192506001600160a01b03831691632e0cccbb9161037b91889087907f0000000000000000000000000000000000000000000000000000000000000000906004016117ae565b600060405180830381600087803b15801561039557600080fd5b505af11580156103a9573d6000803e3d6000fd5b505087516080890151855160c08701516040516001600160a01b03881696507f22bc92660efef8154f85a3569f32875e71a99fa45ce898a69e70a323a21ef30195506103f89493929190611908565b60405180910390a2600080546001810182559080527f290decd9548b62a8d60345a988386fc84ba6bc95484008f6362f93160ef3e5630180546001600160a01b0319166001600160a01b03831617905595945050505050565b6060806000846001600160a01b03166395d89b416040518163ffffffff1660e01b8152600401600060405180830381865afa158015610494573d6000803e3d6000fd5b505050506040513d6000823e601f3d908101601f191682016040526104bc9190810190611940565b90506000846001600160a01b03166395d89b416040518163ffffffff1660e01b8152600401600060405180830381865afa1580156104fe573d6000803e3d6000fd5b505050506040513d6000823e601f3d908101601f191682016040526105269190810190611940565b60408051600480825260a0820190925291925060009190816020015b60608152602001906001900390816105425790505090508260405160200161056a91906119ad565b6040516020818303038152906040528160008151811061058c5761058c6119d9565b6020026020010181905250826040516020016105a891906119ef565b604051602081830303815290604052816001815181106105ca576105ca6119d9565b6020026020010181905250816040516020016105e691906119ad565b60405160208183030381529060405281600281518110610608576106086119d9565b60200260200101819052508160405160200161062491906119ef565b60405160208183030381529060405281600381518110610646576106466119d9565b602090810291909101015260408051600480825260a08201909252600091816020015b6060815260200190600190039081610669579050509050836040516020016106919190611a1a565b604051602081830303815290604052816000815181106106b3576106b36119d9565b6020026020010181905250836040516020016106cf9190611a39565b604051602081830303815290604052816001815181106106f1576106f16119d9565b60200260200101819052508260405160200161070d9190611a1a565b6040516020818303038152906040528160028151811061072f5761072f6119d9565b60200260200101819052508260405160200161074b9190611a39565b6040516020818303038152906040528160038151811061076d5761076d6119d9565b60209081029190910101529097909650945050505050565b604080516101408101825260008082526020820181905291810182905260608082018390526080820183905260a0820183905260c082019290925260e08101829052610100810182905261012081019190915260808301516000906001600160a01b031615610964577f00000000000000000000000000000000000000000000000000000000000000006001600160a01b031663856296f785608001516001600160a01b03166344bea37e6040518163ffffffff1660e01b8152600401602060405180830381865afa15801561085f573d6000803e3d6000fd5b505050506040513d601f19601f820116820180604052508101906108839190611a57565b86608001516001600160a01b0316632ddc7de76040518163ffffffff1660e01b8152600401602060405180830381865afa1580156108c5573d6000803e3d6000fd5b505050506040513d601f19601f820116820180604052508101906108e99190611a57565b60608801516040516001600160e01b031960e086901b168152600481019390935260248301919091526001901b6044820152606401602060405180830381865afa15801561093b573d6000803e3d6000fd5b505050506040513d601f19601f8201168201806040525081019061095f9190611a57565b610967565b60005b9050600061098285600001518660a001518760c00151610abe565b9050600061099f82600260ff168861010001518960e00151610b20565b905060006109ae826002610db1565b90506000806109c889602001518a6040015188868c610fa2565b915091506040518061014001604052808481526020018a602001516001600160a01b031681526020018a604001516001600160a01b031681526020018781526020018a6060015181526020018a608001516001600160a01b031681526020018581526020018681526020018381526020018281525096505050505050505b92915050565b6000763d602d80600a3d3981f3363d3d373d3d3d363d730000008260601b60e81c176000526e5af43d82803e903d91602b57fd5bf38260781b17602052603760096000f090506001600160a01b038116610ab9576040516330be1a3d60e21b815260040160405180910390fd5b919050565b60606000604051602001610adb9062e2909f60e81b815260030190565b6040516020818303038152906040529050848182868487604051602001610b0796959493929190611a70565b6040516020818303038152906040529150509392505050565b600080848487604051602001610b3893929190611b0e565b60408051601f1981840301815282825280516020918201209083018190526bffffffffffffffffffffffff197f0000000000000000000000000000000000000000000000000000000000000000606090811b8216938501939093526001600160e01b03197f000000000000000000000000000000000000000000000000000000000000000060e01b166054850152605884018790527f0000000000000000000000000000000000000000000000000000000000000000831b811660788501523090921b909116608c830152600060a083018190529092509060c00160408051808303601f19018152908290528051602090910120634f8812e360e11b82526004820181905291507f00000000000000000000000000000000000000000000000000000000000000006001600160a01b031690639f1025c690602401602060405180830381865afa158015610c90573d6000803e3d6000fd5b505050506040513d601f19601f82011682018060405250810190610cb49190611b47565b63ffffffff1615610cc8579150610da99050565b604051631212e4f160e21b81526001600160a01b037f0000000000000000000000000000000000000000000000000000000000000000169063484b93c490610d619089908b907f0000000000000000000000000000000000000000000000000000000000000000907f0000000000000000000000000000000000000000000000000000000000000000908c906000908d90600401611b64565b6020604051808303816000875af1158015610d80573d6000803e3d6000fd5b505050506040513d601f19601f82011682018060405250810190610da49190611a57565b925050505b949350505050565b6000807f00000000000000000000000000000000000000000000000000000000000000006001600160a01b031663852c6ae27f000000000000000000000000000000000000000000000000000000000000000086866040518463ffffffff1660e01b8152600401610e2493929190611bb4565b602060405180830381865afa158015610e41573d6000803e3d6000fd5b505050506040513d601f19601f82011682018060405250810190610e659190611a57565b604051636a16e06160e11b8152600481018290529091507f00000000000000000000000000000000000000000000000000000000000000006001600160a01b03169063d42dc0c290602401602060405180830381865afa158015610ecd573d6000803e3d6000fd5b505050506040513d601f19601f82011682018060405250810190610ef19190611a57565b600003610f9b5760405163365bb9d560e21b81526001600160a01b037f0000000000000000000000000000000000000000000000000000000000000000169063d96ee75490610f68907f00000000000000000000000000000000000000000000000000000000000000009088908890600401611bb4565b600060405180830381600087803b158015610f8257600080fd5b505af1158015610f96573d6000803e3d6000fd5b505050505b9392505050565b60608082516001600160401b03811115610fbe57610fbe611487565b604051908082528060200260200182016040528015610fe7578160200160208202803683370190505b50915082516001600160401b0381111561100357611003611487565b60405190808252806020026020018201604052801561103657816020015b60608152602001906001900390816110215790505b50905060005b60048110156113a05760007f00000000000000000000000000000000000000000000000000000000000000006001600160a01b031663856296f78888600286106110905761108b600287611beb565b611092565b855b6040516001600160e01b031960e086901b168152600481019390935260248301919091526001901b6044820152606401602060405180830381865afa1580156110df573d6000803e3d6000fd5b505050506040513d601f19601f820116820180604052508101906111039190611a57565b905060007f00000000000000000000000000000000000000000000000000000000000000006001600160a01b03166339dd753060028510611144578a611146565b8b5b6040516001600160e01b031960e084901b1681526001600160a01b03909116600482015260248101859052604401602060405180830381865afa158015611191573d6000803e3d6000fd5b505050506040513d601f19601f820116820180604052508101906111b59190611a57565b90508583815181106111c9576111c96119d9565b60200260200101515160000361121b5760405162461bcd60e51b81526020600482015260126024820152714d697373696e6720746f6b656e206e616d6560701b60448201526064015b60405180910390fd5b600061123f878581518110611232576112326119d9565b60200260200101516113ab565b611254888681518110611232576112326119d9565b604080516020810193909352820152600960f91b606082015260610160408051601f1981840301815290829052631892c08760e11b825291506000906001600160a01b037f00000000000000000000000000000000000000000000000000000000000000001690633125810e906112f3907f00000000000000000000000000000000000000000000000000000000000000009087908790600401611bfe565b6020604051808303816000875af1158015611312573d6000803e3d6000fd5b505050506040513d601f19601f820116820180604052508101906113369190611c25565b90508087868151811061134b5761134b6119d9565b60200260200101906001600160a01b031690816001600160a01b0316815250508186868151811061137e5761137e6119d9565b602002602001018190525050505050808061139890611c42565b91505061103c565b509550959350505050565b8051600090602081106113f25760405162461bcd60e51b815260206004820152600f60248201526e737472696e6720746f6f206c6f6e6760881b6044820152606401611212565b602083015191506000600382602061140a9190611beb565b600019911b1b9290921660019190911b1792915050565b60006020828403121561143357600080fd5b5035919050565b6020808252825182820181905260009190848201906040850190845b8181101561147b5783516001600160a01b031683529284019291840191600101611456565b50909695505050505050565b634e487b7160e01b600052604160045260246000fd5b60405161012081016001600160401b03811182821017156114c0576114c0611487565b60405290565b604051601f8201601f191681016001600160401b03811182821017156114ee576114ee611487565b604052919050565b60006001600160401b0382111561150f5761150f611487565b50601f01601f191660200190565b600082601f83011261152e57600080fd5b813561154161153c826114f6565b6114c6565b81815284602083860101111561155657600080fd5b816020850160208301376000918101602001919091529392505050565b6001600160a01b038116811461158857600080fd5b50565b8035610ab981611573565b63ffffffff8116811461158857600080fd5b8035610ab981611596565b6000602082840312156115c557600080fd5b81356001600160401b03808211156115dc57600080fd5b9083019061012082860312156115f157600080fd5b6115f961149d565b82358281111561160857600080fd5b6116148782860161151d565b8252506116236020840161158b565b60208201526116346040840161158b565b60408201526060830135606082015261164f6080840161158b565b608082015260a08301358281111561166657600080fd5b6116728782860161151d565b60a08301525060c08301358281111561168a57600080fd5b6116968782860161151d565b60c08301525060e083013560e082015261010091506116b68284016115a8565b91810191909152949350505050565b60005b838110156116e05781810151838201526020016116c8565b50506000910152565b600081518084526117018160208601602086016116c5565b601f01601f19169290920160200192915050565b600081518084526020808501945080840160005b8381101561174e5781516001600160a01b031687529582019590820190600101611729565b509495945050505050565b600081518084526020808501808196508360051b8101915082860160005b858110156117a157828403895261178f8483516116e9565b98850198935090840190600101611777565b5091979650505050505050565b6080815260006117c160808301876116e9565b6020838203818501528187518084528284019150828160051b850101838a0160005b8381101561181157601f198784030185526117ff8383516116e9565b948601949250908501906001016117e3565b5050868103604088015288518152838901516001600160a01b03811685830152610140955092506040890151935061185460408201856001600160a01b03169052565b606089015160608201526080890151608082015260a0890151935061188460a08201856001600160a01b03169052565b60c089015160c082015260e089015193508460e08201526118a7858201856116e9565b94506101009350838901519250808503848201526118c58584611715565b945061012093508389015192508085038482015250506118e58382611759565b93505050506118ff60608301846001600160a01b03169052565b95945050505050565b60808152600061191b60808301876116e9565b6001600160a01b03959095166020830152506040810192909252606090910152919050565b60006020828403121561195257600080fd5b81516001600160401b0381111561196857600080fd5b8201601f8101841361197957600080fd5b805161198761153c826114f6565b81815285602083850101111561199c57600080fd5b6118ff8260208301602086016116c5565b635965732d60e01b8152600082516119cc8160048501602087016116c5565b9190910160040192915050565b634e487b7160e01b600052603260045260246000fd5b624e6f2d60e81b815260008251611a0d8160038501602087016116c5565b9190910160030192915050565b635945535f60e01b8152600082516119cc8160048501602087016116c5565b624e4f5f60e81b815260008251611a0d8160038501602087016116c5565b600060208284031215611a6957600080fd5b5051919050565b600087516020611a838285838d016116c5565b885191840191611a968184848d016116c5565b69112cb2b991161127379160b11b92019182528751611abb81600a8501848c016116c5565b8751920191611ad081600a8501848b016116c5565b8651920191611ae581600a8501848a016116c5565b8551920191611afa81600a85018489016116c5565b91909101600a019998505050505050505050565b83815263ffffffff60e01b8360e01b16602082015260008251611b388160248501602087016116c5565b91909101602401949350505050565b600060208284031215611b5957600080fd5b8151610f9b81611596565b87815260e060208201526000611b7d60e08301896116e9565b6001600160a01b039790971660408301525063ffffffff948516606082015292909316608083015260a082015260c0015292915050565b6001600160a01b039390931683526020830191909152604082015260600190565b634e487b7160e01b600052601160045260246000fd5b81810381811115610a4657610a46611bd5565b60018060a01b03841681528260208201526060604082015260006118ff60608301846116e9565b600060208284031215611c3757600080fd5b8151610f9b81611573565b600060018201611c5457611c54611bd5565b506001019056fea2646970667358221220002b00ab3afe7c983bd25d49a8a7ae69df4b5c5224ae6794c1156f6e0ec2e8f964736f6c63430008140033",
  "devdoc": {
    "details": "MarketFactory modified to create futarchy proposals. Each proposal has four outcomes (Yes/Token1, Yes/Token2, No/Token1, No/Token2). There's one reality question asking whether or not the proposal should be accepted. If the proposal is accepted, the first two outcomes (Yes) are redeemable, otherwise, the last two are redeemable (No).",
    "errors": {
      "ERC1167FailedCreateClone()": [
        {
          "details": "A clone instance deployment failed."
        }
      ]
    },
    "events": {
      "NewProposal(address,string,address,bytes32,bytes32)": {
        "details": "To be emitted when a new proposal is created.",
        "params": {
          "conditionId": "Conditional Tokens conditionId.",
          "marketName": "The name of the proposal.",
          "parentMarket": "Conditional proposal to use.",
          "proposal": "The new proposal address.",
          "questionId": "Conditional Tokens & Reality.eth questionId."
        }
      }
    },
    "kind": "dev",
    "methods": {
      "allMarkets()": {
        "details": "Returns all the proposals created by this factory.",
        "returns": {
          "_0": "The addresses of the proposals."
        }
      },
      "constructor": {
        "details": "Constructor.",
        "params": {
          "_arbitrator": "Address of the arbitrator that is going to resolve Realitio disputes.",
          "_conditionalTokens": "Address of the ConditionalTokens implementation.",
          "_proposal": "Address of the proposal contract that is going to be used for each new deployment.",
          "_questionTimeout": "Reality question timeout.",
          "_realitio": "Address of the Realitio implementation.",
          "_realityProxy": "Address of the RealityProxy implementation.",
          "_wrapped1155Factory": "Address of the Wrapped1155Factory implementation."
        }
      },
      "createProposal((string,address,address,uint256,address,string,string,uint256,uint32))": {
        "details": "Creates the Proposal and deploys the wrapped ERC20 tokens.",
        "params": {
          "params": "CreateProposalParams instance."
        },
        "returns": {
          "_0": "The new proposal address."
        }
      },
      "marketsCount()": {
        "returns": {
          "_0": "The amount of proposals."
        }
      }
    },
    "stateVariables": {
      "REALITY_SINGLE_SELECT_TEMPLATE": {
        "details": "Template for proposals."
      },
      "arbitrator": {
        "details": "Arbitrator contract."
      },
      "conditionalTokens": {
        "details": "Conditional Tokens contract."
      },
      "proposal": {
        "details": "FutarchyProposal contract."
      },
      "proposals": {
        "details": "Proposals created by this factory."
      },
      "questionTimeout": {
        "details": "Reality question timeout."
      },
      "realitio": {
        "details": "Reality.eth contract."
      },
      "realityProxy": {
        "details": "Oracle contract."
      },
      "wrapped1155Factory": {
        "details": "Wrapped1155Factory contract."
      }
    },
    "version": 1
  },
  "userdoc": {
    "kind": "user",
    "methods": {
      "marketsCount()": {
        "notice": "Returns the amount of proposals created by this factory."
      }
    },
    "version": 1
  },
  "storageLayout": {
    "storage": [
      {
        "astId": 308,
        "contract": "src/FutarchyFactory.sol:FutarchyFactory",
        "label": "proposals",
        "offset": 0,
        "slot": "0",
        "type": "t_array(t_address)dyn_storage"
      }
    ],
    "types": {
      "t_address": {
        "encoding": "inplace",
        "label": "address",
        "numberOfBytes": "20"
      },
      "t_array(t_address)dyn_storage": {
        "base": "t_address",
        "encoding": "dynamic_array",
        "label": "address[]",
        "numberOfBytes": "32"
      }
    }
  }
}