{
  "address": "0xE2996f6BC88ba0f2Ad3a6E2A71ac55884ec9F74E",
  "abi": [
    {
      "inputs": [
        {
          "internalType": "contract IConditionalTokens",
          "name": "_conditionalTokens",
          "type": "address"
        },
        {
          "internalType": "contract IWrapped1155Factory",
          "name": "_wrapped1155Factory",
          "type": "address"
        }
      ],
      "stateMutability": "nonpayable",
      "type": "constructor"
    },
    {
      "inputs": [],
      "name": "conditionalTokens",
      "outputs": [
        {
          "internalType": "contract IConditionalTokens",
          "name": "",
          "type": "address"
        }
      ],
      "stateMutability": "view",
      "type": "function"
    },
    {
      "inputs": [
        {
          "internalType": "contract IERC20",
          "name": "collateralToken",
          "type": "address"
        },
        {
          "internalType": "bytes32",
          "name": "parentCollectionId",
          "type": "bytes32"
        },
        {
          "internalType": "bytes32",
          "name": "conditionId",
          "type": "bytes32"
        },
        {
          "internalType": "uint256",
          "name": "indexSet",
          "type": "uint256"
        }
      ],
      "name": "getTokenId",
      "outputs": [
        {
          "internalType": "uint256",
          "name": "",
          "type": "uint256"
        }
      ],
      "stateMutability": "view",
      "type": "function"
    },
    {
      "inputs": [
        {
          "internalType": "bytes32",
          "name": "conditionId",
          "type": "bytes32"
        }
      ],
      "name": "getWinningOutcomes",
      "outputs": [
        {
          "internalType": "bool[]",
          "name": "",
          "type": "bool[]"
        }
      ],
      "stateMutability": "view",
      "type": "function"
    },
    {
      "inputs": [
        {
          "internalType": "contract FutarchyProposal",
          "name": "proposal",
          "type": "address"
        },
        {
          "internalType": "contract IERC20",
          "name": "collateralToken",
          "type": "address"
        },
        {
          "internalType": "uint256",
          "name": "amount",
          "type": "uint256"
        }
      ],
      "name": "mergePositions",
      "outputs": [],
      "stateMutability": "nonpayable",
      "type": "function"
    },
    {
      "inputs": [
        {
          "internalType": "address",
          "name": "",
          "type": "address"
        },
        {
          "internalType": "address",
          "name": "",
          "type": "address"
        },
        {
          "internalType": "uint256[]",
          "name": "",
          "type": "uint256[]"
        },
        {
          "internalType": "uint256[]",
          "name": "",
          "type": "uint256[]"
        },
        {
          "internalType": "bytes",
          "name": "",
          "type": "bytes"
        }
      ],
      "name": "onERC1155BatchReceived",
      "outputs": [
        {
          "internalType": "bytes4",
          "name": "",
          "type": "bytes4"
        }
      ],
      "stateMutability": "nonpayable",
      "type": "function"
    },
    {
      "inputs": [
        {
          "internalType": "address",
          "name": "",
          "type": "address"
        },
        {
          "internalType": "address",
          "name": "",
          "type": "address"
        },
        {
          "internalType": "uint256",
          "name": "",
          "type": "uint256"
        },
        {
          "internalType": "uint256",
          "name": "",
          "type": "uint256"
        },
        {
          "internalType": "bytes",
          "name": "",
          "type": "bytes"
        }
      ],
      "name": "onERC1155Received",
      "outputs": [
        {
          "internalType": "bytes4",
          "name": "",
          "type": "bytes4"
        }
      ],
      "stateMutability": "nonpayable",
      "type": "function"
    },
    {
      "inputs": [
        {
          "internalType": "contract FutarchyProposal",
          "name": "proposal",
          "type": "address"
        },
        {
          "internalType": "contract IERC20",
          "name": "collateralToken",
          "type": "address"
        },
        {
          "internalType": "uint256",
          "name": "amount",
          "type": "uint256"
        }
      ],
      "name": "redeemPositions",
      "outputs": [],
      "stateMutability": "nonpayable",
      "type": "function"
    },
    {
      "inputs": [
        {
          "internalType": "contract FutarchyProposal",
          "name": "proposal",
          "type": "address"
        },
        {
          "internalType": "uint256",
          "name": "amount1",
          "type": "uint256"
        },
        {
          "internalType": "uint256",
          "name": "amount2",
          "type": "uint256"
        }
      ],
      "name": "redeemProposal",
      "outputs": [],
      "stateMutability": "nonpayable",
      "type": "function"
    },
    {
      "inputs": [
        {
          "internalType": "contract FutarchyProposal",
          "name": "proposal",
          "type": "address"
        },
        {
          "internalType": "contract IERC20",
          "name": "collateralToken",
          "type": "address"
        },
        {
          "internalType": "uint256",
          "name": "amount",
          "type": "uint256"
        }
      ],
      "name": "splitPosition",
      "outputs": [],
      "stateMutability": "nonpayable",
      "type": "function"
    },
    {
      "inputs": [
        {
          "internalType": "bytes4",
          "name": "interfaceId",
          "type": "bytes4"
        }
      ],
      "name": "supportsInterface",
      "outputs": [
        {
          "internalType": "bool",
          "name": "",
          "type": "bool"
        }
      ],
      "stateMutability": "view",
      "type": "function"
    },
    {
      "inputs": [],
      "name": "wrapped1155Factory",
      "outputs": [
        {
          "internalType": "contract IWrapped1155Factory",
          "name": "",
          "type": "address"
        }
      ],
      "stateMutability": "view",
      "type": "function"
    }
  ],
  "transactionHash": "0x0a1a91b540f99ef77f0c3c89051f7682214d4c2a332fdeaa616233c478851000",
  "args": [
    "0xCeAfDD6bc0bEF976fdCd1112955828E00543c0Ce",
    "0xD194319D1804C1051DD21Ba1Dc931cA72410B79f"
  ],
  "numDeployments": 5,
  "solcInputHash": "b615d2104d47b5c5d2e23901078474b4",
  "bytecode": "0x60c06040523480156200001157600080fd5b50604051620028a8380380620028a8833981016040819052620000349162000065565b6001600160a01b039182166080521660a052620000a4565b6001600160a01b03811681146200006257600080fd5b50565b600080604083850312156200007957600080fd5b825162000086816200004c565b602084015190925062000099816200004c565b809150509250929050565b60805160a0516127296200017f6000396000818160fb01528181610d990152818161111901528181611564015281816117e001528181611b9d0152611ebd015260008181610165015281816102720152818161034901528181610437015281816104bc01528181610b3401528181610dc601528181610e4901528181610eda01528181610f6a01528181610ff8015281816110f10152818161159101528181611621015281816116b2015281816117b101528181611a8201528181611bca01528181611c5801528181611cde0152611e8e01526127296000f3fe608060405234801561001057600080fd5b50600436106100a95760003560e01c80635bd9e299116100715780635bd9e29914610160578063721ae889146101875780637abef8d11461019a578063bc197c81146101ad578063d5f82280146101e5578063f23a6e61146101f857600080fd5b806301ffc9a7146100ae57806302bd74c3146100d6578063150c5b97146100f65780631a09424a1461012a5780633f325a2b1461014b575b600080fd5b6100c16100bc366004611fca565b610217565b60405190151581526020015b60405180910390f35b6100e96100e4366004611ffb565b61024e565b6040516100cd9190612014565b61011d7f000000000000000000000000000000000000000000000000000000000000000081565b6040516100cd919061205a565b61013d610138366004612086565b610406565b6040519081526020016100cd565b61015e6101593660046120c1565b61053e565b005b61011d7f000000000000000000000000000000000000000000000000000000000000000081565b61015e6101953660046120f6565b61061b565b61015e6101a83660046120f6565b61082e565b6101cc6101bb366004612279565b63bc197c8160e01b95945050505050565b6040516001600160e01b031990911681526020016100cd565b61015e6101f33660046120f6565b610931565b6101cc610206366004612326565b63f23a6e6160e01b95945050505050565b60006001600160e01b03198216630271189760e51b148061024857506301ffc9a760e01b6001600160e01b03198316145b92915050565b604051636a16e06160e11b8152600481018290526060906000906001600160a01b037f0000000000000000000000000000000000000000000000000000000000000000169063d42dc0c290602401602060405180830381865afa1580156102b9573d6000803e3d6000fd5b505050506040513d601f19601f820116820180604052508101906102dd919061238e565b6001600160401b038111156102f4576102f4612137565b60405190808252806020026020018201604052801561031d578160200160208202803683370190505b50905060005b81518110156103ff57604051630141320560e21b815260048101859052602481018290527f00000000000000000000000000000000000000000000000000000000000000006001600160a01b031690630504c81490604401602060405180830381865afa158015610398573d6000803e3d6000fd5b505050506040513d601f19601f820116820180604052508101906103bc919061238e565b156103c85760016103cb565b60005b8282815181106103dd576103dd6123a7565b91151560209283029190910190910152806103f7816123d3565b915050610323565b5092915050565b60405163856296f760e01b815260048101849052602481018390526044810182905260009081906001600160a01b037f0000000000000000000000000000000000000000000000000000000000000000169063856296f790606401602060405180830381865afa15801561047e573d6000803e3d6000fd5b505050506040513d601f19601f820116820180604052508101906104a2919061238e565b60405163039dd75360e41b81529091506001600160a01b037f000000000000000000000000000000000000000000000000000000000000000016906339dd7530906104f390899085906004016123ec565b602060405180830381865afa158015610510573d6000803e3d6000fd5b505050506040513d601f19601f82011682018060405250810190610534919061238e565b9695505050505050565b6105aa83846001600160a01b0316634d7b09006040518163ffffffff1660e01b8152600401602060405180830381865afa158015610580573d6000803e3d6000fd5b505050506040513d601f19601f820116820180604052508101906105a49190612405565b8461061b565b61061683846001600160a01b031663c4a091d26040518163ffffffff1660e01b8152600401602060405180830381865afa1580156105ec573d6000803e3d6000fd5b505050506040513d601f19601f820116820180604052508101906106109190612405565b8361061b565b505050565b6000836001600160a01b03166344bea37e6040518163ffffffff1660e01b8152600401602060405180830381865afa15801561065b573d6000803e3d6000fd5b505050506040513d601f19601f8201168201806040525081019061067f919061238e565b90506000816106fa576040516370a0823160e01b81526001600160a01b038516906370a08231906106b490309060040161205a565b6020604051808303816000875af11580156106d3573d6000803e3d6000fd5b505050506040513d601f19601f820116820180604052508101906106f7919061238e565b90505b610705858585610a1c565b81610827576040516370a0823160e01b81526000906001600160a01b038616906370a082319061073990309060040161205a565b6020604051808303816000875af1158015610758573d6000803e3d6000fd5b505050506040513d601f19601f8201168201806040525081019061077c919061238e565b905081811115610825576001600160a01b03851663a9059cbb336107a08585612422565b6040518363ffffffff1660e01b81526004016107bd9291906123ec565b6020604051808303816000875af11580156107dc573d6000803e3d6000fd5b505050506040513d601f19601f820116820180604052508101906108009190612435565b6108255760405162461bcd60e51b815260040161081c90612457565b60405180910390fd5b505b5050505050565b61083983838361127d565b6000801b836001600160a01b03166344bea37e6040518163ffffffff1660e01b8152600401602060405180830381865afa15801561087b573d6000803e3d6000fd5b505050506040513d601f19601f8201168201806040525081019061089f919061238e565b036106165760405163a9059cbb60e01b81526001600160a01b0383169063a9059cbb906108d290339085906004016123ec565b6020604051808303816000875af11580156108f1573d6000803e3d6000fd5b505050506040513d601f19601f820116820180604052508101906109159190612435565b6106165760405162461bcd60e51b815260040161081c90612457565b6000801b836001600160a01b03166344bea37e6040518163ffffffff1660e01b8152600401602060405180830381865afa158015610973573d6000803e3d6000fd5b505050506040513d601f19601f82011682018060405250810190610997919061238e565b03610a11576040516323b872dd60e01b81526001600160a01b038316906323b872dd906109cc9033903090869060040161248e565b6020604051808303816000875af11580156109eb573d6000803e3d6000fd5b505050506040513d601f19601f82011682018060405250810190610a0f9190612435565b505b6106168383836118da565b6000836001600160a01b03166344bea37e6040518163ffffffff1660e01b8152600401602060405180830381865afa158015610a5c573d6000803e3d6000fd5b505050506040513d601f19601f82011682018060405250810190610a80919061238e565b90506000846001600160a01b0316632ddc7de76040518163ffffffff1660e01b8152600401602060405180830381865afa158015610ac2573d6000803e3d6000fd5b505050506040513d601f19601f82011682018060405250810190610ae6919061238e565b604080516001808252818301909252919250600091906020808301908036833701905050604051630141320560e21b8152600481018490526000602482018190529192506001600160a01b037f00000000000000000000000000000000000000000000000000000000000000001690630504c81490604401602060405180830381865afa158015610b7b573d6000803e3d6000fd5b505050506040513d601f19601f82011682018060405250810190610b9f919061238e565b6001149050600081610bb2576001610bb5565b60005b60ff169050806001901b83600081518110610bd257610bd26123a7565b6020026020010181815250506000610c0688878787600081518110610bf957610bf96123a7565b6020026020010151610406565b90506000808a6001600160a01b03166318a988a88c6001600160a01b0316634d7b09006040518163ffffffff1660e01b8152600401602060405180830381865afa158015610c58573d6000803e3d6000fd5b505050506040513d601f19601f82011682018060405250810190610c7c9190612405565b6001600160a01b03168c6001600160a01b031614610ca457610c9f8660026124b2565b610ca6565b855b6040518263ffffffff1660e01b8152600401610cc491815260200190565b600060405180830381865afa158015610ce1573d6000803e3d6000fd5b505050506040513d6000823e601f3d908101601f19168201604052610d0991908101906124e9565b6040516323b872dd60e01b815291935091506001600160a01b038316906323b872dd90610d3e90339030908e9060040161248e565b6020604051808303816000875af1158015610d5d573d6000803e3d6000fd5b505050506040513d601f19601f82011682018060405250810190610d819190612435565b506040516314abb2c960e21b81526001600160a01b037f000000000000000000000000000000000000000000000000000000000000000016906352aecb2490610df6907f00000000000000000000000000000000000000000000000000000000000000009087908e90309088906004016125a1565b600060405180830381600087803b158015610e1057600080fd5b505af1158015610e24573d6000803e3d6000fd5b50600092505089159050610f545760405163039dd75360e41b81526001600160a01b037f000000000000000000000000000000000000000000000000000000000000000016906339dd753090610e80908e908d906004016123ec565b602060405180830381865afa158015610e9d573d6000803e3d6000fd5b505050506040513d601f19601f82011682018060405250810190610ec1919061238e565b604051627eeac760e11b81529094506001600160a01b037f0000000000000000000000000000000000000000000000000000000000000000169062fdd58e90610f1090309088906004016123ec565b602060405180830381865afa158015610f2d573d6000803e3d6000fd5b505050506040513d601f19601f82011682018060405250810190610f51919061238e565b90505b604051626dc0df60e21b81526001600160a01b037f000000000000000000000000000000000000000000000000000000000000000016906301b7037c90610fa5908e908d908d908d90600401612616565b600060405180830381600087803b158015610fbf57600080fd5b505af1158015610fd3573d6000803e3d6000fd5b50508a15915061126f905057604051627eeac760e11b81526000906001600160a01b037f0000000000000000000000000000000000000000000000000000000000000000169062fdd58e9061102e90309089906004016123ec565b602060405180830381865afa15801561104b573d6000803e3d6000fd5b505050506040513d601f19601f8201168201806040525081019061106f919061238e565b90508181111561126d576000808e6001600160a01b0316636fc4eddd6040518163ffffffff1660e01b8152600401600060405180830381865afa1580156110ba573d6000803e3d6000fd5b505050506040513d6000823e601f3d908101601f191682016040526110e291908101906124e9565b90925090506001600160a01b037f00000000000000000000000000000000000000000000000000000000000000001663f242432a307f00000000000000000000000000000000000000000000000000000000000000008a6111438989612422565b866040518663ffffffff1660e01b8152600401611164959493929190612643565b600060405180830381600087803b15801561117e57600080fd5b505af1158015611192573d6000803e3d6000fd5b50505050816001600160a01b031663a9059cbb3386866111b29190612422565b6040518363ffffffff1660e01b81526004016111cf9291906123ec565b6020604051808303816000875af11580156111ee573d6000803e3d6000fd5b505050506040513d601f19601f820116820180604052508101906112129190612435565b61126a5760405162461bcd60e51b8152602060048201526024808201527f506172656e74207772617070656420746f6b656e207472616e736665722066616044820152631a5b195960e21b606482015260840161081c565b50505b505b505050505050505050505050565b6000836001600160a01b03166344bea37e6040518163ffffffff1660e01b8152600401602060405180830381865afa1580156112bd573d6000803e3d6000fd5b505050506040513d601f19601f820116820180604052508101906112e1919061238e565b90506000846001600160a01b0316632ddc7de76040518163ffffffff1660e01b8152600401602060405180830381865afa158015611323573d6000803e3d6000fd5b505050506040513d601f19601f82011682018060405250810190611347919061238e565b6040805160028082526060820183529293506000929091602083019080368337019050509050600181600081518110611382576113826123a7565b6020026020010181815250506002816001815181106113a3576113a36123a7565b6020026020010181815250506000866001600160a01b0316634d7b09006040518163ffffffff1660e01b8152600401602060405180830381865afa1580156113ef573d6000803e3d6000fd5b505050506040513d601f19601f820116820180604052508101906114139190612405565b6001600160a01b0316866001600160a01b031614905060005b60028110156116095760006114468887876001861b610406565b90506000808a6001600160a01b03166318a988a88661146f5761146a8660026124b2565b611471565b855b6040518263ffffffff1660e01b815260040161148f91815260200190565b600060405180830381865afa1580156114ac573d6000803e3d6000fd5b505050506040513d6000823e601f3d908101601f191682016040526114d491908101906124e9565b6040516323b872dd60e01b815291935091506001600160a01b038316906323b872dd9061150990339030908e9060040161248e565b6020604051808303816000875af1158015611528573d6000803e3d6000fd5b505050506040513d601f19601f8201168201806040525081019061154c9190612435565b506040516314abb2c960e21b81526001600160a01b037f000000000000000000000000000000000000000000000000000000000000000016906352aecb24906115c1907f00000000000000000000000000000000000000000000000000000000000000009087908e90309088906004016125a1565b600060405180830381600087803b1580156115db57600080fd5b505af11580156115ef573d6000803e3d6000fd5b505050505050508080611601906123d3565b91505061142c565b50604051639e7212ad60e01b81526001600160a01b037f00000000000000000000000000000000000000000000000000000000000000001690639e7212ad9061165e9089908890889088908c9060040161267d565b600060405180830381600087803b15801561167857600080fd5b505af115801561168c573d6000803e3d6000fd5b5050851591506118d190505760405163039dd75360e41b81526000906001600160a01b037f000000000000000000000000000000000000000000000000000000000000000016906339dd7530906116e9908a9089906004016123ec565b602060405180830381865afa158015611706573d6000803e3d6000fd5b505050506040513d601f19601f8201168201806040525081019061172a919061238e565b9050600080896001600160a01b0316636fc4eddd6040518163ffffffff1660e01b8152600401600060405180830381865afa15801561176d573d6000803e3d6000fd5b505050506040513d6000823e601f3d908101601f1916820160405261179591908101906124e9565b604051637921219560e11b815291935091506001600160a01b037f0000000000000000000000000000000000000000000000000000000000000000169063f242432a9061180e9030907f00000000000000000000000000000000000000000000000000000000000000009088908e908890600401612643565b600060405180830381600087803b15801561182857600080fd5b505af115801561183c573d6000803e3d6000fd5b505060405163a9059cbb60e01b81526001600160a01b038516925063a9059cbb915061186e9033908c906004016123ec565b6020604051808303816000875af115801561188d573d6000803e3d6000fd5b505050506040513d601f19601f820116820180604052508101906118b19190612435565b6118cd5760405162461bcd60e51b815260040161081c906126bc565b5050505b50505050505050565b6000836001600160a01b03166344bea37e6040518163ffffffff1660e01b8152600401602060405180830381865afa15801561191a573d6000803e3d6000fd5b505050506040513d601f19601f8201168201806040525081019061193e919061238e565b90506000846001600160a01b0316632ddc7de76040518163ffffffff1660e01b8152600401602060405180830381865afa158015611980573d6000803e3d6000fd5b505050506040513d601f19601f820116820180604052508101906119a4919061238e565b60408051600280825260608201835292935060009290916020830190803683370190505090506001816000815181106119df576119df6123a7565b602002602001018181525050600281600181518110611a0057611a006123a7565b60209081029190910101528215611c3457600080876001600160a01b0316636fc4eddd6040518163ffffffff1660e01b8152600401600060405180830381865afa158015611a52573d6000803e3d6000fd5b505050506040513d6000823e601f3d908101601f19168201604052611a7a91908101906124e9565b9150915060007f00000000000000000000000000000000000000000000000000000000000000006001600160a01b03166339dd753089886040518363ffffffff1660e01b8152600401611ace9291906123ec565b602060405180830381865afa158015611aeb573d6000803e3d6000fd5b505050506040513d601f19601f82011682018060405250810190611b0f919061238e565b6040516323b872dd60e01b81529091506001600160a01b038416906323b872dd90611b4290339030908c9060040161248e565b6020604051808303816000875af1158015611b61573d6000803e3d6000fd5b505050506040513d601f19601f82011682018060405250810190611b859190612435565b506040516314abb2c960e21b81526001600160a01b037f000000000000000000000000000000000000000000000000000000000000000016906352aecb2490611bfa907f00000000000000000000000000000000000000000000000000000000000000009085908c90309089906004016125a1565b600060405180830381600087803b158015611c1457600080fd5b505af1158015611c28573d6000803e3d6000fd5b50505050505050611cc7565b60405163095ea7b360e01b81526001600160a01b0386169063095ea7b390611c82907f00000000000000000000000000000000000000000000000000000000000000009088906004016123ec565b6020604051808303816000875af1158015611ca1573d6000803e3d6000fd5b505050506040513d601f19601f82011682018060405250810190611cc59190612435565b505b6040516372ce427560e01b81526001600160a01b037f000000000000000000000000000000000000000000000000000000000000000016906372ce427590611d1b9088908790879087908b9060040161267d565b600060405180830381600087803b158015611d3557600080fd5b505af1158015611d49573d6000803e3d6000fd5b505050506000866001600160a01b0316634d7b09006040518163ffffffff1660e01b8152600401602060405180830381865afa158015611d8d573d6000803e3d6000fd5b505050506040513d601f19601f82011682018060405250810190611db19190612405565b6001600160a01b0316866001600160a01b031614905060005b6002811015611fc0576000611de48887876001861b610406565b90506000808a6001600160a01b03166318a988a886611e0d57611e088660026124b2565b611e0f565b855b6040518263ffffffff1660e01b8152600401611e2d91815260200190565b600060405180830381865afa158015611e4a573d6000803e3d6000fd5b505050506040513d6000823e601f3d908101601f19168201604052611e7291908101906124e9565b604051637921219560e11b815291935091506001600160a01b037f0000000000000000000000000000000000000000000000000000000000000000169063f242432a90611eeb9030907f00000000000000000000000000000000000000000000000000000000000000009088908f908890600401612643565b600060405180830381600087803b158015611f0557600080fd5b505af1158015611f19573d6000803e3d6000fd5b505060405163a9059cbb60e01b81526001600160a01b038516925063a9059cbb9150611f4b9033908d906004016123ec565b6020604051808303816000875af1158015611f6a573d6000803e3d6000fd5b505050506040513d601f19601f82011682018060405250810190611f8e9190612435565b611faa5760405162461bcd60e51b815260040161081c906126bc565b5050508080611fb8906123d3565b915050611dca565b5050505050505050565b600060208284031215611fdc57600080fd5b81356001600160e01b031981168114611ff457600080fd5b9392505050565b60006020828403121561200d57600080fd5b5035919050565b6020808252825182820181905260009190848201906040850190845b8181101561204e578351151583529284019291840191600101612030565b50909695505050505050565b6001600160a01b0391909116815260200190565b6001600160a01b038116811461208357600080fd5b50565b6000806000806080858703121561209c57600080fd5b84356120a78161206e565b966020860135965060408601359560600135945092505050565b6000806000606084860312156120d657600080fd5b83356120e18161206e565b95602085013595506040909401359392505050565b60008060006060848603121561210b57600080fd5b83356121168161206e565b925060208401356121268161206e565b929592945050506040919091013590565b634e487b7160e01b600052604160045260246000fd5b604051601f8201601f191681016001600160401b038111828210171561217557612175612137565b604052919050565b600082601f83011261218e57600080fd5b813560206001600160401b038211156121a9576121a9612137565b8160051b6121b882820161214d565b92835284810182019282810190878511156121d257600080fd5b83870192505b848310156121f1578235825291830191908301906121d8565b979650505050505050565b60006001600160401b0382111561221557612215612137565b50601f01601f191660200190565b600082601f83011261223457600080fd5b8135612247612242826121fc565b61214d565b81815284602083860101111561225c57600080fd5b816020850160208301376000918101602001919091529392505050565b600080600080600060a0868803121561229157600080fd5b853561229c8161206e565b945060208601356122ac8161206e565b935060408601356001600160401b03808211156122c857600080fd5b6122d489838a0161217d565b945060608801359150808211156122ea57600080fd5b6122f689838a0161217d565b9350608088013591508082111561230c57600080fd5b5061231988828901612223565b9150509295509295909350565b600080600080600060a0868803121561233e57600080fd5b85356123498161206e565b945060208601356123598161206e565b9350604086013592506060860135915060808601356001600160401b0381111561238257600080fd5b61231988828901612223565b6000602082840312156123a057600080fd5b5051919050565b634e487b7160e01b600052603260045260246000fd5b634e487b7160e01b600052601160045260246000fd5b6000600182016123e5576123e56123bd565b5060010190565b6001600160a01b03929092168252602082015260400190565b60006020828403121561241757600080fd5b8151611ff48161206e565b81810381811115610248576102486123bd565b60006020828403121561244757600080fd5b81518015158114611ff457600080fd5b6020808252601a908201527f436f6c6c61746572616c207472616e73666572206661696c6564000000000000604082015260600190565b6001600160a01b039384168152919092166020820152604081019190915260600190565b80820180821115610248576102486123bd565b60005b838110156124e05781810151838201526020016124c8565b50506000910152565b600080604083850312156124fc57600080fd5b82516125078161206e565b60208401519092506001600160401b0381111561252357600080fd5b8301601f8101851361253457600080fd5b8051612542612242826121fc565b81815286602083850101111561255757600080fd5b6125688260208301602086016124c5565b8093505050509250929050565b6000815180845261258d8160208601602086016124c5565b601f01601f19169290920160200192915050565b6001600160a01b03868116825260208201869052604082018590528316606082015260a0608082018190526000906121f190830184612575565b600081518084526020808501945080840160005b8381101561260b578151875295820195908201906001016125ef565b509495945050505050565b60018060a01b038516815283602082015282604082015260806060820152600061053460808301846125db565b6001600160a01b03868116825285166020820152604081018490526060810183905260a0608082018190526000906121f190830184612575565b60018060a01b038616815284602082015283604082015260a0606082015260006126aa60a08301856125db565b90508260808301529695505050505050565b6020808252601d908201527f5772617070656420746f6b656e207472616e73666572206661696c656400000060408201526060019056fea2646970667358221220c1196b3eb6785ac6f98ff452d895db2f66ea36bdd937c03699f615c397e54eb864736f6c63430008140033",
  "devdoc": {
    "details": "Router implementation that allows to use two collateral tokens.",
    "kind": "dev",
    "methods": {
      "constructor": {
        "details": "Constructor.",
        "params": {
          "_conditionalTokens": "Conditional Tokens contract.",
          "_wrapped1155Factory": "Wrapped1155Factory contract."
        }
      },
      "getTokenId(address,bytes32,bytes32,uint256)": {
        "params": {
          "collateralToken": "The address of the ERC20 used as collateral.",
          "conditionId": "The id of the condition used to redeem.",
          "indexSet": "Index set of the outcome collection to combine with the parent outcome collection.",
          "parentCollectionId": "The Conditional Tokens parent collection id."
        },
        "returns": {
          "_0": "The token id."
        }
      },
      "getWinningOutcomes(bytes32)": {
        "params": {
          "conditionId": "The id of the condition."
        },
        "returns": {
          "_0": "An array of outcomes where a true value indicates that the outcome is redeemable."
        }
      },
      "mergePositions(address,address,uint256)": {
        "details": "The ERC20 associated to each outcome must be previously created on the wrapped1155Factory.Collateral tokens are withdrawn only if we are not merging a deep position (parentCollectionId is bytes32(0)).",
        "params": {
          "amount": "The amount of outcome tokens to merge.",
          "collateralToken": "The address of the ERC20 used as collateral.",
          "proposal": "The Proposal to merge."
        }
      },
      "redeemPositions(address,address,uint256)": {
        "params": {
          "amount": "Amount to redeem.",
          "collateralToken": "The address of the ERC20 used as collateral."
        }
      },
      "redeemProposal(address,uint256,uint256)": {
        "details": "The ERC20 associated to each outcome must be previously created on the wrapped1155Factory.Collateral tokens are withdrawn only if we are not redeeming a deep position (parentCollectionId is bytes32(0)).",
        "params": {
          "amount1": "Amount to redeem for the first collateral.",
          "amount2": "Amount to redeem for the second collateral.",
          "proposal": "The Proposal to redeem."
        }
      },
      "splitPosition(address,address,uint256)": {
        "details": "The ERC20 associated to each outcome must be previously created on the wrapped1155Factory.Collateral tokens are deposited only if we are not splitting a deep position (parentCollectionId is bytes32(0)).",
        "params": {
          "amount": "The amount of collateral to split.",
          "collateralToken": "The address of the ERC20 used as collateral.",
          "proposal": "The Proposal to split."
        }
      },
      "supportsInterface(bytes4)": {
        "details": "See {IERC165-supportsInterface}."
      }
    },
    "stateVariables": {
      "conditionalTokens": {
        "details": "Conditional Tokens contract."
      },
      "wrapped1155Factory": {
        "details": "Wrapped1155Factory contract."
      }
    },
    "version": 1
  },
  "userdoc": {
    "kind": "user",
    "methods": {
      "getTokenId(address,bytes32,bytes32,uint256)": {
        "notice": "Constructs a tokenId from a collateral token and an outcome collection."
      },
      "getWinningOutcomes(bytes32)": {
        "notice": "Helper function used to know the redeemable outcomes associated to a conditionId."
      },
      "mergePositions(address,address,uint256)": {
        "notice": "Merges positions and sends the collateral tokens to the user."
      },
      "redeemProposal(address,uint256,uint256)": {
        "notice": "Redeems positions and sends the collateral tokens to the user."
      },
      "splitPosition(address,address,uint256)": {
        "notice": "Transfers the collateral to the Router, splits the position and sends the ERC20 outcome tokens back to the user."
      }
    },
    "version": 1
  },
  "storageLayout": {
    "storage": [],
    "types": null
  }
}