{
  "address": "0x03E1fCfE3F1edc5833001588fb6377cB50A61cfc",
  "abi": [
    {
      "inputs": [
        {
          "internalType": "contract IConditionalTokens",
          "name": "_conditionalTokens",
          "type": "address"
        },
        {
          "internalType": "contract IRealityETH_v3_0",
          "name": "_realitio",
          "type": "address"
        }
      ],
      "stateMutability": "nonpayable",
      "type": "constructor"
    },
    {
      "inputs": [],
      "name": "conditionalTokens",
      "outputs": [
        {
          "internalType": "contract IConditionalTokens",
          "name": "",
          "type": "address"
        }
      ],
      "stateMutability": "view",
      "type": "function"
    },
    {
      "inputs": [],
      "name": "realitio",
      "outputs": [
        {
          "internalType": "contract IRealityETH_v3_0",
          "name": "",
          "type": "address"
        }
      ],
      "stateMutability": "view",
      "type": "function"
    },
    {
      "inputs": [
        {
          "internalType": "contract FutarchyProposal",
          "name": "proposal",
          "type": "address"
        }
      ],
      "name": "resolve",
      "outputs": [],
      "stateMutability": "nonpayable",
      "type": "function"
    }
  ],
  "transactionHash": "0xe91f5e3821e2e2756a943bbfa645bdd321e56436fc2f3b4c484316f15003b307",
  "args": [
    "0xCeAfDD6bc0bEF976fdCd1112955828E00543c0Ce",
    "0xE78996A233895bE74a66F451f1019cA9734205cc"
  ],
  "numDeployments": 3,
  "solcInputHash": "9bd5789cbaac467d0976302f58b5fb68",
  "bytecode": "0x60c060405234801561001057600080fd5b5060405161046038038061046083398101604081905261002f9161005e565b6001600160a01b039182166080521660a052610098565b6001600160a01b038116811461005b57600080fd5b50565b6000806040838503121561007157600080fd5b825161007c81610046565b602084015190925061008d81610046565b809150509250929050565b60805160a0516103976100c96000396000818160a3015261014d0152600081816060015261024501526103976000f3fe608060405234801561001057600080fd5b50600436106100415760003560e01c806355ea6c47146100465780635bd9e2991461005b578063bc8802a21461009e575b600080fd5b6100596100543660046102b4565b6100c5565b005b6100827f000000000000000000000000000000000000000000000000000000000000000081565b6040516001600160a01b03909116815260200160405180910390f35b6100827f000000000000000000000000000000000000000000000000000000000000000081565b6000816001600160a01b031663b06a5c526040518163ffffffff1660e01b8152600401602060405180830381865afa158015610105573d6000803e3d6000fd5b505050506040513d601f19601f8201168201806040525081019061012991906102e4565b60405163ab5a4e3560e01b8152600481018290529091506000906001600160a01b037f0000000000000000000000000000000000000000000000000000000000000000169063ab5a4e3590602401602060405180830381865afa158015610194573d6000803e3d6000fd5b505050506040513d601f19601f820116820180604052508101906101b891906102e4565b60408051600280825260608201835292935060009290916020830190803683370190505090508160000361020c576001816000815181106101fb576101fb6102fd565b60200260200101818152505061022e565b600181600181518110610221576102216102fd565b6020026020010181815250505b604051633124a62b60e21b81526001600160a01b037f0000000000000000000000000000000000000000000000000000000000000000169063c49298ac9061027c9086908590600401610313565b600060405180830381600087803b15801561029657600080fd5b505af11580156102aa573d6000803e3d6000fd5b5050505050505050565b6000602082840312156102c657600080fd5b81356001600160a01b03811681146102dd57600080fd5b9392505050565b6000602082840312156102f657600080fd5b5051919050565b634e487b7160e01b600052603260045260246000fd5b6000604082018483526020604081850152818551808452606086019150828701935060005b8181101561035457845183529383019391830191600101610338565b509097965050505050505056fea264697066735822122005914b0c18f2bbee8387904e9b8e103d838dcbf1d0e974ffc657762400d26a9464736f6c63430008140033",
  "devdoc": {
    "kind": "dev",
    "methods": {
      "constructor": {
        "details": "Constructor.",
        "params": {
          "_conditionalTokens": "Conditional Tokens contract address.",
          "_realitio": "Reality.eth contract address."
        }
      },
      "resolve(address)": {
        "details": "Resolves the specified proposal.",
        "params": {
          "proposal": "Proposal to resolve. UNTRUSTED."
        }
      }
    },
    "stateVariables": {
      "conditionalTokens": {
        "details": "Conditional Tokens contract."
      },
      "realitio": {
        "details": "Reality.eth contract."
      }
    },
    "version": 1
  },
  "userdoc": {
    "kind": "user",
    "methods": {},
    "version": 1
  },
  "storageLayout": {
    "storage": [],
    "types": null
  }
}