{
  "address": "0x204a20a508925601de0E0eE6B1114176052f8Be7",
  "abi": [
    {
      "inputs": [
        {
          "internalType": "contract IConditionalTokens",
          "name": "_conditionalTokens",
          "type": "address"
        },
        {
          "internalType": "contract WrappedERC20Factory",
          "name": "_wrappedERC20Factory",
          "type": "address"
        }
      ],
      "stateMutability": "nonpayable",
      "type": "constructor"
    },
    {
      "inputs": [],
      "name": "conditionalTokens",
      "outputs": [
        {
          "internalType": "contract IConditionalTokens",
          "name": "",
          "type": "address"
        }
      ],
      "stateMutability": "view",
      "type": "function"
    },
    {
      "inputs": [
        {
          "internalType": "contract IERC20",
          "name": "collateralToken",
          "type": "address"
        },
        {
          "internalType": "bytes32",
          "name": "parentCollectionId",
          "type": "bytes32"
        },
        {
          "internalType": "bytes32",
          "name": "conditionId",
          "type": "bytes32"
        },
        {
          "internalType": "uint256",
          "name": "indexSet",
          "type": "uint256"
        }
      ],
      "name": "getTokenAddress",
      "outputs": [
        {
          "internalType": "contract IERC20",
          "name": "",
          "type": "address"
        }
      ],
      "stateMutability": "view",
      "type": "function"
    },
    {
      "inputs": [
        {
          "internalType": "contract IERC20",
          "name": "collateralToken",
          "type": "address"
        },
        {
          "internalType": "bytes32",
          "name": "parentCollectionId",
          "type": "bytes32"
        },
        {
          "internalType": "bytes32",
          "name": "conditionId",
          "type": "bytes32"
        },
        {
          "internalType": "uint256",
          "name": "indexSet",
          "type": "uint256"
        }
      ],
      "name": "getTokenId",
      "outputs": [
        {
          "internalType": "uint256",
          "name": "",
          "type": "uint256"
        }
      ],
      "stateMutability": "view",
      "type": "function"
    },
    {
      "inputs": [
        {
          "internalType": "bytes32",
          "name": "conditionId",
          "type": "bytes32"
        }
      ],
      "name": "getWinningOutcomes",
      "outputs": [
        {
          "internalType": "bool[]",
          "name": "",
          "type": "bool[]"
        }
      ],
      "stateMutability": "view",
      "type": "function"
    },
    {
      "inputs": [
        {
          "internalType": "bytes32",
          "name": "conditionId",
          "type": "bytes32"
        }
      ],
      "name": "isPayoutReported",
      "outputs": [
        {
          "internalType": "bool",
          "name": "",
          "type": "bool"
        }
      ],
      "stateMutability": "view",
      "type": "function"
    },
    {
      "inputs": [
        {
          "internalType": "contract IERC20",
          "name": "collateralToken",
          "type": "address"
        },
        {
          "internalType": "bytes32",
          "name": "parentCollectionId",
          "type": "bytes32"
        },
        {
          "internalType": "bytes32",
          "name": "conditionId",
          "type": "bytes32"
        },
        {
          "internalType": "uint256[]",
          "name": "partition",
          "type": "uint256[]"
        },
        {
          "internalType": "uint256",
          "name": "amount",
          "type": "uint256"
        }
      ],
      "name": "mergePositions",
      "outputs": [],
      "stateMutability": "nonpayable",
      "type": "function"
    },
    {
      "inputs": [
        {
          "internalType": "bytes32",
          "name": "parentCollectionId",
          "type": "bytes32"
        },
        {
          "internalType": "bytes32",
          "name": "conditionId",
          "type": "bytes32"
        },
        {
          "internalType": "uint256[]",
          "name": "partition",
          "type": "uint256[]"
        },
        {
          "internalType": "uint256",
          "name": "amount",
          "type": "uint256"
        }
      ],
      "name": "mergeToBase",
      "outputs": [],
      "stateMutability": "nonpayable",
      "type": "function"
    },
    {
      "inputs": [
        {
          "internalType": "address",
          "name": "",
          "type": "address"
        },
        {
          "internalType": "address",
          "name": "",
          "type": "address"
        },
        {
          "internalType": "uint256[]",
          "name": "",
          "type": "uint256[]"
        },
        {
          "internalType": "uint256[]",
          "name": "",
          "type": "uint256[]"
        },
        {
          "internalType": "bytes",
          "name": "",
          "type": "bytes"
        }
      ],
      "name": "onERC1155BatchReceived",
      "outputs": [
        {
          "internalType": "bytes4",
          "name": "",
          "type": "bytes4"
        }
      ],
      "stateMutability": "nonpayable",
      "type": "function"
    },
    {
      "inputs": [
        {
          "internalType": "address",
          "name": "",
          "type": "address"
        },
        {
          "internalType": "address",
          "name": "",
          "type": "address"
        },
        {
          "internalType": "uint256",
          "name": "",
          "type": "uint256"
        },
        {
          "internalType": "uint256",
          "name": "",
          "type": "uint256"
        },
        {
          "internalType": "bytes",
          "name": "",
          "type": "bytes"
        }
      ],
      "name": "onERC1155Received",
      "outputs": [
        {
          "internalType": "bytes4",
          "name": "",
          "type": "bytes4"
        }
      ],
      "stateMutability": "nonpayable",
      "type": "function"
    },
    {
      "inputs": [
        {
          "internalType": "contract IERC20",
          "name": "collateralToken",
          "type": "address"
        },
        {
          "internalType": "bytes32",
          "name": "parentCollectionId",
          "type": "bytes32"
        },
        {
          "internalType": "bytes32",
          "name": "conditionId",
          "type": "bytes32"
        },
        {
          "internalType": "uint256[]",
          "name": "indexSets",
          "type": "uint256[]"
        }
      ],
      "name": "redeemPositions",
      "outputs": [],
      "stateMutability": "nonpayable",
      "type": "function"
    },
    {
      "inputs": [
        {
          "internalType": "bytes32",
          "name": "parentCollectionId",
          "type": "bytes32"
        },
        {
          "internalType": "bytes32",
          "name": "conditionId",
          "type": "bytes32"
        },
        {
          "internalType": "uint256[]",
          "name": "indexSets",
          "type": "uint256[]"
        }
      ],
      "name": "redeemToBase",
      "outputs": [],
      "stateMutability": "nonpayable",
      "type": "function"
    },
    {
      "inputs": [],
      "name": "sDAI",
      "outputs": [
        {
          "internalType": "contract IERC20",
          "name": "",
          "type": "address"
        }
      ],
      "stateMutability": "view",
      "type": "function"
    },
    {
      "inputs": [],
      "name": "savingsXDaiAdapter",
      "outputs": [
        {
          "internalType": "contract SavingsXDaiAdapter",
          "name": "",
          "type": "address"
        }
      ],
      "stateMutability": "view",
      "type": "function"
    },
    {
      "inputs": [
        {
          "internalType": "bytes32",
          "name": "parentCollectionId",
          "type": "bytes32"
        },
        {
          "internalType": "bytes32",
          "name": "conditionId",
          "type": "bytes32"
        },
        {
          "internalType": "uint256[]",
          "name": "partition",
          "type": "uint256[]"
        }
      ],
      "name": "splitFromBase",
      "outputs": [],
      "stateMutability": "payable",
      "type": "function"
    },
    {
      "inputs": [
        {
          "internalType": "contract IERC20",
          "name": "collateralToken",
          "type": "address"
        },
        {
          "internalType": "bytes32",
          "name": "parentCollectionId",
          "type": "bytes32"
        },
        {
          "internalType": "bytes32",
          "name": "conditionId",
          "type": "bytes32"
        },
        {
          "internalType": "uint256[]",
          "name": "partition",
          "type": "uint256[]"
        },
        {
          "internalType": "uint256",
          "name": "amount",
          "type": "uint256"
        }
      ],
      "name": "splitPosition",
      "outputs": [],
      "stateMutability": "nonpayable",
      "type": "function"
    },
    {
      "inputs": [
        {
          "internalType": "bytes4",
          "name": "interfaceId",
          "type": "bytes4"
        }
      ],
      "name": "supportsInterface",
      "outputs": [
        {
          "internalType": "bool",
          "name": "",
          "type": "bool"
        }
      ],
      "stateMutability": "view",
      "type": "function"
    },
    {
      "inputs": [],
      "name": "wrappedERC20Factory",
      "outputs": [
        {
          "internalType": "contract WrappedERC20Factory",
          "name": "",
          "type": "address"
        }
      ],
      "stateMutability": "view",
      "type": "function"
    }
  ],
  "transactionHash": "0xb69c48113670fc1affe9179b0960a64f3eff44b3039fb451526b1ce6c9beb1e0",
  "args": [
    "0xCeAfDD6bc0bEF976fdCd1112955828E00543c0Ce",
    "0xFb4c45a988F70D0f8eFb5Ab3A7feB00D463c16B7"
  ],
  "numDeployments": 2,
  "solcInputHash": "15f9634b15fc59ed27943a3fced3d1f5",
  "bytecode": "0x60806040523480156200001157600080fd5b5060405162001fa338038062001fa383398101604081905262000034916200007f565b600080546001600160a01b039384166001600160a01b03199182161790915560018054929093169116179055620000be565b6001600160a01b03811681146200007c57600080fd5b50565b600080604083850312156200009357600080fd5b8251620000a08162000066565b6020840151909250620000b38162000066565b809150509250929050565b611ed580620000ce6000396000f3fe6080604052600436106100de5760003560e01c806372ce42751161008557806372ce4275146102225780639e7212ad14610242578063a3814b1d14610262578063a88453d214610282578063abf7e273146102a2578063bc197c81146102ca578063de8b61491461030f578063f23a6e6114610337578063f7f57c041461036357600080fd5b806301b7037c146100e357806301ffc9a71461010557806302bd74c31461013a5780631a09424a1461016757806331d1ca27146101955780633577be81146101b55780635bd9e299146101d55780636137132514610202575b600080fd5b3480156100ef57600080fd5b506101036100fe366004611724565b610376565b005b34801561011157600080fd5b5061012561012036600461178d565b6104f8565b60405190151581526020015b60405180910390f35b34801561014657600080fd5b5061015a6101553660046117be565b61052f565b60405161013191906117d7565b34801561017357600080fd5b5061018761018236600461181d565b6106ac565b604051908152602001610131565b3480156101a157600080fd5b506101036101b0366004611858565b6107a6565b3480156101c157600080fd5b506101256101d03660046117be565b6108dd565b3480156101e157600080fd5b506000546101f5906001600160a01b031681565b60405161013191906118b2565b34801561020e57600080fd5b506001546101f5906001600160a01b031681565b34801561022e57600080fd5b5061010361023d3660046118c6565b610952565b34801561024e57600080fd5b5061010361025d3660046118c6565b6109d4565b34801561026e57600080fd5b5061010361027d366004611937565b610a53565b34801561028e57600080fd5b506101f561029d36600461181d565b610c06565b3480156102ae57600080fd5b506101f573d499b51fcfc66bd31248ef4b28d656d67e591a9481565b3480156102d657600080fd5b506102f66102e5366004611acb565b63bc197c8160e01b95945050505050565b6040516001600160e01b03199091168152602001610131565b34801561031b57600080fd5b506101f573af204776c7245bf4147c2612bf6e5972ee48370181565b34801561034357600080fd5b506102f6610352366004611b78565b63f23a6e6160e01b95945050505050565b610103610371366004611937565b610c8e565b6040516370a0823160e01b81526000906001600160a01b038716906370a08231906103a59030906004016118b2565b6020604051808303816000875af11580156103c4573d6000803e3d6000fd5b505050506040513d601f19601f820116820180604052508101906103e89190611be0565b90506103f78686868686610d38565b6040516370a0823160e01b81526000906001600160a01b038816906370a08231906104269030906004016118b2565b6020604051808303816000875af1158015610445573d6000803e3d6000fd5b505050506040513d601f19601f820116820180604052508101906104699190611be0565b9050818111156104ef576001600160a01b03871663a9059cbb3361048d8585611c0f565b6040518363ffffffff1660e01b81526004016104aa929190611c22565b6020604051808303816000875af11580156104c9573d6000803e3d6000fd5b505050506040513d601f19601f820116820180604052508101906104ed9190611c3b565b505b50505050505050565b60006001600160e01b03198216630271189760e51b148061052957506301ffc9a760e01b6001600160e01b03198316145b92915050565b60008054604051636a16e06160e11b815260048101849052606092916001600160a01b03169063d42dc0c290602401602060405180830381865afa15801561057b573d6000803e3d6000fd5b505050506040513d601f19601f8201168201806040525081019061059f9190611be0565b6001600160401b038111156105b6576105b6611989565b6040519080825280602002602001820160405280156105df578160200160208202803683370190505b50905060005b81518110156106a557600054604051630141320560e21b815260048101869052602481018390526001600160a01b0390911690630504c81490604401602060405180830381865afa15801561063e573d6000803e3d6000fd5b505050506040513d601f19601f820116820180604052508101906106629190611be0565b1561066e576001610671565b60005b82828151811061068357610683611c5d565b911515602092830291909101909101528061069d81611c73565b9150506105e5565b5092915050565b6000805460405163856296f760e01b815260048101869052602481018590526044810184905282916001600160a01b03169063856296f790606401602060405180830381865afa158015610704573d6000803e3d6000fd5b505050506040513d601f19601f820116820180604052508101906107289190611be0565b60005460405163039dd75360e41b81529192506001600160a01b0316906339dd75309061075b9089908590600401611c22565b602060405180830381865afa158015610778573d6000803e3d6000fd5b505050506040513d601f19601f8201168201806040525081019061079c9190611be0565b9695505050505050565b6107c873af204776c7245bf4147c2612bf6e5972ee4837018686868686611097565b60405163095ea7b360e01b815273af204776c7245bf4147c2612bf6e5972ee4837019063095ea7b3906108159073d499b51fcfc66bd31248ef4b28d656d67e591a94908590600401611c22565b6020604051808303816000875af1158015610834573d6000803e3d6000fd5b505050506040513d601f19601f820116820180604052508101906108589190611c3b565b5060405163d1ff824160e01b81526004810182905233602482015273d499b51fcfc66bd31248ef4b28d656d67e591a949063d1ff8241906044016020604051808303816000875af11580156108b1573d6000803e3d6000fd5b505050506040513d601f19601f820116820180604052508101906108d59190611be0565b505050505050565b6000805460405163dd34de6760e01b81526004810184905282916001600160a01b03169063dd34de6790602401602060405180830381865afa158015610927573d6000803e3d6000fd5b505050506040513d601f19601f8201168201806040525081019061094b9190611be0565b1192915050565b6040516323b872dd60e01b81526001600160a01b038716906323b872dd9061098290339030908690600401611c8c565b6020604051808303816000875af11580156109a1573d6000803e3d6000fd5b505050506040513d601f19601f820116820180604052508101906109c59190611c3b565b506108d586868686868661137a565b6109e2868686868686611097565b60405163a9059cbb60e01b81526001600160a01b0387169063a9059cbb90610a109033908590600401611c22565b6020604051808303816000875af1158015610a2f573d6000803e3d6000fd5b505050506040513d601f19601f820116820180604052508101906104ef9190611c3b565b6040516370a0823160e01b815260009073af204776c7245bf4147c2612bf6e5972ee483701906370a0823190610a8d9030906004016118b2565b6020604051808303816000875af1158015610aac573d6000803e3d6000fd5b505050506040513d601f19601f82011682018060405250810190610ad09190611be0565b9050610af373af204776c7245bf4147c2612bf6e5972ee48370186868686610d38565b6040516370a0823160e01b815260009073af204776c7245bf4147c2612bf6e5972ee483701906370a0823190610b2d9030906004016118b2565b6020604051808303816000875af1158015610b4c573d6000803e3d6000fd5b505050506040513d601f19601f82011682018060405250810190610b709190611be0565b9050818111156108d55773d499b51fcfc66bd31248ef4b28d656d67e591a9463d1ff8241610b9e8484611c0f565b6040516001600160e01b031960e084901b16815260048101919091523360248201526044016020604051808303816000875af1158015610be2573d6000803e3d6000fd5b505050506040513d601f19601f820116820180604052508101906104ef9190611be0565b6001546000906001600160a01b0316634f64b2be610c26878787876106ac565b6040518263ffffffff1660e01b8152600401610c4491815260200190565b602060405180830381865afa158015610c61573d6000803e3d6000fd5b505050506040513d601f19601f82011682018060405250810190610c859190611cb0565b95945050505050565b60405163f716a92b60e01b815260009073d499b51fcfc66bd31248ef4b28d656d67e591a949063f716a92b903490610cca9030906004016118b2565b60206040518083038185885af1158015610ce8573d6000803e3d6000fd5b50505050506040513d601f19601f82011682018060405250810190610d0d9190611be0565b9050610d3173af204776c7245bf4147c2612bf6e5972ee483701868686868661137a565b5050505050565b6001546040805163150c5b9760e01b815290516000926001600160a01b03169163150c5b979160048083019260209291908290030181865afa158015610d82573d6000803e3d6000fd5b505050506040513d601f19601f82011682018060405250810190610da69190611cb0565b905060005b82811015611025576000610dd9888888888887818110610dcd57610dcd611c5d565b905060200201356106ac565b6001546040516327b2595f60e11b8152600481018390529192506000916001600160a01b0390911690634f64b2be90602401602060405180830381865afa158015610e28573d6000803e3d6000fd5b505050506040513d601f19601f82011682018060405250810190610e4c9190611cb0565b90506000816001600160a01b03166370a08231336040518263ffffffff1660e01b8152600401610e7c91906118b2565b6020604051808303816000875af1158015610e9b573d6000803e3d6000fd5b505050506040513d601f19601f82011682018060405250810190610ebf9190611be0565b6040516323b872dd60e01b81529091506001600160a01b038316906323b872dd90610ef290339030908690600401611c8c565b6020604051808303816000875af1158015610f11573d6000803e3d6000fd5b505050506040513d601f19601f82011682018060405250810190610f359190611c3b565b506000546001546040516303c2ea1160e61b8152600481018690526001600160a01b03888116936352aecb24939082169288928792309291169063f0ba844090602401600060405180830381865afa158015610f95573d6000803e3d6000fd5b505050506040513d6000823e601f3d908101601f19168201604052610fbd9190810190611cf1565b6040518663ffffffff1660e01b8152600401610fdd959493929190611d8a565b600060405180830381600087803b158015610ff757600080fd5b505af115801561100b573d6000803e3d6000fd5b50505050505050808061101d90611c73565b915050610dab565b50600054604051626dc0df60e21b81526001600160a01b03909116906301b7037c9061105d9089908990899089908990600401611df6565b600060405180830381600087803b15801561107757600080fd5b505af115801561108b573d6000803e3d6000fd5b50505050505050505050565b6001546040805163150c5b9760e01b815290516000926001600160a01b03169163150c5b979160048083019260209291908290030181865afa1580156110e1573d6000803e3d6000fd5b505050506040513d601f19601f820116820180604052508101906111059190611cb0565b905060005b8381101561130457600061112c898989898987818110610dcd57610dcd611c5d565b6001546040516327b2595f60e11b8152600481018390529192506000916001600160a01b0390911690634f64b2be90602401602060405180830381865afa15801561117b573d6000803e3d6000fd5b505050506040513d601f19601f8201168201806040525081019061119f9190611cb0565b6040516323b872dd60e01b81529091506001600160a01b038216906323b872dd906111d290339030908a90600401611c8c565b6020604051808303816000875af11580156111f1573d6000803e3d6000fd5b505050506040513d601f19601f820116820180604052508101906112159190611c3b565b506000546001546040516303c2ea1160e61b8152600481018590526001600160a01b03878116936352aecb24939082169287928b92309291169063f0ba844090602401600060405180830381865afa158015611275573d6000803e3d6000fd5b505050506040513d6000823e601f3d908101601f1916820160405261129d9190810190611cf1565b6040518663ffffffff1660e01b81526004016112bd959493929190611d8a565b600060405180830381600087803b1580156112d757600080fd5b505af11580156112eb573d6000803e3d6000fd5b50505050505080806112fc90611c73565b91505061110a565b50600054604051639e7212ad60e01b81526001600160a01b0390911690639e7212ad9061133f908a908a908a908a908a908a90600401611e24565b600060405180830381600087803b15801561135957600080fd5b505af115801561136d573d6000803e3d6000fd5b5050505050505050505050565b60005460405163095ea7b360e01b81526001600160a01b038881169263095ea7b3926113ae92909116908590600401611c22565b6020604051808303816000875af11580156113cd573d6000803e3d6000fd5b505050506040513d601f19601f820116820180604052508101906113f19190611c3b565b506000546040516372ce427560e01b81526001600160a01b03909116906372ce42759061142c90899089908990899089908990600401611e24565b600060405180830381600087803b15801561144657600080fd5b505af115801561145a573d6000803e3d6000fd5b5050505060005b828110156104ef576000611483888888888887818110610dcd57610dcd611c5d565b6000546001546040805163150c5b9760e01b815290519394506001600160a01b039283169363f242432a933093169163150c5b979160048083019260209291908290030181865afa1580156114dc573d6000803e3d6000fd5b505050506040513d601f19601f820116820180604052508101906115009190611cb0565b6001546040516303c2ea1160e61b815260048101879052869189916001600160a01b039091169063f0ba844090602401600060405180830381865afa15801561154d573d6000803e3d6000fd5b505050506040513d6000823e601f3d908101601f191682016040526115759190810190611cf1565b6040518663ffffffff1660e01b8152600401611595959493929190611e65565b600060405180830381600087803b1580156115af57600080fd5b505af11580156115c3573d6000803e3d6000fd5b50506001546040516327b2595f60e11b815260048101859052600093506001600160a01b039091169150634f64b2be90602401602060405180830381865afa158015611613573d6000803e3d6000fd5b505050506040513d601f19601f820116820180604052508101906116379190611cb0565b60405163a9059cbb60e01b81529091506001600160a01b0382169063a9059cbb906116689033908890600401611c22565b6020604051808303816000875af1158015611687573d6000803e3d6000fd5b505050506040513d601f19601f820116820180604052508101906116ab9190611c3b565b50505080806116b990611c73565b915050611461565b6001600160a01b03811681146116d657600080fd5b50565b60008083601f8401126116eb57600080fd5b5081356001600160401b0381111561170257600080fd5b6020830191508360208260051b850101111561171d57600080fd5b9250929050565b60008060008060006080868803121561173c57600080fd5b8535611747816116c1565b9450602086013593506040860135925060608601356001600160401b0381111561177057600080fd5b61177c888289016116d9565b969995985093965092949392505050565b60006020828403121561179f57600080fd5b81356001600160e01b0319811681146117b757600080fd5b9392505050565b6000602082840312156117d057600080fd5b5035919050565b6020808252825182820181905260009190848201906040850190845b818110156118115783511515835292840192918401916001016117f3565b50909695505050505050565b6000806000806080858703121561183357600080fd5b843561183e816116c1565b966020860135965060408601359560600135945092505050565b60008060008060006080868803121561187057600080fd5b853594506020860135935060408601356001600160401b0381111561189457600080fd5b6118a0888289016116d9565b96999598509660600135949350505050565b6001600160a01b0391909116815260200190565b60008060008060008060a087890312156118df57600080fd5b86356118ea816116c1565b9550602087013594506040870135935060608701356001600160401b0381111561191357600080fd5b61191f89828a016116d9565b979a9699509497949695608090950135949350505050565b6000806000806060858703121561194d57600080fd5b843593506020850135925060408501356001600160401b0381111561197157600080fd5b61197d878288016116d9565b95989497509550505050565b634e487b7160e01b600052604160045260246000fd5b604051601f8201601f191681016001600160401b03811182821017156119c7576119c7611989565b604052919050565b600082601f8301126119e057600080fd5b813560206001600160401b038211156119fb576119fb611989565b8160051b611a0a82820161199f565b9283528481018201928281019087851115611a2457600080fd5b83870192505b84831015611a4357823582529183019190830190611a2a565b979650505050505050565b60006001600160401b03821115611a6757611a67611989565b50601f01601f191660200190565b600082601f830112611a8657600080fd5b8135611a99611a9482611a4e565b61199f565b818152846020838601011115611aae57600080fd5b816020850160208301376000918101602001919091529392505050565b600080600080600060a08688031215611ae357600080fd5b8535611aee816116c1565b94506020860135611afe816116c1565b935060408601356001600160401b0380821115611b1a57600080fd5b611b2689838a016119cf565b94506060880135915080821115611b3c57600080fd5b611b4889838a016119cf565b93506080880135915080821115611b5e57600080fd5b50611b6b88828901611a75565b9150509295509295909350565b600080600080600060a08688031215611b9057600080fd5b8535611b9b816116c1565b94506020860135611bab816116c1565b9350604086013592506060860135915060808601356001600160401b03811115611bd457600080fd5b611b6b88828901611a75565b600060208284031215611bf257600080fd5b5051919050565b634e487b7160e01b600052601160045260246000fd5b8181038181111561052957610529611bf9565b6001600160a01b03929092168252602082015260400190565b600060208284031215611c4d57600080fd5b815180151581146117b757600080fd5b634e487b7160e01b600052603260045260246000fd5b600060018201611c8557611c85611bf9565b5060010190565b6001600160a01b039384168152919092166020820152604081019190915260600190565b600060208284031215611cc257600080fd5b81516117b7816116c1565b60005b83811015611ce8578181015183820152602001611cd0565b50506000910152565b600060208284031215611d0357600080fd5b81516001600160401b03811115611d1957600080fd5b8201601f81018413611d2a57600080fd5b8051611d38611a9482611a4e565b818152856020838501011115611d4d57600080fd5b610c85826020830160208601611ccd565b60008151808452611d76816020860160208601611ccd565b601f01601f19169290920160200192915050565b6001600160a01b03868116825260208201869052604082018590528316606082015260a060808201819052600090611a4390830184611d5e565b81835260006001600160fb1b03831115611ddd57600080fd5b8260051b80836020870137939093016020019392505050565b60018060a01b0386168152846020820152836040820152608060608201526000611a43608083018486611dc4565b60018060a01b038716815285602082015284604082015260a060608201526000611e5260a083018587611dc4565b9050826080830152979650505050505050565b6001600160a01b03868116825285166020820152604081018490526060810183905260a060808201819052600090611a4390830184611d5e56fea2646970667358221220abffdf89822d019a2a3468fdc423f54c7c45bdff1c4174111e9f6249bdd94d8864736f6c63430008140033",
  "devdoc": {
    "kind": "dev",
    "methods": {
      "supportsInterface(bytes4)": {
        "details": "See {IERC165-supportsInterface}."
      }
    },
    "version": 1
  },
  "userdoc": {
    "kind": "user",
    "methods": {
      "mergeToBase(bytes32,bytes32,uint256[],uint256)": {
        "notice": "Merges the position and sends xDAI to the user."
      },
      "splitFromBase(bytes32,bytes32,uint256[])": {
        "notice": "Splits a position using xDAI."
      }
    },
    "version": 1
  },
  "storageLayout": {
    "storage": [
      {
        "astId": 3950,
        "contract": "src/GnosisRouter.sol:GnosisRouter",
        "label": "conditionalTokens",
        "offset": 0,
        "slot": "0",
        "type": "t_contract(IConditionalTokens)2037"
      },
      {
        "astId": 3953,
        "contract": "src/GnosisRouter.sol:GnosisRouter",
        "label": "wrappedERC20Factory",
        "offset": 0,
        "slot": "1",
        "type": "t_contract(WrappedERC20Factory)4676"
      }
    ],
    "types": {
      "t_contract(IConditionalTokens)2037": {
        "encoding": "inplace",
        "label": "contract IConditionalTokens",
        "numberOfBytes": "20"
      },
      "t_contract(WrappedERC20Factory)4676": {
        "encoding": "inplace",
        "label": "contract WrappedERC20Factory",
        "numberOfBytes": "20"
      }
    }
  }
}