{
  "address": "0xeC9048b59b3467415b1a38F63416407eA0c70fB8",
  "abi": [
    {
      "inputs": [
        {
          "internalType": "contract IConditionalTokens",
          "name": "_conditionalTokens",
          "type": "address"
        },
        {
          "internalType": "contract IWrapped1155Factory",
          "name": "_wrapped1155Factory",
          "type": "address"
        }
      ],
      "stateMutability": "nonpayable",
      "type": "constructor"
    },
    {
      "inputs": [],
      "name": "conditionalTokens",
      "outputs": [
        {
          "internalType": "contract IConditionalTokens",
          "name": "",
          "type": "address"
        }
      ],
      "stateMutability": "view",
      "type": "function"
    },
    {
      "inputs": [
        {
          "internalType": "contract IERC20",
          "name": "collateralToken",
          "type": "address"
        },
        {
          "internalType": "bytes32",
          "name": "parentCollectionId",
          "type": "bytes32"
        },
        {
          "internalType": "bytes32",
          "name": "conditionId",
          "type": "bytes32"
        },
        {
          "internalType": "uint256",
          "name": "indexSet",
          "type": "uint256"
        }
      ],
      "name": "getTokenId",
      "outputs": [
        {
          "internalType": "uint256",
          "name": "",
          "type": "uint256"
        }
      ],
      "stateMutability": "view",
      "type": "function"
    },
    {
      "inputs": [
        {
          "internalType": "bytes32",
          "name": "conditionId",
          "type": "bytes32"
        }
      ],
      "name": "getWinningOutcomes",
      "outputs": [
        {
          "internalType": "bool[]",
          "name": "",
          "type": "bool[]"
        }
      ],
      "stateMutability": "view",
      "type": "function"
    },
    {
      "inputs": [
        {
          "internalType": "contract IERC20",
          "name": "collateralToken",
          "type": "address"
        },
        {
          "internalType": "contract Market",
          "name": "market",
          "type": "address"
        },
        {
          "internalType": "uint256",
          "name": "amount",
          "type": "uint256"
        }
      ],
      "name": "mergePositions",
      "outputs": [],
      "stateMutability": "nonpayable",
      "type": "function"
    },
    {
      "inputs": [
        {
          "internalType": "contract Market",
          "name": "market",
          "type": "address"
        },
        {
          "internalType": "uint256",
          "name": "amount",
          "type": "uint256"
        }
      ],
      "name": "mergeToBase",
      "outputs": [],
      "stateMutability": "nonpayable",
      "type": "function"
    },
    {
      "inputs": [
        {
          "internalType": "address",
          "name": "",
          "type": "address"
        },
        {
          "internalType": "address",
          "name": "",
          "type": "address"
        },
        {
          "internalType": "uint256[]",
          "name": "",
          "type": "uint256[]"
        },
        {
          "internalType": "uint256[]",
          "name": "",
          "type": "uint256[]"
        },
        {
          "internalType": "bytes",
          "name": "",
          "type": "bytes"
        }
      ],
      "name": "onERC1155BatchReceived",
      "outputs": [
        {
          "internalType": "bytes4",
          "name": "",
          "type": "bytes4"
        }
      ],
      "stateMutability": "nonpayable",
      "type": "function"
    },
    {
      "inputs": [
        {
          "internalType": "address",
          "name": "",
          "type": "address"
        },
        {
          "internalType": "address",
          "name": "",
          "type": "address"
        },
        {
          "internalType": "uint256",
          "name": "",
          "type": "uint256"
        },
        {
          "internalType": "uint256",
          "name": "",
          "type": "uint256"
        },
        {
          "internalType": "bytes",
          "name": "",
          "type": "bytes"
        }
      ],
      "name": "onERC1155Received",
      "outputs": [
        {
          "internalType": "bytes4",
          "name": "",
          "type": "bytes4"
        }
      ],
      "stateMutability": "nonpayable",
      "type": "function"
    },
    {
      "inputs": [
        {
          "internalType": "contract IERC20",
          "name": "collateralToken",
          "type": "address"
        },
        {
          "internalType": "contract Market",
          "name": "market",
          "type": "address"
        },
        {
          "internalType": "uint256[]",
          "name": "outcomeIndexes",
          "type": "uint256[]"
        },
        {
          "internalType": "uint256[]",
          "name": "amounts",
          "type": "uint256[]"
        }
      ],
      "name": "redeemPositions",
      "outputs": [],
      "stateMutability": "nonpayable",
      "type": "function"
    },
    {
      "inputs": [
        {
          "internalType": "contract Market",
          "name": "market",
          "type": "address"
        },
        {
          "internalType": "uint256[]",
          "name": "outcomeIndexes",
          "type": "uint256[]"
        },
        {
          "internalType": "uint256[]",
          "name": "amounts",
          "type": "uint256[]"
        }
      ],
      "name": "redeemToBase",
      "outputs": [],
      "stateMutability": "nonpayable",
      "type": "function"
    },
    {
      "inputs": [],
      "name": "sDAI",
      "outputs": [
        {
          "internalType": "contract IERC20",
          "name": "",
          "type": "address"
        }
      ],
      "stateMutability": "view",
      "type": "function"
    },
    {
      "inputs": [],
      "name": "savingsXDaiAdapter",
      "outputs": [
        {
          "internalType": "contract ISavingsXDaiAdapter",
          "name": "",
          "type": "address"
        }
      ],
      "stateMutability": "view",
      "type": "function"
    },
    {
      "inputs": [
        {
          "internalType": "contract Market",
          "name": "market",
          "type": "address"
        }
      ],
      "name": "splitFromBase",
      "outputs": [],
      "stateMutability": "payable",
      "type": "function"
    },
    {
      "inputs": [
        {
          "internalType": "contract IERC20",
          "name": "collateralToken",
          "type": "address"
        },
        {
          "internalType": "contract Market",
          "name": "market",
          "type": "address"
        },
        {
          "internalType": "uint256",
          "name": "amount",
          "type": "uint256"
        }
      ],
      "name": "splitPosition",
      "outputs": [],
      "stateMutability": "nonpayable",
      "type": "function"
    },
    {
      "inputs": [
        {
          "internalType": "bytes4",
          "name": "interfaceId",
          "type": "bytes4"
        }
      ],
      "name": "supportsInterface",
      "outputs": [
        {
          "internalType": "bool",
          "name": "",
          "type": "bool"
        }
      ],
      "stateMutability": "view",
      "type": "function"
    },
    {
      "inputs": [],
      "name": "wrapped1155Factory",
      "outputs": [
        {
          "internalType": "contract IWrapped1155Factory",
          "name": "",
          "type": "address"
        }
      ],
      "stateMutability": "view",
      "type": "function"
    }
  ],
  "transactionHash": "0xa8d8f6f2dce43ec0b64bd3793895a1a4b959290654985f1ca1fb7e08221f6449",
  "args": [
    "0xCeAfDD6bc0bEF976fdCd1112955828E00543c0Ce",
    "0xD194319D1804C1051DD21Ba1Dc931cA72410B79f"
  ],
  "numDeployments": 14,
  "solcInputHash": "11bbf49c301756d451a7b3663984cace",
  "bytecode": "0x60c06040523480156200001157600080fd5b5060405162002d6d38038062002d6d833981016040819052620000349162000065565b6001600160a01b039182166080521660a052620000a4565b6001600160a01b03811681146200006257600080fd5b50565b600080604083850312156200007957600080fd5b825162000086816200004c565b602084015190925062000099816200004c565b809150509250929050565b60805160a051612be662000187600039600081816101410152818161119b015281816114410152818161179301528181611a0f01528181611d9701526121580152600081816101c5015281816103a30152818161047a01528181610568015281816105ed01528181610f7501528181611080015281816111c801528181611256015281816112dc0152818161141201528181611617015281816117c001528181611850015281816118e1015281816119e001528181611dc601528181611e8801528181611f1901528181611fa90152818161203701526121300152612be66000f3fe6080604052600436106100c85760003560e01c8063865955a01161007a578063865955a0146102075780639fe603e814610227578063abf7e27314610247578063bc197c811461026f578063d5f82280146102b4578063d6d150d1146102d4578063de8b6149146102f4578063f23a6e611461031c57600080fd5b806301ffc9a7146100cd57806302bd74c314610102578063150c5b971461012f5780631a09424a1461017057806350d9991c1461019e5780635bd9e299146101b35780637abef8d1146101e7575b600080fd5b3480156100d957600080fd5b506100ed6100e8366004612342565b610348565b60405190151581526020015b60405180910390f35b34801561010e57600080fd5b5061012261011d366004612373565b61037f565b6040516100f9919061238c565b34801561013b57600080fd5b506101637f000000000000000000000000000000000000000000000000000000000000000081565b6040516100f991906123d2565b34801561017c57600080fd5b5061019061018b3660046123fe565b610537565b6040519081526020016100f9565b6101b16101ac366004612439565b61066f565b005b3480156101bf57600080fd5b506101637f000000000000000000000000000000000000000000000000000000000000000081565b3480156101f357600080fd5b506101b1610202366004612456565b610713565b34801561021357600080fd5b506101b16102223660046124e2565b610824565b34801561023357600080fd5b506101b1610242366004612576565b610a34565b34801561025357600080fd5b5061016373d499b51fcfc66bd31248ef4b28d656d67e591a9481565b34801561027b57600080fd5b5061029b61028a36600461273a565b63bc197c8160e01b95945050505050565b6040516001600160e01b031990911681526020016100f9565b3480156102c057600080fd5b506101b16102cf366004612456565b610c8b565b3480156102e057600080fd5b506101b16102ef3660046127e7565b610d76565b34801561030057600080fd5b5061016373af204776c7245bf4147c2612bf6e5972ee48370181565b34801561032857600080fd5b5061029b610337366004612813565b63f23a6e6160e01b95945050505050565b60006001600160e01b03198216630271189760e51b148061037957506301ffc9a760e01b6001600160e01b03198316145b92915050565b604051636a16e06160e11b8152600481018290526060906000906001600160a01b037f0000000000000000000000000000000000000000000000000000000000000000169063d42dc0c290602401602060405180830381865afa1580156103ea573d6000803e3d6000fd5b505050506040513d601f19601f8201168201806040525081019061040e919061287b565b6001600160401b03811115610425576104256125f8565b60405190808252806020026020018201604052801561044e578160200160208202803683370190505b50905060005b815181101561053057604051630141320560e21b815260048101859052602481018290527f00000000000000000000000000000000000000000000000000000000000000006001600160a01b031690630504c81490604401602060405180830381865afa1580156104c9573d6000803e3d6000fd5b505050506040513d601f19601f820116820180604052508101906104ed919061287b565b156104f95760016104fc565b60005b82828151811061050e5761050e612894565b9115156020928302919091019091015280610528816128c0565b915050610454565b5092915050565b60405163856296f760e01b815260048101849052602481018390526044810182905260009081906001600160a01b037f0000000000000000000000000000000000000000000000000000000000000000169063856296f790606401602060405180830381865afa1580156105af573d6000803e3d6000fd5b505050506040513d601f19601f820116820180604052508101906105d3919061287b565b60405163039dd75360e41b81529091506001600160a01b037f000000000000000000000000000000000000000000000000000000000000000016906339dd75309061062490899085906004016128d9565b602060405180830381865afa158015610641573d6000803e3d6000fd5b505050506040513d601f19601f82011682018060405250810190610665919061287b565b9695505050505050565b60405163f716a92b60e01b815260009073d499b51fcfc66bd31248ef4b28d656d67e591a949063f716a92b9034906106ab9030906004016123d2565b60206040518083038185885af11580156106c9573d6000803e3d6000fd5b50505050506040513d601f19601f820116820180604052508101906106ee919061287b565b905061070f73af204776c7245bf4147c2612bf6e5972ee4837018383610ea2565b5050565b61071e838383611544565b6000801b826001600160a01b03166344bea37e6040518163ffffffff1660e01b8152600401602060405180830381865afa158015610760573d6000803e3d6000fd5b505050506040513d601f19601f82011682018060405250810190610784919061287b565b0361081f5760405163a9059cbb60e01b81526001600160a01b0384169063a9059cbb906107b790339085906004016128d9565b6020604051808303816000875af11580156107d6573d6000803e3d6000fd5b505050506040513d601f19601f820116820180604052508101906107fa91906128f2565b61081f5760405162461bcd60e51b815260040161081690612914565b60405180910390fd5b505050565b6000856001600160a01b03166344bea37e6040518163ffffffff1660e01b8152600401602060405180830381865afa158015610864573d6000803e3d6000fd5b505050506040513d601f19601f82011682018060405250810190610888919061287b565b9050600081610903576040516370a0823160e01b81526001600160a01b038916906370a08231906108bd9030906004016123d2565b6020604051808303816000875af11580156108dc573d6000803e3d6000fd5b505050506040513d601f19601f82011682018060405250810190610900919061287b565b90505b610911888888888888611b04565b81610a2a576040516370a0823160e01b81526000906001600160a01b038a16906370a08231906109459030906004016123d2565b6020604051808303816000875af1158015610964573d6000803e3d6000fd5b505050506040513d601f19601f82011682018060405250810190610988919061287b565b905081811115610a28576001600160a01b03891663a9059cbb336109ac858561294b565b6040518363ffffffff1660e01b81526004016109c99291906128d9565b6020604051808303816000875af11580156109e8573d6000803e3d6000fd5b505050506040513d601f19601f82011682018060405250810190610a0c91906128f2565b610a285760405162461bcd60e51b815260040161081690612914565b505b5050505050505050565b6040516370a0823160e01b815260009073af204776c7245bf4147c2612bf6e5972ee483701906370a0823190610a6e9030906004016123d2565b6020604051808303816000875af1158015610a8d573d6000803e3d6000fd5b505050506040513d601f19601f82011682018060405250810190610ab1919061287b565b9050610ad573af204776c7245bf4147c2612bf6e5972ee4837018787878787611b04565b6040516370a0823160e01b815260009073af204776c7245bf4147c2612bf6e5972ee483701906370a0823190610b0f9030906004016123d2565b6020604051808303816000875af1158015610b2e573d6000803e3d6000fd5b505050506040513d601f19601f82011682018060405250810190610b52919061287b565b905081811115610c825773af204776c7245bf4147c2612bf6e5972ee48370163095ea7b373d499b51fcfc66bd31248ef4b28d656d67e591a94610b95858561294b565b6040518363ffffffff1660e01b8152600401610bb29291906128d9565b6020604051808303816000875af1158015610bd1573d6000803e3d6000fd5b505050506040513d601f19601f82011682018060405250810190610bf591906128f2565b5073d499b51fcfc66bd31248ef4b28d656d67e591a9463d1ff8241610c1a848461294b565b6040516001600160e01b031960e084901b16815260048101919091523360248201526044016020604051808303816000875af1158015610c5e573d6000803e3d6000fd5b505050506040513d601f19601f82011682018060405250810190610a2a919061287b565b50505050505050565b6000801b826001600160a01b03166344bea37e6040518163ffffffff1660e01b8152600401602060405180830381865afa158015610ccd573d6000803e3d6000fd5b505050506040513d601f19601f82011682018060405250810190610cf1919061287b565b03610d6b576040516323b872dd60e01b81526001600160a01b038416906323b872dd90610d269033903090869060040161295e565b6020604051808303816000875af1158015610d45573d6000803e3d6000fd5b505050506040513d601f19601f82011682018060405250810190610d6991906128f2565b505b61081f838383610ea2565b610d9573af204776c7245bf4147c2612bf6e5972ee4837018383611544565b60405163095ea7b360e01b815273af204776c7245bf4147c2612bf6e5972ee4837019063095ea7b390610de29073d499b51fcfc66bd31248ef4b28d656d67e591a949085906004016128d9565b6020604051808303816000875af1158015610e01573d6000803e3d6000fd5b505050506040513d601f19601f82011682018060405250810190610e2591906128f2565b5060405163d1ff824160e01b81526004810182905233602482015273d499b51fcfc66bd31248ef4b28d656d67e591a949063d1ff8241906044016020604051808303816000875af1158015610e7e573d6000803e3d6000fd5b505050506040513d601f19601f8201168201806040525081019061081f919061287b565b6000826001600160a01b03166344bea37e6040518163ffffffff1660e01b8152600401602060405180830381865afa158015610ee2573d6000803e3d6000fd5b505050506040513d601f19601f82011682018060405250810190610f06919061287b565b90506000836001600160a01b0316632ddc7de76040518163ffffffff1660e01b8152600401602060405180830381865afa158015610f48573d6000803e3d6000fd5b505050506040513d601f19601f82011682018060405250810190610f6c919061287b565b905060006110077f00000000000000000000000000000000000000000000000000000000000000006001600160a01b031663d42dc0c2846040518263ffffffff1660e01b8152600401610fc191815260200190565b602060405180830381865afa158015610fde573d6000803e3d6000fd5b505050506040513d601f19601f82011682018060405250810190611002919061287b565b6122bb565b9050821561123257600080866001600160a01b0316636fc4eddd6040518163ffffffff1660e01b8152600401600060405180830381865afa158015611050573d6000803e3d6000fd5b505050506040513d6000823e601f3d908101601f1916820160405261107891908101906129a6565b9150915060007f00000000000000000000000000000000000000000000000000000000000000006001600160a01b03166339dd75308a886040518363ffffffff1660e01b81526004016110cc9291906128d9565b602060405180830381865afa1580156110e9573d6000803e3d6000fd5b505050506040513d601f19601f8201168201806040525081019061110d919061287b565b6040516323b872dd60e01b81529091506001600160a01b038416906323b872dd9061114090339030908c9060040161295e565b6020604051808303816000875af115801561115f573d6000803e3d6000fd5b505050506040513d601f19601f8201168201806040525081019061118391906128f2565b506040516314abb2c960e21b81526001600160a01b037f000000000000000000000000000000000000000000000000000000000000000016906352aecb24906111f8907f00000000000000000000000000000000000000000000000000000000000000009085908c9030908990600401612a5e565b600060405180830381600087803b15801561121257600080fd5b505af1158015611226573d6000803e3d6000fd5b505050505050506112c5565b60405163095ea7b360e01b81526001600160a01b0387169063095ea7b390611280907f00000000000000000000000000000000000000000000000000000000000000009088906004016128d9565b6020604051808303816000875af115801561129f573d6000803e3d6000fd5b505050506040513d601f19601f820116820180604052508101906112c391906128f2565b505b6040516372ce427560e01b81526001600160a01b037f000000000000000000000000000000000000000000000000000000000000000016906372ce4275906113199089908790879087908b90600401612ad3565b600060405180830381600087803b15801561133357600080fd5b505af1158015611347573d6000803e3d6000fd5b5050505060005b8151811015610c8257600061137e88868686868151811061137157611371612894565b6020026020010151610537565b9050600080886001600160a01b03166318a988a8856040518263ffffffff1660e01b81526004016113b191815260200190565b600060405180830381865afa1580156113ce573d6000803e3d6000fd5b505050506040513d6000823e601f3d908101601f191682016040526113f691908101906129a6565b604051637921219560e11b815291935091506001600160a01b037f0000000000000000000000000000000000000000000000000000000000000000169063f242432a9061146f9030907f00000000000000000000000000000000000000000000000000000000000000009088908e908890600401612b12565b600060405180830381600087803b15801561148957600080fd5b505af115801561149d573d6000803e3d6000fd5b505060405163a9059cbb60e01b81526001600160a01b038516925063a9059cbb91506114cf9033908c906004016128d9565b6020604051808303816000875af11580156114ee573d6000803e3d6000fd5b505050506040513d601f19601f8201168201806040525081019061151291906128f2565b61152e5760405162461bcd60e51b815260040161081690612b4c565b505050808061153c906128c0565b91505061134e565b6000826001600160a01b03166344bea37e6040518163ffffffff1660e01b8152600401602060405180830381865afa158015611584573d6000803e3d6000fd5b505050506040513d601f19601f820116820180604052508101906115a8919061287b565b90506000836001600160a01b0316632ddc7de76040518163ffffffff1660e01b8152600401602060405180830381865afa1580156115ea573d6000803e3d6000fd5b505050506040513d601f19601f8201168201806040525081019061160e919061287b565b905060006116637f00000000000000000000000000000000000000000000000000000000000000006001600160a01b031663d42dc0c2846040518263ffffffff1660e01b8152600401610fc191815260200190565b905060005b815181101561183857600061168b88868686868151811061137157611371612894565b9050600080886001600160a01b03166318a988a8856040518263ffffffff1660e01b81526004016116be91815260200190565b600060405180830381865afa1580156116db573d6000803e3d6000fd5b505050506040513d6000823e601f3d908101601f1916820160405261170391908101906129a6565b6040516323b872dd60e01b815291935091506001600160a01b038316906323b872dd9061173890339030908d9060040161295e565b6020604051808303816000875af1158015611757573d6000803e3d6000fd5b505050506040513d601f19601f8201168201806040525081019061177b91906128f2565b506040516314abb2c960e21b81526001600160a01b037f000000000000000000000000000000000000000000000000000000000000000016906352aecb24906117f0907f00000000000000000000000000000000000000000000000000000000000000009087908d9030908890600401612a5e565b600060405180830381600087803b15801561180a57600080fd5b505af115801561181e573d6000803e3d6000fd5b505050505050508080611830906128c0565b915050611668565b50604051639e7212ad60e01b81526001600160a01b037f00000000000000000000000000000000000000000000000000000000000000001690639e7212ad9061188d9089908790879087908b90600401612ad3565b600060405180830381600087803b1580156118a757600080fd5b505af11580156118bb573d6000803e3d6000fd5b505084159150611afc90505760405163039dd75360e41b81526000906001600160a01b037f000000000000000000000000000000000000000000000000000000000000000016906339dd753090611918908a9088906004016128d9565b602060405180830381865afa158015611935573d6000803e3d6000fd5b505050506040513d601f19601f82011682018060405250810190611959919061287b565b9050600080876001600160a01b0316636fc4eddd6040518163ffffffff1660e01b8152600401600060405180830381865afa15801561199c573d6000803e3d6000fd5b505050506040513d6000823e601f3d908101601f191682016040526119c491908101906129a6565b604051637921219560e11b815291935091506001600160a01b037f0000000000000000000000000000000000000000000000000000000000000000169063f242432a90611a3d9030907f00000000000000000000000000000000000000000000000000000000000000009088908d908890600401612b12565b600060405180830381600087803b158015611a5757600080fd5b505af1158015611a6b573d6000803e3d6000fd5b505060405163a9059cbb60e01b81526001600160a01b038516925063a9059cbb9150611a9d9033908b906004016128d9565b6020604051808303816000875af1158015611abc573d6000803e3d6000fd5b505050506040513d601f19601f82011682018060405250810190611ae091906128f2565b610a285760405162461bcd60e51b815260040161081690612b4c565b505050505050565b6000856001600160a01b03166344bea37e6040518163ffffffff1660e01b8152600401602060405180830381865afa158015611b44573d6000803e3d6000fd5b505050506040513d601f19601f82011682018060405250810190611b68919061287b565b90506000866001600160a01b0316632ddc7de76040518163ffffffff1660e01b8152600401602060405180830381865afa158015611baa573d6000803e3d6000fd5b505050506040513d601f19601f82011682018060405250810190611bce919061287b565b9050600080866001600160401b03811115611beb57611beb6125f8565b604051908082528060200260200182016040528015611c14578160200160208202803683370190505b50905060005b87811015611e6857888882818110611c3457611c34612894565b905060200201356001901b828281518110611c5157611c51612894565b602002602001018181525050611c758b868685858151811061137157611371612894565b92506000808b6001600160a01b03166318a988a88c8c86818110611c9b57611c9b612894565b905060200201356040518263ffffffff1660e01b8152600401611cc091815260200190565b600060405180830381865afa158015611cdd573d6000803e3d6000fd5b505050506040513d6000823e601f3d908101601f19168201604052611d0591908101906129a6565b91509150816001600160a01b03166323b872dd33308c8c88818110611d2c57611d2c612894565b905060200201356040518463ffffffff1660e01b8152600401611d519392919061295e565b6020604051808303816000875af1158015611d70573d6000803e3d6000fd5b505050506040513d601f19601f82011682018060405250810190611d9491906128f2565b507f00000000000000000000000000000000000000000000000000000000000000006001600160a01b03166352aecb247f0000000000000000000000000000000000000000000000000000000000000000878c8c88818110611df857611df8612894565b9050602002013530866040518663ffffffff1660e01b8152600401611e21959493929190612a5e565b600060405180830381600087803b158015611e3b57600080fd5b505af1158015611e4f573d6000803e3d6000fd5b5050505050508080611e60906128c0565b915050611c1a565b5060008415611f935760405163039dd75360e41b81526001600160a01b037f000000000000000000000000000000000000000000000000000000000000000016906339dd753090611ebf908e9089906004016128d9565b602060405180830381865afa158015611edc573d6000803e3d6000fd5b505050506040513d601f19601f82011682018060405250810190611f00919061287b565b604051627eeac760e11b81529093506001600160a01b037f0000000000000000000000000000000000000000000000000000000000000000169062fdd58e90611f4f90309087906004016128d9565b602060405180830381865afa158015611f6c573d6000803e3d6000fd5b505050506040513d601f19601f82011682018060405250810190611f90919061287b565b90505b604051626dc0df60e21b81526001600160a01b037f000000000000000000000000000000000000000000000000000000000000000016906301b7037c90611fe4908e90899089908890600401612b83565b600060405180830381600087803b158015611ffe57600080fd5b505af1158015612012573d6000803e3d6000fd5b5050861591506122ae905057604051627eeac760e11b81526000906001600160a01b037f0000000000000000000000000000000000000000000000000000000000000000169062fdd58e9061206d90309088906004016128d9565b602060405180830381865afa15801561208a573d6000803e3d6000fd5b505050506040513d601f19601f820116820180604052508101906120ae919061287b565b9050818111156122ac576000808c6001600160a01b0316636fc4eddd6040518163ffffffff1660e01b8152600401600060405180830381865afa1580156120f9573d6000803e3d6000fd5b505050506040513d6000823e601f3d908101601f1916820160405261212191908101906129a6565b90925090506001600160a01b037f00000000000000000000000000000000000000000000000000000000000000001663f242432a307f000000000000000000000000000000000000000000000000000000000000000089612182898961294b565b866040518663ffffffff1660e01b81526004016121a3959493929190612b12565b600060405180830381600087803b1580156121bd57600080fd5b505af11580156121d1573d6000803e3d6000fd5b50505050816001600160a01b031663a9059cbb3386866121f1919061294b565b6040518363ffffffff1660e01b815260040161220e9291906128d9565b6020604051808303816000875af115801561222d573d6000803e3d6000fd5b505050506040513d601f19601f8201168201806040525081019061225191906128f2565b6122a95760405162461bcd60e51b8152602060048201526024808201527f506172656e74207772617070656420746f6b656e207472616e736665722066616044820152631a5b195960e21b6064820152608401610816565b50505b505b5050505050505050505050565b60606000826001600160401b038111156122d7576122d76125f8565b604051908082528060200260200182016040528015612300578160200160208202803683370190505b50905060005b8381101561053057806001901b82828151811061232557612325612894565b60209081029190910101528061233a816128c0565b915050612306565b60006020828403121561235457600080fd5b81356001600160e01b03198116811461236c57600080fd5b9392505050565b60006020828403121561238557600080fd5b5035919050565b6020808252825182820181905260009190848201906040850190845b818110156123c65783511515835292840192918401916001016123a8565b50909695505050505050565b6001600160a01b0391909116815260200190565b6001600160a01b03811681146123fb57600080fd5b50565b6000806000806080858703121561241457600080fd5b843561241f816123e6565b966020860135965060408601359560600135945092505050565b60006020828403121561244b57600080fd5b813561236c816123e6565b60008060006060848603121561246b57600080fd5b8335612476816123e6565b92506020840135612486816123e6565b929592945050506040919091013590565b60008083601f8401126124a957600080fd5b5081356001600160401b038111156124c057600080fd5b6020830191508360208260051b85010111156124db57600080fd5b9250929050565b600080600080600080608087890312156124fb57600080fd5b8635612506816123e6565b95506020870135612516816123e6565b945060408701356001600160401b038082111561253257600080fd5b61253e8a838b01612497565b9096509450606089013591508082111561255757600080fd5b5061256489828a01612497565b979a9699509497509295939492505050565b60008060008060006060868803121561258e57600080fd5b8535612599816123e6565b945060208601356001600160401b03808211156125b557600080fd5b6125c189838a01612497565b909650945060408801359150808211156125da57600080fd5b506125e788828901612497565b969995985093965092949392505050565b634e487b7160e01b600052604160045260246000fd5b604051601f8201601f191681016001600160401b0381118282101715612636576126366125f8565b604052919050565b600082601f83011261264f57600080fd5b813560206001600160401b0382111561266a5761266a6125f8565b8160051b61267982820161260e565b928352848101820192828101908785111561269357600080fd5b83870192505b848310156126b257823582529183019190830190612699565b979650505050505050565b60006001600160401b038211156126d6576126d66125f8565b50601f01601f191660200190565b600082601f8301126126f557600080fd5b8135612708612703826126bd565b61260e565b81815284602083860101111561271d57600080fd5b816020850160208301376000918101602001919091529392505050565b600080600080600060a0868803121561275257600080fd5b853561275d816123e6565b9450602086013561276d816123e6565b935060408601356001600160401b038082111561278957600080fd5b61279589838a0161263e565b945060608801359150808211156127ab57600080fd5b6127b789838a0161263e565b935060808801359150808211156127cd57600080fd5b506127da888289016126e4565b9150509295509295909350565b600080604083850312156127fa57600080fd5b8235612805816123e6565b946020939093013593505050565b600080600080600060a0868803121561282b57600080fd5b8535612836816123e6565b94506020860135612846816123e6565b9350604086013592506060860135915060808601356001600160401b0381111561286f57600080fd5b6127da888289016126e4565b60006020828403121561288d57600080fd5b5051919050565b634e487b7160e01b600052603260045260246000fd5b634e487b7160e01b600052601160045260246000fd5b6000600182016128d2576128d26128aa565b5060010190565b6001600160a01b03929092168252602082015260400190565b60006020828403121561290457600080fd5b8151801515811461236c57600080fd5b6020808252601a908201527f436f6c6c61746572616c207472616e73666572206661696c6564000000000000604082015260600190565b81810381811115610379576103796128aa565b6001600160a01b039384168152919092166020820152604081019190915260600190565b60005b8381101561299d578181015183820152602001612985565b50506000910152565b600080604083850312156129b957600080fd5b82516129c4816123e6565b60208401519092506001600160401b038111156129e057600080fd5b8301601f810185136129f157600080fd5b80516129ff612703826126bd565b818152866020838501011115612a1457600080fd5b612a25826020830160208601612982565b8093505050509250929050565b60008151808452612a4a816020860160208601612982565b601f01601f19169290920160200192915050565b6001600160a01b03868116825260208201869052604082018590528316606082015260a0608082018190526000906126b290830184612a32565b600081518084526020808501945080840160005b83811015612ac857815187529582019590820190600101612aac565b509495945050505050565b60018060a01b038616815284602082015283604082015260a060608201526000612b0060a0830185612a98565b90508260808301529695505050505050565b6001600160a01b03868116825285166020820152604081018490526060810183905260a0608082018190526000906126b290830184612a32565b6020808252601d908201527f5772617070656420746f6b656e207472616e73666572206661696c6564000000604082015260600190565b60018060a01b03851681528360208201528260408201526080606082015260006106656080830184612a9856fea264697066735822122007094fa58a2ea27a22bb77ce5e25e358927a755fb09c7861064520c5db78e62864736f6c63430008140033",
  "devdoc": {
    "details": "Router implementation with functions to interact with xDAI on Gnosis Chain.",
    "kind": "dev",
    "methods": {
      "constructor": {
        "details": "Constructor.",
        "params": {
          "_conditionalTokens": "Conditional Tokens contract.",
          "_wrapped1155Factory": "Wrapped1155Factory contract."
        }
      },
      "getTokenId(address,bytes32,bytes32,uint256)": {
        "params": {
          "collateralToken": "The address of the ERC20 used as collateral.",
          "conditionId": "The id of the condition used to redeem.",
          "indexSet": "Index set of the outcome collection to combine with the parent outcome collection.",
          "parentCollectionId": "The Conditional Tokens parent collection id."
        },
        "returns": {
          "_0": "The token id."
        }
      },
      "getWinningOutcomes(bytes32)": {
        "params": {
          "conditionId": "The id of the condition."
        },
        "returns": {
          "_0": "An array of outcomes where a true value indicates that the outcome is redeemable."
        }
      },
      "mergePositions(address,address,uint256)": {
        "details": "The ERC20 associated to each outcome must be previously created on the wrapped1155Factory.Collateral tokens are withdrawn only if we are not merging a deep position (parentCollectionId is bytes32(0)).",
        "params": {
          "amount": "The amount of outcome tokens to merge.",
          "collateralToken": "The address of the ERC20 used as collateral.",
          "market": "The Market to merge."
        }
      },
      "mergeToBase(address,uint256)": {
        "details": "The ERC20 associated to each outcome must be previously created on the wrapped1155Factory.",
        "params": {
          "amount": "The amount of outcome tokens to merge.",
          "market": "The Market to merge."
        }
      },
      "redeemPositions(address,address,uint256[],uint256[])": {
        "details": "The ERC20 associated to each outcome must be previously created on the wrapped1155Factory.Collateral tokens are withdrawn only if we are not redeeming a deep position (parentCollectionId is bytes32(0)).",
        "params": {
          "amounts": "Amount to redeem of each outcome.",
          "collateralToken": "The address of the ERC20 used as collateral.",
          "market": "The Market to redeem.",
          "outcomeIndexes": "The index of the outcomes to redeem."
        }
      },
      "redeemToBase(address,uint256[],uint256[])": {
        "details": "The ERC20 associated to each outcome must be previously created on the wrapped1155Factory.",
        "params": {
          "amounts": "Amount to redeem of each outcome.",
          "market": "The Market to redeem.",
          "outcomeIndexes": "The index of the outcomes to redeem."
        }
      },
      "splitFromBase(address)": {
        "details": "The ERC20 associated to each outcome must be previously created on the wrapped1155Factory.",
        "params": {
          "market": "The Market to split."
        }
      },
      "splitPosition(address,address,uint256)": {
        "details": "The ERC20 associated to each outcome must be previously created on the wrapped1155Factory.Collateral tokens are deposited only if we are not splitting a deep position (parentCollectionId is bytes32(0)).",
        "params": {
          "amount": "The amount of collateral to split.",
          "collateralToken": "The address of the ERC20 used as collateral.",
          "market": "The Market to split."
        }
      },
      "supportsInterface(bytes4)": {
        "details": "See {IERC165-supportsInterface}."
      }
    },
    "stateVariables": {
      "sDAI": {
        "details": "sDAI address."
      },
      "savingsXDaiAdapter": {
        "details": "SavingsXDaiAdapter address."
      }
    },
    "version": 1
  },
  "userdoc": {
    "kind": "user",
    "methods": {
      "getTokenId(address,bytes32,bytes32,uint256)": {
        "notice": "Constructs a tokenId from a collateral token and an outcome collection."
      },
      "getWinningOutcomes(bytes32)": {
        "notice": "Helper function used to know the redeemable outcomes associated to a conditionId."
      },
      "mergePositions(address,address,uint256)": {
        "notice": "Merges positions and sends the collateral tokens to the user."
      },
      "mergeToBase(address,uint256)": {
        "notice": "Merges positions and sends xDAI to the user."
      },
      "redeemPositions(address,address,uint256[],uint256[])": {
        "notice": "Redeems positions and sends the collateral tokens to the user."
      },
      "redeemToBase(address,uint256[],uint256[])": {
        "notice": "Redeems positions and sends xDAI to the user."
      },
      "splitFromBase(address)": {
        "notice": "Splits a position using xDAI and sends the ERC20 outcome tokens back to the user."
      },
      "splitPosition(address,address,uint256)": {
        "notice": "Transfers the collateral to the Router, splits the position and sends the ERC20 outcome tokens back to the user."
      }
    },
    "version": 1
  },
  "storageLayout": {
    "storage": [],
    "types": null
  }
}