{
  "address": "0x8046A07bBcfD564dE263837024F82D3bd977FA79",
  "abi": [
    {
      "inputs": [
        {
          "internalType": "contract IConditionalTokens",
          "name": "_conditionalTokens",
          "type": "address"
        },
        {
          "internalType": "contract WrappedERC20Factory",
          "name": "_wrappedERC20Factory",
          "type": "address"
        }
      ],
      "stateMutability": "nonpayable",
      "type": "constructor"
    },
    {
      "inputs": [],
      "name": "conditionalTokens",
      "outputs": [
        {
          "internalType": "contract IConditionalTokens",
          "name": "",
          "type": "address"
        }
      ],
      "stateMutability": "view",
      "type": "function"
    },
    {
      "inputs": [
        {
          "internalType": "contract IERC20",
          "name": "collateralToken",
          "type": "address"
        },
        {
          "internalType": "bytes32",
          "name": "parentCollectionId",
          "type": "bytes32"
        },
        {
          "internalType": "bytes32",
          "name": "conditionId",
          "type": "bytes32"
        },
        {
          "internalType": "uint256",
          "name": "indexSet",
          "type": "uint256"
        }
      ],
      "name": "getTokenAddress",
      "outputs": [
        {
          "internalType": "contract IERC20",
          "name": "",
          "type": "address"
        }
      ],
      "stateMutability": "view",
      "type": "function"
    },
    {
      "inputs": [
        {
          "internalType": "contract IERC20",
          "name": "collateralToken",
          "type": "address"
        },
        {
          "internalType": "bytes32",
          "name": "parentCollectionId",
          "type": "bytes32"
        },
        {
          "internalType": "bytes32",
          "name": "conditionId",
          "type": "bytes32"
        },
        {
          "internalType": "uint256",
          "name": "indexSet",
          "type": "uint256"
        }
      ],
      "name": "getTokenId",
      "outputs": [
        {
          "internalType": "uint256",
          "name": "",
          "type": "uint256"
        }
      ],
      "stateMutability": "view",
      "type": "function"
    },
    {
      "inputs": [
        {
          "internalType": "bytes32",
          "name": "conditionId",
          "type": "bytes32"
        }
      ],
      "name": "getWinningOutcomes",
      "outputs": [
        {
          "internalType": "bool[]",
          "name": "",
          "type": "bool[]"
        }
      ],
      "stateMutability": "view",
      "type": "function"
    },
    {
      "inputs": [
        {
          "internalType": "contract IERC20",
          "name": "collateralToken",
          "type": "address"
        },
        {
          "internalType": "bytes32",
          "name": "parentCollectionId",
          "type": "bytes32"
        },
        {
          "internalType": "bytes32",
          "name": "conditionId",
          "type": "bytes32"
        },
        {
          "internalType": "uint256[]",
          "name": "partition",
          "type": "uint256[]"
        },
        {
          "internalType": "uint256",
          "name": "amount",
          "type": "uint256"
        }
      ],
      "name": "mergePositions",
      "outputs": [],
      "stateMutability": "nonpayable",
      "type": "function"
    },
    {
      "inputs": [
        {
          "internalType": "bytes32",
          "name": "parentCollectionId",
          "type": "bytes32"
        },
        {
          "internalType": "bytes32",
          "name": "conditionId",
          "type": "bytes32"
        },
        {
          "internalType": "uint256[]",
          "name": "partition",
          "type": "uint256[]"
        },
        {
          "internalType": "uint256",
          "name": "amount",
          "type": "uint256"
        }
      ],
      "name": "mergeToBase",
      "outputs": [],
      "stateMutability": "nonpayable",
      "type": "function"
    },
    {
      "inputs": [
        {
          "internalType": "address",
          "name": "",
          "type": "address"
        },
        {
          "internalType": "address",
          "name": "",
          "type": "address"
        },
        {
          "internalType": "uint256[]",
          "name": "",
          "type": "uint256[]"
        },
        {
          "internalType": "uint256[]",
          "name": "",
          "type": "uint256[]"
        },
        {
          "internalType": "bytes",
          "name": "",
          "type": "bytes"
        }
      ],
      "name": "onERC1155BatchReceived",
      "outputs": [
        {
          "internalType": "bytes4",
          "name": "",
          "type": "bytes4"
        }
      ],
      "stateMutability": "nonpayable",
      "type": "function"
    },
    {
      "inputs": [
        {
          "internalType": "address",
          "name": "",
          "type": "address"
        },
        {
          "internalType": "address",
          "name": "",
          "type": "address"
        },
        {
          "internalType": "uint256",
          "name": "",
          "type": "uint256"
        },
        {
          "internalType": "uint256",
          "name": "",
          "type": "uint256"
        },
        {
          "internalType": "bytes",
          "name": "",
          "type": "bytes"
        }
      ],
      "name": "onERC1155Received",
      "outputs": [
        {
          "internalType": "bytes4",
          "name": "",
          "type": "bytes4"
        }
      ],
      "stateMutability": "nonpayable",
      "type": "function"
    },
    {
      "inputs": [
        {
          "internalType": "contract IERC20",
          "name": "collateralToken",
          "type": "address"
        },
        {
          "internalType": "bytes32",
          "name": "parentCollectionId",
          "type": "bytes32"
        },
        {
          "internalType": "bytes32",
          "name": "conditionId",
          "type": "bytes32"
        },
        {
          "internalType": "uint256[]",
          "name": "indexSets",
          "type": "uint256[]"
        }
      ],
      "name": "redeemPositions",
      "outputs": [],
      "stateMutability": "nonpayable",
      "type": "function"
    },
    {
      "inputs": [
        {
          "internalType": "bytes32",
          "name": "parentCollectionId",
          "type": "bytes32"
        },
        {
          "internalType": "bytes32",
          "name": "conditionId",
          "type": "bytes32"
        },
        {
          "internalType": "uint256[]",
          "name": "indexSets",
          "type": "uint256[]"
        }
      ],
      "name": "redeemToBase",
      "outputs": [],
      "stateMutability": "nonpayable",
      "type": "function"
    },
    {
      "inputs": [],
      "name": "sDAI",
      "outputs": [
        {
          "internalType": "contract IERC20",
          "name": "",
          "type": "address"
        }
      ],
      "stateMutability": "view",
      "type": "function"
    },
    {
      "inputs": [],
      "name": "savingsXDaiAdapter",
      "outputs": [
        {
          "internalType": "contract SavingsXDaiAdapter",
          "name": "",
          "type": "address"
        }
      ],
      "stateMutability": "view",
      "type": "function"
    },
    {
      "inputs": [
        {
          "internalType": "bytes32",
          "name": "parentCollectionId",
          "type": "bytes32"
        },
        {
          "internalType": "bytes32",
          "name": "conditionId",
          "type": "bytes32"
        },
        {
          "internalType": "uint256[]",
          "name": "partition",
          "type": "uint256[]"
        }
      ],
      "name": "splitFromBase",
      "outputs": [],
      "stateMutability": "payable",
      "type": "function"
    },
    {
      "inputs": [
        {
          "internalType": "contract IERC20",
          "name": "collateralToken",
          "type": "address"
        },
        {
          "internalType": "bytes32",
          "name": "parentCollectionId",
          "type": "bytes32"
        },
        {
          "internalType": "bytes32",
          "name": "conditionId",
          "type": "bytes32"
        },
        {
          "internalType": "uint256[]",
          "name": "partition",
          "type": "uint256[]"
        },
        {
          "internalType": "uint256",
          "name": "amount",
          "type": "uint256"
        }
      ],
      "name": "splitPosition",
      "outputs": [],
      "stateMutability": "nonpayable",
      "type": "function"
    },
    {
      "inputs": [
        {
          "internalType": "bytes4",
          "name": "interfaceId",
          "type": "bytes4"
        }
      ],
      "name": "supportsInterface",
      "outputs": [
        {
          "internalType": "bool",
          "name": "",
          "type": "bool"
        }
      ],
      "stateMutability": "view",
      "type": "function"
    },
    {
      "inputs": [],
      "name": "wrappedERC20Factory",
      "outputs": [
        {
          "internalType": "contract WrappedERC20Factory",
          "name": "",
          "type": "address"
        }
      ],
      "stateMutability": "view",
      "type": "function"
    }
  ],
  "transactionHash": "0xdafab6bb18079b566ed0d47dbada3910c1644972dab92e9fc22aea9f9c7f5fda",
  "args": [
    "0xCeAfDD6bc0bEF976fdCd1112955828E00543c0Ce",
    "0x383753Af6cA47e1b46b000E07Ab210fd04F2887a"
  ],
  "numDeployments": 4,
  "solcInputHash": "8d33669693ba3d8639405847877c972d",
  "bytecode": "0x60806040523480156200001157600080fd5b5060405162001f0338038062001f0383398101604081905262000034916200007f565b600080546001600160a01b039384166001600160a01b03199182161790915560018054929093169116179055620000be565b6001600160a01b03811681146200007c57600080fd5b50565b600080604083850312156200009357600080fd5b8251620000a08162000066565b6020840151909250620000b38162000066565b809150509250929050565b611e3580620000ce6000396000f3fe6080604052600436106100d35760003560e01c80639e7212ad1161007a5780639e7212ad14610217578063a3814b1d14610237578063a88453d214610257578063abf7e27314610277578063bc197c811461029f578063de8b6149146102e4578063f23a6e611461030c578063f7f57c041461033857600080fd5b806301b7037c146100d857806301ffc9a7146100fa57806302bd74c31461012f5780631a09424a1461015c57806331d1ca271461018a5780635bd9e299146101aa57806361371325146101d757806372ce4275146101f7575b600080fd5b3480156100e457600080fd5b506100f86100f3366004611684565b61034b565b005b34801561010657600080fd5b5061011a6101153660046116ed565b6104cd565b60405190151581526020015b60405180910390f35b34801561013b57600080fd5b5061014f61014a36600461171e565b610504565b6040516101269190611737565b34801561016857600080fd5b5061017c61017736600461177d565b610681565b604051908152602001610126565b34801561019657600080fd5b506100f86101a53660046117b8565b61077b565b3480156101b657600080fd5b506000546101ca906001600160a01b031681565b6040516101269190611812565b3480156101e357600080fd5b506001546101ca906001600160a01b031681565b34801561020357600080fd5b506100f8610212366004611826565b6108b2565b34801561022357600080fd5b506100f8610232366004611826565b610934565b34801561024357600080fd5b506100f8610252366004611897565b6109b3565b34801561026357600080fd5b506101ca61027236600461177d565b610b66565b34801561028357600080fd5b506101ca73d499b51fcfc66bd31248ef4b28d656d67e591a9481565b3480156102ab57600080fd5b506102cb6102ba366004611a2b565b63bc197c8160e01b95945050505050565b6040516001600160e01b03199091168152602001610126565b3480156102f057600080fd5b506101ca73af204776c7245bf4147c2612bf6e5972ee48370181565b34801561031857600080fd5b506102cb610327366004611ad8565b63f23a6e6160e01b95945050505050565b6100f8610346366004611897565b610bee565b6040516370a0823160e01b81526000906001600160a01b038716906370a082319061037a903090600401611812565b6020604051808303816000875af1158015610399573d6000803e3d6000fd5b505050506040513d601f19601f820116820180604052508101906103bd9190611b40565b90506103cc8686868686610c98565b6040516370a0823160e01b81526000906001600160a01b038816906370a08231906103fb903090600401611812565b6020604051808303816000875af115801561041a573d6000803e3d6000fd5b505050506040513d601f19601f8201168201806040525081019061043e9190611b40565b9050818111156104c4576001600160a01b03871663a9059cbb336104628585611b6f565b6040518363ffffffff1660e01b815260040161047f929190611b82565b6020604051808303816000875af115801561049e573d6000803e3d6000fd5b505050506040513d601f19601f820116820180604052508101906104c29190611b9b565b505b50505050505050565b60006001600160e01b03198216630271189760e51b14806104fe57506301ffc9a760e01b6001600160e01b03198316145b92915050565b60008054604051636a16e06160e11b815260048101849052606092916001600160a01b03169063d42dc0c290602401602060405180830381865afa158015610550573d6000803e3d6000fd5b505050506040513d601f19601f820116820180604052508101906105749190611b40565b6001600160401b0381111561058b5761058b6118e9565b6040519080825280602002602001820160405280156105b4578160200160208202803683370190505b50905060005b815181101561067a57600054604051630141320560e21b815260048101869052602481018390526001600160a01b0390911690630504c81490604401602060405180830381865afa158015610613573d6000803e3d6000fd5b505050506040513d601f19601f820116820180604052508101906106379190611b40565b15610643576001610646565b60005b82828151811061065857610658611bbd565b911515602092830291909101909101528061067281611bd3565b9150506105ba565b5092915050565b6000805460405163856296f760e01b815260048101869052602481018590526044810184905282916001600160a01b03169063856296f790606401602060405180830381865afa1580156106d9573d6000803e3d6000fd5b505050506040513d601f19601f820116820180604052508101906106fd9190611b40565b60005460405163039dd75360e41b81529192506001600160a01b0316906339dd7530906107309089908590600401611b82565b602060405180830381865afa15801561074d573d6000803e3d6000fd5b505050506040513d601f19601f820116820180604052508101906107719190611b40565b9695505050505050565b61079d73af204776c7245bf4147c2612bf6e5972ee4837018686868686610ff7565b60405163095ea7b360e01b815273af204776c7245bf4147c2612bf6e5972ee4837019063095ea7b3906107ea9073d499b51fcfc66bd31248ef4b28d656d67e591a94908590600401611b82565b6020604051808303816000875af1158015610809573d6000803e3d6000fd5b505050506040513d601f19601f8201168201806040525081019061082d9190611b9b565b5060405163d1ff824160e01b81526004810182905233602482015273d499b51fcfc66bd31248ef4b28d656d67e591a949063d1ff8241906044016020604051808303816000875af1158015610886573d6000803e3d6000fd5b505050506040513d601f19601f820116820180604052508101906108aa9190611b40565b505050505050565b6040516323b872dd60e01b81526001600160a01b038716906323b872dd906108e290339030908690600401611bec565b6020604051808303816000875af1158015610901573d6000803e3d6000fd5b505050506040513d601f19601f820116820180604052508101906109259190611b9b565b506108aa8686868686866112da565b610942868686868686610ff7565b60405163a9059cbb60e01b81526001600160a01b0387169063a9059cbb906109709033908590600401611b82565b6020604051808303816000875af115801561098f573d6000803e3d6000fd5b505050506040513d601f19601f820116820180604052508101906104c49190611b9b565b6040516370a0823160e01b815260009073af204776c7245bf4147c2612bf6e5972ee483701906370a08231906109ed903090600401611812565b6020604051808303816000875af1158015610a0c573d6000803e3d6000fd5b505050506040513d601f19601f82011682018060405250810190610a309190611b40565b9050610a5373af204776c7245bf4147c2612bf6e5972ee48370186868686610c98565b6040516370a0823160e01b815260009073af204776c7245bf4147c2612bf6e5972ee483701906370a0823190610a8d903090600401611812565b6020604051808303816000875af1158015610aac573d6000803e3d6000fd5b505050506040513d601f19601f82011682018060405250810190610ad09190611b40565b9050818111156108aa5773d499b51fcfc66bd31248ef4b28d656d67e591a9463d1ff8241610afe8484611b6f565b6040516001600160e01b031960e084901b16815260048101919091523360248201526044016020604051808303816000875af1158015610b42573d6000803e3d6000fd5b505050506040513d601f19601f820116820180604052508101906104c49190611b40565b6001546000906001600160a01b0316634f64b2be610b8687878787610681565b6040518263ffffffff1660e01b8152600401610ba491815260200190565b602060405180830381865afa158015610bc1573d6000803e3d6000fd5b505050506040513d601f19601f82011682018060405250810190610be59190611c10565b95945050505050565b60405163f716a92b60e01b815260009073d499b51fcfc66bd31248ef4b28d656d67e591a949063f716a92b903490610c2a903090600401611812565b60206040518083038185885af1158015610c48573d6000803e3d6000fd5b50505050506040513d601f19601f82011682018060405250810190610c6d9190611b40565b9050610c9173af204776c7245bf4147c2612bf6e5972ee48370186868686866112da565b5050505050565b6001546040805163150c5b9760e01b815290516000926001600160a01b03169163150c5b979160048083019260209291908290030181865afa158015610ce2573d6000803e3d6000fd5b505050506040513d601f19601f82011682018060405250810190610d069190611c10565b905060005b82811015610f85576000610d39888888888887818110610d2d57610d2d611bbd565b90506020020135610681565b6001546040516327b2595f60e11b8152600481018390529192506000916001600160a01b0390911690634f64b2be90602401602060405180830381865afa158015610d88573d6000803e3d6000fd5b505050506040513d601f19601f82011682018060405250810190610dac9190611c10565b90506000816001600160a01b03166370a08231336040518263ffffffff1660e01b8152600401610ddc9190611812565b6020604051808303816000875af1158015610dfb573d6000803e3d6000fd5b505050506040513d601f19601f82011682018060405250810190610e1f9190611b40565b6040516323b872dd60e01b81529091506001600160a01b038316906323b872dd90610e5290339030908690600401611bec565b6020604051808303816000875af1158015610e71573d6000803e3d6000fd5b505050506040513d601f19601f82011682018060405250810190610e959190611b9b565b506000546001546040516303c2ea1160e61b8152600481018690526001600160a01b03888116936352aecb24939082169288928792309291169063f0ba844090602401600060405180830381865afa158015610ef5573d6000803e3d6000fd5b505050506040513d6000823e601f3d908101601f19168201604052610f1d9190810190611c51565b6040518663ffffffff1660e01b8152600401610f3d959493929190611cea565b600060405180830381600087803b158015610f5757600080fd5b505af1158015610f6b573d6000803e3d6000fd5b505050505050508080610f7d90611bd3565b915050610d0b565b50600054604051626dc0df60e21b81526001600160a01b03909116906301b7037c90610fbd9089908990899089908990600401611d56565b600060405180830381600087803b158015610fd757600080fd5b505af1158015610feb573d6000803e3d6000fd5b50505050505050505050565b6001546040805163150c5b9760e01b815290516000926001600160a01b03169163150c5b979160048083019260209291908290030181865afa158015611041573d6000803e3d6000fd5b505050506040513d601f19601f820116820180604052508101906110659190611c10565b905060005b8381101561126457600061108c898989898987818110610d2d57610d2d611bbd565b6001546040516327b2595f60e11b8152600481018390529192506000916001600160a01b0390911690634f64b2be90602401602060405180830381865afa1580156110db573d6000803e3d6000fd5b505050506040513d601f19601f820116820180604052508101906110ff9190611c10565b6040516323b872dd60e01b81529091506001600160a01b038216906323b872dd9061113290339030908a90600401611bec565b6020604051808303816000875af1158015611151573d6000803e3d6000fd5b505050506040513d601f19601f820116820180604052508101906111759190611b9b565b506000546001546040516303c2ea1160e61b8152600481018590526001600160a01b03878116936352aecb24939082169287928b92309291169063f0ba844090602401600060405180830381865afa1580156111d5573d6000803e3d6000fd5b505050506040513d6000823e601f3d908101601f191682016040526111fd9190810190611c51565b6040518663ffffffff1660e01b815260040161121d959493929190611cea565b600060405180830381600087803b15801561123757600080fd5b505af115801561124b573d6000803e3d6000fd5b505050505050808061125c90611bd3565b91505061106a565b50600054604051639e7212ad60e01b81526001600160a01b0390911690639e7212ad9061129f908a908a908a908a908a908a90600401611d84565b600060405180830381600087803b1580156112b957600080fd5b505af11580156112cd573d6000803e3d6000fd5b5050505050505050505050565b60005460405163095ea7b360e01b81526001600160a01b038881169263095ea7b39261130e92909116908590600401611b82565b6020604051808303816000875af115801561132d573d6000803e3d6000fd5b505050506040513d601f19601f820116820180604052508101906113519190611b9b565b506000546040516372ce427560e01b81526001600160a01b03909116906372ce42759061138c90899089908990899089908990600401611d84565b600060405180830381600087803b1580156113a657600080fd5b505af11580156113ba573d6000803e3d6000fd5b5050505060005b828110156104c45760006113e3888888888887818110610d2d57610d2d611bbd565b6000546001546040805163150c5b9760e01b815290519394506001600160a01b039283169363f242432a933093169163150c5b979160048083019260209291908290030181865afa15801561143c573d6000803e3d6000fd5b505050506040513d601f19601f820116820180604052508101906114609190611c10565b6001546040516303c2ea1160e61b815260048101879052869189916001600160a01b039091169063f0ba844090602401600060405180830381865afa1580156114ad573d6000803e3d6000fd5b505050506040513d6000823e601f3d908101601f191682016040526114d59190810190611c51565b6040518663ffffffff1660e01b81526004016114f5959493929190611dc5565b600060405180830381600087803b15801561150f57600080fd5b505af1158015611523573d6000803e3d6000fd5b50506001546040516327b2595f60e11b815260048101859052600093506001600160a01b039091169150634f64b2be90602401602060405180830381865afa158015611573573d6000803e3d6000fd5b505050506040513d601f19601f820116820180604052508101906115979190611c10565b60405163a9059cbb60e01b81529091506001600160a01b0382169063a9059cbb906115c89033908890600401611b82565b6020604051808303816000875af11580156115e7573d6000803e3d6000fd5b505050506040513d601f19601f8201168201806040525081019061160b9190611b9b565b505050808061161990611bd3565b9150506113c1565b6001600160a01b038116811461163657600080fd5b50565b60008083601f84011261164b57600080fd5b5081356001600160401b0381111561166257600080fd5b6020830191508360208260051b850101111561167d57600080fd5b9250929050565b60008060008060006080868803121561169c57600080fd5b85356116a781611621565b9450602086013593506040860135925060608601356001600160401b038111156116d057600080fd5b6116dc88828901611639565b969995985093965092949392505050565b6000602082840312156116ff57600080fd5b81356001600160e01b03198116811461171757600080fd5b9392505050565b60006020828403121561173057600080fd5b5035919050565b6020808252825182820181905260009190848201906040850190845b81811015611771578351151583529284019291840191600101611753565b50909695505050505050565b6000806000806080858703121561179357600080fd5b843561179e81611621565b966020860135965060408601359560600135945092505050565b6000806000806000608086880312156117d057600080fd5b853594506020860135935060408601356001600160401b038111156117f457600080fd5b61180088828901611639565b96999598509660600135949350505050565b6001600160a01b0391909116815260200190565b60008060008060008060a0878903121561183f57600080fd5b863561184a81611621565b9550602087013594506040870135935060608701356001600160401b0381111561187357600080fd5b61187f89828a01611639565b979a9699509497949695608090950135949350505050565b600080600080606085870312156118ad57600080fd5b843593506020850135925060408501356001600160401b038111156118d157600080fd5b6118dd87828801611639565b95989497509550505050565b634e487b7160e01b600052604160045260246000fd5b604051601f8201601f191681016001600160401b0381118282101715611927576119276118e9565b604052919050565b600082601f83011261194057600080fd5b813560206001600160401b0382111561195b5761195b6118e9565b8160051b61196a8282016118ff565b928352848101820192828101908785111561198457600080fd5b83870192505b848310156119a35782358252918301919083019061198a565b979650505050505050565b60006001600160401b038211156119c7576119c76118e9565b50601f01601f191660200190565b600082601f8301126119e657600080fd5b81356119f96119f4826119ae565b6118ff565b818152846020838601011115611a0e57600080fd5b816020850160208301376000918101602001919091529392505050565b600080600080600060a08688031215611a4357600080fd5b8535611a4e81611621565b94506020860135611a5e81611621565b935060408601356001600160401b0380821115611a7a57600080fd5b611a8689838a0161192f565b94506060880135915080821115611a9c57600080fd5b611aa889838a0161192f565b93506080880135915080821115611abe57600080fd5b50611acb888289016119d5565b9150509295509295909350565b600080600080600060a08688031215611af057600080fd5b8535611afb81611621565b94506020860135611b0b81611621565b9350604086013592506060860135915060808601356001600160401b03811115611b3457600080fd5b611acb888289016119d5565b600060208284031215611b5257600080fd5b5051919050565b634e487b7160e01b600052601160045260246000fd5b818103818111156104fe576104fe611b59565b6001600160a01b03929092168252602082015260400190565b600060208284031215611bad57600080fd5b8151801515811461171757600080fd5b634e487b7160e01b600052603260045260246000fd5b600060018201611be557611be5611b59565b5060010190565b6001600160a01b039384168152919092166020820152604081019190915260600190565b600060208284031215611c2257600080fd5b815161171781611621565b60005b83811015611c48578181015183820152602001611c30565b50506000910152565b600060208284031215611c6357600080fd5b81516001600160401b03811115611c7957600080fd5b8201601f81018413611c8a57600080fd5b8051611c986119f4826119ae565b818152856020838501011115611cad57600080fd5b610be5826020830160208601611c2d565b60008151808452611cd6816020860160208601611c2d565b601f01601f19169290920160200192915050565b6001600160a01b03868116825260208201869052604082018590528316606082015260a0608082018190526000906119a390830184611cbe565b81835260006001600160fb1b03831115611d3d57600080fd5b8260051b80836020870137939093016020019392505050565b60018060a01b03861681528460208201528360408201526080606082015260006119a3608083018486611d24565b60018060a01b038716815285602082015284604082015260a060608201526000611db260a083018587611d24565b9050826080830152979650505050505050565b6001600160a01b03868116825285166020820152604081018490526060810183905260a0608082018190526000906119a390830184611cbe56fea264697066735822122021ac517734fcd4c7f36b7c6aa2934486664ce14437e68be02907a7266296e01664736f6c63430008140033",
  "devdoc": {
    "kind": "dev",
    "methods": {
      "supportsInterface(bytes4)": {
        "details": "See {IERC165-supportsInterface}."
      }
    },
    "version": 1
  },
  "userdoc": {
    "kind": "user",
    "methods": {
      "mergeToBase(bytes32,bytes32,uint256[],uint256)": {
        "notice": "Merges the position and sends xDAI to the user."
      },
      "splitFromBase(bytes32,bytes32,uint256[])": {
        "notice": "Splits a position using xDAI."
      }
    },
    "version": 1
  },
  "storageLayout": {
    "storage": [
      {
        "astId": 3831,
        "contract": "src/GnosisRouter.sol:GnosisRouter",
        "label": "conditionalTokens",
        "offset": 0,
        "slot": "0",
        "type": "t_contract(IConditionalTokens)2046"
      },
      {
        "astId": 3834,
        "contract": "src/GnosisRouter.sol:GnosisRouter",
        "label": "wrappedERC20Factory",
        "offset": 0,
        "slot": "1",
        "type": "t_contract(WrappedERC20Factory)4540"
      }
    ],
    "types": {
      "t_contract(IConditionalTokens)2046": {
        "encoding": "inplace",
        "label": "contract IConditionalTokens",
        "numberOfBytes": "20"
      },
      "t_contract(WrappedERC20Factory)4540": {
        "encoding": "inplace",
        "label": "contract WrappedERC20Factory",
        "numberOfBytes": "20"
      }
    }
  }
}