{
  "address": "0xe94d6564Ec3C4918CF4401Fd7AC444C5c4837389",
  "abi": [
    {
      "inputs": [
        {
          "internalType": "contract IConditionalTokens",
          "name": "_conditionalTokens",
          "type": "address"
        },
        {
          "internalType": "contract WrappedERC20Factory",
          "name": "_wrappedERC20Factory",
          "type": "address"
        }
      ],
      "stateMutability": "nonpayable",
      "type": "constructor"
    },
    {
      "inputs": [],
      "name": "conditionalTokens",
      "outputs": [
        {
          "internalType": "contract IConditionalTokens",
          "name": "",
          "type": "address"
        }
      ],
      "stateMutability": "view",
      "type": "function"
    },
    {
      "inputs": [
        {
          "internalType": "contract IERC20",
          "name": "collateralToken",
          "type": "address"
        },
        {
          "internalType": "bytes32",
          "name": "parentCollectionId",
          "type": "bytes32"
        },
        {
          "internalType": "bytes32",
          "name": "conditionId",
          "type": "bytes32"
        },
        {
          "internalType": "uint256",
          "name": "indexSet",
          "type": "uint256"
        }
      ],
      "name": "getTokenAddress",
      "outputs": [
        {
          "internalType": "contract IERC20",
          "name": "",
          "type": "address"
        }
      ],
      "stateMutability": "view",
      "type": "function"
    },
    {
      "inputs": [
        {
          "internalType": "contract IERC20",
          "name": "collateralToken",
          "type": "address"
        },
        {
          "internalType": "bytes32",
          "name": "parentCollectionId",
          "type": "bytes32"
        },
        {
          "internalType": "bytes32",
          "name": "conditionId",
          "type": "bytes32"
        },
        {
          "internalType": "uint256",
          "name": "indexSet",
          "type": "uint256"
        }
      ],
      "name": "getTokenId",
      "outputs": [
        {
          "internalType": "uint256",
          "name": "",
          "type": "uint256"
        }
      ],
      "stateMutability": "view",
      "type": "function"
    },
    {
      "inputs": [
        {
          "internalType": "bytes32",
          "name": "conditionId",
          "type": "bytes32"
        }
      ],
      "name": "getWinningOutcomes",
      "outputs": [
        {
          "internalType": "bool[]",
          "name": "",
          "type": "bool[]"
        }
      ],
      "stateMutability": "view",
      "type": "function"
    },
    {
      "inputs": [
        {
          "internalType": "contract IERC20",
          "name": "collateralToken",
          "type": "address"
        },
        {
          "internalType": "bytes32",
          "name": "parentCollectionId",
          "type": "bytes32"
        },
        {
          "internalType": "bytes32",
          "name": "conditionId",
          "type": "bytes32"
        },
        {
          "internalType": "uint256",
          "name": "amount",
          "type": "uint256"
        }
      ],
      "name": "mergePositions",
      "outputs": [],
      "stateMutability": "nonpayable",
      "type": "function"
    },
    {
      "inputs": [
        {
          "internalType": "bytes32",
          "name": "parentCollectionId",
          "type": "bytes32"
        },
        {
          "internalType": "bytes32",
          "name": "conditionId",
          "type": "bytes32"
        },
        {
          "internalType": "uint256",
          "name": "amount",
          "type": "uint256"
        }
      ],
      "name": "mergeToBase",
      "outputs": [],
      "stateMutability": "nonpayable",
      "type": "function"
    },
    {
      "inputs": [
        {
          "internalType": "address",
          "name": "",
          "type": "address"
        },
        {
          "internalType": "address",
          "name": "",
          "type": "address"
        },
        {
          "internalType": "uint256[]",
          "name": "",
          "type": "uint256[]"
        },
        {
          "internalType": "uint256[]",
          "name": "",
          "type": "uint256[]"
        },
        {
          "internalType": "bytes",
          "name": "",
          "type": "bytes"
        }
      ],
      "name": "onERC1155BatchReceived",
      "outputs": [
        {
          "internalType": "bytes4",
          "name": "",
          "type": "bytes4"
        }
      ],
      "stateMutability": "nonpayable",
      "type": "function"
    },
    {
      "inputs": [
        {
          "internalType": "address",
          "name": "",
          "type": "address"
        },
        {
          "internalType": "address",
          "name": "",
          "type": "address"
        },
        {
          "internalType": "uint256",
          "name": "",
          "type": "uint256"
        },
        {
          "internalType": "uint256",
          "name": "",
          "type": "uint256"
        },
        {
          "internalType": "bytes",
          "name": "",
          "type": "bytes"
        }
      ],
      "name": "onERC1155Received",
      "outputs": [
        {
          "internalType": "bytes4",
          "name": "",
          "type": "bytes4"
        }
      ],
      "stateMutability": "nonpayable",
      "type": "function"
    },
    {
      "inputs": [
        {
          "internalType": "contract IERC20",
          "name": "collateralToken",
          "type": "address"
        },
        {
          "internalType": "bytes32",
          "name": "parentCollectionId",
          "type": "bytes32"
        },
        {
          "internalType": "bytes32",
          "name": "conditionId",
          "type": "bytes32"
        },
        {
          "internalType": "uint256[]",
          "name": "indexSets",
          "type": "uint256[]"
        }
      ],
      "name": "redeemPositions",
      "outputs": [],
      "stateMutability": "nonpayable",
      "type": "function"
    },
    {
      "inputs": [
        {
          "internalType": "bytes32",
          "name": "parentCollectionId",
          "type": "bytes32"
        },
        {
          "internalType": "bytes32",
          "name": "conditionId",
          "type": "bytes32"
        },
        {
          "internalType": "uint256[]",
          "name": "indexSets",
          "type": "uint256[]"
        }
      ],
      "name": "redeemToBase",
      "outputs": [],
      "stateMutability": "nonpayable",
      "type": "function"
    },
    {
      "inputs": [],
      "name": "sDAI",
      "outputs": [
        {
          "internalType": "contract IERC20",
          "name": "",
          "type": "address"
        }
      ],
      "stateMutability": "view",
      "type": "function"
    },
    {
      "inputs": [],
      "name": "savingsXDaiAdapter",
      "outputs": [
        {
          "internalType": "contract SavingsXDaiAdapter",
          "name": "",
          "type": "address"
        }
      ],
      "stateMutability": "view",
      "type": "function"
    },
    {
      "inputs": [
        {
          "internalType": "bytes32",
          "name": "parentCollectionId",
          "type": "bytes32"
        },
        {
          "internalType": "bytes32",
          "name": "conditionId",
          "type": "bytes32"
        }
      ],
      "name": "splitFromBase",
      "outputs": [],
      "stateMutability": "payable",
      "type": "function"
    },
    {
      "inputs": [
        {
          "internalType": "contract IERC20",
          "name": "collateralToken",
          "type": "address"
        },
        {
          "internalType": "bytes32",
          "name": "parentCollectionId",
          "type": "bytes32"
        },
        {
          "internalType": "bytes32",
          "name": "conditionId",
          "type": "bytes32"
        },
        {
          "internalType": "uint256",
          "name": "amount",
          "type": "uint256"
        }
      ],
      "name": "splitPosition",
      "outputs": [],
      "stateMutability": "nonpayable",
      "type": "function"
    },
    {
      "inputs": [
        {
          "internalType": "bytes4",
          "name": "interfaceId",
          "type": "bytes4"
        }
      ],
      "name": "supportsInterface",
      "outputs": [
        {
          "internalType": "bool",
          "name": "",
          "type": "bool"
        }
      ],
      "stateMutability": "view",
      "type": "function"
    },
    {
      "inputs": [],
      "name": "wrappedERC20Factory",
      "outputs": [
        {
          "internalType": "contract WrappedERC20Factory",
          "name": "",
          "type": "address"
        }
      ],
      "stateMutability": "view",
      "type": "function"
    }
  ],
  "transactionHash": "0x6a5ac4d9302b7f3061d36ee91ca78f01005c7bf522cf69e0c100a72fb49baf40",
  "args": [
    "0xCeAfDD6bc0bEF976fdCd1112955828E00543c0Ce",
    "0x5bc8ddE5D07C6bf24911240AA6F9B0190ae3b557"
  ],
  "numDeployments": 8,
  "solcInputHash": "65df141202f1bca32209c0938ac7838b",
  "bytecode": "0x60c06040523480156200001157600080fd5b5060405162002f4438038062002f44833981016040819052620000349162000065565b6001600160a01b039182166080521660a052620000a4565b6001600160a01b03811681146200006257600080fd5b50565b600080604083850312156200007957600080fd5b825162000086816200004c565b602084015190925062000099816200004c565b809150509250929050565b60805160a051612d62620001e2600039600081816101fd01528181610b8801528181610e0101528181610ed601528181611060015281816113dc0152818161147d0152818161155e015281816116f8015281816117d1015281816118e801528181611b3501528181611bd701528181611cb001528181611df801528181611f2f01528181612046015281816122a401528181612346015261241f0152600081816101bc0152818161055b0152818161063201528181610720015281816107a50152818161103c01528181611178015281816112090152818161129901528181611329015281816113ac01528181611681015281816118c4015281816119f801528181611a8901528181611b0501528181611dbd01528181611e7e0152818161202201528181612155015281816121db01526122740152612d626000f3fe6080604052600436106100d35760003560e01c8063a3814b1d1161007a578063a3814b1d1461023f578063a88453d21461025f578063a9df011d1461027f578063abf7e2731461029f578063bc197c81146102c7578063bea36bba1461030c578063de8b61491461031f578063f23a6e611461034757600080fd5b806301b7037c146100d857806301ffc9a7146100fa57806302bd74c31461012f5780631a09424a1461015c5780635b8f8ea31461018a5780635bd9e299146101aa57806361371325146101eb5780639fe5158f1461021f575b600080fd5b3480156100e457600080fd5b506100f86100f3366004612607565b610373565b005b34801561010657600080fd5b5061011a610115366004612670565b610500565b60405190151581526020015b60405180910390f35b34801561013b57600080fd5b5061014f61014a3660046126a1565b610537565b60405161012691906126ba565b34801561016857600080fd5b5061017c610177366004612700565b6106ef565b604051908152602001610126565b34801561019657600080fd5b506100f86101a5366004612700565b610827565b3480156101b657600080fd5b506101de7f000000000000000000000000000000000000000000000000000000000000000081565b604051610126919061273b565b3480156101f757600080fd5b506101de7f000000000000000000000000000000000000000000000000000000000000000081565b34801561022b57600080fd5b506100f861023a366004612700565b6108b1565b34801561024b57600080fd5b506100f861025a36600461274f565b610937565b34801561026b57600080fd5b506101de61027a366004612700565b610b84565b34801561028b57600080fd5b506100f861029a3660046127a1565b610c29565b3480156102ab57600080fd5b506101de73d499b51fcfc66bd31248ef4b28d656d67e591a9481565b3480156102d357600080fd5b506102f36102e236600461290f565b63bc197c8160e01b95945050505050565b6040516001600160e01b03199091168152602001610126565b6100f861031a3660046129bc565b610d56565b34801561032b57600080fd5b506101de73af204776c7245bf4147c2612bf6e5972ee48370181565b34801561035357600080fd5b506102f36103623660046129de565b63f23a6e6160e01b95945050505050565b6000846103ec576040516370a0823160e01b81526001600160a01b038716906370a08231906103a690309060040161273b565b6020604051808303816000875af11580156103c5573d6000803e3d6000fd5b505050506040513d601f19601f820116820180604052508101906103e99190612a46565b90505b6103f98686868686610dfc565b846104f8576040516370a0823160e01b81526000906001600160a01b038816906370a082319061042d90309060040161273b565b6020604051808303816000875af115801561044c573d6000803e3d6000fd5b505050506040513d601f19601f820116820180604052508101906104709190612a46565b9050818111156104f6576001600160a01b03871663a9059cbb336104948585612a75565b6040518363ffffffff1660e01b81526004016104b1929190612a88565b6020604051808303816000875af11580156104d0573d6000803e3d6000fd5b505050506040513d601f19601f820116820180604052508101906104f49190612aa1565b505b505b505050505050565b60006001600160e01b03198216630271189760e51b148061053157506301ffc9a760e01b6001600160e01b03198316145b92915050565b604051636a16e06160e11b8152600481018290526060906000906001600160a01b037f0000000000000000000000000000000000000000000000000000000000000000169063d42dc0c290602401602060405180830381865afa1580156105a2573d6000803e3d6000fd5b505050506040513d601f19601f820116820180604052508101906105c69190612a46565b6001600160401b038111156105dd576105dd6127cd565b604051908082528060200260200182016040528015610606578160200160208202803683370190505b50905060005b81518110156106e857604051630141320560e21b815260048101859052602481018290527f00000000000000000000000000000000000000000000000000000000000000006001600160a01b031690630504c81490604401602060405180830381865afa158015610681573d6000803e3d6000fd5b505050506040513d601f19601f820116820180604052508101906106a59190612a46565b156106b15760016106b4565b60005b8282815181106106c6576106c6612ac3565b91151560209283029190910190910152806106e081612ad9565b91505061060c565b5092915050565b60405163856296f760e01b815260048101849052602481018390526044810182905260009081906001600160a01b037f0000000000000000000000000000000000000000000000000000000000000000169063856296f790606401602060405180830381865afa158015610767573d6000803e3d6000fd5b505050506040513d601f19601f8201168201806040525081019061078b9190612a46565b60405163039dd75360e41b81529091506001600160a01b037f000000000000000000000000000000000000000000000000000000000000000016906339dd7530906107dc9089908590600401612a88565b602060405180830381865afa1580156107f9573d6000803e3d6000fd5b505050506040513d601f19601f8201168201806040525081019061081d9190612a46565b9695505050505050565b6108338484848461165c565b826108ab5760405163a9059cbb60e01b81526001600160a01b0385169063a9059cbb906108669033908590600401612a88565b6020604051808303816000875af1158015610885573d6000803e3d6000fd5b505050506040513d601f19601f820116820180604052508101906108a99190612aa1565b505b50505050565b8261092b576040516323b872dd60e01b81526001600160a01b038516906323b872dd906108e690339030908690600401612af2565b6020604051808303816000875af1158015610905573d6000803e3d6000fd5b505050506040513d601f19601f820116820180604052508101906109299190612aa1565b505b6108ab84848484611d98565b6040516370a0823160e01b815260009073af204776c7245bf4147c2612bf6e5972ee483701906370a082319061097190309060040161273b565b6020604051808303816000875af1158015610990573d6000803e3d6000fd5b505050506040513d601f19601f820116820180604052508101906109b49190612a46565b90506109d773af204776c7245bf4147c2612bf6e5972ee48370186868686610dfc565b6040516370a0823160e01b815260009073af204776c7245bf4147c2612bf6e5972ee483701906370a0823190610a1190309060040161273b565b6020604051808303816000875af1158015610a30573d6000803e3d6000fd5b505050506040513d601f19601f82011682018060405250810190610a549190612a46565b9050818111156104f85773af204776c7245bf4147c2612bf6e5972ee48370163095ea7b373d499b51fcfc66bd31248ef4b28d656d67e591a94610a978585612a75565b6040518363ffffffff1660e01b8152600401610ab4929190612a88565b6020604051808303816000875af1158015610ad3573d6000803e3d6000fd5b505050506040513d601f19601f82011682018060405250810190610af79190612aa1565b5073d499b51fcfc66bd31248ef4b28d656d67e591a9463d1ff8241610b1c8484612a75565b6040516001600160e01b031960e084901b16815260048101919091523360248201526044016020604051808303816000875af1158015610b60573d6000803e3d6000fd5b505050506040513d601f19601f820116820180604052508101906104f69190612a46565b60007f00000000000000000000000000000000000000000000000000000000000000006001600160a01b0316634f64b2be610bc1878787876106ef565b6040518263ffffffff1660e01b8152600401610bdf91815260200190565b602060405180830381865afa158015610bfc573d6000803e3d6000fd5b505050506040513d601f19601f82011682018060405250810190610c209190612b16565b95945050505050565b610c4973af204776c7245bf4147c2612bf6e5972ee48370184848461165c565b60405163095ea7b360e01b815273af204776c7245bf4147c2612bf6e5972ee4837019063095ea7b390610c969073d499b51fcfc66bd31248ef4b28d656d67e591a94908590600401612a88565b6020604051808303816000875af1158015610cb5573d6000803e3d6000fd5b505050506040513d601f19601f82011682018060405250810190610cd99190612aa1565b5060405163d1ff824160e01b81526004810182905233602482015273d499b51fcfc66bd31248ef4b28d656d67e591a949063d1ff8241906044016020604051808303816000875af1158015610d32573d6000803e3d6000fd5b505050506040513d601f19601f820116820180604052508101906108ab9190612a46565b60405163f716a92b60e01b815260009073d499b51fcfc66bd31248ef4b28d656d67e591a949063f716a92b903490610d9290309060040161273b565b60206040518083038185885af1158015610db0573d6000803e3d6000fd5b50505050506040513d601f19601f82011682018060405250810190610dd59190612a46565b9050610df773af204776c7245bf4147c2612bf6e5972ee483701848484611d98565b505050565b6000807f00000000000000000000000000000000000000000000000000000000000000006001600160a01b031663150c5b976040518163ffffffff1660e01b8152600401602060405180830381865afa158015610e5d573d6000803e3d6000fd5b505050506040513d601f19601f82011682018060405250810190610e819190612b16565b905060005b8381101561115857610eb2888888888886818110610ea657610ea6612ac3565b905060200201356106ef565b6040516327b2595f60e11b8152600481018290529093506000906001600160a01b037f00000000000000000000000000000000000000000000000000000000000000001690634f64b2be90602401602060405180830381865afa158015610f1d573d6000803e3d6000fd5b505050506040513d601f19601f82011682018060405250810190610f419190612b16565b90506000816001600160a01b03166370a08231336040518263ffffffff1660e01b8152600401610f71919061273b565b6020604051808303816000875af1158015610f90573d6000803e3d6000fd5b505050506040513d601f19601f82011682018060405250810190610fb49190612a46565b6040516323b872dd60e01b81529091506001600160a01b038316906323b872dd90610fe790339030908690600401612af2565b6020604051808303816000875af1158015611006573d6000803e3d6000fd5b505050506040513d601f19601f8201168201806040525081019061102a9190612aa1565b50836001600160a01b03166352aecb247f00000000000000000000000000000000000000000000000000000000000000008784307f00000000000000000000000000000000000000000000000000000000000000006001600160a01b031663f0ba84408c6040518263ffffffff1660e01b81526004016110ac91815260200190565b600060405180830381865afa1580156110c9573d6000803e3d6000fd5b505050506040513d6000823e601f3d908101601f191682016040526110f19190810190612b57565b6040518663ffffffff1660e01b8152600401611111959493929190612bf0565b600060405180830381600087803b15801561112b57600080fd5b505af115801561113f573d6000803e3d6000fd5b505050505050808061115090612ad9565b915050610e86565b50600086156112835760405163039dd75360e41b81526001600160a01b037f000000000000000000000000000000000000000000000000000000000000000016906339dd7530906111af908b908b90600401612a88565b602060405180830381865afa1580156111cc573d6000803e3d6000fd5b505050506040513d601f19601f820116820180604052508101906111f09190612a46565b604051627eeac760e11b81529093506001600160a01b037f0000000000000000000000000000000000000000000000000000000000000000169062fdd58e9061123f9030908790600401612a88565b602060405180830381865afa15801561125c573d6000803e3d6000fd5b505050506040513d601f19601f820116820180604052508101906112809190612a46565b90505b604051626dc0df60e21b81526001600160a01b037f000000000000000000000000000000000000000000000000000000000000000016906301b7037c906112d6908b908b908b908b908b90600401612c2a565b600060405180830381600087803b1580156112f057600080fd5b505af1158015611304573d6000803e3d6000fd5b5050881591506104f4905057604051627eeac760e11b81526000906001600160a01b037f0000000000000000000000000000000000000000000000000000000000000000169062fdd58e9061135f9030908890600401612a88565b602060405180830381865afa15801561137c573d6000803e3d6000fd5b505050506040513d601f19601f820116820180604052508101906113a09190612a46565b905081811115611651577f00000000000000000000000000000000000000000000000000000000000000006001600160a01b031663f242432a307f00000000000000000000000000000000000000000000000000000000000000006001600160a01b031663150c5b976040518163ffffffff1660e01b8152600401602060405180830381865afa158015611438573d6000803e3d6000fd5b505050506040513d601f19601f8201168201806040525081019061145c9190612b16565b876114678787612a75565b6040516303c2ea1160e61b8152600481018b90527f00000000000000000000000000000000000000000000000000000000000000006001600160a01b03169063f0ba844090602401600060405180830381865afa1580156114cc573d6000803e3d6000fd5b505050506040513d6000823e601f3d908101601f191682016040526114f49190810190612b57565b6040518663ffffffff1660e01b8152600401611514959493929190612c84565b600060405180830381600087803b15801561152e57600080fd5b505af1158015611542573d6000803e3d6000fd5b50506040516327b2595f60e11b815260048101879052600092507f00000000000000000000000000000000000000000000000000000000000000006001600160a01b03169150634f64b2be90602401602060405180830381865afa1580156115ae573d6000803e3d6000fd5b505050506040513d601f19601f820116820180604052508101906115d29190612b16565b90506001600160a01b03811663a9059cbb336115ee8686612a75565b6040518363ffffffff1660e01b815260040161160b929190612a88565b6020604051808303816000875af115801561162a573d6000803e3d6000fd5b505050506040513d601f19601f8201168201806040525081019061164e9190612aa1565b50505b505050505050505050565b604051636a16e06160e11b8152600481018390526000906116f2906001600160a01b037f0000000000000000000000000000000000000000000000000000000000000000169063d42dc0c2906024015b602060405180830381865afa1580156116c9573d6000803e3d6000fd5b505050506040513d601f19601f820116820180604052508101906116ed9190612a46565b61251d565b905060007f00000000000000000000000000000000000000000000000000000000000000006001600160a01b031663150c5b976040518163ffffffff1660e01b8152600401602060405180830381865afa158015611754573d6000803e3d6000fd5b505050506040513d601f19601f820116820180604052508101906117789190612b16565b905060005b82518110156119e05760006117ad8888888786815181106117a0576117a0612ac3565b60200260200101516106ef565b6040516327b2595f60e11b8152600481018290529091506000906001600160a01b037f00000000000000000000000000000000000000000000000000000000000000001690634f64b2be90602401602060405180830381865afa158015611818573d6000803e3d6000fd5b505050506040513d601f19601f8201168201806040525081019061183c9190612b16565b6040516323b872dd60e01b81529091506001600160a01b038216906323b872dd9061186f90339030908b90600401612af2565b6020604051808303816000875af115801561188e573d6000803e3d6000fd5b505050506040513d601f19601f820116820180604052508101906118b29190612aa1565b50836001600160a01b03166352aecb247f00000000000000000000000000000000000000000000000000000000000000008489307f00000000000000000000000000000000000000000000000000000000000000006001600160a01b031663f0ba8440896040518263ffffffff1660e01b815260040161193491815260200190565b600060405180830381865afa158015611951573d6000803e3d6000fd5b505050506040513d6000823e601f3d908101601f191682016040526119799190810190612b57565b6040518663ffffffff1660e01b8152600401611999959493929190612bf0565b600060405180830381600087803b1580156119b357600080fd5b505af11580156119c7573d6000803e3d6000fd5b50505050505080806119d890612ad9565b91505061177d565b50604051639e7212ad60e01b81526001600160a01b037f00000000000000000000000000000000000000000000000000000000000000001690639e7212ad90611a359089908990899088908a90600401612cbe565b600060405180830381600087803b158015611a4f57600080fd5b505af1158015611a63573d6000803e3d6000fd5b5050861591506104f890505760405163039dd75360e41b81526000906001600160a01b037f000000000000000000000000000000000000000000000000000000000000000016906339dd753090611ac0908a908a90600401612a88565b602060405180830381865afa158015611add573d6000803e3d6000fd5b505050506040513d601f19601f82011682018060405250810190611b019190612a46565b90507f00000000000000000000000000000000000000000000000000000000000000006001600160a01b031663f242432a307f00000000000000000000000000000000000000000000000000000000000000006001600160a01b031663150c5b976040518163ffffffff1660e01b8152600401602060405180830381865afa158015611b91573d6000803e3d6000fd5b505050506040513d601f19601f82011682018060405250810190611bb59190612b16565b6040516303c2ea1160e61b815260048101869052859089906001600160a01b037f0000000000000000000000000000000000000000000000000000000000000000169063f0ba844090602401600060405180830381865afa158015611c1e573d6000803e3d6000fd5b505050506040513d6000823e601f3d908101601f19168201604052611c469190810190612b57565b6040518663ffffffff1660e01b8152600401611c66959493929190612c84565b600060405180830381600087803b158015611c8057600080fd5b505af1158015611c94573d6000803e3d6000fd5b50506040516327b2595f60e11b815260048101849052600092507f00000000000000000000000000000000000000000000000000000000000000006001600160a01b03169150634f64b2be90602401602060405180830381865afa158015611d00573d6000803e3d6000fd5b505050506040513d601f19601f82011682018060405250810190611d249190612b16565b60405163a9059cbb60e01b81529091506001600160a01b0382169063a9059cbb90611d559033908990600401612a88565b6020604051808303816000875af1158015611d74573d6000803e3d6000fd5b505050506040513d601f19601f820116820180604052508101906116519190612aa1565b604051636a16e06160e11b815260048101839052600090611dec906001600160a01b037f0000000000000000000000000000000000000000000000000000000000000000169063d42dc0c2906024016116ac565b905083156121315760007f00000000000000000000000000000000000000000000000000000000000000006001600160a01b031663150c5b976040518163ffffffff1660e01b8152600401602060405180830381865afa158015611e54573d6000803e3d6000fd5b505050506040513d601f19601f82011682018060405250810190611e789190612b16565b905060007f00000000000000000000000000000000000000000000000000000000000000006001600160a01b03166339dd753088886040518363ffffffff1660e01b8152600401611eca929190612a88565b602060405180830381865afa158015611ee7573d6000803e3d6000fd5b505050506040513d601f19601f82011682018060405250810190611f0b9190612a46565b6040516327b2595f60e11b8152600481018290529091506000906001600160a01b037f00000000000000000000000000000000000000000000000000000000000000001690634f64b2be90602401602060405180830381865afa158015611f76573d6000803e3d6000fd5b505050506040513d601f19601f82011682018060405250810190611f9a9190612b16565b6040516323b872dd60e01b81529091506001600160a01b038216906323b872dd90611fcd90339030908a90600401612af2565b6020604051808303816000875af1158015611fec573d6000803e3d6000fd5b505050506040513d601f19601f820116820180604052508101906120109190612aa1565b50826001600160a01b03166352aecb247f00000000000000000000000000000000000000000000000000000000000000008488307f00000000000000000000000000000000000000000000000000000000000000006001600160a01b031663f0ba8440896040518263ffffffff1660e01b815260040161209291815260200190565b600060405180830381865afa1580156120af573d6000803e3d6000fd5b505050506040513d6000823e601f3d908101601f191682016040526120d79190810190612b57565b6040518663ffffffff1660e01b81526004016120f7959493929190612bf0565b600060405180830381600087803b15801561211157600080fd5b505af1158015612125573d6000803e3d6000fd5b505050505050506121c4565b60405163095ea7b360e01b81526001600160a01b0386169063095ea7b39061217f907f0000000000000000000000000000000000000000000000000000000000000000908690600401612a88565b6020604051808303816000875af115801561219e573d6000803e3d6000fd5b505050506040513d601f19601f820116820180604052508101906121c29190612aa1565b505b6040516372ce427560e01b81526001600160a01b037f000000000000000000000000000000000000000000000000000000000000000016906372ce4275906122189088908890889087908990600401612cbe565b600060405180830381600087803b15801561223257600080fd5b505af1158015612246573d6000803e3d6000fd5b5050505060005b81518110156104f85760006122708787878686815181106117a0576117a0612ac3565b90507f00000000000000000000000000000000000000000000000000000000000000006001600160a01b031663f242432a307f00000000000000000000000000000000000000000000000000000000000000006001600160a01b031663150c5b976040518163ffffffff1660e01b8152600401602060405180830381865afa158015612300573d6000803e3d6000fd5b505050506040513d601f19601f820116820180604052508101906123249190612b16565b6040516303c2ea1160e61b815260048101869052859089906001600160a01b037f0000000000000000000000000000000000000000000000000000000000000000169063f0ba844090602401600060405180830381865afa15801561238d573d6000803e3d6000fd5b505050506040513d6000823e601f3d908101601f191682016040526123b59190810190612b57565b6040518663ffffffff1660e01b81526004016123d5959493929190612c84565b600060405180830381600087803b1580156123ef57600080fd5b505af1158015612403573d6000803e3d6000fd5b50506040516327b2595f60e11b815260048101849052600092507f00000000000000000000000000000000000000000000000000000000000000006001600160a01b03169150634f64b2be90602401602060405180830381865afa15801561246f573d6000803e3d6000fd5b505050506040513d601f19601f820116820180604052508101906124939190612b16565b60405163a9059cbb60e01b81529091506001600160a01b0382169063a9059cbb906124c49033908990600401612a88565b6020604051808303816000875af11580156124e3573d6000803e3d6000fd5b505050506040513d601f19601f820116820180604052508101906125079190612aa1565b505050808061251590612ad9565b91505061224d565b60606000826001600160401b03811115612539576125396127cd565b604051908082528060200260200182016040528015612562578160200160208202803683370190505b50905060005b838110156106e857806001901b82828151811061258757612587612ac3565b60209081029190910101528061259c81612ad9565b915050612568565b6001600160a01b03811681146125b957600080fd5b50565b60008083601f8401126125ce57600080fd5b5081356001600160401b038111156125e557600080fd5b6020830191508360208260051b850101111561260057600080fd5b9250929050565b60008060008060006080868803121561261f57600080fd5b853561262a816125a4565b9450602086013593506040860135925060608601356001600160401b0381111561265357600080fd5b61265f888289016125bc565b969995985093965092949392505050565b60006020828403121561268257600080fd5b81356001600160e01b03198116811461269a57600080fd5b9392505050565b6000602082840312156126b357600080fd5b5035919050565b6020808252825182820181905260009190848201906040850190845b818110156126f45783511515835292840192918401916001016126d6565b50909695505050505050565b6000806000806080858703121561271657600080fd5b8435612721816125a4565b966020860135965060408601359560600135945092505050565b6001600160a01b0391909116815260200190565b6000806000806060858703121561276557600080fd5b843593506020850135925060408501356001600160401b0381111561278957600080fd5b612795878288016125bc565b95989497509550505050565b6000806000606084860312156127b657600080fd5b505081359360208301359350604090920135919050565b634e487b7160e01b600052604160045260246000fd5b604051601f8201601f191681016001600160401b038111828210171561280b5761280b6127cd565b604052919050565b600082601f83011261282457600080fd5b813560206001600160401b0382111561283f5761283f6127cd565b8160051b61284e8282016127e3565b928352848101820192828101908785111561286857600080fd5b83870192505b848310156128875782358252918301919083019061286e565b979650505050505050565b60006001600160401b038211156128ab576128ab6127cd565b50601f01601f191660200190565b600082601f8301126128ca57600080fd5b81356128dd6128d882612892565b6127e3565b8181528460208386010111156128f257600080fd5b816020850160208301376000918101602001919091529392505050565b600080600080600060a0868803121561292757600080fd5b8535612932816125a4565b94506020860135612942816125a4565b935060408601356001600160401b038082111561295e57600080fd5b61296a89838a01612813565b9450606088013591508082111561298057600080fd5b61298c89838a01612813565b935060808801359150808211156129a257600080fd5b506129af888289016128b9565b9150509295509295909350565b600080604083850312156129cf57600080fd5b50508035926020909101359150565b600080600080600060a086880312156129f657600080fd5b8535612a01816125a4565b94506020860135612a11816125a4565b9350604086013592506060860135915060808601356001600160401b03811115612a3a57600080fd5b6129af888289016128b9565b600060208284031215612a5857600080fd5b5051919050565b634e487b7160e01b600052601160045260246000fd5b8181038181111561053157610531612a5f565b6001600160a01b03929092168252602082015260400190565b600060208284031215612ab357600080fd5b8151801515811461269a57600080fd5b634e487b7160e01b600052603260045260246000fd5b600060018201612aeb57612aeb612a5f565b5060010190565b6001600160a01b039384168152919092166020820152604081019190915260600190565b600060208284031215612b2857600080fd5b815161269a816125a4565b60005b83811015612b4e578181015183820152602001612b36565b50506000910152565b600060208284031215612b6957600080fd5b81516001600160401b03811115612b7f57600080fd5b8201601f81018413612b9057600080fd5b8051612b9e6128d882612892565b818152856020838501011115612bb357600080fd5b610c20826020830160208601612b33565b60008151808452612bdc816020860160208601612b33565b601f01601f19169290920160200192915050565b6001600160a01b03868116825260208201869052604082018590528316606082015260a06080820181905260009061288790830184612bc4565b6001600160a01b03861681526020810185905260408101849052608060608201819052810182905260006001600160fb1b03831115612c6857600080fd5b8260051b808560a08501379190910160a0019695505050505050565b6001600160a01b03868116825285166020820152604081018490526060810183905260a06080820181905260009061288790830184612bc4565b6001600160a01b038616815260208082018690526040820185905260a06060830181905284519083018190526000918581019160c0850190845b81811015612d1457845183529383019391830191600101612cf8565b5050809350505050826080830152969550505050505056fea26469706673582212207654dacc63031adc14c52cce8946c72ce63750c258bfee7d81d16ab4d776b19964736f6c63430008140033",
  "devdoc": {
    "details": "Router implementation with functions to interact with xDAI on Gnosis Chain.",
    "kind": "dev",
    "methods": {
      "constructor": {
        "details": "Constructor",
        "params": {
          "_conditionalTokens": "Conditional Tokens contract",
          "_wrappedERC20Factory": "WrappedERC20Factory contract"
        }
      },
      "getTokenAddress(address,bytes32,bytes32,uint256)": {
        "params": {
          "collateralToken": "The address of the ERC20 used as collateral",
          "conditionId": "The id of the condition used to redeem",
          "indexSet": "Index set of the outcome collection to combine with the parent outcome collection",
          "parentCollectionId": "The Conditional Tokens parent collection id"
        }
      },
      "getTokenId(address,bytes32,bytes32,uint256)": {
        "params": {
          "collateralToken": "The address of the ERC20 used as collateral",
          "conditionId": "The id of the condition used to redeem",
          "indexSet": "Index set of the outcome collection to combine with the parent outcome collection",
          "parentCollectionId": "The Conditional Tokens parent collection id"
        }
      },
      "getWinningOutcomes(bytes32)": {
        "params": {
          "conditionId": "The id of the condition"
        },
        "returns": {
          "_0": "An array of outcomes where a true value indicates that the outcome is redeemable"
        }
      },
      "mergePositions(address,bytes32,bytes32,uint256)": {
        "details": "The ERC20 associated to each outcome must be previously created on the wrappedERC20FactoryCollateral tokens are withdrawn only if we are not merging a deep position (parentCollectionId is bytes32(0))",
        "params": {
          "amount": "The amount of outcome tokens to merge",
          "collateralToken": "The address of the ERC20 used as collateral",
          "conditionId": "The id of the condition to merge",
          "parentCollectionId": "The Conditional Tokens parent collection id"
        }
      },
      "mergeToBase(bytes32,bytes32,uint256)": {
        "details": "The ERC20 associated to each outcome must be previously created on the wrappedERC20Factory",
        "params": {
          "amount": "The amount of outcome tokens to merge",
          "conditionId": "The id of the condition to merge",
          "parentCollectionId": "The Conditional Tokens parent collection id"
        }
      },
      "redeemPositions(address,bytes32,bytes32,uint256[])": {
        "details": "The ERC20 associated to each outcome must be previously created on the wrappedERC20Factory.Collateral tokens are withdrawn only if we are not redeeming a deep position (parentCollectionId is bytes32(0))",
        "params": {
          "collateralToken": "The address of the ERC20 used as collateral",
          "conditionId": "The id of the condition used to redeem",
          "indexSets": "The index sets of the outcomes to redeem",
          "parentCollectionId": "The Conditional Tokens parent collection id"
        }
      },
      "redeemToBase(bytes32,bytes32,uint256[])": {
        "details": "The ERC20 associated to each outcome must be previously created on the wrappedERC20Factory.",
        "params": {
          "conditionId": "The id of the condition used to redeem",
          "indexSets": "The index sets of the outcomes to redeem",
          "parentCollectionId": "The Conditional Tokens parent collection id"
        }
      },
      "splitFromBase(bytes32,bytes32)": {
        "details": "The ERC20 associated to each outcome must be previously created on the wrappedERC20Factory",
        "params": {
          "conditionId": "The id of the condition to split",
          "parentCollectionId": "The Conditional Tokens parent collection id"
        }
      },
      "splitPosition(address,bytes32,bytes32,uint256)": {
        "details": "The ERC20 associated to each outcome must be previously created on the wrappedERC20FactoryCollateral tokens are deposited only if we are not splitting a deep position (parentCollectionId is bytes32(0))",
        "params": {
          "amount": "The amount of collateral to split.",
          "collateralToken": "The address of the ERC20 used as collateral",
          "conditionId": "The id of the condition to split",
          "parentCollectionId": "The Conditional Tokens parent collection id"
        }
      },
      "supportsInterface(bytes4)": {
        "details": "See {IERC165-supportsInterface}."
      }
    },
    "version": 1
  },
  "userdoc": {
    "kind": "user",
    "methods": {
      "getTokenAddress(address,bytes32,bytes32,uint256)": {
        "notice": "Returns the address of the ERC-20 associated to the ERC-1155 outcome token."
      },
      "getTokenId(address,bytes32,bytes32,uint256)": {
        "notice": "Constructs a tokenId from a collateral token and an outcome collection."
      },
      "getWinningOutcomes(bytes32)": {
        "notice": "Helper function used to know the redeemable outcomes associated to a conditionId."
      },
      "mergePositions(address,bytes32,bytes32,uint256)": {
        "notice": "Merges positions and sends the collateral tokens to the user"
      },
      "mergeToBase(bytes32,bytes32,uint256)": {
        "notice": "Merges positions and sends xDAI to the user."
      },
      "redeemPositions(address,bytes32,bytes32,uint256[])": {
        "notice": "Redeems positions and sends the collateral tokens to the user."
      },
      "redeemToBase(bytes32,bytes32,uint256[])": {
        "notice": "Redeems positions and sends xDAI to the user."
      },
      "splitFromBase(bytes32,bytes32)": {
        "notice": "Splits a position using xDAI and sends the ERC20 outcome tokens back to the user"
      },
      "splitPosition(address,bytes32,bytes32,uint256)": {
        "notice": "Transfers the collateral to the Router, splits the position and sends the ERC20 outcome tokens back to the user"
      }
    },
    "version": 1
  },
  "storageLayout": {
    "storage": [],
    "types": null
  }
}