{
  "address": "0x790510148176B74C881928DA0d0b1ff1d990509f",
  "abi": [
    {
      "inputs": [
        {
          "internalType": "contract IConditionalTokens",
          "name": "_conditionalTokens",
          "type": "address"
        },
        {
          "internalType": "contract IWrapped1155Factory",
          "name": "_wrapped1155Factory",
          "type": "address"
        }
      ],
      "stateMutability": "nonpayable",
      "type": "constructor"
    },
    {
      "inputs": [],
      "name": "conditionalTokens",
      "outputs": [
        {
          "internalType": "contract IConditionalTokens",
          "name": "",
          "type": "address"
        }
      ],
      "stateMutability": "view",
      "type": "function"
    },
    {
      "inputs": [
        {
          "internalType": "contract IERC20",
          "name": "collateralToken",
          "type": "address"
        },
        {
          "internalType": "bytes32",
          "name": "parentCollectionId",
          "type": "bytes32"
        },
        {
          "internalType": "bytes32",
          "name": "conditionId",
          "type": "bytes32"
        },
        {
          "internalType": "uint256",
          "name": "indexSet",
          "type": "uint256"
        }
      ],
      "name": "getTokenId",
      "outputs": [
        {
          "internalType": "uint256",
          "name": "",
          "type": "uint256"
        }
      ],
      "stateMutability": "view",
      "type": "function"
    },
    {
      "inputs": [
        {
          "internalType": "bytes32",
          "name": "conditionId",
          "type": "bytes32"
        }
      ],
      "name": "getWinningOutcomes",
      "outputs": [
        {
          "internalType": "bool[]",
          "name": "",
          "type": "bool[]"
        }
      ],
      "stateMutability": "view",
      "type": "function"
    },
    {
      "inputs": [
        {
          "internalType": "contract IERC20",
          "name": "collateralToken",
          "type": "address"
        },
        {
          "internalType": "contract Market",
          "name": "market",
          "type": "address"
        },
        {
          "internalType": "uint256",
          "name": "amount",
          "type": "uint256"
        }
      ],
      "name": "mergePositions",
      "outputs": [],
      "stateMutability": "nonpayable",
      "type": "function"
    },
    {
      "inputs": [
        {
          "internalType": "contract Market",
          "name": "market",
          "type": "address"
        },
        {
          "internalType": "uint256",
          "name": "amount",
          "type": "uint256"
        }
      ],
      "name": "mergeToBase",
      "outputs": [],
      "stateMutability": "nonpayable",
      "type": "function"
    },
    {
      "inputs": [
        {
          "internalType": "address",
          "name": "",
          "type": "address"
        },
        {
          "internalType": "address",
          "name": "",
          "type": "address"
        },
        {
          "internalType": "uint256[]",
          "name": "",
          "type": "uint256[]"
        },
        {
          "internalType": "uint256[]",
          "name": "",
          "type": "uint256[]"
        },
        {
          "internalType": "bytes",
          "name": "",
          "type": "bytes"
        }
      ],
      "name": "onERC1155BatchReceived",
      "outputs": [
        {
          "internalType": "bytes4",
          "name": "",
          "type": "bytes4"
        }
      ],
      "stateMutability": "nonpayable",
      "type": "function"
    },
    {
      "inputs": [
        {
          "internalType": "address",
          "name": "",
          "type": "address"
        },
        {
          "internalType": "address",
          "name": "",
          "type": "address"
        },
        {
          "internalType": "uint256",
          "name": "",
          "type": "uint256"
        },
        {
          "internalType": "uint256",
          "name": "",
          "type": "uint256"
        },
        {
          "internalType": "bytes",
          "name": "",
          "type": "bytes"
        }
      ],
      "name": "onERC1155Received",
      "outputs": [
        {
          "internalType": "bytes4",
          "name": "",
          "type": "bytes4"
        }
      ],
      "stateMutability": "nonpayable",
      "type": "function"
    },
    {
      "inputs": [
        {
          "internalType": "contract IERC20",
          "name": "collateralToken",
          "type": "address"
        },
        {
          "internalType": "contract Market",
          "name": "market",
          "type": "address"
        },
        {
          "internalType": "uint256[]",
          "name": "outcomeIndexes",
          "type": "uint256[]"
        },
        {
          "internalType": "uint256[]",
          "name": "amounts",
          "type": "uint256[]"
        }
      ],
      "name": "redeemPositions",
      "outputs": [],
      "stateMutability": "nonpayable",
      "type": "function"
    },
    {
      "inputs": [
        {
          "internalType": "contract Market",
          "name": "market",
          "type": "address"
        },
        {
          "internalType": "uint256[]",
          "name": "outcomeIndexes",
          "type": "uint256[]"
        },
        {
          "internalType": "uint256[]",
          "name": "amounts",
          "type": "uint256[]"
        }
      ],
      "name": "redeemToBase",
      "outputs": [],
      "stateMutability": "nonpayable",
      "type": "function"
    },
    {
      "inputs": [],
      "name": "sDAI",
      "outputs": [
        {
          "internalType": "contract IERC20",
          "name": "",
          "type": "address"
        }
      ],
      "stateMutability": "view",
      "type": "function"
    },
    {
      "inputs": [],
      "name": "savingsXDaiAdapter",
      "outputs": [
        {
          "internalType": "contract ISavingsXDaiAdapter",
          "name": "",
          "type": "address"
        }
      ],
      "stateMutability": "view",
      "type": "function"
    },
    {
      "inputs": [
        {
          "internalType": "contract Market",
          "name": "market",
          "type": "address"
        }
      ],
      "name": "splitFromBase",
      "outputs": [],
      "stateMutability": "payable",
      "type": "function"
    },
    {
      "inputs": [
        {
          "internalType": "contract IERC20",
          "name": "collateralToken",
          "type": "address"
        },
        {
          "internalType": "contract Market",
          "name": "market",
          "type": "address"
        },
        {
          "internalType": "uint256",
          "name": "amount",
          "type": "uint256"
        }
      ],
      "name": "splitPosition",
      "outputs": [],
      "stateMutability": "nonpayable",
      "type": "function"
    },
    {
      "inputs": [
        {
          "internalType": "bytes4",
          "name": "interfaceId",
          "type": "bytes4"
        }
      ],
      "name": "supportsInterface",
      "outputs": [
        {
          "internalType": "bool",
          "name": "",
          "type": "bool"
        }
      ],
      "stateMutability": "view",
      "type": "function"
    },
    {
      "inputs": [],
      "name": "wrapped1155Factory",
      "outputs": [
        {
          "internalType": "contract IWrapped1155Factory",
          "name": "",
          "type": "address"
        }
      ],
      "stateMutability": "view",
      "type": "function"
    }
  ],
  "transactionHash": "0x4b90b782b35d9708b30ad9d70300af6519a51cc114f79d47da392facd5ee6b4f",
  "args": [
    "0xCeAfDD6bc0bEF976fdCd1112955828E00543c0Ce",
    "0xD194319D1804C1051DD21Ba1Dc931cA72410B79f"
  ],
  "numDeployments": 13,
  "solcInputHash": "cfa6dd91ddb050212a7518c39690cdf1",
  "bytecode": "0x60c06040523480156200001157600080fd5b5060405162002bf138038062002bf1833981016040819052620000349162000065565b6001600160a01b039182166080521660a052620000a4565b6001600160a01b03811681146200006257600080fd5b50565b600080604083850312156200007957600080fd5b825162000086816200004c565b602084015190925062000099816200004c565b809150509250929050565b60805160a051612a6a62000187600039600081816101410152818161115e015281816114040152818161173b015281816119b701528181611ce001526120a10152600081816101c5015281816103a30152818161047a01528181610568015281816105ed01528181610f38015281816110430152818161118b015281816112190152818161129f015281816113d5015281816115bf01528181611768015281816117f8015281816118890152818161198801528181611d0f01528181611dd101528181611e6201528181611ef201528181611f8001526120790152612a6a6000f3fe6080604052600436106100c85760003560e01c8063865955a01161007a578063865955a0146102075780639fe603e814610227578063abf7e27314610247578063bc197c811461026f578063d5f82280146102b4578063d6d150d1146102d4578063de8b6149146102f4578063f23a6e611461031c57600080fd5b806301ffc9a7146100cd57806302bd74c314610102578063150c5b971461012f5780631a09424a1461017057806350d9991c1461019e5780635bd9e299146101b35780637abef8d1146101e7575b600080fd5b3480156100d957600080fd5b506100ed6100e8366004612234565b610348565b60405190151581526020015b60405180910390f35b34801561010e57600080fd5b5061012261011d366004612265565b61037f565b6040516100f9919061227e565b34801561013b57600080fd5b506101637f000000000000000000000000000000000000000000000000000000000000000081565b6040516100f991906122c4565b34801561017c57600080fd5b5061019061018b3660046122f0565b610537565b6040519081526020016100f9565b6101b16101ac36600461232b565b61066f565b005b3480156101bf57600080fd5b506101637f000000000000000000000000000000000000000000000000000000000000000081565b3480156101f357600080fd5b506101b1610202366004612348565b610713565b34801561021357600080fd5b506101b16102223660046123d4565b610801565b34801561023357600080fd5b506101b1610242366004612468565b6109f7565b34801561025357600080fd5b5061016373d499b51fcfc66bd31248ef4b28d656d67e591a9481565b34801561027b57600080fd5b5061029b61028a36600461262c565b63bc197c8160e01b95945050505050565b6040516001600160e01b031990911681526020016100f9565b3480156102c057600080fd5b506101b16102cf366004612348565b610c4e565b3480156102e057600080fd5b506101b16102ef3660046126d9565b610d39565b34801561030057600080fd5b5061016373af204776c7245bf4147c2612bf6e5972ee48370181565b34801561032857600080fd5b5061029b610337366004612705565b63f23a6e6160e01b95945050505050565b60006001600160e01b03198216630271189760e51b148061037957506301ffc9a760e01b6001600160e01b03198316145b92915050565b604051636a16e06160e11b8152600481018290526060906000906001600160a01b037f0000000000000000000000000000000000000000000000000000000000000000169063d42dc0c290602401602060405180830381865afa1580156103ea573d6000803e3d6000fd5b505050506040513d601f19601f8201168201806040525081019061040e919061276d565b6001600160401b03811115610425576104256124ea565b60405190808252806020026020018201604052801561044e578160200160208202803683370190505b50905060005b815181101561053057604051630141320560e21b815260048101859052602481018290527f00000000000000000000000000000000000000000000000000000000000000006001600160a01b031690630504c81490604401602060405180830381865afa1580156104c9573d6000803e3d6000fd5b505050506040513d601f19601f820116820180604052508101906104ed919061276d565b156104f95760016104fc565b60005b82828151811061050e5761050e612786565b9115156020928302919091019091015280610528816127b2565b915050610454565b5092915050565b60405163856296f760e01b815260048101849052602481018390526044810182905260009081906001600160a01b037f0000000000000000000000000000000000000000000000000000000000000000169063856296f790606401602060405180830381865afa1580156105af573d6000803e3d6000fd5b505050506040513d601f19601f820116820180604052508101906105d3919061276d565b60405163039dd75360e41b81529091506001600160a01b037f000000000000000000000000000000000000000000000000000000000000000016906339dd75309061062490899085906004016127cb565b602060405180830381865afa158015610641573d6000803e3d6000fd5b505050506040513d601f19601f82011682018060405250810190610665919061276d565b9695505050505050565b60405163f716a92b60e01b815260009073d499b51fcfc66bd31248ef4b28d656d67e591a949063f716a92b9034906106ab9030906004016122c4565b60206040518083038185885af11580156106c9573d6000803e3d6000fd5b50505050506040513d601f19601f820116820180604052508101906106ee919061276d565b905061070f73af204776c7245bf4147c2612bf6e5972ee4837018383610e65565b5050565b61071e8383836114ec565b6000801b826001600160a01b03166344bea37e6040518163ffffffff1660e01b8152600401602060405180830381865afa158015610760573d6000803e3d6000fd5b505050506040513d601f19601f82011682018060405250810190610784919061276d565b036107fc5760405163a9059cbb60e01b81526001600160a01b0384169063a9059cbb906107b790339085906004016127cb565b6020604051808303816000875af11580156107d6573d6000803e3d6000fd5b505050506040513d601f19601f820116820180604052508101906107fa91906127e4565b505b505050565b6000856001600160a01b03166344bea37e6040518163ffffffff1660e01b8152600401602060405180830381865afa158015610841573d6000803e3d6000fd5b505050506040513d601f19601f82011682018060405250810190610865919061276d565b90506000816108e0576040516370a0823160e01b81526001600160a01b038916906370a082319061089a9030906004016122c4565b6020604051808303816000875af11580156108b9573d6000803e3d6000fd5b505050506040513d601f19601f820116820180604052508101906108dd919061276d565b90505b6108ee888888888888611a4d565b816109ed576040516370a0823160e01b81526000906001600160a01b038a16906370a08231906109229030906004016122c4565b6020604051808303816000875af1158015610941573d6000803e3d6000fd5b505050506040513d601f19601f82011682018060405250810190610965919061276d565b9050818111156109eb576001600160a01b03891663a9059cbb336109898585612806565b6040518363ffffffff1660e01b81526004016109a69291906127cb565b6020604051808303816000875af11580156109c5573d6000803e3d6000fd5b505050506040513d601f19601f820116820180604052508101906109e991906127e4565b505b505b5050505050505050565b6040516370a0823160e01b815260009073af204776c7245bf4147c2612bf6e5972ee483701906370a0823190610a319030906004016122c4565b6020604051808303816000875af1158015610a50573d6000803e3d6000fd5b505050506040513d601f19601f82011682018060405250810190610a74919061276d565b9050610a9873af204776c7245bf4147c2612bf6e5972ee4837018787878787611a4d565b6040516370a0823160e01b815260009073af204776c7245bf4147c2612bf6e5972ee483701906370a0823190610ad29030906004016122c4565b6020604051808303816000875af1158015610af1573d6000803e3d6000fd5b505050506040513d601f19601f82011682018060405250810190610b15919061276d565b905081811115610c455773af204776c7245bf4147c2612bf6e5972ee48370163095ea7b373d499b51fcfc66bd31248ef4b28d656d67e591a94610b588585612806565b6040518363ffffffff1660e01b8152600401610b759291906127cb565b6020604051808303816000875af1158015610b94573d6000803e3d6000fd5b505050506040513d601f19601f82011682018060405250810190610bb891906127e4565b5073d499b51fcfc66bd31248ef4b28d656d67e591a9463d1ff8241610bdd8484612806565b6040516001600160e01b031960e084901b16815260048101919091523360248201526044016020604051808303816000875af1158015610c21573d6000803e3d6000fd5b505050506040513d601f19601f820116820180604052508101906109ed919061276d565b50505050505050565b6000801b826001600160a01b03166344bea37e6040518163ffffffff1660e01b8152600401602060405180830381865afa158015610c90573d6000803e3d6000fd5b505050506040513d601f19601f82011682018060405250810190610cb4919061276d565b03610d2e576040516323b872dd60e01b81526001600160a01b038416906323b872dd90610ce990339030908690600401612819565b6020604051808303816000875af1158015610d08573d6000803e3d6000fd5b505050506040513d601f19601f82011682018060405250810190610d2c91906127e4565b505b6107fc838383610e65565b610d5873af204776c7245bf4147c2612bf6e5972ee48370183836114ec565b60405163095ea7b360e01b815273af204776c7245bf4147c2612bf6e5972ee4837019063095ea7b390610da59073d499b51fcfc66bd31248ef4b28d656d67e591a949085906004016127cb565b6020604051808303816000875af1158015610dc4573d6000803e3d6000fd5b505050506040513d601f19601f82011682018060405250810190610de891906127e4565b5060405163d1ff824160e01b81526004810182905233602482015273d499b51fcfc66bd31248ef4b28d656d67e591a949063d1ff8241906044016020604051808303816000875af1158015610e41573d6000803e3d6000fd5b505050506040513d601f19601f820116820180604052508101906107fc919061276d565b6000826001600160a01b03166344bea37e6040518163ffffffff1660e01b8152600401602060405180830381865afa158015610ea5573d6000803e3d6000fd5b505050506040513d601f19601f82011682018060405250810190610ec9919061276d565b90506000836001600160a01b0316632ddc7de76040518163ffffffff1660e01b8152600401602060405180830381865afa158015610f0b573d6000803e3d6000fd5b505050506040513d601f19601f82011682018060405250810190610f2f919061276d565b90506000610fca7f00000000000000000000000000000000000000000000000000000000000000006001600160a01b031663d42dc0c2846040518263ffffffff1660e01b8152600401610f8491815260200190565b602060405180830381865afa158015610fa1573d6000803e3d6000fd5b505050506040513d601f19601f82011682018060405250810190610fc5919061276d565b6121ad565b905082156111f557600080866001600160a01b0316636fc4eddd6040518163ffffffff1660e01b8152600401600060405180830381865afa158015611013573d6000803e3d6000fd5b505050506040513d6000823e601f3d908101601f1916820160405261103b9190810190612861565b9150915060007f00000000000000000000000000000000000000000000000000000000000000006001600160a01b03166339dd75308a886040518363ffffffff1660e01b815260040161108f9291906127cb565b602060405180830381865afa1580156110ac573d6000803e3d6000fd5b505050506040513d601f19601f820116820180604052508101906110d0919061276d565b6040516323b872dd60e01b81529091506001600160a01b038416906323b872dd9061110390339030908c90600401612819565b6020604051808303816000875af1158015611122573d6000803e3d6000fd5b505050506040513d601f19601f8201168201806040525081019061114691906127e4565b506040516314abb2c960e21b81526001600160a01b037f000000000000000000000000000000000000000000000000000000000000000016906352aecb24906111bb907f00000000000000000000000000000000000000000000000000000000000000009085908c9030908990600401612919565b600060405180830381600087803b1580156111d557600080fd5b505af11580156111e9573d6000803e3d6000fd5b50505050505050611288565b60405163095ea7b360e01b81526001600160a01b0387169063095ea7b390611243907f00000000000000000000000000000000000000000000000000000000000000009088906004016127cb565b6020604051808303816000875af1158015611262573d6000803e3d6000fd5b505050506040513d601f19601f8201168201806040525081019061128691906127e4565b505b6040516372ce427560e01b81526001600160a01b037f000000000000000000000000000000000000000000000000000000000000000016906372ce4275906112dc9089908790879087908b9060040161298e565b600060405180830381600087803b1580156112f657600080fd5b505af115801561130a573d6000803e3d6000fd5b5050505060005b8151811015610c4557600061134188868686868151811061133457611334612786565b6020026020010151610537565b9050600080886001600160a01b03166318a988a8856040518263ffffffff1660e01b815260040161137491815260200190565b600060405180830381865afa158015611391573d6000803e3d6000fd5b505050506040513d6000823e601f3d908101601f191682016040526113b99190810190612861565b604051637921219560e11b815291935091506001600160a01b037f0000000000000000000000000000000000000000000000000000000000000000169063f242432a906114329030907f00000000000000000000000000000000000000000000000000000000000000009088908e9088906004016129cd565b600060405180830381600087803b15801561144c57600080fd5b505af1158015611460573d6000803e3d6000fd5b505060405163a9059cbb60e01b81526001600160a01b038516925063a9059cbb91506114929033908c906004016127cb565b6020604051808303816000875af11580156114b1573d6000803e3d6000fd5b505050506040513d601f19601f820116820180604052508101906114d591906127e4565b5050505080806114e4906127b2565b915050611311565b6000826001600160a01b03166344bea37e6040518163ffffffff1660e01b8152600401602060405180830381865afa15801561152c573d6000803e3d6000fd5b505050506040513d601f19601f82011682018060405250810190611550919061276d565b90506000836001600160a01b0316632ddc7de76040518163ffffffff1660e01b8152600401602060405180830381865afa158015611592573d6000803e3d6000fd5b505050506040513d601f19601f820116820180604052508101906115b6919061276d565b9050600061160b7f00000000000000000000000000000000000000000000000000000000000000006001600160a01b031663d42dc0c2846040518263ffffffff1660e01b8152600401610f8491815260200190565b905060005b81518110156117e057600061163388868686868151811061133457611334612786565b9050600080886001600160a01b03166318a988a8856040518263ffffffff1660e01b815260040161166691815260200190565b600060405180830381865afa158015611683573d6000803e3d6000fd5b505050506040513d6000823e601f3d908101601f191682016040526116ab9190810190612861565b6040516323b872dd60e01b815291935091506001600160a01b038316906323b872dd906116e090339030908d90600401612819565b6020604051808303816000875af11580156116ff573d6000803e3d6000fd5b505050506040513d601f19601f8201168201806040525081019061172391906127e4565b506040516314abb2c960e21b81526001600160a01b037f000000000000000000000000000000000000000000000000000000000000000016906352aecb2490611798907f00000000000000000000000000000000000000000000000000000000000000009087908d9030908890600401612919565b600060405180830381600087803b1580156117b257600080fd5b505af11580156117c6573d6000803e3d6000fd5b5050505050505080806117d8906127b2565b915050611610565b50604051639e7212ad60e01b81526001600160a01b037f00000000000000000000000000000000000000000000000000000000000000001690639e7212ad906118359089908790879087908b9060040161298e565b600060405180830381600087803b15801561184f57600080fd5b505af1158015611863573d6000803e3d6000fd5b505084159150611a4590505760405163039dd75360e41b81526000906001600160a01b037f000000000000000000000000000000000000000000000000000000000000000016906339dd7530906118c0908a9088906004016127cb565b602060405180830381865afa1580156118dd573d6000803e3d6000fd5b505050506040513d601f19601f82011682018060405250810190611901919061276d565b9050600080876001600160a01b0316636fc4eddd6040518163ffffffff1660e01b8152600401600060405180830381865afa158015611944573d6000803e3d6000fd5b505050506040513d6000823e601f3d908101601f1916820160405261196c9190810190612861565b604051637921219560e11b815291935091506001600160a01b037f0000000000000000000000000000000000000000000000000000000000000000169063f242432a906119e59030907f00000000000000000000000000000000000000000000000000000000000000009088908d9088906004016129cd565b600060405180830381600087803b1580156119ff57600080fd5b505af1158015611a13573d6000803e3d6000fd5b505060405163a9059cbb60e01b81526001600160a01b038516925063a9059cbb91506109a69033908b906004016127cb565b505050505050565b6000856001600160a01b03166344bea37e6040518163ffffffff1660e01b8152600401602060405180830381865afa158015611a8d573d6000803e3d6000fd5b505050506040513d601f19601f82011682018060405250810190611ab1919061276d565b90506000866001600160a01b0316632ddc7de76040518163ffffffff1660e01b8152600401602060405180830381865afa158015611af3573d6000803e3d6000fd5b505050506040513d601f19601f82011682018060405250810190611b17919061276d565b9050600080866001600160401b03811115611b3457611b346124ea565b604051908082528060200260200182016040528015611b5d578160200160208202803683370190505b50905060005b87811015611db157888882818110611b7d57611b7d612786565b905060200201356001901b828281518110611b9a57611b9a612786565b602002602001018181525050611bbe8b868685858151811061133457611334612786565b92506000808b6001600160a01b03166318a988a88c8c86818110611be457611be4612786565b905060200201356040518263ffffffff1660e01b8152600401611c0991815260200190565b600060405180830381865afa158015611c26573d6000803e3d6000fd5b505050506040513d6000823e601f3d908101601f19168201604052611c4e9190810190612861565b91509150816001600160a01b03166323b872dd33308c8c88818110611c7557611c75612786565b905060200201356040518463ffffffff1660e01b8152600401611c9a93929190612819565b6020604051808303816000875af1158015611cb9573d6000803e3d6000fd5b505050506040513d601f19601f82011682018060405250810190611cdd91906127e4565b507f00000000000000000000000000000000000000000000000000000000000000006001600160a01b03166352aecb247f0000000000000000000000000000000000000000000000000000000000000000878c8c88818110611d4157611d41612786565b9050602002013530866040518663ffffffff1660e01b8152600401611d6a959493929190612919565b600060405180830381600087803b158015611d8457600080fd5b505af1158015611d98573d6000803e3d6000fd5b5050505050508080611da9906127b2565b915050611b63565b5060008415611edc5760405163039dd75360e41b81526001600160a01b037f000000000000000000000000000000000000000000000000000000000000000016906339dd753090611e08908e9089906004016127cb565b602060405180830381865afa158015611e25573d6000803e3d6000fd5b505050506040513d601f19601f82011682018060405250810190611e49919061276d565b604051627eeac760e11b81529093506001600160a01b037f0000000000000000000000000000000000000000000000000000000000000000169062fdd58e90611e9890309087906004016127cb565b602060405180830381865afa158015611eb5573d6000803e3d6000fd5b505050506040513d601f19601f82011682018060405250810190611ed9919061276d565b90505b604051626dc0df60e21b81526001600160a01b037f000000000000000000000000000000000000000000000000000000000000000016906301b7037c90611f2d908e90899089908890600401612a07565b600060405180830381600087803b158015611f4757600080fd5b505af1158015611f5b573d6000803e3d6000fd5b5050861591506121a0905057604051627eeac760e11b81526000906001600160a01b037f0000000000000000000000000000000000000000000000000000000000000000169062fdd58e90611fb690309088906004016127cb565b602060405180830381865afa158015611fd3573d6000803e3d6000fd5b505050506040513d601f19601f82011682018060405250810190611ff7919061276d565b90508181111561219e576000808c6001600160a01b0316636fc4eddd6040518163ffffffff1660e01b8152600401600060405180830381865afa158015612042573d6000803e3d6000fd5b505050506040513d6000823e601f3d908101601f1916820160405261206a9190810190612861565b90925090506001600160a01b037f00000000000000000000000000000000000000000000000000000000000000001663f242432a307f0000000000000000000000000000000000000000000000000000000000000000896120cb8989612806565b866040518663ffffffff1660e01b81526004016120ec9594939291906129cd565b600060405180830381600087803b15801561210657600080fd5b505af115801561211a573d6000803e3d6000fd5b50505050816001600160a01b031663a9059cbb33868661213a9190612806565b6040518363ffffffff1660e01b81526004016121579291906127cb565b6020604051808303816000875af1158015612176573d6000803e3d6000fd5b505050506040513d601f19601f8201168201806040525081019061219a91906127e4565b5050505b505b5050505050505050505050565b60606000826001600160401b038111156121c9576121c96124ea565b6040519080825280602002602001820160405280156121f2578160200160208202803683370190505b50905060005b8381101561053057806001901b82828151811061221757612217612786565b60209081029190910101528061222c816127b2565b9150506121f8565b60006020828403121561224657600080fd5b81356001600160e01b03198116811461225e57600080fd5b9392505050565b60006020828403121561227757600080fd5b5035919050565b6020808252825182820181905260009190848201906040850190845b818110156122b857835115158352928401929184019160010161229a565b50909695505050505050565b6001600160a01b0391909116815260200190565b6001600160a01b03811681146122ed57600080fd5b50565b6000806000806080858703121561230657600080fd5b8435612311816122d8565b966020860135965060408601359560600135945092505050565b60006020828403121561233d57600080fd5b813561225e816122d8565b60008060006060848603121561235d57600080fd5b8335612368816122d8565b92506020840135612378816122d8565b929592945050506040919091013590565b60008083601f84011261239b57600080fd5b5081356001600160401b038111156123b257600080fd5b6020830191508360208260051b85010111156123cd57600080fd5b9250929050565b600080600080600080608087890312156123ed57600080fd5b86356123f8816122d8565b95506020870135612408816122d8565b945060408701356001600160401b038082111561242457600080fd5b6124308a838b01612389565b9096509450606089013591508082111561244957600080fd5b5061245689828a01612389565b979a9699509497509295939492505050565b60008060008060006060868803121561248057600080fd5b853561248b816122d8565b945060208601356001600160401b03808211156124a757600080fd5b6124b389838a01612389565b909650945060408801359150808211156124cc57600080fd5b506124d988828901612389565b969995985093965092949392505050565b634e487b7160e01b600052604160045260246000fd5b604051601f8201601f191681016001600160401b0381118282101715612528576125286124ea565b604052919050565b600082601f83011261254157600080fd5b813560206001600160401b0382111561255c5761255c6124ea565b8160051b61256b828201612500565b928352848101820192828101908785111561258557600080fd5b83870192505b848310156125a45782358252918301919083019061258b565b979650505050505050565b60006001600160401b038211156125c8576125c86124ea565b50601f01601f191660200190565b600082601f8301126125e757600080fd5b81356125fa6125f5826125af565b612500565b81815284602083860101111561260f57600080fd5b816020850160208301376000918101602001919091529392505050565b600080600080600060a0868803121561264457600080fd5b853561264f816122d8565b9450602086013561265f816122d8565b935060408601356001600160401b038082111561267b57600080fd5b61268789838a01612530565b9450606088013591508082111561269d57600080fd5b6126a989838a01612530565b935060808801359150808211156126bf57600080fd5b506126cc888289016125d6565b9150509295509295909350565b600080604083850312156126ec57600080fd5b82356126f7816122d8565b946020939093013593505050565b600080600080600060a0868803121561271d57600080fd5b8535612728816122d8565b94506020860135612738816122d8565b9350604086013592506060860135915060808601356001600160401b0381111561276157600080fd5b6126cc888289016125d6565b60006020828403121561277f57600080fd5b5051919050565b634e487b7160e01b600052603260045260246000fd5b634e487b7160e01b600052601160045260246000fd5b6000600182016127c4576127c461279c565b5060010190565b6001600160a01b03929092168252602082015260400190565b6000602082840312156127f657600080fd5b8151801515811461225e57600080fd5b818103818111156103795761037961279c565b6001600160a01b039384168152919092166020820152604081019190915260600190565b60005b83811015612858578181015183820152602001612840565b50506000910152565b6000806040838503121561287457600080fd5b825161287f816122d8565b60208401519092506001600160401b0381111561289b57600080fd5b8301601f810185136128ac57600080fd5b80516128ba6125f5826125af565b8181528660208385010111156128cf57600080fd5b6128e082602083016020860161283d565b8093505050509250929050565b6000815180845261290581602086016020860161283d565b601f01601f19169290920160200192915050565b6001600160a01b03868116825260208201869052604082018590528316606082015260a0608082018190526000906125a4908301846128ed565b600081518084526020808501945080840160005b8381101561298357815187529582019590820190600101612967565b509495945050505050565b60018060a01b038616815284602082015283604082015260a0606082015260006129bb60a0830185612953565b90508260808301529695505050505050565b6001600160a01b03868116825285166020820152604081018490526060810183905260a0608082018190526000906125a4908301846128ed565b60018060a01b0385168152836020820152826040820152608060608201526000610665608083018461295356fea2646970667358221220903fd7c6417ca0d307dc4279c8f727d1f7e6452f64fd283dc9f9092e7df20fcf64736f6c63430008140033",
  "devdoc": {
    "details": "Router implementation with functions to interact with xDAI on Gnosis Chain.",
    "kind": "dev",
    "methods": {
      "constructor": {
        "details": "Constructor.",
        "params": {
          "_conditionalTokens": "Conditional Tokens contract.",
          "_wrapped1155Factory": "Wrapped1155Factory contract."
        }
      },
      "getTokenId(address,bytes32,bytes32,uint256)": {
        "params": {
          "collateralToken": "The address of the ERC20 used as collateral.",
          "conditionId": "The id of the condition used to redeem.",
          "indexSet": "Index set of the outcome collection to combine with the parent outcome collection.",
          "parentCollectionId": "The Conditional Tokens parent collection id."
        },
        "returns": {
          "_0": "The token id."
        }
      },
      "getWinningOutcomes(bytes32)": {
        "params": {
          "conditionId": "The id of the condition."
        },
        "returns": {
          "_0": "An array of outcomes where a true value indicates that the outcome is redeemable."
        }
      },
      "mergePositions(address,address,uint256)": {
        "details": "The ERC20 associated to each outcome must be previously created on the wrapped1155Factory.Collateral tokens are withdrawn only if we are not merging a deep position (parentCollectionId is bytes32(0)).",
        "params": {
          "amount": "The amount of outcome tokens to merge.",
          "collateralToken": "The address of the ERC20 used as collateral.",
          "market": "The Market to merge."
        }
      },
      "mergeToBase(address,uint256)": {
        "details": "The ERC20 associated to each outcome must be previously created on the wrapped1155Factory.",
        "params": {
          "amount": "The amount of outcome tokens to merge.",
          "market": "The Market to merge."
        }
      },
      "redeemPositions(address,address,uint256[],uint256[])": {
        "details": "The ERC20 associated to each outcome must be previously created on the wrapped1155Factory.Collateral tokens are withdrawn only if we are not redeeming a deep position (parentCollectionId is bytes32(0)).",
        "params": {
          "amounts": "Amount to redeem of each outcome.",
          "collateralToken": "The address of the ERC20 used as collateral.",
          "market": "The Market to redeem.",
          "outcomeIndexes": "The index of the outcomes to redeem."
        }
      },
      "redeemToBase(address,uint256[],uint256[])": {
        "details": "The ERC20 associated to each outcome must be previously created on the wrapped1155Factory.",
        "params": {
          "amounts": "Amount to redeem of each outcome.",
          "market": "The Market to redeem.",
          "outcomeIndexes": "The index of the outcomes to redeem."
        }
      },
      "splitFromBase(address)": {
        "details": "The ERC20 associated to each outcome must be previously created on the wrapped1155Factory.",
        "params": {
          "market": "The Market to split."
        }
      },
      "splitPosition(address,address,uint256)": {
        "details": "The ERC20 associated to each outcome must be previously created on the wrapped1155Factory.Collateral tokens are deposited only if we are not splitting a deep position (parentCollectionId is bytes32(0)).",
        "params": {
          "amount": "The amount of collateral to split.",
          "collateralToken": "The address of the ERC20 used as collateral.",
          "market": "The Market to split."
        }
      },
      "supportsInterface(bytes4)": {
        "details": "See {IERC165-supportsInterface}."
      }
    },
    "stateVariables": {
      "sDAI": {
        "details": "sDAI address."
      },
      "savingsXDaiAdapter": {
        "details": "SavingsXDaiAdapter address."
      }
    },
    "version": 1
  },
  "userdoc": {
    "kind": "user",
    "methods": {
      "getTokenId(address,bytes32,bytes32,uint256)": {
        "notice": "Constructs a tokenId from a collateral token and an outcome collection."
      },
      "getWinningOutcomes(bytes32)": {
        "notice": "Helper function used to know the redeemable outcomes associated to a conditionId."
      },
      "mergePositions(address,address,uint256)": {
        "notice": "Merges positions and sends the collateral tokens to the user."
      },
      "mergeToBase(address,uint256)": {
        "notice": "Merges positions and sends xDAI to the user."
      },
      "redeemPositions(address,address,uint256[],uint256[])": {
        "notice": "Redeems positions and sends the collateral tokens to the user."
      },
      "redeemToBase(address,uint256[],uint256[])": {
        "notice": "Redeems positions and sends xDAI to the user."
      },
      "splitFromBase(address)": {
        "notice": "Splits a position using xDAI and sends the ERC20 outcome tokens back to the user."
      },
      "splitPosition(address,address,uint256)": {
        "notice": "Transfers the collateral to the Router, splits the position and sends the ERC20 outcome tokens back to the user."
      }
    },
    "version": 1
  },
  "storageLayout": {
    "storage": [],
    "types": null
  }
}