{
  "address": "0x7E9757B3358927Af94C0C16b3093136a42d7f72A",
  "abi": [
    {
      "inputs": [
        {
          "internalType": "contract IConditionalTokens",
          "name": "_conditionalTokens",
          "type": "address"
        },
        {
          "internalType": "contract WrappedERC20Factory",
          "name": "_wrappedERC20Factory",
          "type": "address"
        }
      ],
      "stateMutability": "nonpayable",
      "type": "constructor"
    },
    {
      "inputs": [],
      "name": "conditionalTokens",
      "outputs": [
        {
          "internalType": "contract IConditionalTokens",
          "name": "",
          "type": "address"
        }
      ],
      "stateMutability": "view",
      "type": "function"
    },
    {
      "inputs": [
        {
          "internalType": "contract IERC20",
          "name": "collateralToken",
          "type": "address"
        },
        {
          "internalType": "bytes32",
          "name": "parentCollectionId",
          "type": "bytes32"
        },
        {
          "internalType": "bytes32",
          "name": "conditionId",
          "type": "bytes32"
        },
        {
          "internalType": "uint256",
          "name": "indexSet",
          "type": "uint256"
        }
      ],
      "name": "getTokenAddress",
      "outputs": [
        {
          "internalType": "contract IERC20",
          "name": "",
          "type": "address"
        }
      ],
      "stateMutability": "view",
      "type": "function"
    },
    {
      "inputs": [
        {
          "internalType": "contract IERC20",
          "name": "collateralToken",
          "type": "address"
        },
        {
          "internalType": "bytes32",
          "name": "parentCollectionId",
          "type": "bytes32"
        },
        {
          "internalType": "bytes32",
          "name": "conditionId",
          "type": "bytes32"
        },
        {
          "internalType": "uint256",
          "name": "indexSet",
          "type": "uint256"
        }
      ],
      "name": "getTokenId",
      "outputs": [
        {
          "internalType": "uint256",
          "name": "",
          "type": "uint256"
        }
      ],
      "stateMutability": "view",
      "type": "function"
    },
    {
      "inputs": [
        {
          "internalType": "bytes32",
          "name": "conditionId",
          "type": "bytes32"
        }
      ],
      "name": "getWinningOutcomes",
      "outputs": [
        {
          "internalType": "bool[]",
          "name": "",
          "type": "bool[]"
        }
      ],
      "stateMutability": "view",
      "type": "function"
    },
    {
      "inputs": [
        {
          "internalType": "contract IERC20",
          "name": "collateralToken",
          "type": "address"
        },
        {
          "internalType": "bytes32",
          "name": "parentCollectionId",
          "type": "bytes32"
        },
        {
          "internalType": "bytes32",
          "name": "conditionId",
          "type": "bytes32"
        },
        {
          "internalType": "uint256[]",
          "name": "partition",
          "type": "uint256[]"
        },
        {
          "internalType": "uint256",
          "name": "amount",
          "type": "uint256"
        }
      ],
      "name": "mergePositions",
      "outputs": [],
      "stateMutability": "nonpayable",
      "type": "function"
    },
    {
      "inputs": [
        {
          "internalType": "bytes32",
          "name": "parentCollectionId",
          "type": "bytes32"
        },
        {
          "internalType": "bytes32",
          "name": "conditionId",
          "type": "bytes32"
        },
        {
          "internalType": "uint256[]",
          "name": "partition",
          "type": "uint256[]"
        },
        {
          "internalType": "uint256",
          "name": "amount",
          "type": "uint256"
        }
      ],
      "name": "mergeToBase",
      "outputs": [],
      "stateMutability": "nonpayable",
      "type": "function"
    },
    {
      "inputs": [
        {
          "internalType": "address",
          "name": "",
          "type": "address"
        },
        {
          "internalType": "address",
          "name": "",
          "type": "address"
        },
        {
          "internalType": "uint256[]",
          "name": "",
          "type": "uint256[]"
        },
        {
          "internalType": "uint256[]",
          "name": "",
          "type": "uint256[]"
        },
        {
          "internalType": "bytes",
          "name": "",
          "type": "bytes"
        }
      ],
      "name": "onERC1155BatchReceived",
      "outputs": [
        {
          "internalType": "bytes4",
          "name": "",
          "type": "bytes4"
        }
      ],
      "stateMutability": "nonpayable",
      "type": "function"
    },
    {
      "inputs": [
        {
          "internalType": "address",
          "name": "",
          "type": "address"
        },
        {
          "internalType": "address",
          "name": "",
          "type": "address"
        },
        {
          "internalType": "uint256",
          "name": "",
          "type": "uint256"
        },
        {
          "internalType": "uint256",
          "name": "",
          "type": "uint256"
        },
        {
          "internalType": "bytes",
          "name": "",
          "type": "bytes"
        }
      ],
      "name": "onERC1155Received",
      "outputs": [
        {
          "internalType": "bytes4",
          "name": "",
          "type": "bytes4"
        }
      ],
      "stateMutability": "nonpayable",
      "type": "function"
    },
    {
      "inputs": [
        {
          "internalType": "contract IERC20",
          "name": "collateralToken",
          "type": "address"
        },
        {
          "internalType": "bytes32",
          "name": "parentCollectionId",
          "type": "bytes32"
        },
        {
          "internalType": "bytes32",
          "name": "conditionId",
          "type": "bytes32"
        },
        {
          "internalType": "uint256[]",
          "name": "indexSets",
          "type": "uint256[]"
        }
      ],
      "name": "redeemPositions",
      "outputs": [],
      "stateMutability": "nonpayable",
      "type": "function"
    },
    {
      "inputs": [
        {
          "internalType": "bytes32",
          "name": "parentCollectionId",
          "type": "bytes32"
        },
        {
          "internalType": "bytes32",
          "name": "conditionId",
          "type": "bytes32"
        },
        {
          "internalType": "uint256[]",
          "name": "indexSets",
          "type": "uint256[]"
        }
      ],
      "name": "redeemToBase",
      "outputs": [],
      "stateMutability": "nonpayable",
      "type": "function"
    },
    {
      "inputs": [],
      "name": "sDAI",
      "outputs": [
        {
          "internalType": "contract IERC20",
          "name": "",
          "type": "address"
        }
      ],
      "stateMutability": "view",
      "type": "function"
    },
    {
      "inputs": [],
      "name": "savingsXDaiAdapter",
      "outputs": [
        {
          "internalType": "contract SavingsXDaiAdapter",
          "name": "",
          "type": "address"
        }
      ],
      "stateMutability": "view",
      "type": "function"
    },
    {
      "inputs": [
        {
          "internalType": "bytes32",
          "name": "parentCollectionId",
          "type": "bytes32"
        },
        {
          "internalType": "bytes32",
          "name": "conditionId",
          "type": "bytes32"
        },
        {
          "internalType": "uint256[]",
          "name": "partition",
          "type": "uint256[]"
        }
      ],
      "name": "splitFromBase",
      "outputs": [],
      "stateMutability": "payable",
      "type": "function"
    },
    {
      "inputs": [
        {
          "internalType": "contract IERC20",
          "name": "collateralToken",
          "type": "address"
        },
        {
          "internalType": "bytes32",
          "name": "parentCollectionId",
          "type": "bytes32"
        },
        {
          "internalType": "bytes32",
          "name": "conditionId",
          "type": "bytes32"
        },
        {
          "internalType": "uint256[]",
          "name": "partition",
          "type": "uint256[]"
        },
        {
          "internalType": "uint256",
          "name": "amount",
          "type": "uint256"
        }
      ],
      "name": "splitPosition",
      "outputs": [],
      "stateMutability": "nonpayable",
      "type": "function"
    },
    {
      "inputs": [
        {
          "internalType": "bytes4",
          "name": "interfaceId",
          "type": "bytes4"
        }
      ],
      "name": "supportsInterface",
      "outputs": [
        {
          "internalType": "bool",
          "name": "",
          "type": "bool"
        }
      ],
      "stateMutability": "view",
      "type": "function"
    },
    {
      "inputs": [],
      "name": "wrappedERC20Factory",
      "outputs": [
        {
          "internalType": "contract WrappedERC20Factory",
          "name": "",
          "type": "address"
        }
      ],
      "stateMutability": "view",
      "type": "function"
    }
  ],
  "transactionHash": "0xf4b59c80a382983a5afe4d972ad873c240c4f8bdb57444b86b9927fc82d85ca0",
  "args": [
    "0xCeAfDD6bc0bEF976fdCd1112955828E00543c0Ce",
    "0x940B602a3891fbb41650E83b6cF8aca0F1B3C2f1"
  ],
  "numDeployments": 7,
  "solcInputHash": "a7b6681d59548aa215c1486481ab56ee",
  "bytecode": "0x60c06040523480156200001157600080fd5b50604051620022a9380380620022a9833981016040819052620000349162000065565b6001600160a01b039182166080521660a052620000a4565b6001600160a01b03811681146200006257600080fd5b50565b600080604083850312156200007957600080fd5b825162000086816200004c565b602084015190925062000099816200004c565b809150509250929050565b60805160a05161214c6200015d600039600081816101fd01528181610ca501528181610df401528181610ecb01528181611055015281816111e0015281816112ab015281816113c2015281816116bf01528181611761015261183a0152600081816101bc0152818161055001528181610627015281816107150152818161079a01528181611031015281816111650152818161139e015281816114d201528181611570015281816115f5015261168f015261214c6000f3fe6080604052600436106100d35760003560e01c80639e7212ad1161007a5780639e7212ad1461023f578063a3814b1d1461025f578063a88453d21461027f578063abf7e2731461029f578063bc197c81146102c7578063de8b61491461030c578063f23a6e6114610334578063f7f57c041461036057600080fd5b806301b7037c146100d857806301ffc9a7146100fa57806302bd74c31461012f5780631a09424a1461015c57806331d1ca271461018a5780635bd9e299146101aa57806361371325146101eb57806372ce42751461021f575b600080fd5b3480156100e457600080fd5b506100f86100f336600461199b565b610373565b005b34801561010657600080fd5b5061011a610115366004611a04565b6104f5565b60405190151581526020015b60405180910390f35b34801561013b57600080fd5b5061014f61014a366004611a35565b61052c565b6040516101269190611a4e565b34801561016857600080fd5b5061017c610177366004611a94565b6106e4565b604051908152602001610126565b34801561019657600080fd5b506100f86101a5366004611acf565b61081c565b3480156101b657600080fd5b506101de7f000000000000000000000000000000000000000000000000000000000000000081565b6040516101269190611b29565b3480156101f757600080fd5b506101de7f000000000000000000000000000000000000000000000000000000000000000081565b34801561022b57600080fd5b506100f861023a366004611b3d565b610953565b34801561024b57600080fd5b506100f861025a366004611b3d565b6109d5565b34801561026b57600080fd5b506100f861027a366004611bae565b610a54565b34801561028b57600080fd5b506101de61029a366004611a94565b610ca1565b3480156102ab57600080fd5b506101de73d499b51fcfc66bd31248ef4b28d656d67e591a9481565b3480156102d357600080fd5b506102f36102e2366004611d42565b63bc197c8160e01b95945050505050565b6040516001600160e01b03199091168152602001610126565b34801561031857600080fd5b506101de73af204776c7245bf4147c2612bf6e5972ee48370181565b34801561034057600080fd5b506102f361034f366004611def565b63f23a6e6160e01b95945050505050565b6100f861036e366004611bae565b610d46565b6040516370a0823160e01b81526000906001600160a01b038716906370a08231906103a2903090600401611b29565b6020604051808303816000875af11580156103c1573d6000803e3d6000fd5b505050506040513d601f19601f820116820180604052508101906103e59190611e57565b90506103f48686868686610df0565b6040516370a0823160e01b81526000906001600160a01b038816906370a0823190610423903090600401611b29565b6020604051808303816000875af1158015610442573d6000803e3d6000fd5b505050506040513d601f19601f820116820180604052508101906104669190611e57565b9050818111156104ec576001600160a01b03871663a9059cbb3361048a8585611e86565b6040518363ffffffff1660e01b81526004016104a7929190611e99565b6020604051808303816000875af11580156104c6573d6000803e3d6000fd5b505050506040513d601f19601f820116820180604052508101906104ea9190611eb2565b505b50505050505050565b60006001600160e01b03198216630271189760e51b148061052657506301ffc9a760e01b6001600160e01b03198316145b92915050565b604051636a16e06160e11b8152600481018290526060906000906001600160a01b037f0000000000000000000000000000000000000000000000000000000000000000169063d42dc0c290602401602060405180830381865afa158015610597573d6000803e3d6000fd5b505050506040513d601f19601f820116820180604052508101906105bb9190611e57565b6001600160401b038111156105d2576105d2611c00565b6040519080825280602002602001820160405280156105fb578160200160208202803683370190505b50905060005b81518110156106dd57604051630141320560e21b815260048101859052602481018290527f00000000000000000000000000000000000000000000000000000000000000006001600160a01b031690630504c81490604401602060405180830381865afa158015610676573d6000803e3d6000fd5b505050506040513d601f19601f8201168201806040525081019061069a9190611e57565b156106a65760016106a9565b60005b8282815181106106bb576106bb611ed4565b91151560209283029190910190910152806106d581611eea565b915050610601565b5092915050565b60405163856296f760e01b815260048101849052602481018390526044810182905260009081906001600160a01b037f0000000000000000000000000000000000000000000000000000000000000000169063856296f790606401602060405180830381865afa15801561075c573d6000803e3d6000fd5b505050506040513d601f19601f820116820180604052508101906107809190611e57565b60405163039dd75360e41b81529091506001600160a01b037f000000000000000000000000000000000000000000000000000000000000000016906339dd7530906107d19089908590600401611e99565b602060405180830381865afa1580156107ee573d6000803e3d6000fd5b505050506040513d601f19601f820116820180604052508101906108129190611e57565b9695505050505050565b61083e73af204776c7245bf4147c2612bf6e5972ee48370186868686866111dc565b60405163095ea7b360e01b815273af204776c7245bf4147c2612bf6e5972ee4837019063095ea7b39061088b9073d499b51fcfc66bd31248ef4b28d656d67e591a94908590600401611e99565b6020604051808303816000875af11580156108aa573d6000803e3d6000fd5b505050506040513d601f19601f820116820180604052508101906108ce9190611eb2565b5060405163d1ff824160e01b81526004810182905233602482015273d499b51fcfc66bd31248ef4b28d656d67e591a949063d1ff8241906044016020604051808303816000875af1158015610927573d6000803e3d6000fd5b505050506040513d601f19601f8201168201806040525081019061094b9190611e57565b505050505050565b6040516323b872dd60e01b81526001600160a01b038716906323b872dd9061098390339030908690600401611f03565b6020604051808303816000875af11580156109a2573d6000803e3d6000fd5b505050506040513d601f19601f820116820180604052508101906109c69190611eb2565b5061094b86868686868661154c565b6109e38686868686866111dc565b60405163a9059cbb60e01b81526001600160a01b0387169063a9059cbb90610a119033908590600401611e99565b6020604051808303816000875af1158015610a30573d6000803e3d6000fd5b505050506040513d601f19601f820116820180604052508101906104ec9190611eb2565b6040516370a0823160e01b815260009073af204776c7245bf4147c2612bf6e5972ee483701906370a0823190610a8e903090600401611b29565b6020604051808303816000875af1158015610aad573d6000803e3d6000fd5b505050506040513d601f19601f82011682018060405250810190610ad19190611e57565b9050610af473af204776c7245bf4147c2612bf6e5972ee48370186868686610df0565b6040516370a0823160e01b815260009073af204776c7245bf4147c2612bf6e5972ee483701906370a0823190610b2e903090600401611b29565b6020604051808303816000875af1158015610b4d573d6000803e3d6000fd5b505050506040513d601f19601f82011682018060405250810190610b719190611e57565b90508181111561094b5773af204776c7245bf4147c2612bf6e5972ee48370163095ea7b373d499b51fcfc66bd31248ef4b28d656d67e591a94610bb48585611e86565b6040518363ffffffff1660e01b8152600401610bd1929190611e99565b6020604051808303816000875af1158015610bf0573d6000803e3d6000fd5b505050506040513d601f19601f82011682018060405250810190610c149190611eb2565b5073d499b51fcfc66bd31248ef4b28d656d67e591a9463d1ff8241610c398484611e86565b6040516001600160e01b031960e084901b16815260048101919091523360248201526044016020604051808303816000875af1158015610c7d573d6000803e3d6000fd5b505050506040513d601f19601f820116820180604052508101906104ec9190611e57565b60007f00000000000000000000000000000000000000000000000000000000000000006001600160a01b0316634f64b2be610cde878787876106e4565b6040518263ffffffff1660e01b8152600401610cfc91815260200190565b602060405180830381865afa158015610d19573d6000803e3d6000fd5b505050506040513d601f19601f82011682018060405250810190610d3d9190611f27565b95945050505050565b60405163f716a92b60e01b815260009073d499b51fcfc66bd31248ef4b28d656d67e591a949063f716a92b903490610d82903090600401611b29565b60206040518083038185885af1158015610da0573d6000803e3d6000fd5b50505050506040513d601f19601f82011682018060405250810190610dc59190611e57565b9050610de973af204776c7245bf4147c2612bf6e5972ee483701868686868661154c565b5050505050565b60007f00000000000000000000000000000000000000000000000000000000000000006001600160a01b031663150c5b976040518163ffffffff1660e01b8152600401602060405180830381865afa158015610e50573d6000803e3d6000fd5b505050506040513d601f19601f82011682018060405250810190610e749190611f27565b905060005b8281101561114e576000610ea7888888888887818110610e9b57610e9b611ed4565b905060200201356106e4565b6040516327b2595f60e11b8152600481018290529091506000906001600160a01b037f00000000000000000000000000000000000000000000000000000000000000001690634f64b2be90602401602060405180830381865afa158015610f12573d6000803e3d6000fd5b505050506040513d601f19601f82011682018060405250810190610f369190611f27565b90506000816001600160a01b03166370a08231336040518263ffffffff1660e01b8152600401610f669190611b29565b6020604051808303816000875af1158015610f85573d6000803e3d6000fd5b505050506040513d601f19601f82011682018060405250810190610fa99190611e57565b6040516323b872dd60e01b81529091506001600160a01b038316906323b872dd90610fdc90339030908690600401611f03565b6020604051808303816000875af1158015610ffb573d6000803e3d6000fd5b505050506040513d601f19601f8201168201806040525081019061101f9190611eb2565b50846001600160a01b03166352aecb247f00000000000000000000000000000000000000000000000000000000000000008584307f00000000000000000000000000000000000000000000000000000000000000006001600160a01b031663f0ba84408a6040518263ffffffff1660e01b81526004016110a191815260200190565b600060405180830381865afa1580156110be573d6000803e3d6000fd5b505050506040513d6000823e601f3d908101601f191682016040526110e69190810190611f68565b6040518663ffffffff1660e01b8152600401611106959493929190612001565b600060405180830381600087803b15801561112057600080fd5b505af1158015611134573d6000803e3d6000fd5b50505050505050808061114690611eea565b915050610e79565b50604051626dc0df60e21b81526001600160a01b037f000000000000000000000000000000000000000000000000000000000000000016906301b7037c906111a2908990899089908990899060040161206d565b600060405180830381600087803b1580156111bc57600080fd5b505af11580156111d0573d6000803e3d6000fd5b50505050505050505050565b60007f00000000000000000000000000000000000000000000000000000000000000006001600160a01b031663150c5b976040518163ffffffff1660e01b8152600401602060405180830381865afa15801561123c573d6000803e3d6000fd5b505050506040513d601f19601f820116820180604052508101906112609190611f27565b905060005b838110156114ba576000611287898989898987818110610e9b57610e9b611ed4565b6040516327b2595f60e11b8152600481018290529091506000906001600160a01b037f00000000000000000000000000000000000000000000000000000000000000001690634f64b2be90602401602060405180830381865afa1580156112f2573d6000803e3d6000fd5b505050506040513d601f19601f820116820180604052508101906113169190611f27565b6040516323b872dd60e01b81529091506001600160a01b038216906323b872dd9061134990339030908a90600401611f03565b6020604051808303816000875af1158015611368573d6000803e3d6000fd5b505050506040513d601f19601f8201168201806040525081019061138c9190611eb2565b50836001600160a01b03166352aecb247f00000000000000000000000000000000000000000000000000000000000000008488307f00000000000000000000000000000000000000000000000000000000000000006001600160a01b031663f0ba8440896040518263ffffffff1660e01b815260040161140e91815260200190565b600060405180830381865afa15801561142b573d6000803e3d6000fd5b505050506040513d6000823e601f3d908101601f191682016040526114539190810190611f68565b6040518663ffffffff1660e01b8152600401611473959493929190612001565b600060405180830381600087803b15801561148d57600080fd5b505af11580156114a1573d6000803e3d6000fd5b50505050505080806114b290611eea565b915050611265565b50604051639e7212ad60e01b81526001600160a01b037f00000000000000000000000000000000000000000000000000000000000000001690639e7212ad90611511908a908a908a908a908a908a9060040161209b565b600060405180830381600087803b15801561152b57600080fd5b505af115801561153f573d6000803e3d6000fd5b5050505050505050505050565b60405163095ea7b360e01b81526001600160a01b0387169063095ea7b39061159a907f0000000000000000000000000000000000000000000000000000000000000000908590600401611e99565b6020604051808303816000875af11580156115b9573d6000803e3d6000fd5b505050506040513d601f19601f820116820180604052508101906115dd9190611eb2565b506040516372ce427560e01b81526001600160a01b037f000000000000000000000000000000000000000000000000000000000000000016906372ce4275906116349089908990899089908990899060040161209b565b600060405180830381600087803b15801561164e57600080fd5b505af1158015611662573d6000803e3d6000fd5b5050505060005b828110156104ec57600061168b888888888887818110610e9b57610e9b611ed4565b90507f00000000000000000000000000000000000000000000000000000000000000006001600160a01b031663f242432a307f00000000000000000000000000000000000000000000000000000000000000006001600160a01b031663150c5b976040518163ffffffff1660e01b8152600401602060405180830381865afa15801561171b573d6000803e3d6000fd5b505050506040513d601f19601f8201168201806040525081019061173f9190611f27565b6040516303c2ea1160e61b815260048101869052859088906001600160a01b037f0000000000000000000000000000000000000000000000000000000000000000169063f0ba844090602401600060405180830381865afa1580156117a8573d6000803e3d6000fd5b505050506040513d6000823e601f3d908101601f191682016040526117d09190810190611f68565b6040518663ffffffff1660e01b81526004016117f09594939291906120dc565b600060405180830381600087803b15801561180a57600080fd5b505af115801561181e573d6000803e3d6000fd5b50506040516327b2595f60e11b815260048101849052600092507f00000000000000000000000000000000000000000000000000000000000000006001600160a01b03169150634f64b2be90602401602060405180830381865afa15801561188a573d6000803e3d6000fd5b505050506040513d601f19601f820116820180604052508101906118ae9190611f27565b60405163a9059cbb60e01b81529091506001600160a01b0382169063a9059cbb906118df9033908890600401611e99565b6020604051808303816000875af11580156118fe573d6000803e3d6000fd5b505050506040513d601f19601f820116820180604052508101906119229190611eb2565b505050808061193090611eea565b915050611669565b6001600160a01b038116811461194d57600080fd5b50565b60008083601f84011261196257600080fd5b5081356001600160401b0381111561197957600080fd5b6020830191508360208260051b850101111561199457600080fd5b9250929050565b6000806000806000608086880312156119b357600080fd5b85356119be81611938565b9450602086013593506040860135925060608601356001600160401b038111156119e757600080fd5b6119f388828901611950565b969995985093965092949392505050565b600060208284031215611a1657600080fd5b81356001600160e01b031981168114611a2e57600080fd5b9392505050565b600060208284031215611a4757600080fd5b5035919050565b6020808252825182820181905260009190848201906040850190845b81811015611a88578351151583529284019291840191600101611a6a565b50909695505050505050565b60008060008060808587031215611aaa57600080fd5b8435611ab581611938565b966020860135965060408601359560600135945092505050565b600080600080600060808688031215611ae757600080fd5b853594506020860135935060408601356001600160401b03811115611b0b57600080fd5b611b1788828901611950565b96999598509660600135949350505050565b6001600160a01b0391909116815260200190565b60008060008060008060a08789031215611b5657600080fd5b8635611b6181611938565b9550602087013594506040870135935060608701356001600160401b03811115611b8a57600080fd5b611b9689828a01611950565b979a9699509497949695608090950135949350505050565b60008060008060608587031215611bc457600080fd5b843593506020850135925060408501356001600160401b03811115611be857600080fd5b611bf487828801611950565b95989497509550505050565b634e487b7160e01b600052604160045260246000fd5b604051601f8201601f191681016001600160401b0381118282101715611c3e57611c3e611c00565b604052919050565b600082601f830112611c5757600080fd5b813560206001600160401b03821115611c7257611c72611c00565b8160051b611c81828201611c16565b9283528481018201928281019087851115611c9b57600080fd5b83870192505b84831015611cba57823582529183019190830190611ca1565b979650505050505050565b60006001600160401b03821115611cde57611cde611c00565b50601f01601f191660200190565b600082601f830112611cfd57600080fd5b8135611d10611d0b82611cc5565b611c16565b818152846020838601011115611d2557600080fd5b816020850160208301376000918101602001919091529392505050565b600080600080600060a08688031215611d5a57600080fd5b8535611d6581611938565b94506020860135611d7581611938565b935060408601356001600160401b0380821115611d9157600080fd5b611d9d89838a01611c46565b94506060880135915080821115611db357600080fd5b611dbf89838a01611c46565b93506080880135915080821115611dd557600080fd5b50611de288828901611cec565b9150509295509295909350565b600080600080600060a08688031215611e0757600080fd5b8535611e1281611938565b94506020860135611e2281611938565b9350604086013592506060860135915060808601356001600160401b03811115611e4b57600080fd5b611de288828901611cec565b600060208284031215611e6957600080fd5b5051919050565b634e487b7160e01b600052601160045260246000fd5b8181038181111561052657610526611e70565b6001600160a01b03929092168252602082015260400190565b600060208284031215611ec457600080fd5b81518015158114611a2e57600080fd5b634e487b7160e01b600052603260045260246000fd5b600060018201611efc57611efc611e70565b5060010190565b6001600160a01b039384168152919092166020820152604081019190915260600190565b600060208284031215611f3957600080fd5b8151611a2e81611938565b60005b83811015611f5f578181015183820152602001611f47565b50506000910152565b600060208284031215611f7a57600080fd5b81516001600160401b03811115611f9057600080fd5b8201601f81018413611fa157600080fd5b8051611faf611d0b82611cc5565b818152856020838501011115611fc457600080fd5b610d3d826020830160208601611f44565b60008151808452611fed816020860160208601611f44565b601f01601f19169290920160200192915050565b6001600160a01b03868116825260208201869052604082018590528316606082015260a060808201819052600090611cba90830184611fd5565b81835260006001600160fb1b0383111561205457600080fd5b8260051b80836020870137939093016020019392505050565b60018060a01b0386168152846020820152836040820152608060608201526000611cba60808301848661203b565b60018060a01b038716815285602082015284604082015260a0606082015260006120c960a08301858761203b565b9050826080830152979650505050505050565b6001600160a01b03868116825285166020820152604081018490526060810183905260a060808201819052600090611cba90830184611fd556fea26469706673582212207f4b23d5421859eebfe92efd0d5b37d33e30fcd60e58698dc2d435e2a8c8984464736f6c63430008140033",
  "devdoc": {
    "details": "Router implementation with functions to interact with xDAI on Gnosis Chain.",
    "kind": "dev",
    "methods": {
      "constructor": {
        "details": "Constructor",
        "params": {
          "_conditionalTokens": "Conditional Tokens contract",
          "_wrappedERC20Factory": "WrappedERC20Factory contract"
        }
      },
      "getTokenAddress(address,bytes32,bytes32,uint256)": {
        "params": {
          "collateralToken": "The address of the ERC20 used as collateral",
          "conditionId": "The id of the condition used to redeem",
          "indexSet": "Index set of the outcome collection to combine with the parent outcome collection",
          "parentCollectionId": "The Conditional Tokens parent collection id"
        }
      },
      "getTokenId(address,bytes32,bytes32,uint256)": {
        "params": {
          "collateralToken": "The address of the ERC20 used as collateral",
          "conditionId": "The id of the condition used to redeem",
          "indexSet": "Index set of the outcome collection to combine with the parent outcome collection",
          "parentCollectionId": "The Conditional Tokens parent collection id"
        }
      },
      "getWinningOutcomes(bytes32)": {
        "params": {
          "conditionId": "The id of the condition"
        },
        "returns": {
          "_0": "An array of outcomes where a true value indicates that the outcome is redeemable"
        }
      },
      "mergePositions(address,bytes32,bytes32,uint256[],uint256)": {
        "details": "The ERC20 associated to each outcome must be previously created on the wrappedERC20Factory",
        "params": {
          "amount": "The amount of outcome tokens to merge",
          "collateralToken": "The address of the ERC20 used as collateral",
          "conditionId": "The id of the condition to merge",
          "parentCollectionId": "The Conditional Tokens parent collection id",
          "partition": "An array of disjoint index sets used to merge the positions"
        }
      },
      "mergeToBase(bytes32,bytes32,uint256[],uint256)": {
        "details": "The ERC20 associated to each outcome must be previously created on the wrappedERC20Factory",
        "params": {
          "amount": "The amount of outcome tokens to merge",
          "conditionId": "The id of the condition to merge",
          "parentCollectionId": "The Conditional Tokens parent collection id",
          "partition": "An array of disjoint index sets used to merge the positions"
        }
      },
      "redeemPositions(address,bytes32,bytes32,uint256[])": {
        "details": "The ERC20 associated to each outcome must be previously created on the wrappedERC20Factory.",
        "params": {
          "collateralToken": "The address of the ERC20 used as collateral",
          "conditionId": "The id of the condition used to redeem",
          "indexSets": "The index sets of the outcomes to redeem",
          "parentCollectionId": "The Conditional Tokens parent collection id"
        }
      },
      "redeemToBase(bytes32,bytes32,uint256[])": {
        "details": "The ERC20 associated to each outcome must be previously created on the wrappedERC20Factory.",
        "params": {
          "conditionId": "The id of the condition used to redeem",
          "indexSets": "The index sets of the outcomes to redeem",
          "parentCollectionId": "The Conditional Tokens parent collection id"
        }
      },
      "splitFromBase(bytes32,bytes32,uint256[])": {
        "details": "The ERC20 associated to each outcome must be previously created on the wrappedERC20Factory",
        "params": {
          "conditionId": "The id of the condition to split",
          "parentCollectionId": "The Conditional Tokens parent collection id",
          "partition": "An array of disjoint index sets used to split the position"
        }
      },
      "splitPosition(address,bytes32,bytes32,uint256[],uint256)": {
        "details": "The ERC20 associated to each outcome must be previously created on the wrappedERC20Factory",
        "params": {
          "amount": "The amount of collateral to split.",
          "collateralToken": "The address of the ERC20 used as collateral",
          "conditionId": "The id of the condition to split",
          "parentCollectionId": "The Conditional Tokens parent collection id",
          "partition": "An array of disjoint index sets used to split the position"
        }
      },
      "supportsInterface(bytes4)": {
        "details": "See {IERC165-supportsInterface}."
      }
    },
    "version": 1
  },
  "userdoc": {
    "kind": "user",
    "methods": {
      "getTokenAddress(address,bytes32,bytes32,uint256)": {
        "notice": "Returns the address of the ERC-20 associated to the ERC-1155 outcome token."
      },
      "getTokenId(address,bytes32,bytes32,uint256)": {
        "notice": "Constructs a tokenId from a collateral token and an outcome collection."
      },
      "getWinningOutcomes(bytes32)": {
        "notice": "Helper function used to know the redeemable outcomes associated to a conditionId."
      },
      "mergePositions(address,bytes32,bytes32,uint256[],uint256)": {
        "notice": "Merges positions and sends the collateral tokens to the user"
      },
      "mergeToBase(bytes32,bytes32,uint256[],uint256)": {
        "notice": "Merges positions and sends xDAI to the user."
      },
      "redeemPositions(address,bytes32,bytes32,uint256[])": {
        "notice": "Redeems positions and sends the collateral tokens to the user."
      },
      "redeemToBase(bytes32,bytes32,uint256[])": {
        "notice": "Redeems positions and sends xDAI to the user."
      },
      "splitFromBase(bytes32,bytes32,uint256[])": {
        "notice": "Splits a position using xDAI and sends the ERC20 outcome tokens back to the user"
      },
      "splitPosition(address,bytes32,bytes32,uint256[],uint256)": {
        "notice": "Transfers the collateral to the Router, splits the position and sends the ERC20 outcome tokens back to the user"
      }
    },
    "version": 1
  },
  "storageLayout": {
    "storage": [],
    "types": null
  }
}