{
  "address": "0x031778c7A1c08787aba7a2e0B5149fEb5DECabD7",
  "abi": [
    {
      "inputs": [
        {
          "internalType": "contract IERC20",
          "name": "_sDAI",
          "type": "address"
        },
        {
          "internalType": "contract IConditionalTokens",
          "name": "_conditionalTokens",
          "type": "address"
        },
        {
          "internalType": "address",
          "name": "_routerAddress",
          "type": "address"
        },
        {
          "internalType": "address",
          "name": "_uniswapRouterAddress",
          "type": "address"
        }
      ],
      "stateMutability": "nonpayable",
      "type": "constructor"
    },
    {
      "inputs": [
        {
          "internalType": "contract IMarket",
          "name": "market",
          "type": "address"
        },
        {
          "internalType": "uint256",
          "name": "liquidityAmount",
          "type": "uint256"
        }
      ],
      "name": "addIndexLiquidityToMarket",
      "outputs": [],
      "stateMutability": "nonpayable",
      "type": "function"
    },
    {
      "inputs": [],
      "name": "conditionalTokens",
      "outputs": [
        {
          "internalType": "contract IConditionalTokens",
          "name": "",
          "type": "address"
        }
      ],
      "stateMutability": "view",
      "type": "function"
    },
    {
      "inputs": [],
      "name": "routerAddress",
      "outputs": [
        {
          "internalType": "address",
          "name": "",
          "type": "address"
        }
      ],
      "stateMutability": "view",
      "type": "function"
    },
    {
      "inputs": [],
      "name": "sDAI",
      "outputs": [
        {
          "internalType": "contract IERC20",
          "name": "",
          "type": "address"
        }
      ],
      "stateMutability": "view",
      "type": "function"
    },
    {
      "inputs": [],
      "name": "uniswapRouterAddress",
      "outputs": [
        {
          "internalType": "address",
          "name": "",
          "type": "address"
        }
      ],
      "stateMutability": "view",
      "type": "function"
    }
  ],
  "transactionHash": "0xa130d025c94660e6d347cf0092c2891b700acc2c78a8c26043a66b56931f21e9",
  "args": [
    "0xaf204776c7245bF4147c2612BF6e5972Ee483701",
    "0xCeAfDD6bc0bEF976fdCd1112955828E00543c0Ce",
    "0xeC9048b59b3467415b1a38F63416407eA0c70fB8",
    "0x1b02dA8Cb0d097eB8D57A175b88c7D8b47997506"
  ],
  "numDeployments": 1,
  "solcInputHash": "2ad71b607649c0d194416c04c628c823",
  "bytecode": "0x61010060405234801561001157600080fd5b50604051610d44380380610d448339810160408190526100309161006a565b6001600160a01b0393841660805291831660a052821660c0521660e0526100c9565b6001600160a01b038116811461006757600080fd5b50565b6000806000806080858703121561008057600080fd5b845161008b81610052565b602086015190945061009c81610052565b60408601519093506100ad81610052565b60608601519092506100be81610052565b939692955090935050565b60805160a05160c05160e051610bea61015a6000396000818160610152818161073c015281816107ce015261084601526000818160a4015281816104ac0152818161054101528181610608015261068d01526000818160cb01526102cd0152600081816101070152818161021d01528181610344015281816104850152818161056801526106ba0152610bea6000f3fe608060405234801561001057600080fd5b50600436106100575760003560e01c806320ca3c7f1461005c5780633268cc561461009f5780635bd9e299146100c6578063b98576ca146100ed578063de8b614914610102575b600080fd5b6100837f000000000000000000000000000000000000000000000000000000000000000081565b6040516001600160a01b03909116815260200160405180910390f35b6100837f000000000000000000000000000000000000000000000000000000000000000081565b6100837f000000000000000000000000000000000000000000000000000000000000000081565b6101006100fb366004610958565b610129565b005b6100837f000000000000000000000000000000000000000000000000000000000000000081565b6000826001600160a01b031663d03ecc646040518163ffffffff1660e01b8152600401602060405180830381865afa158015610169573d6000803e3d6000fd5b505050506040513d601f19601f8201168201806040525081019061018d9190610984565b90506000806001600160a01b0316826001600160a01b0316141590506000846001600160a01b0316636fc4eddd6040518163ffffffff1660e01b8152600401600060405180830381865afa1580156101e9573d6000803e3d6000fd5b505050506040513d6000823e601f3d908101601f1916820160405261021191908101906109be565b509050600082610241577f0000000000000000000000000000000000000000000000000000000000000000610243565b815b90506000866001600160a01b0316632ddc7de76040518163ffffffff1660e01b8152600401602060405180830381865afa158015610285573d6000803e3d6000fd5b505050506040513d601f19601f820116820180604052508101906102a99190610a9c565b604051636a16e06160e11b8152600481018290529091506000906001600160a01b037f0000000000000000000000000000000000000000000000000000000000000000169063d42dc0c290602401602060405180830381865afa158015610314573d6000803e3d6000fd5b505050506040513d601f19601f820116820180604052508101906103389190610a9c565b90506001600160a01b037f0000000000000000000000000000000000000000000000000000000000000000166323b872dd3330610376600186610acb565b6103818c6002610ae4565b61038b9190610ae4565b6040518463ffffffff1660e01b81526004016103a993929190610afb565b6020604051808303816000875af11580156103c8573d6000803e3d6000fd5b505050506040513d601f19601f820116820180604052508101906103ec9190610b1f565b5060005b6103fb600183610acb565b81101561093557604051630315311560e31b8152600481018290526000906001600160a01b038b16906318a988a890602401600060405180830381865afa15801561044a573d6000803e3d6000fd5b505050506040513d6000823e601f3d908101601f1916820160405261047291908101906109be565b50905086156105e4576001600160a01b037f00000000000000000000000000000000000000000000000000000000000000001663095ea7b37f00000000000000000000000000000000000000000000000000000000000000006104d68c6002610ae4565b6040518363ffffffff1660e01b81526004016104f3929190610b41565b6020604051808303816000875af1158015610512573d6000803e3d6000fd5b505050506040513d601f19601f820116820180604052508101906105369190610b1f565b506001600160a01b037f00000000000000000000000000000000000000000000000000000000000000001663d5f822807f00000000000000000000000000000000000000000000000000000000000000008a6105938d6002610ae4565b6040518463ffffffff1660e01b81526004016105b193929190610afb565b600060405180830381600087803b1580156105cb57600080fd5b505af11580156105df573d6000803e3d6000fd5b505050505b60405163095ea7b360e01b81526001600160a01b0386169063095ea7b390610632907f0000000000000000000000000000000000000000000000000000000000000000908d90600401610b41565b6020604051808303816000875af1158015610651573d6000803e3d6000fd5b505050506040513d601f19601f820116820180604052508101906106759190610b1f565b506040516301abf04560e71b81526001600160a01b037f0000000000000000000000000000000000000000000000000000000000000000169063d5f82280906106e6907f0000000000000000000000000000000000000000000000000000000000000000908e908e90600401610afb565b600060405180830381600087803b15801561070057600080fd5b505af1158015610714573d6000803e3d6000fd5b505060405163095ea7b360e01b81526001600160a01b038416925063095ea7b39150610766907f0000000000000000000000000000000000000000000000000000000000000000908d90600401610b41565b6020604051808303816000875af1158015610785573d6000803e3d6000fd5b505050506040513d601f19601f820116820180604052508101906107a99190610b1f565b5060405163095ea7b360e01b81526001600160a01b0386169063095ea7b3906107f8907f0000000000000000000000000000000000000000000000000000000000000000908d90600401610b41565b6020604051808303816000875af1158015610817573d6000803e3d6000fd5b505050506040513d601f19601f8201168201806040525081019061083b9190610b1f565b506001600160a01b037f00000000000000000000000000000000000000000000000000000000000000001663e8e3370082878c8080803361087e42610e10610b5a565b60405160e08a901b6001600160e01b03191681526001600160a01b039889166004820152968816602488015260448701959095526064860193909352608485019190915260a484015290921660c482015260e4810191909152610104016060604051808303816000875af11580156108fa573d6000803e3d6000fd5b505050506040513d601f19601f8201168201806040525081019061091e9190610b6d565b50505050808061092d90610b9b565b9150506103f0565b505050505050505050565b6001600160a01b038116811461095557600080fd5b50565b6000806040838503121561096b57600080fd5b823561097681610940565b946020939093013593505050565b60006020828403121561099657600080fd5b81516109a181610940565b9392505050565b634e487b7160e01b600052604160045260246000fd5b600080604083850312156109d157600080fd5b82516109dc81610940565b8092505060208084015167ffffffffffffffff808211156109fc57600080fd5b818601915086601f830112610a1057600080fd5b815181811115610a2257610a226109a8565b604051601f8201601f19908116603f01168101908382118183101715610a4a57610a4a6109a8565b816040528281528986848701011115610a6257600080fd5b600093505b82841015610a845784840186015181850187015292850192610a67565b60008684830101528096505050505050509250929050565b600060208284031215610aae57600080fd5b5051919050565b634e487b7160e01b600052601160045260246000fd5b81810381811115610ade57610ade610ab5565b92915050565b8082028115828204841417610ade57610ade610ab5565b6001600160a01b039384168152919092166020820152604081019190915260600190565b600060208284031215610b3157600080fd5b815180151581146109a157600080fd5b6001600160a01b03929092168252602082015260400190565b80820180821115610ade57610ade610ab5565b600080600060608486031215610b8257600080fd5b8351925060208401519150604084015190509250925092565b600060018201610bad57610bad610ab5565b506001019056fea26469706673582212201caa4a50432952c69cfae7f1480a317d42cd89bc7518c746b4e7674237eabefa64736f6c63430008140033",
  "devdoc": {
    "kind": "dev",
    "methods": {},
    "version": 1
  },
  "userdoc": {
    "kind": "user",
    "methods": {},
    "version": 1
  },
  "storageLayout": {
    "storage": [],
    "types": null
  }
}