{
  "address": "0xc73323208740452D3856c7Ff65Fa527aF2b1131c",
  "abi": [
    {
      "inputs": [
        {
          "internalType": "address",
          "name": "_market",
          "type": "address"
        },
        {
          "internalType": "address",
          "name": "_arbitrator",
          "type": "address"
        },
        {
          "internalType": "contract IRealityETH_v3_0",
          "name": "_realitio",
          "type": "address"
        },
        {
          "internalType": "contract WrappedERC20Factory",
          "name": "_wrappedERC20Factory",
          "type": "address"
        },
        {
          "internalType": "contract IConditionalTokens",
          "name": "_conditionalTokens",
          "type": "address"
        },
        {
          "internalType": "address",
          "name": "_collateralToken",
          "type": "address"
        },
        {
          "internalType": "contract RealityProxy",
          "name": "_realityProxy",
          "type": "address"
        },
        {
          "internalType": "address",
          "name": "_governor",
          "type": "address"
        }
      ],
      "stateMutability": "nonpayable",
      "type": "constructor"
    },
    {
      "inputs": [],
      "name": "ERC1167FailedCreateClone",
      "type": "error"
    },
    {
      "anonymous": false,
      "inputs": [
        {
          "indexed": true,
          "internalType": "address",
          "name": "market",
          "type": "address"
        },
        {
          "indexed": false,
          "internalType": "string",
          "name": "marketName",
          "type": "string"
        },
        {
          "indexed": false,
          "internalType": "string[]",
          "name": "outcomes",
          "type": "string[]"
        },
        {
          "indexed": false,
          "internalType": "uint256",
          "name": "lowerBound",
          "type": "uint256"
        },
        {
          "indexed": false,
          "internalType": "uint256",
          "name": "upperBound",
          "type": "uint256"
        },
        {
          "indexed": false,
          "internalType": "bytes32",
          "name": "conditionId",
          "type": "bytes32"
        },
        {
          "indexed": false,
          "internalType": "bytes32",
          "name": "questionId",
          "type": "bytes32"
        },
        {
          "indexed": false,
          "internalType": "bytes32[]",
          "name": "questionsIds",
          "type": "bytes32[]"
        },
        {
          "indexed": false,
          "internalType": "uint256",
          "name": "templateId",
          "type": "uint256"
        },
        {
          "indexed": false,
          "internalType": "string[]",
          "name": "encodedQuestions",
          "type": "string[]"
        }
      ],
      "name": "NewMarket",
      "type": "event"
    },
    {
      "inputs": [],
      "name": "QUESTION_TIMEOUT",
      "outputs": [
        {
          "internalType": "uint32",
          "name": "",
          "type": "uint32"
        }
      ],
      "stateMutability": "view",
      "type": "function"
    },
    {
      "inputs": [],
      "name": "allMarkets",
      "outputs": [
        {
          "internalType": "address[]",
          "name": "",
          "type": "address[]"
        }
      ],
      "stateMutability": "view",
      "type": "function"
    },
    {
      "inputs": [],
      "name": "arbitrator",
      "outputs": [
        {
          "internalType": "address",
          "name": "",
          "type": "address"
        }
      ],
      "stateMutability": "view",
      "type": "function"
    },
    {
      "inputs": [
        {
          "internalType": "address",
          "name": "_governor",
          "type": "address"
        }
      ],
      "name": "changeGovernor",
      "outputs": [],
      "stateMutability": "nonpayable",
      "type": "function"
    },
    {
      "inputs": [
        {
          "internalType": "address",
          "name": "_market",
          "type": "address"
        }
      ],
      "name": "changeMarket",
      "outputs": [],
      "stateMutability": "nonpayable",
      "type": "function"
    },
    {
      "inputs": [],
      "name": "collateralToken",
      "outputs": [
        {
          "internalType": "address",
          "name": "",
          "type": "address"
        }
      ],
      "stateMutability": "view",
      "type": "function"
    },
    {
      "inputs": [],
      "name": "conditionalTokens",
      "outputs": [
        {
          "internalType": "contract IConditionalTokens",
          "name": "",
          "type": "address"
        }
      ],
      "stateMutability": "view",
      "type": "function"
    },
    {
      "inputs": [
        {
          "components": [
            {
              "internalType": "string",
              "name": "marketName",
              "type": "string"
            },
            {
              "internalType": "string[]",
              "name": "encodedQuestions",
              "type": "string[]"
            },
            {
              "internalType": "string[]",
              "name": "outcomes",
              "type": "string[]"
            },
            {
              "internalType": "uint256",
              "name": "lowerBound",
              "type": "uint256"
            },
            {
              "internalType": "uint256",
              "name": "upperBound",
              "type": "uint256"
            },
            {
              "internalType": "uint256",
              "name": "minBond",
              "type": "uint256"
            },
            {
              "internalType": "uint32",
              "name": "openingTime",
              "type": "uint32"
            },
            {
              "internalType": "string[]",
              "name": "tokenNames",
              "type": "string[]"
            }
          ],
          "internalType": "struct MarketFactory.CreateMarketParams",
          "name": "params",
          "type": "tuple"
        }
      ],
      "name": "createCategoricalMarket",
      "outputs": [
        {
          "internalType": "address",
          "name": "",
          "type": "address"
        }
      ],
      "stateMutability": "nonpayable",
      "type": "function"
    },
    {
      "inputs": [
        {
          "components": [
            {
              "internalType": "string",
              "name": "marketName",
              "type": "string"
            },
            {
              "internalType": "string[]",
              "name": "encodedQuestions",
              "type": "string[]"
            },
            {
              "internalType": "string[]",
              "name": "outcomes",
              "type": "string[]"
            },
            {
              "internalType": "uint256",
              "name": "lowerBound",
              "type": "uint256"
            },
            {
              "internalType": "uint256",
              "name": "upperBound",
              "type": "uint256"
            },
            {
              "internalType": "uint256",
              "name": "minBond",
              "type": "uint256"
            },
            {
              "internalType": "uint32",
              "name": "openingTime",
              "type": "uint32"
            },
            {
              "internalType": "string[]",
              "name": "tokenNames",
              "type": "string[]"
            }
          ],
          "internalType": "struct MarketFactory.CreateMarketParams",
          "name": "params",
          "type": "tuple"
        }
      ],
      "name": "createMultiCategoricalMarket",
      "outputs": [
        {
          "internalType": "address",
          "name": "",
          "type": "address"
        }
      ],
      "stateMutability": "nonpayable",
      "type": "function"
    },
    {
      "inputs": [
        {
          "components": [
            {
              "internalType": "string",
              "name": "marketName",
              "type": "string"
            },
            {
              "internalType": "string[]",
              "name": "encodedQuestions",
              "type": "string[]"
            },
            {
              "internalType": "string[]",
              "name": "outcomes",
              "type": "string[]"
            },
            {
              "internalType": "uint256",
              "name": "lowerBound",
              "type": "uint256"
            },
            {
              "internalType": "uint256",
              "name": "upperBound",
              "type": "uint256"
            },
            {
              "internalType": "uint256",
              "name": "minBond",
              "type": "uint256"
            },
            {
              "internalType": "uint32",
              "name": "openingTime",
              "type": "uint32"
            },
            {
              "internalType": "string[]",
              "name": "tokenNames",
              "type": "string[]"
            }
          ],
          "internalType": "struct MarketFactory.CreateMarketParams",
          "name": "params",
          "type": "tuple"
        }
      ],
      "name": "createMultiScalarMarket",
      "outputs": [
        {
          "internalType": "address",
          "name": "",
          "type": "address"
        }
      ],
      "stateMutability": "nonpayable",
      "type": "function"
    },
    {
      "inputs": [
        {
          "components": [
            {
              "internalType": "string",
              "name": "marketName",
              "type": "string"
            },
            {
              "internalType": "string[]",
              "name": "encodedQuestions",
              "type": "string[]"
            },
            {
              "internalType": "string[]",
              "name": "outcomes",
              "type": "string[]"
            },
            {
              "internalType": "uint256",
              "name": "lowerBound",
              "type": "uint256"
            },
            {
              "internalType": "uint256",
              "name": "upperBound",
              "type": "uint256"
            },
            {
              "internalType": "uint256",
              "name": "minBond",
              "type": "uint256"
            },
            {
              "internalType": "uint32",
              "name": "openingTime",
              "type": "uint32"
            },
            {
              "internalType": "string[]",
              "name": "tokenNames",
              "type": "string[]"
            }
          ],
          "internalType": "struct MarketFactory.CreateMarketParams",
          "name": "params",
          "type": "tuple"
        }
      ],
      "name": "createScalarMarket",
      "outputs": [
        {
          "internalType": "address",
          "name": "",
          "type": "address"
        }
      ],
      "stateMutability": "nonpayable",
      "type": "function"
    },
    {
      "inputs": [],
      "name": "governor",
      "outputs": [
        {
          "internalType": "address",
          "name": "",
          "type": "address"
        }
      ],
      "stateMutability": "view",
      "type": "function"
    },
    {
      "inputs": [],
      "name": "market",
      "outputs": [
        {
          "internalType": "address",
          "name": "",
          "type": "address"
        }
      ],
      "stateMutability": "view",
      "type": "function"
    },
    {
      "inputs": [],
      "name": "marketCount",
      "outputs": [
        {
          "internalType": "uint256",
          "name": "",
          "type": "uint256"
        }
      ],
      "stateMutability": "view",
      "type": "function"
    },
    {
      "inputs": [
        {
          "internalType": "uint256",
          "name": "",
          "type": "uint256"
        }
      ],
      "name": "markets",
      "outputs": [
        {
          "internalType": "address",
          "name": "",
          "type": "address"
        }
      ],
      "stateMutability": "view",
      "type": "function"
    },
    {
      "inputs": [],
      "name": "realitio",
      "outputs": [
        {
          "internalType": "contract IRealityETH_v3_0",
          "name": "",
          "type": "address"
        }
      ],
      "stateMutability": "view",
      "type": "function"
    },
    {
      "inputs": [],
      "name": "realityProxy",
      "outputs": [
        {
          "internalType": "contract RealityProxy",
          "name": "",
          "type": "address"
        }
      ],
      "stateMutability": "view",
      "type": "function"
    },
    {
      "inputs": [],
      "name": "wrappedERC20Factory",
      "outputs": [
        {
          "internalType": "contract WrappedERC20Factory",
          "name": "",
          "type": "address"
        }
      ],
      "stateMutability": "view",
      "type": "function"
    }
  ],
  "transactionHash": "0xbbb654e8d376295695dbfa88aaedbed0df25a121d7802a9e9744cc370c3ef5ca",
  "args": [
    "0x87cf5C07A29A03F0735736C58f84126E21D0173c",
    "0xe40DD83a262da3f56976038F1554Fe541Fa75ecd",
    "0xE78996A233895bE74a66F451f1019cA9734205cc",
    "0x383753Af6cA47e1b46b000E07Ab210fd04F2887a",
    "0xCeAfDD6bc0bEF976fdCd1112955828E00543c0Ce",
    "0xaf204776c7245bf4147c2612bf6e5972ee483701",
    "0x132BcFB0003234a791dEB118F8271BCFDa4037dd",
    "0x4edca105188a0783ab3a6f09c50567d1e3f8591d"
  ],
  "numDeployments": 6,
  "solcInputHash": "9f269a95e3f87f7d8b1b9c294afb862c",
  "bytecode": "0x6101406040523480156200001257600080fd5b5060405162001cea38038062001cea8339810160408190526200003591620000a4565b600280546001600160a01b03998a166001600160a01b03199182161790915596881660805294871660a05292861660c05290851660e0528416610100528316610120526000805491909316911617905562000165565b6001600160a01b0381168114620000a157600080fd5b50565b600080600080600080600080610100898b031215620000c257600080fd5b8851620000cf816200008b565b60208a0151909850620000e2816200008b565b60408a0151909750620000f5816200008b565b60608a015190965062000108816200008b565b60808a01519095506200011b816200008b565b60a08a01519094506200012e816200008b565b60c08a015190935062000141816200008b565b60e08a015190925062000154816200008b565b809150509295985092959890939650565b60805160a05160c05160e0516101005161012051611abe6200022c600039600081816101430152818161041901528181610598015281816106f60152818161090f0152610a8f01526000818161028701526110870152600081816101b101528181610e1701528181610e9701528181610fb4015281816110bc015261118c0152600081816101ed015261115d0152600081816102ae01528181610c3801528181610caa0152610d4801526000818161022701528181610bf70152610d790152611abe6000f3fe608060405234801561001057600080fd5b50600436106100f65760003560e01c806362322c5d1161009257806362322c5d1461020f5780636cc6cde114610222578063807bb32d1461024957806380f556051461025c578063b1283e771461026f578063b2016bd414610282578063bc8802a2146102a9578063e4c0aaf4146102d0578063ec979082146102e357600080fd5b80630c340a24146100fb5780632b6ada671461012b5780632ff8d5041461013e578063375a7cba146101655780634a3382e51461017a5780635724d8fc146101995780635bd9e299146101ac5780635c3ef427146101d357806361371325146101e8575b600080fd5b60005461010e906001600160a01b031681565b6040516001600160a01b0390911681526020015b60405180910390f35b61010e6101393660046114f9565b6102f4565b61010e7f000000000000000000000000000000000000000000000000000000000000000081565b61016d6104c4565b6040516101229190611601565b6101846201fa4081565b60405163ffffffff9091168152602001610122565b61010e6101a73660046114f9565b610526565b61010e7f000000000000000000000000000000000000000000000000000000000000000081565b6101e66101e1366004611663565b610638565b005b61010e7f000000000000000000000000000000000000000000000000000000000000000081565b61010e61021d3660046114f9565b610684565b61010e7f000000000000000000000000000000000000000000000000000000000000000081565b61010e6102573660046114f9565b610796565b60025461010e906001600160a01b031681565b61010e61027d366004611687565b610968565b61010e7f000000000000000000000000000000000000000000000000000000000000000081565b61010e7f000000000000000000000000000000000000000000000000000000000000000081565b6101e66102de366004611663565b610992565b600154604051908152602001610122565b600081606001518260800151116103435760405162461bcd60e51b815260206004820152600e60248201526d496e76616c696420626f756e647360901b60448201526064015b60405180910390fd5b61035060026000196116b6565b8260800151106103975760405162461bcd60e51b8152602060048201526012602482015271125b9d985b1a59081a1a59da081c1bda5b9d60721b604482015260640161033a565b8160400151516002146103df5760405162461bcd60e51b815260206004820152601060248201526f496e76616c6964206f7574636f6d657360801b604482015260640161033a565b60006003905060008061043d8560200151600081518110610402576104026116c9565b602002602001015160018760c001518860a00151877f00000000000000000000000000000000000000000000000000000000000000006109de565b6040805160018082528183019092529294509092506000919060208083019080368337019050509050828160008151811061047a5761047a6116c9565b60200260200101818152505060006104b9876040518060a001604052808781526020018581526020018681526020018881526020016001815250610a07565b979650505050505050565b6060600180548060200260200160405190810160405280929190818152602001828054801561051c57602002820191906000526020600020905b81546001600160a01b031681526001909101906020018083116104fe575b5050505050905090565b60006002826040015151101561054e5760405162461bcd60e51b815260040161033a906116df565b60008260400151516001610562919061170f565b90506000806105bc8560200151600081518110610581576105816116c9565b602002602001015160038760c001518860a00151877f00000000000000000000000000000000000000000000000000000000000000006109de565b604080516001808252818301909252929450909250600091906020808301908036833701905050905082816000815181106105f9576105f96116c9565b60200260200101818152505060006104b9876040518060a001604052808781526020018581526020018681526020018881526020016003815250610a07565b6000546001600160a01b031633146106625760405162461bcd60e51b815260040161033a90611722565b600280546001600160a01b0319166001600160a01b0392909216919091179055565b6000600282604001515110156106ac5760405162461bcd60e51b815260040161033a906116df565b600082604001515160016106c0919061170f565b905060008061071a85602001516000815181106106df576106df6116c9565b602002602001015160028760c001518860a00151877f00000000000000000000000000000000000000000000000000000000000000006109de565b60408051600180825281830190925292945090925060009190602080830190803683370190505090508281600081518110610757576107576116c9565b60200260200101818152505060006104b9876040518060a001604052808781526020018581526020018681526020018881526020016002815250610a07565b6000816020015151826040015151146107e35760405162461bcd60e51b815260206004820152600f60248201526e098cadcced0e840dad2e6dac2e8c6d608b1b604482015260640161033a565b600082604001515160016107f7919061170f565b905060008360400151516001600160401b038111156108185761081861135d565b604051908082528060200260200182016040528015610841578160200160208202803683370190505b5090506000805b856040015151811015610905576108878660200151828151811061086e5761086e6116c9565b602002602001015160018860c001518960a00151610bb1565b838281518110610899576108996116c9565b602002602001018181525050818382815181106108b8576108b86116c9565b60200260200101516040516020016108da929190918252602082015260400190565b60405160208183030381529060405280519060200120915080806108fd9061174a565b915050610848565b50600061093382857f0000000000000000000000000000000000000000000000000000000000000000610dfd565b905060006104b9876040518060a001604052808681526020018781526020018581526020018881526020016001815250610a07565b6001818154811061097857600080fd5b6000918252602090912001546001600160a01b0316905081565b6000546001600160a01b031633146109bc5760405162461bcd60e51b815260040161033a90611722565b600080546001600160a01b0319166001600160a01b0392909216919091179055565b6000806109ed88888888610bb1565b91506109fa828585610dfd565b9050965096945050505050565b6002546000908190610a21906001600160a01b0316610f13565b9050610a3a836040015184606001518660e00151610f85565b835160408086015160608701516080808901518885015189516020808c0151948c0151908d015197516304b892a960e21b81526001600160a01b038b16996312e24aa499610ab79991989197919695949391927f000000000000000000000000000000000000000000000000000000000000000090600401611843565b600060405180830381600087803b158015610ad157600080fd5b505af1158015610ae5573d6000803e3d6000fd5b50505050806001600160a01b03167faadcf1e7d57b927db65a77362bc2db82150d8fa843662b079edb722342b086928560000151866040015187606001518860800151886040015189600001518a602001518b608001518d60200151604051610b56999897969594939291906118d3565b60405180910390a26001805480820182556000919091527fb10e2d527612073b26eecdfd717e6a320cf44b4afac2b0732d9fcbe2b7fa0cf60180546001600160a01b0319166001600160a01b03831617905590505b92915050565b600080848487604051602001610bc993929190611952565b60408051601f1981840301815282825280516020918201209083018190526bffffffffffffffffffffffff197f0000000000000000000000000000000000000000000000000000000000000000606090811b8216938501939093526107e960e61b6054850152605884018790527f0000000000000000000000000000000000000000000000000000000000000000831b811660788501523090921b909116608c830152600060a083018190529092509060c00160408051808303601f19018152908290528051602090910120634f8812e360e11b82526004820181905291507f00000000000000000000000000000000000000000000000000000000000000006001600160a01b031690639f1025c690602401602060405180830381865afa158015610cf9573d6000803e3d6000fd5b505050506040513d601f19601f82011682018060405250810190610d1d919061198b565b63ffffffff1615610d31579150610df59050565b604051631212e4f160e21b81526001600160a01b037f0000000000000000000000000000000000000000000000000000000000000000169063484b93c490610dad9089908b907f0000000000000000000000000000000000000000000000000000000000000000906201fa40908c906000908d906004016119a8565b6020604051808303816000875af1158015610dcc573d6000803e3d6000fd5b505050506040513d601f19601f82011682018060405250810190610df091906119f8565b925050505b949350505050565b60405163365bb9d560e21b81526000906001600160a01b037f0000000000000000000000000000000000000000000000000000000000000000169063d96ee75490610e5090859088908890600401611a11565b600060405180830381600087803b158015610e6a57600080fd5b505af1158015610e7e573d6000803e3d6000fd5b5050604051634296357160e11b81526001600160a01b037f000000000000000000000000000000000000000000000000000000000000000016925063852c6ae29150610ed290859088908890600401611a11565b602060405180830381865afa158015610eef573d6000803e3d6000fd5b505050506040513d601f19601f82011682018060405250810190610df591906119f8565b6000763d602d80600a3d3981f3363d3d373d3d3d363d730000008260601b60e81c176000526e5af43d82803e903d91602b57fd5bf38260781b17602052603760096000f090506001600160a01b038116610f80576040516330be1a3d60e21b815260040160405180910390fd5b919050565b6000610f90836112d2565b9050600060018251610fa291906116b6565b905060005b82518110156112ca5760007f00000000000000000000000000000000000000000000000000000000000000006001600160a01b031663856296f76000801b89878681518110610ff857610ff86116c9565b60200260200101516040518463ffffffff1660e01b815260040161102f939291909283526020830191909152604082015260600190565b602060405180830381865afa15801561104c573d6000803e3d6000fd5b505050506040513d601f19601f8201168201806040525081019061107091906119f8565b60405163039dd75360e41b81526001600160a01b037f000000000000000000000000000000000000000000000000000000000000000081166004830152602482018390529192506000917f000000000000000000000000000000000000000000000000000000000000000016906339dd753090604401602060405180830381865afa158015611103573d6000803e3d6000fd5b505050506040513d601f19601f8201168201806040525081019061112791906119f8565b9050838314806111525750858381518110611144576111446116c9565b602002602001015151600014155b61115b57600080fd5b7f00000000000000000000000000000000000000000000000000000000000000006001600160a01b031663bb13cd107f0000000000000000000000000000000000000000000000000000000000000000838787146111d2578987815181106111c5576111c56116c9565b60200260200101516111ff565b6040518060400160405280601381526020017214d1515497d253959053125117d49154d55315606a1b8152505b888814611225578a8881518110611218576112186116c9565b6020026020010151611252565b6040518060400160405280601381526020017214d1515497d253959053125117d49154d55315606a1b8152505b6040518563ffffffff1660e01b81526004016112719493929190611a32565b6020604051808303816000875af1158015611290573d6000803e3d6000fd5b505050506040513d601f19601f820116820180604052508101906112b49190611a6b565b50505080806112c29061174a565b915050610fa7565b505050505050565b6060816001600160401b038111156112ec576112ec61135d565b604051908082528060200260200182016040528015611315578160200160208202803683370190505b50905060005b8281101561135757806001901b82828151811061133a5761133a6116c9565b60209081029190910101528061134f8161174a565b91505061131b565b50919050565b634e487b7160e01b600052604160045260246000fd5b60405161010081016001600160401b03811182821017156113965761139661135d565b60405290565b604051601f8201601f191681016001600160401b03811182821017156113c4576113c461135d565b604052919050565b600082601f8301126113dd57600080fd5b81356001600160401b038111156113f6576113f661135d565b611409601f8201601f191660200161139c565b81815284602083860101111561141e57600080fd5b816020850160208301376000918101602001919091529392505050565b600082601f83011261144c57600080fd5b813560206001600160401b03808311156114685761146861135d565b8260051b61147783820161139c565b938452858101830193838101908886111561149157600080fd5b84880192505b858310156114cd578235848111156114af5760008081fd5b6114bd8a87838c01016113cc565b8352509184019190840190611497565b98975050505050505050565b63ffffffff811681146114eb57600080fd5b50565b8035610f80816114d9565b60006020828403121561150b57600080fd5b81356001600160401b038082111561152257600080fd5b90830190610100828603121561153757600080fd5b61153f611373565b82358281111561154e57600080fd5b61155a878286016113cc565b82525060208301358281111561156f57600080fd5b61157b8782860161143b565b60208301525060408301358281111561159357600080fd5b61159f8782860161143b565b604083015250606083013560608201526080830135608082015260a083013560a08201526115cf60c084016114ee565b60c082015260e0830135828111156115e657600080fd5b6115f28782860161143b565b60e08301525095945050505050565b6020808252825182820181905260009190848201906040850190845b818110156116425783516001600160a01b03168352928401929184019160010161161d565b50909695505050505050565b6001600160a01b03811681146114eb57600080fd5b60006020828403121561167557600080fd5b81356116808161164e565b9392505050565b60006020828403121561169957600080fd5b5035919050565b634e487b7160e01b600052601160045260246000fd5b81810381811115610bab57610bab6116a0565b634e487b7160e01b600052603260045260246000fd5b602080825260169082015275125b9d985b1a59081bdd5d18dbdb595cc818dbdd5b9d60521b604082015260600190565b80820180821115610bab57610bab6116a0565b6020808252600e908201526d139bdd08185d5d1a1bdc9a5e995960921b604082015260600190565b60006001820161175c5761175c6116a0565b5060010190565b60005b8381101561177e578181015183820152602001611766565b50506000910152565b6000815180845261179f816020860160208601611763565b601f01601f19169290920160200192915050565b600081518084526020808501808196508360051b8101915082860160005b858110156117fb5782840389526117e9848351611787565b988501989350908401906001016117d1565b5091979650505050505050565b600081518084526020808501945080840160005b838110156118385781518752958201959082019060010161181c565b509495945050505050565b60006101408083526118578184018e611787565b9050828103602084015261186b818d6117b3565b90508a60408401528960608401528860808401528760a084015282810360c08401526118978188611808565b90508560e08401528281036101008401526118b281866117b3565b91505060018060a01b0383166101208301529b9a5050505050505050505050565b60006101208083526118e78184018d611787565b905082810360208401526118fb818c6117b3565b90508960408401528860608401528760808401528660a084015282810360c08401526119278187611808565b90508460e084015282810361010084015261194281856117b3565b9c9b505050505050505050505050565b83815263ffffffff60e01b8360e01b1660208201526000825161197c816024850160208701611763565b91909101602401949350505050565b60006020828403121561199d57600080fd5b8151611680816114d9565b87815260e0602082015260006119c160e0830189611787565b6001600160a01b039790971660408301525063ffffffff948516606082015292909316608083015260a082015260c0015292915050565b600060208284031215611a0a57600080fd5b5051919050565b6001600160a01b039390931683526020830191909152604082015260600190565b60018060a01b0385168152836020820152608060408201526000611a596080830185611787565b82810360608401526104b98185611787565b600060208284031215611a7d57600080fd5b81516116808161164e56fea26469706673582212201b0f3a2dd48d2e736ff7991b91637d3b58ad45be51046f08d18e0083e0d2a28964736f6c63430008140033",
  "devdoc": {
    "errors": {
      "ERC1167FailedCreateClone()": [
        {
          "details": "A clone instance deployment failed."
        }
      ]
    },
    "kind": "dev",
    "methods": {
      "constructor": {
        "details": "Constructor.",
        "params": {
          "_arbitrator": "Address of the arbitrator that is going to resolve Realitio disputes.",
          "_collateralToken": "Address of the collateral token.",
          "_conditionalTokens": "Address of the ConditionalTokens implementation.",
          "_governor": "Address of the governor of this contract.",
          "_market": "Address of the market contract that is going to be used for each new deployment.",
          "_realitio": "Address of the Realitio implementation.",
          "_realityProxy": "Address of the RealityProxy implementation.",
          "_wrappedERC20Factory": "Address of the WrappedERC20Factory implementation."
        }
      }
    },
    "version": 1
  },
  "userdoc": {
    "kind": "user",
    "methods": {},
    "version": 1
  },
  "storageLayout": {
    "storage": [
      {
        "astId": 1949,
        "contract": "src/MarketFactory.sol:MarketFactory",
        "label": "governor",
        "offset": 0,
        "slot": "0",
        "type": "t_address"
      },
      {
        "astId": 1952,
        "contract": "src/MarketFactory.sol:MarketFactory",
        "label": "markets",
        "offset": 0,
        "slot": "1",
        "type": "t_array(t_address)dyn_storage"
      },
      {
        "astId": 1954,
        "contract": "src/MarketFactory.sol:MarketFactory",
        "label": "market",
        "offset": 0,
        "slot": "2",
        "type": "t_address"
      }
    ],
    "types": {
      "t_address": {
        "encoding": "inplace",
        "label": "address",
        "numberOfBytes": "20"
      },
      "t_array(t_address)dyn_storage": {
        "base": "t_address",
        "encoding": "dynamic_array",
        "label": "address[]",
        "numberOfBytes": "32"
      }
    }
  }
}