{
  "address": "0xA8457b25e99f44fa3Eb72Fe7B15C1C15FfF61E4b",
  "abi": [
    {
      "inputs": [
        {
          "internalType": "address",
          "name": "_market",
          "type": "address"
        },
        {
          "internalType": "address",
          "name": "_arbitrator",
          "type": "address"
        },
        {
          "internalType": "contract IRealityETH_v3_0",
          "name": "_realitio",
          "type": "address"
        },
        {
          "internalType": "contract WrappedERC20Factory",
          "name": "_wrappedERC20Factory",
          "type": "address"
        },
        {
          "internalType": "contract IConditionalTokens",
          "name": "_conditionalTokens",
          "type": "address"
        },
        {
          "internalType": "address",
          "name": "_collateralToken",
          "type": "address"
        },
        {
          "internalType": "contract RealityProxy",
          "name": "_realityProxy",
          "type": "address"
        },
        {
          "internalType": "address",
          "name": "_governor",
          "type": "address"
        },
        {
          "internalType": "uint32",
          "name": "_questionTimeout",
          "type": "uint32"
        }
      ],
      "stateMutability": "nonpayable",
      "type": "constructor"
    },
    {
      "inputs": [],
      "name": "ERC1167FailedCreateClone",
      "type": "error"
    },
    {
      "anonymous": false,
      "inputs": [
        {
          "indexed": true,
          "internalType": "address",
          "name": "market",
          "type": "address"
        },
        {
          "indexed": false,
          "internalType": "string",
          "name": "marketName",
          "type": "string"
        },
        {
          "indexed": false,
          "internalType": "string[]",
          "name": "outcomes",
          "type": "string[]"
        },
        {
          "indexed": false,
          "internalType": "uint256",
          "name": "lowerBound",
          "type": "uint256"
        },
        {
          "indexed": false,
          "internalType": "uint256",
          "name": "upperBound",
          "type": "uint256"
        },
        {
          "indexed": false,
          "internalType": "bytes32",
          "name": "conditionId",
          "type": "bytes32"
        },
        {
          "indexed": false,
          "internalType": "bytes32",
          "name": "questionId",
          "type": "bytes32"
        },
        {
          "indexed": false,
          "internalType": "bytes32[]",
          "name": "questionsIds",
          "type": "bytes32[]"
        },
        {
          "indexed": false,
          "internalType": "uint256",
          "name": "templateId",
          "type": "uint256"
        },
        {
          "indexed": false,
          "internalType": "string[]",
          "name": "encodedQuestions",
          "type": "string[]"
        }
      ],
      "name": "NewMarket",
      "type": "event"
    },
    {
      "inputs": [],
      "name": "allMarkets",
      "outputs": [
        {
          "internalType": "address[]",
          "name": "",
          "type": "address[]"
        }
      ],
      "stateMutability": "view",
      "type": "function"
    },
    {
      "inputs": [],
      "name": "arbitrator",
      "outputs": [
        {
          "internalType": "address",
          "name": "",
          "type": "address"
        }
      ],
      "stateMutability": "view",
      "type": "function"
    },
    {
      "inputs": [
        {
          "internalType": "address",
          "name": "_governor",
          "type": "address"
        }
      ],
      "name": "changeGovernor",
      "outputs": [],
      "stateMutability": "nonpayable",
      "type": "function"
    },
    {
      "inputs": [
        {
          "internalType": "address",
          "name": "_market",
          "type": "address"
        }
      ],
      "name": "changeMarket",
      "outputs": [],
      "stateMutability": "nonpayable",
      "type": "function"
    },
    {
      "inputs": [
        {
          "internalType": "uint32",
          "name": "_questionTimeout",
          "type": "uint32"
        }
      ],
      "name": "changeQuestionTimeout",
      "outputs": [],
      "stateMutability": "nonpayable",
      "type": "function"
    },
    {
      "inputs": [
        {
          "internalType": "contract RealityProxy",
          "name": "_realityProxy",
          "type": "address"
        }
      ],
      "name": "changeRealityProxy",
      "outputs": [],
      "stateMutability": "nonpayable",
      "type": "function"
    },
    {
      "inputs": [],
      "name": "collateralToken",
      "outputs": [
        {
          "internalType": "address",
          "name": "",
          "type": "address"
        }
      ],
      "stateMutability": "view",
      "type": "function"
    },
    {
      "inputs": [],
      "name": "conditionalTokens",
      "outputs": [
        {
          "internalType": "contract IConditionalTokens",
          "name": "",
          "type": "address"
        }
      ],
      "stateMutability": "view",
      "type": "function"
    },
    {
      "inputs": [
        {
          "components": [
            {
              "internalType": "string",
              "name": "marketName",
              "type": "string"
            },
            {
              "internalType": "string[]",
              "name": "encodedQuestions",
              "type": "string[]"
            },
            {
              "internalType": "string[]",
              "name": "outcomes",
              "type": "string[]"
            },
            {
              "internalType": "uint256",
              "name": "lowerBound",
              "type": "uint256"
            },
            {
              "internalType": "uint256",
              "name": "upperBound",
              "type": "uint256"
            },
            {
              "internalType": "uint256",
              "name": "minBond",
              "type": "uint256"
            },
            {
              "internalType": "uint32",
              "name": "openingTime",
              "type": "uint32"
            },
            {
              "internalType": "string[]",
              "name": "tokenNames",
              "type": "string[]"
            }
          ],
          "internalType": "struct MarketFactory.CreateMarketParams",
          "name": "params",
          "type": "tuple"
        }
      ],
      "name": "createCategoricalMarket",
      "outputs": [
        {
          "internalType": "address",
          "name": "",
          "type": "address"
        }
      ],
      "stateMutability": "nonpayable",
      "type": "function"
    },
    {
      "inputs": [
        {
          "components": [
            {
              "internalType": "string",
              "name": "marketName",
              "type": "string"
            },
            {
              "internalType": "string[]",
              "name": "encodedQuestions",
              "type": "string[]"
            },
            {
              "internalType": "string[]",
              "name": "outcomes",
              "type": "string[]"
            },
            {
              "internalType": "uint256",
              "name": "lowerBound",
              "type": "uint256"
            },
            {
              "internalType": "uint256",
              "name": "upperBound",
              "type": "uint256"
            },
            {
              "internalType": "uint256",
              "name": "minBond",
              "type": "uint256"
            },
            {
              "internalType": "uint32",
              "name": "openingTime",
              "type": "uint32"
            },
            {
              "internalType": "string[]",
              "name": "tokenNames",
              "type": "string[]"
            }
          ],
          "internalType": "struct MarketFactory.CreateMarketParams",
          "name": "params",
          "type": "tuple"
        }
      ],
      "name": "createMultiCategoricalMarket",
      "outputs": [
        {
          "internalType": "address",
          "name": "",
          "type": "address"
        }
      ],
      "stateMutability": "nonpayable",
      "type": "function"
    },
    {
      "inputs": [
        {
          "components": [
            {
              "internalType": "string",
              "name": "marketName",
              "type": "string"
            },
            {
              "internalType": "string[]",
              "name": "encodedQuestions",
              "type": "string[]"
            },
            {
              "internalType": "string[]",
              "name": "outcomes",
              "type": "string[]"
            },
            {
              "internalType": "uint256",
              "name": "lowerBound",
              "type": "uint256"
            },
            {
              "internalType": "uint256",
              "name": "upperBound",
              "type": "uint256"
            },
            {
              "internalType": "uint256",
              "name": "minBond",
              "type": "uint256"
            },
            {
              "internalType": "uint32",
              "name": "openingTime",
              "type": "uint32"
            },
            {
              "internalType": "string[]",
              "name": "tokenNames",
              "type": "string[]"
            }
          ],
          "internalType": "struct MarketFactory.CreateMarketParams",
          "name": "params",
          "type": "tuple"
        }
      ],
      "name": "createMultiScalarMarket",
      "outputs": [
        {
          "internalType": "address",
          "name": "",
          "type": "address"
        }
      ],
      "stateMutability": "nonpayable",
      "type": "function"
    },
    {
      "inputs": [
        {
          "components": [
            {
              "internalType": "string",
              "name": "marketName",
              "type": "string"
            },
            {
              "internalType": "string[]",
              "name": "encodedQuestions",
              "type": "string[]"
            },
            {
              "internalType": "string[]",
              "name": "outcomes",
              "type": "string[]"
            },
            {
              "internalType": "uint256",
              "name": "lowerBound",
              "type": "uint256"
            },
            {
              "internalType": "uint256",
              "name": "upperBound",
              "type": "uint256"
            },
            {
              "internalType": "uint256",
              "name": "minBond",
              "type": "uint256"
            },
            {
              "internalType": "uint32",
              "name": "openingTime",
              "type": "uint32"
            },
            {
              "internalType": "string[]",
              "name": "tokenNames",
              "type": "string[]"
            }
          ],
          "internalType": "struct MarketFactory.CreateMarketParams",
          "name": "params",
          "type": "tuple"
        }
      ],
      "name": "createScalarMarket",
      "outputs": [
        {
          "internalType": "address",
          "name": "",
          "type": "address"
        }
      ],
      "stateMutability": "nonpayable",
      "type": "function"
    },
    {
      "inputs": [],
      "name": "governor",
      "outputs": [
        {
          "internalType": "address",
          "name": "",
          "type": "address"
        }
      ],
      "stateMutability": "view",
      "type": "function"
    },
    {
      "inputs": [],
      "name": "market",
      "outputs": [
        {
          "internalType": "address",
          "name": "",
          "type": "address"
        }
      ],
      "stateMutability": "view",
      "type": "function"
    },
    {
      "inputs": [],
      "name": "marketCount",
      "outputs": [
        {
          "internalType": "uint256",
          "name": "",
          "type": "uint256"
        }
      ],
      "stateMutability": "view",
      "type": "function"
    },
    {
      "inputs": [
        {
          "internalType": "uint256",
          "name": "",
          "type": "uint256"
        }
      ],
      "name": "markets",
      "outputs": [
        {
          "internalType": "address",
          "name": "",
          "type": "address"
        }
      ],
      "stateMutability": "view",
      "type": "function"
    },
    {
      "inputs": [],
      "name": "questionTimeout",
      "outputs": [
        {
          "internalType": "uint32",
          "name": "",
          "type": "uint32"
        }
      ],
      "stateMutability": "view",
      "type": "function"
    },
    {
      "inputs": [],
      "name": "realitio",
      "outputs": [
        {
          "internalType": "contract IRealityETH_v3_0",
          "name": "",
          "type": "address"
        }
      ],
      "stateMutability": "view",
      "type": "function"
    },
    {
      "inputs": [],
      "name": "realityProxy",
      "outputs": [
        {
          "internalType": "contract RealityProxy",
          "name": "",
          "type": "address"
        }
      ],
      "stateMutability": "view",
      "type": "function"
    },
    {
      "inputs": [],
      "name": "wrappedERC20Factory",
      "outputs": [
        {
          "internalType": "contract WrappedERC20Factory",
          "name": "",
          "type": "address"
        }
      ],
      "stateMutability": "view",
      "type": "function"
    }
  ],
  "transactionHash": "0xb067a0c910b2d41a2860b8ade3becda27ab64ab90bce1300c1421b346d96ab78",
  "args": [
    "0x7EcE7743cc476b4343919B85B2C53AfF50ED3B15",
    "0xe40DD83a262da3f56976038F1554Fe541Fa75ecd",
    "0xE78996A233895bE74a66F451f1019cA9734205cc",
    "0x5bc8ddE5D07C6bf24911240AA6F9B0190ae3b557",
    "0xCeAfDD6bc0bEF976fdCd1112955828E00543c0Ce",
    "0xaf204776c7245bf4147c2612bf6e5972ee483701",
    "0x5BE39c00fB89688E8C38732Fb204B084ca5f8965",
    "0x4edca105188a0783ab3a6f09c50567d1e3f8591d",
    302400
  ],
  "numDeployments": 7,
  "solcInputHash": "1d757d6242c0f51c3de565267bd5983f",
  "bytecode": "0x6101206040523480156200001257600080fd5b5060405162001f7c38038062001f7c8339810160408190526200003591620000d6565b600380546001600160a01b03199081166001600160a01b039b8c161790915597891660805295881660a05293871660c05291861660e0528516610100526000805460018054909616938716939093179094556001600160c01b0319909116640100000000919094160263ffffffff19169290921763ffffffff909216919091179055620001b5565b6001600160a01b0381168114620000d357600080fd5b50565b60008060008060008060008060006101208a8c031215620000f657600080fd5b89516200010381620000bd565b60208b01519099506200011681620000bd565b60408b01519098506200012981620000bd565b60608b01519097506200013c81620000bd565b60808b01519096506200014f81620000bd565b60a08b01519095506200016281620000bd565b60c08b01519094506200017581620000bd565b60e08b01519093506200018881620000bd565b6101008b015190925063ffffffff81168114620001a457600080fd5b809150509295985092959850929598565b60805160a05160c05160e05161010051611d2e6200024e600039600081816102c901526112730152600081816101f50152818161101b015281816110a9015281816111e9015281816112a801526113b001526000818161022f01526113810152600081816102f001528181610e3801528181610ea80152610f4a01526000818161026901528181610dde0152610f7b0152611d2e6000f3fe608060405234801561001057600080fd5b506004361061012c5760003560e01c806362322c5d116100ad578063b2016bd411610071578063b2016bd4146102c4578063bc8802a2146102eb578063d216050614610312578063e4c0aaf414610325578063ec9790821461033857600080fd5b806362322c5d146102515780636cc6cde114610264578063807bb32d1461028b57806380f556051461029e578063b1283e77146102b157600080fd5b8063375a7cba116100f4578063375a7cba146101c85780635724d8fc146101dd5780635bd9e299146101f05780635c3ef42714610217578063613713251461022a57600080fd5b80630c340a241461013157806310af50ac146101615780631ba18b9b146101765780632b6ada671461019b5780632ff8d504146101ae575b600080fd5b600154610144906001600160a01b031681565b6040516001600160a01b0390911681526020015b60405180910390f35b61017461016f36600461150d565b610349565b005b6000546101869063ffffffff1681565b60405163ffffffff9091168152602001610158565b6101446101a936600461152a565b6103a9565b60005461014490600160201b90046001600160a01b031681565b6101d061058e565b6040516101589190611565565b6101446101eb36600461152a565b6105f0565b6101447f000000000000000000000000000000000000000000000000000000000000000081565b61017461022536600461150d565b61073f565b6101447f000000000000000000000000000000000000000000000000000000000000000081565b61014461025f36600461152a565b61078b565b6101447f000000000000000000000000000000000000000000000000000000000000000081565b61014461029936600461152a565b6108da565b600354610144906001600160a01b031681565b6101446102bf3660046115b2565b610b1a565b6101447f000000000000000000000000000000000000000000000000000000000000000081565b6101447f000000000000000000000000000000000000000000000000000000000000000081565b6101746103203660046115e8565b610b44565b61017461033336600461150d565b610b8a565b600254604051908152602001610158565b6001546001600160a01b0316331461037c5760405162461bcd60e51b815260040161037390611605565b60405180910390fd5b600080546001600160a01b03909216600160201b02640100000000600160c01b0319909216919091179055565b600081606001358260800135116103f35760405162461bcd60e51b815260206004820152600e60248201526d496e76616c696420626f756e647360901b6044820152606401610373565b6104006002600019611643565b8260800135106104475760405162461bcd60e51b8152602060048201526012602482015271125b9d985b1a59081a1a59da081c1bda5b9d60721b6044820152606401610373565b6104546040830183611656565b90506002146104755760405162461bcd60e51b8152600401610373906116a6565b600360008061050061048a6020870187611656565b600081811061049b5761049b6116d6565b90506020028101906104ad91906116ec565b8080601f016020809104026020016040519081016040528093929190818152602001838380828437600092019190915250600192506104f591505060e0890160c08a016115e8565b8860a0013587610bd6565b6040805160018082528183019092529294509092506000919060208083019080368337019050509050828160008151811061053d5761053d6116d6565b60209081029190910101526000610583610556886118ae565b6040518060a001604052808781526020018581526020018681526020018881526020016001815250610bfd565b979650505050505050565b606060028054806020026020016040519081016040528092919081815260200182805480156105e657602002820191906000526020600020905b81546001600160a01b031681526001909101906020018083116105c8575b5050505050905090565b600060026106016040840184611656565b905010156106215760405162461bcd60e51b8152600401610373906116a6565b60006106306040840184611656565b61063c91506001611994565b90506000806106bc6106516020870187611656565b6000818110610662576106626116d6565b905060200281019061067491906116ec565b8080601f016020809104026020016040519081016040528093929190818152602001838380828437600092019190915250600392506104f591505060e0890160c08a016115e8565b604080516001808252818301909252929450909250600091906020808301908036833701905050905082816000815181106106f9576106f96116d6565b60209081029190910101526000610583610712886118ae565b6040518060a001604052808781526020018581526020018681526020018881526020016003815250610bfd565b6001546001600160a01b031633146107695760405162461bcd60e51b815260040161037390611605565b600380546001600160a01b0319166001600160a01b0392909216919091179055565b6000600261079c6040840184611656565b905010156107bc5760405162461bcd60e51b8152600401610373906116a6565b60006107cb6040840184611656565b6107d791506001611994565b90506000806108576107ec6020870187611656565b60008181106107fd576107fd6116d6565b905060200281019061080f91906116ec565b8080601f016020809104026020016040519081016040528093929190818152602001838380828437600092019190915250600292506104f591505060e0890160c08a016115e8565b60408051600180825281830190925292945090925060009190602080830190803683370190505090508281600081518110610894576108946116d6565b602090810291909101015260006105836108ad886118ae565b6040518060a001604052808781526020018581526020018681526020018881526020016002815250610bfd565b600060026108eb6040840184611656565b9050101561090b5760405162461bcd60e51b8152600401610373906116a6565b6109186020830183611656565b90506109276040840184611656565b9050146109685760405162461bcd60e51b815260206004820152600f60248201526e098cadccee8d040dad2e6dac2e8c6d608b1b6044820152606401610373565b60006109776040840184611656565b61098391506001611994565b905060006109946040850185611656565b90506001600160401b038111156109ad576109ad611732565b6040519080825280602002602001820160405280156109d6578160200160208202803683370190505b50905060005b6109e96040860186611656565b9050811015610aa557610a76610a026020870187611656565b83818110610a1257610a126116d6565b9050602002810190610a2491906116ec565b8080601f01602080910402602001604051908101604052809392919081815260200183838082843760009201919091525060019250610a6c91505060e0890160c08a016115e8565b8860a00135610da2565b828281518110610a8857610a886116d6565b602090810291909101015280610a9d816119a7565b9150506109dc565b50600081604051602001610ab991906119fb565b6040516020818303038152906040528051906020012090506000610add8285611000565b90506000610583610aed886118ae565b6040518060a001604052808681526020018781526020018581526020018881526020016001815250610bfd565b60028181548110610b2a57600080fd5b6000918252602090912001546001600160a01b0316905081565b6001546001600160a01b03163314610b6e5760405162461bcd60e51b815260040161037390611605565b6000805463ffffffff191663ffffffff92909216919091179055565b6001546001600160a01b03163314610bb45760405162461bcd60e51b815260040161037390611605565b600180546001600160a01b0319166001600160a01b0392909216919091179055565b600080610be587878787610da2565b9150610bf18284611000565b90509550959350505050565b6003546000908190610c17906001600160a01b0316611134565b9050610c30836040015184606001518660e001516111a6565b806001600160a01b03166312e24aa48560000151866040015187606001518860800151886040015189600001518a602001518b608001518d60200151600060049054906101000a90046001600160a01b03166040518b63ffffffff1660e01b8152600401610ca79a99989796959493929190611ab3565b600060405180830381600087803b158015610cc157600080fd5b505af1158015610cd5573d6000803e3d6000fd5b50505050806001600160a01b03167faadcf1e7d57b927db65a77362bc2db82150d8fa843662b079edb722342b086928560000151866040015187606001518860800151886040015189600001518a602001518b608001518d60200151604051610d4699989796959493929190611b43565b60405180910390a2600280546001810182556000919091527f405787fa12a823e0f2b7631cc41b3ba8828b3321ca811111fa75cd3aa3bb5ace0180546001600160a01b0319166001600160a01b03831617905590505b92915050565b600080848487604051602001610dba93929190611bc2565b60408051601f198184030181528282528051602091820120600080549285018290527f0000000000000000000000000000000000000000000000000000000000000000606090811b6bffffffffffffffffffffffff199081169587019590955260e09390931b6001600160e01b0319166054860152605885018890527f0000000000000000000000000000000000000000000000000000000000000000831b841660788601523090921b909216608c84015260a083018190529092509060c00160408051808303601f19018152908290528051602090910120634f8812e360e11b82526004820181905291507f00000000000000000000000000000000000000000000000000000000000000006001600160a01b031690639f1025c690602401602060405180830381865afa158015610ef7573d6000803e3d6000fd5b505050506040513d601f19601f82011682018060405250810190610f1b9190611bfb565b63ffffffff1615610f2f579150610ff89050565b60008054604051631212e4f160e21b81526001600160a01b037f0000000000000000000000000000000000000000000000000000000000000000169263484b93c492610fb0928b928d927f00000000000000000000000000000000000000000000000000000000000000009263ffffffff909116918d918d90600401611c18565b6020604051808303816000875af1158015610fcf573d6000803e3d6000fd5b505050506040513d601f19601f82011682018060405250810190610ff39190611c68565b925050505b949350505050565b6000805460405163365bb9d560e21b81526001600160a01b037f000000000000000000000000000000000000000000000000000000000000000081169263d96ee7549261105f92600160201b9092049091169087908790600401611c81565b600060405180830381600087803b15801561107957600080fd5b505af115801561108d573d6000803e3d6000fd5b5050600054604051634296357160e11b81526001600160a01b037f00000000000000000000000000000000000000000000000000000000000000008116945063852c6ae293506110ec92600160201b9004169087908790600401611c81565b602060405180830381865afa158015611109573d6000803e3d6000fd5b505050506040513d601f19601f8201168201806040525081019061112d9190611c68565b9392505050565b6000763d602d80600a3d3981f3363d3d373d3d3d363d730000008260601b60e81c176000526e5af43d82803e903d91602b57fd5bf38260781b17602052603760096000f090506001600160a01b0381166111a1576040516330be1a3d60e21b815260040160405180910390fd5b919050565b60006111b3600184611643565b905060005b838110156114ee5760405163856296f760e01b8152600060048201819052602482018790526001831b6044830152907f00000000000000000000000000000000000000000000000000000000000000006001600160a01b03169063856296f790606401602060405180830381865afa158015611238573d6000803e3d6000fd5b505050506040513d601f19601f8201168201806040525081019061125c9190611c68565b60405163039dd75360e41b81526001600160a01b037f000000000000000000000000000000000000000000000000000000000000000081166004830152602482018390529192506000917f000000000000000000000000000000000000000000000000000000000000000016906339dd753090604401602060405180830381865afa1580156112ef573d6000803e3d6000fd5b505050506040513d601f19601f820116820180604052508101906113139190611c68565b90508383148061133e5750848381518110611330576113306116d6565b602002602001015151600014155b61137f5760405162461bcd60e51b81526020600482015260126024820152714d697373696e6720746f6b656e206e616d6560701b6044820152606401610373565b7f00000000000000000000000000000000000000000000000000000000000000006001600160a01b031663bb13cd107f0000000000000000000000000000000000000000000000000000000000000000838787146113f6578887815181106113e9576113e96116d6565b6020026020010151611423565b6040518060400160405280601381526020017214d1515497d253959053125117d49154d55315606a1b8152505b8888146114495789888151811061143c5761143c6116d6565b6020026020010151611476565b6040518060400160405280601381526020017214d1515497d253959053125117d49154d55315606a1b8152505b6040518563ffffffff1660e01b81526004016114959493929190611ca2565b6020604051808303816000875af11580156114b4573d6000803e3d6000fd5b505050506040513d601f19601f820116820180604052508101906114d89190611cdb565b50505080806114e6906119a7565b9150506111b8565b5050505050565b6001600160a01b038116811461150a57600080fd5b50565b60006020828403121561151f57600080fd5b813561112d816114f5565b60006020828403121561153c57600080fd5b81356001600160401b0381111561155257600080fd5b8201610100818503121561112d57600080fd5b6020808252825182820181905260009190848201906040850190845b818110156115a65783516001600160a01b031683529284019291840191600101611581565b50909695505050505050565b6000602082840312156115c457600080fd5b5035919050565b63ffffffff8116811461150a57600080fd5b80356111a1816115cb565b6000602082840312156115fa57600080fd5b813561112d816115cb565b6020808252600e908201526d139bdd08185d5d1a1bdc9a5e995960921b604082015260600190565b634e487b7160e01b600052601160045260246000fd5b81810381811115610d9c57610d9c61162d565b6000808335601e1984360301811261166d57600080fd5b8301803591506001600160401b0382111561168757600080fd5b6020019150600581901b360382131561169f57600080fd5b9250929050565b602080825260169082015275125b9d985b1a59081bdd5d18dbdb595cc818dbdd5b9d60521b604082015260600190565b634e487b7160e01b600052603260045260246000fd5b6000808335601e1984360301811261170357600080fd5b8301803591506001600160401b0382111561171d57600080fd5b60200191503681900382131561169f57600080fd5b634e487b7160e01b600052604160045260246000fd5b60405161010081016001600160401b038111828210171561176b5761176b611732565b60405290565b604051601f8201601f191681016001600160401b038111828210171561179957611799611732565b604052919050565b600082601f8301126117b257600080fd5b81356001600160401b038111156117cb576117cb611732565b6117de601f8201601f1916602001611771565b8181528460208386010111156117f357600080fd5b816020850160208301376000918101602001919091529392505050565b600082601f83011261182157600080fd5b813560206001600160401b038083111561183d5761183d611732565b8260051b61184c838201611771565b938452858101830193838101908886111561186657600080fd5b84880192505b858310156118a2578235848111156118845760008081fd5b6118928a87838c01016117a1565b835250918401919084019061186c565b98975050505050505050565b600061010082360312156118c157600080fd5b6118c9611748565b82356001600160401b03808211156118e057600080fd5b6118ec368387016117a1565b8352602085013591508082111561190257600080fd5b61190e36838701611810565b6020840152604085013591508082111561192757600080fd5b61193336838701611810565b6040840152606085013560608401526080850135608084015260a085013560a084015261196260c086016115dd565b60c084015260e085013591508082111561197b57600080fd5b5061198836828601611810565b60e08301525092915050565b80820180821115610d9c57610d9c61162d565b6000600182016119b9576119b961162d565b5060010190565b600081518084526020808501945080840160005b838110156119f0578151875295820195908201906001016119d4565b509495945050505050565b60208152600061112d60208301846119c0565b60005b83811015611a29578181015183820152602001611a11565b50506000910152565b60008151808452611a4a816020860160208601611a0e565b601f01601f19169290920160200192915050565b600081518084526020808501808196508360051b8101915082860160005b85811015611aa6578284038952611a94848351611a32565b98850198935090840190600101611a7c565b5091979650505050505050565b6000610140808352611ac78184018e611a32565b90508281036020840152611adb818d611a5e565b90508a60408401528960608401528860808401528760a084015282810360c0840152611b0781886119c0565b90508560e0840152828103610100840152611b228186611a5e565b91505060018060a01b0383166101208301529b9a5050505050505050505050565b6000610120808352611b578184018d611a32565b90508281036020840152611b6b818c611a5e565b90508960408401528860608401528760808401528660a084015282810360c0840152611b9781876119c0565b90508460e0840152828103610100840152611bb28185611a5e565b9c9b505050505050505050505050565b83815263ffffffff60e01b8360e01b16602082015260008251611bec816024850160208701611a0e565b91909101602401949350505050565b600060208284031215611c0d57600080fd5b815161112d816115cb565b87815260e060208201526000611c3160e0830189611a32565b6001600160a01b039790971660408301525063ffffffff948516606082015292909316608083015260a082015260c0015292915050565b600060208284031215611c7a57600080fd5b5051919050565b6001600160a01b039390931683526020830191909152604082015260600190565b60018060a01b0385168152836020820152608060408201526000611cc96080830185611a32565b82810360608401526105838185611a32565b600060208284031215611ced57600080fd5b815161112d816114f556fea2646970667358221220249ce285040c272a112485eaeac59e348fbcba38841ce32dbc4a7c9dc3c070c064736f6c63430008140033",
  "devdoc": {
    "errors": {
      "ERC1167FailedCreateClone()": [
        {
          "details": "A clone instance deployment failed."
        }
      ]
    },
    "kind": "dev",
    "methods": {
      "constructor": {
        "details": "Constructor.",
        "params": {
          "_arbitrator": "Address of the arbitrator that is going to resolve Realitio disputes.",
          "_collateralToken": "Address of the collateral token.",
          "_conditionalTokens": "Address of the ConditionalTokens implementation.",
          "_governor": "Address of the governor of this contract.",
          "_market": "Address of the market contract that is going to be used for each new deployment.",
          "_questionTimeout": "Reality question timeout.",
          "_realitio": "Address of the Realitio implementation.",
          "_realityProxy": "Address of the RealityProxy implementation.",
          "_wrappedERC20Factory": "Address of the WrappedERC20Factory implementation."
        }
      }
    },
    "version": 1
  },
  "userdoc": {
    "kind": "user",
    "methods": {},
    "version": 1
  },
  "storageLayout": {
    "storage": [
      {
        "astId": 1859,
        "contract": "src/MarketFactory.sol:MarketFactory",
        "label": "questionTimeout",
        "offset": 0,
        "slot": "0",
        "type": "t_uint32"
      },
      {
        "astId": 1875,
        "contract": "src/MarketFactory.sol:MarketFactory",
        "label": "realityProxy",
        "offset": 4,
        "slot": "0",
        "type": "t_contract(RealityProxy)3246"
      },
      {
        "astId": 1877,
        "contract": "src/MarketFactory.sol:MarketFactory",
        "label": "governor",
        "offset": 0,
        "slot": "1",
        "type": "t_address"
      },
      {
        "astId": 1880,
        "contract": "src/MarketFactory.sol:MarketFactory",
        "label": "markets",
        "offset": 0,
        "slot": "2",
        "type": "t_array(t_address)dyn_storage"
      },
      {
        "astId": 1882,
        "contract": "src/MarketFactory.sol:MarketFactory",
        "label": "market",
        "offset": 0,
        "slot": "3",
        "type": "t_address"
      }
    ],
    "types": {
      "t_address": {
        "encoding": "inplace",
        "label": "address",
        "numberOfBytes": "20"
      },
      "t_array(t_address)dyn_storage": {
        "base": "t_address",
        "encoding": "dynamic_array",
        "label": "address[]",
        "numberOfBytes": "32"
      },
      "t_contract(RealityProxy)3246": {
        "encoding": "inplace",
        "label": "contract RealityProxy",
        "numberOfBytes": "20"
      },
      "t_uint32": {
        "encoding": "inplace",
        "label": "uint32",
        "numberOfBytes": "4"
      }
    }
  }
}