{
  "address": "0xcBBbABD15895ae7b2e28BE6f250729098F1c69FA",
  "abi": [
    {
      "inputs": [
        {
          "internalType": "address",
          "name": "_market",
          "type": "address"
        },
        {
          "internalType": "address",
          "name": "_arbitrator",
          "type": "address"
        },
        {
          "internalType": "contract IRealityETH_v3_0",
          "name": "_realitio",
          "type": "address"
        },
        {
          "internalType": "contract WrappedERC20Factory",
          "name": "_wrappedERC20Factory",
          "type": "address"
        },
        {
          "internalType": "contract IConditionalTokens",
          "name": "_conditionalTokens",
          "type": "address"
        },
        {
          "internalType": "address",
          "name": "_collateralToken",
          "type": "address"
        },
        {
          "internalType": "contract RealityProxy",
          "name": "_realityProxy",
          "type": "address"
        },
        {
          "internalType": "address",
          "name": "_governor",
          "type": "address"
        }
      ],
      "stateMutability": "nonpayable",
      "type": "constructor"
    },
    {
      "inputs": [],
      "name": "ERC1167FailedCreateClone",
      "type": "error"
    },
    {
      "anonymous": false,
      "inputs": [
        {
          "indexed": true,
          "internalType": "address",
          "name": "market",
          "type": "address"
        },
        {
          "indexed": false,
          "internalType": "string",
          "name": "marketName",
          "type": "string"
        },
        {
          "indexed": false,
          "internalType": "string[]",
          "name": "outcomes",
          "type": "string[]"
        },
        {
          "indexed": false,
          "internalType": "uint256",
          "name": "lowerBound",
          "type": "uint256"
        },
        {
          "indexed": false,
          "internalType": "uint256",
          "name": "upperBound",
          "type": "uint256"
        },
        {
          "indexed": false,
          "internalType": "bytes32",
          "name": "conditionId",
          "type": "bytes32"
        },
        {
          "indexed": false,
          "internalType": "bytes32",
          "name": "questionId",
          "type": "bytes32"
        },
        {
          "indexed": false,
          "internalType": "bytes32[]",
          "name": "questionsIds",
          "type": "bytes32[]"
        },
        {
          "indexed": false,
          "internalType": "uint256",
          "name": "templateId",
          "type": "uint256"
        },
        {
          "indexed": false,
          "internalType": "string[]",
          "name": "encodedQuestions",
          "type": "string[]"
        }
      ],
      "name": "NewMarket",
      "type": "event"
    },
    {
      "inputs": [],
      "name": "QUESTION_TIMEOUT",
      "outputs": [
        {
          "internalType": "uint32",
          "name": "",
          "type": "uint32"
        }
      ],
      "stateMutability": "view",
      "type": "function"
    },
    {
      "inputs": [],
      "name": "allMarkets",
      "outputs": [
        {
          "internalType": "address[]",
          "name": "",
          "type": "address[]"
        }
      ],
      "stateMutability": "view",
      "type": "function"
    },
    {
      "inputs": [],
      "name": "arbitrator",
      "outputs": [
        {
          "internalType": "address",
          "name": "",
          "type": "address"
        }
      ],
      "stateMutability": "view",
      "type": "function"
    },
    {
      "inputs": [
        {
          "internalType": "address",
          "name": "_governor",
          "type": "address"
        }
      ],
      "name": "changeGovernor",
      "outputs": [],
      "stateMutability": "nonpayable",
      "type": "function"
    },
    {
      "inputs": [
        {
          "internalType": "address",
          "name": "_market",
          "type": "address"
        }
      ],
      "name": "changeMarket",
      "outputs": [],
      "stateMutability": "nonpayable",
      "type": "function"
    },
    {
      "inputs": [],
      "name": "collateralToken",
      "outputs": [
        {
          "internalType": "address",
          "name": "",
          "type": "address"
        }
      ],
      "stateMutability": "view",
      "type": "function"
    },
    {
      "inputs": [],
      "name": "conditionalTokens",
      "outputs": [
        {
          "internalType": "contract IConditionalTokens",
          "name": "",
          "type": "address"
        }
      ],
      "stateMutability": "view",
      "type": "function"
    },
    {
      "inputs": [
        {
          "components": [
            {
              "internalType": "string",
              "name": "marketName",
              "type": "string"
            },
            {
              "internalType": "string[]",
              "name": "encodedQuestions",
              "type": "string[]"
            },
            {
              "internalType": "string[]",
              "name": "outcomes",
              "type": "string[]"
            },
            {
              "internalType": "uint256",
              "name": "lowerBound",
              "type": "uint256"
            },
            {
              "internalType": "uint256",
              "name": "upperBound",
              "type": "uint256"
            },
            {
              "internalType": "uint256",
              "name": "minBond",
              "type": "uint256"
            },
            {
              "internalType": "uint32",
              "name": "openingTime",
              "type": "uint32"
            },
            {
              "internalType": "string[]",
              "name": "tokenNames",
              "type": "string[]"
            }
          ],
          "internalType": "struct MarketFactory.CreateMarketParams",
          "name": "params",
          "type": "tuple"
        }
      ],
      "name": "createCategoricalMarket",
      "outputs": [
        {
          "internalType": "address",
          "name": "",
          "type": "address"
        }
      ],
      "stateMutability": "nonpayable",
      "type": "function"
    },
    {
      "inputs": [
        {
          "components": [
            {
              "internalType": "string",
              "name": "marketName",
              "type": "string"
            },
            {
              "internalType": "string[]",
              "name": "encodedQuestions",
              "type": "string[]"
            },
            {
              "internalType": "string[]",
              "name": "outcomes",
              "type": "string[]"
            },
            {
              "internalType": "uint256",
              "name": "lowerBound",
              "type": "uint256"
            },
            {
              "internalType": "uint256",
              "name": "upperBound",
              "type": "uint256"
            },
            {
              "internalType": "uint256",
              "name": "minBond",
              "type": "uint256"
            },
            {
              "internalType": "uint32",
              "name": "openingTime",
              "type": "uint32"
            },
            {
              "internalType": "string[]",
              "name": "tokenNames",
              "type": "string[]"
            }
          ],
          "internalType": "struct MarketFactory.CreateMarketParams",
          "name": "params",
          "type": "tuple"
        }
      ],
      "name": "createMultiScalarMarket",
      "outputs": [
        {
          "internalType": "address",
          "name": "",
          "type": "address"
        }
      ],
      "stateMutability": "nonpayable",
      "type": "function"
    },
    {
      "inputs": [
        {
          "components": [
            {
              "internalType": "string",
              "name": "marketName",
              "type": "string"
            },
            {
              "internalType": "string[]",
              "name": "encodedQuestions",
              "type": "string[]"
            },
            {
              "internalType": "string[]",
              "name": "outcomes",
              "type": "string[]"
            },
            {
              "internalType": "uint256",
              "name": "lowerBound",
              "type": "uint256"
            },
            {
              "internalType": "uint256",
              "name": "upperBound",
              "type": "uint256"
            },
            {
              "internalType": "uint256",
              "name": "minBond",
              "type": "uint256"
            },
            {
              "internalType": "uint32",
              "name": "openingTime",
              "type": "uint32"
            },
            {
              "internalType": "string[]",
              "name": "tokenNames",
              "type": "string[]"
            }
          ],
          "internalType": "struct MarketFactory.CreateMarketParams",
          "name": "params",
          "type": "tuple"
        }
      ],
      "name": "createScalarMarket",
      "outputs": [
        {
          "internalType": "address",
          "name": "",
          "type": "address"
        }
      ],
      "stateMutability": "nonpayable",
      "type": "function"
    },
    {
      "inputs": [],
      "name": "governor",
      "outputs": [
        {
          "internalType": "address",
          "name": "",
          "type": "address"
        }
      ],
      "stateMutability": "view",
      "type": "function"
    },
    {
      "inputs": [],
      "name": "market",
      "outputs": [
        {
          "internalType": "address",
          "name": "",
          "type": "address"
        }
      ],
      "stateMutability": "view",
      "type": "function"
    },
    {
      "inputs": [],
      "name": "marketCount",
      "outputs": [
        {
          "internalType": "uint256",
          "name": "",
          "type": "uint256"
        }
      ],
      "stateMutability": "view",
      "type": "function"
    },
    {
      "inputs": [
        {
          "internalType": "uint256",
          "name": "",
          "type": "uint256"
        }
      ],
      "name": "markets",
      "outputs": [
        {
          "internalType": "address",
          "name": "",
          "type": "address"
        }
      ],
      "stateMutability": "view",
      "type": "function"
    },
    {
      "inputs": [],
      "name": "realitio",
      "outputs": [
        {
          "internalType": "contract IRealityETH_v3_0",
          "name": "",
          "type": "address"
        }
      ],
      "stateMutability": "view",
      "type": "function"
    },
    {
      "inputs": [],
      "name": "realityProxy",
      "outputs": [
        {
          "internalType": "contract RealityProxy",
          "name": "",
          "type": "address"
        }
      ],
      "stateMutability": "view",
      "type": "function"
    },
    {
      "inputs": [],
      "name": "wrappedERC20Factory",
      "outputs": [
        {
          "internalType": "contract WrappedERC20Factory",
          "name": "",
          "type": "address"
        }
      ],
      "stateMutability": "view",
      "type": "function"
    }
  ],
  "transactionHash": "0x6559b00e5b15b20029c71babf1cfb21cdd132b9a3516b60f5eead8b638ba95fd",
  "args": [
    "0x03d03464BF9Eb20059Ca6eF6391E9C5d79d5E012",
    "0xe40DD83a262da3f56976038F1554Fe541Fa75ecd",
    "0xE78996A233895bE74a66F451f1019cA9734205cc",
    "0xFb4c45a988F70D0f8eFb5Ab3A7feB00D463c16B7",
    "0xCeAfDD6bc0bEF976fdCd1112955828E00543c0Ce",
    "0xaf204776c7245bf4147c2612bf6e5972ee483701",
    "0xdEB5dC052e55bf81C6d75CD47C961e0b280B3791",
    "0x4edca105188a0783ab3a6f09c50567d1e3f8591d"
  ],
  "numDeployments": 4,
  "solcInputHash": "11eb862ec6512cd49d79509f516a41bb",
  "bytecode": "0x6101406040523480156200001257600080fd5b5060405162001a8d38038062001a8d8339810160408190526200003591620000a4565b600280546001600160a01b03998a166001600160a01b03199182161790915596881660805294871660a05292861660c05290851660e0528416610100528316610120526000805491909316911617905562000165565b6001600160a01b0381168114620000a157600080fd5b50565b600080600080600080600080610100898b031215620000c257600080fd5b8851620000cf816200008b565b60208a0151909850620000e2816200008b565b60408a0151909750620000f5816200008b565b60608a015190965062000108816200008b565b60808a01519095506200011b816200008b565b60a08a01519094506200012e816200008b565b60c08a015190935062000141816200008b565b60e08a015190925062000154816200008b565b809150509295985092959890939650565b60805160a05160c05160e05161010051610120516118686200022560003960008181610138015281816103a60152818161058901528181610796015261091b0152600081816102690152610eff01526000818161019301528181610ca101528181610d2101528181610e2c01528181610f340152610ff90152600081816101cf0152610fca01526000818161029001528181610ac201528181610b340152610bd201526000818161020901528181610a810152610c0301526118686000f3fe608060405234801561001057600080fd5b50600436106100eb5760003560e01c806362322c5d1161009257806362322c5d146101f15780636cc6cde114610204578063807bb32d1461022b57806380f556051461023e578063b1283e7714610251578063b2016bd414610264578063bc8802a21461028b578063e4c0aaf4146102b2578063ec979082146102c557600080fd5b80630c340a24146100f05780632b6ada67146101205780632ff8d50414610133578063375a7cba1461015a5780634a3382e51461016f5780635bd9e2991461018e5780635c3ef427146101b557806361371325146101ca575b600080fd5b600054610103906001600160a01b031681565b6040516001600160a01b0390911681526020015b60405180910390f35b61010361012e3660046112f3565b6102d6565b6101037f000000000000000000000000000000000000000000000000000000000000000081565b610162610451565b60405161011791906113fb565b6101796201fa4081565b60405163ffffffff9091168152602001610117565b6101037f000000000000000000000000000000000000000000000000000000000000000081565b6101c86101c336600461145d565b6104b3565b005b6101037f000000000000000000000000000000000000000000000000000000000000000081565b6101036101ff3660046112f3565b6104ff565b6101037f000000000000000000000000000000000000000000000000000000000000000081565b6101036102393660046112f3565b61062e565b600254610103906001600160a01b031681565b61010361025f366004611481565b6107f4565b6101037f000000000000000000000000000000000000000000000000000000000000000081565b6101037f000000000000000000000000000000000000000000000000000000000000000081565b6101c86102c036600461145d565b61081e565b600154604051908152602001610117565b600081606001518260800151116103255760405162461bcd60e51b815260206004820152600e60248201526d496e76616c696420626f756e647360901b60448201526064015b60405180910390fd5b81604001515160021461036d5760405162461bcd60e51b815260206004820152601060248201526f496e76616c6964206f7574636f6d657360801b604482015260640161031c565b6000806103ca846020015160008151811061038a5761038a61149a565b602002602001015160018660c001518760a001518860400151517f000000000000000000000000000000000000000000000000000000000000000061086a565b604080516001808252818301909252929450909250600091906020808301908036833701905050905082816000815181106104075761040761149a565b6020026020010181815250506000610447866040518060a00160405280878152602001858152602001868152602001600281526020016001815250610893565b9695505050505050565b606060018054806020026020016040519081016040528092919081815260200182805480156104a957602002820191906000526020600020905b81546001600160a01b0316815260019091019060200180831161048b575b5050505050905090565b6000546001600160a01b031633146104dd5760405162461bcd60e51b815260040161031c906114b0565b600280546001600160a01b0319166001600160a01b0392909216919091179055565b6000600282604001515110156105505760405162461bcd60e51b8152602060048201526016602482015275125b9d985b1a59081bdd5d18dbdb595cc818dbdd5b9d60521b604482015260640161031c565b6000806105ad846020015160008151811061056d5761056d61149a565b602002602001015160028660c001518760a001518860400151517f000000000000000000000000000000000000000000000000000000000000000061086a565b604080516001808252818301909252929450909250600091906020808301908036833701905050905082816000815181106105ea576105ea61149a565b6020026020010181815250506000610447866040518060a0016040528087815260200185815260200186815260200189604001515181526020016002815250610893565b60008160200151518260400151511461067b5760405162461bcd60e51b815260206004820152600f60248201526e098cadcced0e840dad2e6dac2e8c6d608b1b604482015260640161031c565b60008260400151516001600160401b0381111561069a5761069a611157565b6040519080825280602002602001820160405280156106c3578160200160208202803683370190505b5090506000805b84604001515181101561078757610709856020015182815181106106f0576106f061149a565b602002602001015160018760c001518860a00151610a3b565b83828151811061071b5761071b61149a565b6020026020010181815250508183828151811061073a5761073a61149a565b602002602001015160405160200161075c929190918252602082015260400190565b604051602081830303815290604052805190602001209150808061077f906114d8565b9150506106ca565b5060006107ba828660400151517f0000000000000000000000000000000000000000000000000000000000000000610c87565b90506000610447866040518060a0016040528086815260200187815260200185815260200189604001515181526020016001815250610893565b6001818154811061080457600080fd5b6000918252602090912001546001600160a01b0316905081565b6000546001600160a01b031633146108485760405162461bcd60e51b815260040161031c906114b0565b600080546001600160a01b0319166001600160a01b0392909216919091179055565b60008061087988888888610a3b565b9150610886828585610c87565b9050965096945050505050565b60025460009081906108ad906001600160a01b0316610d9d565b90506108c6836040015184606001518660e00151610e0f565b835160408086015160608701516080808901518885015189516020808c0151948c0151908d015197516304b892a960e21b81526001600160a01b038b16996312e24aa4996109439991989197919695949391927f0000000000000000000000000000000000000000000000000000000000000000906004016115e2565b600060405180830381600087803b15801561095d57600080fd5b505af1158015610971573d6000803e3d6000fd5b50505050806001600160a01b03167faadcf1e7d57b927db65a77362bc2db82150d8fa843662b079edb722342b086928560000151866040015187606001518860800151886040015189600001518a602001518b608001518d602001516040516109e299989796959493929190611672565b60405180910390a26001805480820182556000919091527fb10e2d527612073b26eecdfd717e6a320cf44b4afac2b0732d9fcbe2b7fa0cf60180546001600160a01b0319166001600160a01b0383161790559392505050565b600080848487604051602001610a53939291906116f1565b60408051601f1981840301815282825280516020918201209083018190526bffffffffffffffffffffffff197f0000000000000000000000000000000000000000000000000000000000000000606090811b8216938501939093526107e960e61b6054850152605884018790527f0000000000000000000000000000000000000000000000000000000000000000831b811660788501523090921b909116608c830152600060a083018190529092509060c00160408051808303601f19018152908290528051602090910120634f8812e360e11b82526004820181905291507f00000000000000000000000000000000000000000000000000000000000000006001600160a01b031690639f1025c690602401602060405180830381865afa158015610b83573d6000803e3d6000fd5b505050506040513d601f19601f82011682018060405250810190610ba7919061172a565b63ffffffff1615610bbb579150610c7f9050565b604051631212e4f160e21b81526001600160a01b037f0000000000000000000000000000000000000000000000000000000000000000169063484b93c490610c379089908b907f0000000000000000000000000000000000000000000000000000000000000000906201fa40908c906000908d90600401611747565b6020604051808303816000875af1158015610c56573d6000803e3d6000fd5b505050506040513d601f19601f82011682018060405250810190610c7a9190611797565b925050505b949350505050565b60405163365bb9d560e21b81526000906001600160a01b037f0000000000000000000000000000000000000000000000000000000000000000169063d96ee75490610cda908590889088906004016117b0565b600060405180830381600087803b158015610cf457600080fd5b505af1158015610d08573d6000803e3d6000fd5b5050604051634296357160e11b81526001600160a01b037f000000000000000000000000000000000000000000000000000000000000000016925063852c6ae29150610d5c908590889088906004016117b0565b602060405180830381865afa158015610d79573d6000803e3d6000fd5b505050506040513d601f19601f82011682018060405250810190610c7f9190611797565b6000763d602d80600a3d3981f3363d3d373d3d3d363d730000008260601b60e81c176000526e5af43d82803e903d91602b57fd5bf38260781b17602052603760096000f090506001600160a01b038116610e0a576040516330be1a3d60e21b815260040160405180910390fd5b919050565b6000610e1a836110cc565b905060005b81518110156110c55760007f00000000000000000000000000000000000000000000000000000000000000006001600160a01b031663856296f76000801b88868681518110610e7057610e7061149a565b60200260200101516040518463ffffffff1660e01b8152600401610ea7939291909283526020830191909152604082015260600190565b602060405180830381865afa158015610ec4573d6000803e3d6000fd5b505050506040513d601f19601f82011682018060405250810190610ee89190611797565b60405163039dd75360e41b81526001600160a01b037f000000000000000000000000000000000000000000000000000000000000000081166004830152602482018390529192506000917f000000000000000000000000000000000000000000000000000000000000000016906339dd753090604401602060405180830381865afa158015610f7b573d6000803e3d6000fd5b505050506040513d601f19601f82011682018060405250810190610f9f9190611797565b9050848381518110610fb357610fb361149a565b602002602001015151600003610fc857600080fd5b7f00000000000000000000000000000000000000000000000000000000000000006001600160a01b031663bb13cd107f00000000000000000000000000000000000000000000000000000000000000008388878151811061102b5761102b61149a565b60200260200101518988815181106110455761104561149a565b60200260200101516040518563ffffffff1660e01b815260040161106c94939291906117d1565b6020604051808303816000875af115801561108b573d6000803e3d6000fd5b505050506040513d601f19601f820116820180604052508101906110af9190611815565b50505080806110bd906114d8565b915050610e1f565b5050505050565b6060816001600160401b038111156110e6576110e6611157565b60405190808252806020026020018201604052801561110f578160200160208202803683370190505b50905060005b8281101561115157806001901b8282815181106111345761113461149a565b602090810291909101015280611149816114d8565b915050611115565b50919050565b634e487b7160e01b600052604160045260246000fd5b60405161010081016001600160401b038111828210171561119057611190611157565b60405290565b604051601f8201601f191681016001600160401b03811182821017156111be576111be611157565b604052919050565b600082601f8301126111d757600080fd5b81356001600160401b038111156111f0576111f0611157565b611203601f8201601f1916602001611196565b81815284602083860101111561121857600080fd5b816020850160208301376000918101602001919091529392505050565b600082601f83011261124657600080fd5b813560206001600160401b038083111561126257611262611157565b8260051b611271838201611196565b938452858101830193838101908886111561128b57600080fd5b84880192505b858310156112c7578235848111156112a95760008081fd5b6112b78a87838c01016111c6565b8352509184019190840190611291565b98975050505050505050565b63ffffffff811681146112e557600080fd5b50565b8035610e0a816112d3565b60006020828403121561130557600080fd5b81356001600160401b038082111561131c57600080fd5b90830190610100828603121561133157600080fd5b61133961116d565b82358281111561134857600080fd5b611354878286016111c6565b82525060208301358281111561136957600080fd5b61137587828601611235565b60208301525060408301358281111561138d57600080fd5b61139987828601611235565b604083015250606083013560608201526080830135608082015260a083013560a08201526113c960c084016112e8565b60c082015260e0830135828111156113e057600080fd5b6113ec87828601611235565b60e08301525095945050505050565b6020808252825182820181905260009190848201906040850190845b8181101561143c5783516001600160a01b031683529284019291840191600101611417565b50909695505050505050565b6001600160a01b03811681146112e557600080fd5b60006020828403121561146f57600080fd5b813561147a81611448565b9392505050565b60006020828403121561149357600080fd5b5035919050565b634e487b7160e01b600052603260045260246000fd5b6020808252600e908201526d139bdd08185d5d1a1bdc9a5e995960921b604082015260600190565b6000600182016114f857634e487b7160e01b600052601160045260246000fd5b5060010190565b60005b8381101561151a578181015183820152602001611502565b50506000910152565b6000815180845261153b8160208601602086016114ff565b601f01601f19169290920160200192915050565b600082825180855260208086019550808260051b84010181860160005b8481101561159a57601f19868403018952611588838351611523565b9884019892509083019060010161156c565b5090979650505050505050565b600081518084526020808501945080840160005b838110156115d7578151875295820195908201906001016115bb565b509495945050505050565b60006101408083526115f68184018e611523565b9050828103602084015261160a818d61154f565b90508a60408401528960608401528860808401528760a084015282810360c084015261163681886115a7565b90508560e0840152828103610100840152611651818661154f565b91505060018060a01b0383166101208301529b9a5050505050505050505050565b60006101208083526116868184018d611523565b9050828103602084015261169a818c61154f565b90508960408401528860608401528760808401528660a084015282810360c08401526116c681876115a7565b90508460e08401528281036101008401526116e1818561154f565b9c9b505050505050505050505050565b83815263ffffffff60e01b8360e01b1660208201526000825161171b8160248501602087016114ff565b91909101602401949350505050565b60006020828403121561173c57600080fd5b815161147a816112d3565b87815260e06020820152600061176060e0830189611523565b6001600160a01b039790971660408301525063ffffffff948516606082015292909316608083015260a082015260c0015292915050565b6000602082840312156117a957600080fd5b5051919050565b6001600160a01b039390931683526020830191909152604082015260600190565b60018060a01b03851681528360208201526080604082015260006117f86080830185611523565b828103606084015261180a8185611523565b979650505050505050565b60006020828403121561182757600080fd5b815161147a8161144856fea2646970667358221220a79abaf17fe7539f09cbd3850410920532075012c5a09af90bf03f43179e72b264736f6c63430008140033",
  "devdoc": {
    "errors": {
      "ERC1167FailedCreateClone()": [
        {
          "details": "A clone instance deployment failed."
        }
      ]
    },
    "kind": "dev",
    "methods": {
      "constructor": {
        "details": "Constructor.",
        "params": {
          "_arbitrator": "Address of the arbitrator that is going to resolve Realitio disputes.",
          "_collateralToken": "Address of the collateral token.",
          "_conditionalTokens": "Address of the ConditionalTokens implementation.",
          "_governor": "Address of the governor of this contract.",
          "_market": "Address of the market contract that is going to be used for each new deployment.",
          "_realitio": "Address of the Realitio implementation.",
          "_realityProxy": "Address of the RealityProxy implementation.",
          "_wrappedERC20Factory": "Address of the WrappedERC20Factory implementation."
        }
      }
    },
    "version": 1
  },
  "userdoc": {
    "kind": "user",
    "methods": {},
    "version": 1
  },
  "storageLayout": {
    "storage": [
      {
        "astId": 1966,
        "contract": "src/MarketFactory.sol:MarketFactory",
        "label": "governor",
        "offset": 0,
        "slot": "0",
        "type": "t_address"
      },
      {
        "astId": 1969,
        "contract": "src/MarketFactory.sol:MarketFactory",
        "label": "markets",
        "offset": 0,
        "slot": "1",
        "type": "t_array(t_address)dyn_storage"
      },
      {
        "astId": 1971,
        "contract": "src/MarketFactory.sol:MarketFactory",
        "label": "market",
        "offset": 0,
        "slot": "2",
        "type": "t_address"
      }
    ],
    "types": {
      "t_address": {
        "encoding": "inplace",
        "label": "address",
        "numberOfBytes": "20"
      },
      "t_array(t_address)dyn_storage": {
        "base": "t_address",
        "encoding": "dynamic_array",
        "label": "address[]",
        "numberOfBytes": "32"
      }
    }
  }
}