{
  "address": "0x4BA0c4cF195695BFfce0f349953b6bC8dFDD4CC4",
  "abi": [
    {
      "inputs": [
        {
          "internalType": "contract IMarketFactory",
          "name": "marketFactory",
          "type": "address"
        },
        {
          "internalType": "address",
          "name": "marketId",
          "type": "address"
        }
      ],
      "name": "getMarket",
      "outputs": [
        {
          "components": [
            {
              "internalType": "address",
              "name": "id",
              "type": "address"
            },
            {
              "internalType": "string",
              "name": "marketName",
              "type": "string"
            },
            {
              "internalType": "string[]",
              "name": "outcomes",
              "type": "string[]"
            },
            {
              "internalType": "address[]",
              "name": "wrappedTokens",
              "type": "address[]"
            },
            {
              "internalType": "uint256",
              "name": "outcomesSupply",
              "type": "uint256"
            },
            {
              "internalType": "uint256",
              "name": "lowerBound",
              "type": "uint256"
            },
            {
              "internalType": "uint256",
              "name": "upperBound",
              "type": "uint256"
            },
            {
              "internalType": "bytes32",
              "name": "conditionId",
              "type": "bytes32"
            },
            {
              "internalType": "bytes32",
              "name": "questionId",
              "type": "bytes32"
            },
            {
              "internalType": "uint256",
              "name": "templateId",
              "type": "uint256"
            },
            {
              "components": [
                {
                  "internalType": "bytes32",
                  "name": "content_hash",
                  "type": "bytes32"
                },
                {
                  "internalType": "address",
                  "name": "arbitrator",
                  "type": "address"
                },
                {
                  "internalType": "uint32",
                  "name": "opening_ts",
                  "type": "uint32"
                },
                {
                  "internalType": "uint32",
                  "name": "timeout",
                  "type": "uint32"
                },
                {
                  "internalType": "uint32",
                  "name": "finalize_ts",
                  "type": "uint32"
                },
                {
                  "internalType": "bool",
                  "name": "is_pending_arbitration",
                  "type": "bool"
                },
                {
                  "internalType": "uint256",
                  "name": "bounty",
                  "type": "uint256"
                },
                {
                  "internalType": "bytes32",
                  "name": "best_answer",
                  "type": "bytes32"
                },
                {
                  "internalType": "bytes32",
                  "name": "history_hash",
                  "type": "bytes32"
                },
                {
                  "internalType": "uint256",
                  "name": "bond",
                  "type": "uint256"
                },
                {
                  "internalType": "uint256",
                  "name": "min_bond",
                  "type": "uint256"
                }
              ],
              "internalType": "struct IRealityETH_v3_0.Question[]",
              "name": "questions",
              "type": "tuple[]"
            },
            {
              "internalType": "bytes32[]",
              "name": "questionsIds",
              "type": "bytes32[]"
            },
            {
              "internalType": "string[]",
              "name": "encodedQuestions",
              "type": "string[]"
            },
            {
              "internalType": "bool",
              "name": "payoutReported",
              "type": "bool"
            }
          ],
          "internalType": "struct MarketView.MarketInfo",
          "name": "",
          "type": "tuple"
        }
      ],
      "stateMutability": "view",
      "type": "function"
    },
    {
      "inputs": [
        {
          "internalType": "uint256",
          "name": "count",
          "type": "uint256"
        },
        {
          "internalType": "contract IMarketFactory",
          "name": "marketFactory",
          "type": "address"
        }
      ],
      "name": "getMarkets",
      "outputs": [
        {
          "components": [
            {
              "internalType": "address",
              "name": "id",
              "type": "address"
            },
            {
              "internalType": "string",
              "name": "marketName",
              "type": "string"
            },
            {
              "internalType": "string[]",
              "name": "outcomes",
              "type": "string[]"
            },
            {
              "internalType": "address[]",
              "name": "wrappedTokens",
              "type": "address[]"
            },
            {
              "internalType": "uint256",
              "name": "outcomesSupply",
              "type": "uint256"
            },
            {
              "internalType": "uint256",
              "name": "lowerBound",
              "type": "uint256"
            },
            {
              "internalType": "uint256",
              "name": "upperBound",
              "type": "uint256"
            },
            {
              "internalType": "bytes32",
              "name": "conditionId",
              "type": "bytes32"
            },
            {
              "internalType": "bytes32",
              "name": "questionId",
              "type": "bytes32"
            },
            {
              "internalType": "uint256",
              "name": "templateId",
              "type": "uint256"
            },
            {
              "components": [
                {
                  "internalType": "bytes32",
                  "name": "content_hash",
                  "type": "bytes32"
                },
                {
                  "internalType": "address",
                  "name": "arbitrator",
                  "type": "address"
                },
                {
                  "internalType": "uint32",
                  "name": "opening_ts",
                  "type": "uint32"
                },
                {
                  "internalType": "uint32",
                  "name": "timeout",
                  "type": "uint32"
                },
                {
                  "internalType": "uint32",
                  "name": "finalize_ts",
                  "type": "uint32"
                },
                {
                  "internalType": "bool",
                  "name": "is_pending_arbitration",
                  "type": "bool"
                },
                {
                  "internalType": "uint256",
                  "name": "bounty",
                  "type": "uint256"
                },
                {
                  "internalType": "bytes32",
                  "name": "best_answer",
                  "type": "bytes32"
                },
                {
                  "internalType": "bytes32",
                  "name": "history_hash",
                  "type": "bytes32"
                },
                {
                  "internalType": "uint256",
                  "name": "bond",
                  "type": "uint256"
                },
                {
                  "internalType": "uint256",
                  "name": "min_bond",
                  "type": "uint256"
                }
              ],
              "internalType": "struct IRealityETH_v3_0.Question[]",
              "name": "questions",
              "type": "tuple[]"
            },
            {
              "internalType": "bytes32[]",
              "name": "questionsIds",
              "type": "bytes32[]"
            },
            {
              "internalType": "string[]",
              "name": "encodedQuestions",
              "type": "string[]"
            },
            {
              "internalType": "bool",
              "name": "payoutReported",
              "type": "bool"
            }
          ],
          "internalType": "struct MarketView.MarketInfo[]",
          "name": "",
          "type": "tuple[]"
        }
      ],
      "stateMutability": "view",
      "type": "function"
    },
    {
      "inputs": [
        {
          "internalType": "bytes32",
          "name": "questionId",
          "type": "bytes32"
        },
        {
          "internalType": "contract IRealityETH_v3_0",
          "name": "realitio",
          "type": "address"
        }
      ],
      "name": "getQuestionId",
      "outputs": [
        {
          "internalType": "bytes32",
          "name": "",
          "type": "bytes32"
        }
      ],
      "stateMutability": "view",
      "type": "function"
    }
  ],
  "transactionHash": "0x6bafcf906f48d426f7a61b5b6f336e04df4cbb98233e351a2bba6852eef20069",
  "args": [],
  "numDeployments": 17,
  "solcInputHash": "c2db9543cffbc4682fc73c876429bbe2",
  "bytecode": "0x608060405234801561001057600080fd5b506117d2806100206000396000f3fe608060405234801561001057600080fd5b50600436106100415760003560e01c8063118cdf61146100465780633d7637371461006f578063714af34b14610090575b600080fd5b610059610054366004611086565b6100b0565b6040516100669190611399565b60405180910390f35b61008261007d366004611086565b610233565b604051908152602001610066565b6100a361009e3660046113fb565b610395565b6040516100669190611429565b60606000826001600160a01b031663375a7cba6040518163ffffffff1660e01b8152600401600060405180830381865afa1580156100f2573d6000803e3d6000fd5b505050506040513d6000823e601f3d908101601f1916820160405261011a91908101906114c2565b90506000846001600160401b0381111561013657610136611443565b60405190808252806020026020018201604052801561016f57816020015b61015c610fee565b8152602001906001900390816101545790505b509050815160000361018457915061022d9050565b6000600183516101949190611589565b90506000868451116101a75760006101b4565b8684516101b49190611589565b90506000825b828110610224576101e4888783815181106101d7576101d761159c565b6020026020010151610395565b85836101ef816115b2565b9450815181106102015761020161159c565b60209081029190910101528015610224578061021c816115cb565b9150506101ba565b50929450505050505b92915050565b604051633fc6a14f60e11b8152600481018390526000906001600160a01b03831690637f8d429e90602401602060405180830381865afa15801561027b573d6000803e3d6000fd5b505050506040513d601f19601f8201168201806040525081019061029f91906115f2565b801561030f5750604051630361db3d60e11b8152600481018490526001600160a01b038316906306c3b67a90602401602060405180830381865afa1580156102eb573d6000803e3d6000fd5b505050506040513d601f19601f8201168201806040525081019061030f91906115f2565b1561038e5760405163c081d8a360e01b8152600481018490526000906001600160a01b0384169063c081d8a390602401602060405180830381865afa15801561035c573d6000803e3d6000fd5b505050506040513d601f19601f82011682018060405250810190610380919061160d565b9050801561038c578093505b505b5090919050565b61039d610fee565b60008290506000816001600160a01b0316632ddc7de76040518163ffffffff1660e01b8152600401602060405180830381865afa1580156103e2573d6000803e3d6000fd5b505050506040513d601f19601f82011682018060405250810190610406919061160d565b90506000856001600160a01b0316635bd9e2996040518163ffffffff1660e01b8152600401602060405180830381865afa158015610448573d6000803e3d6000fd5b505050506040513d601f19601f8201168201806040525081019061046c9190611626565b604051636a16e06160e11b8152600481018490529091506000906001600160a01b0383169063d42dc0c290602401602060405180830381865afa1580156104b7573d6000803e3d6000fd5b505050506040513d601f19601f820116820180604052508101906104db919061160d565b90506000816001600160401b038111156104f7576104f7611443565b60405190808252806020026020018201604052801561052a57816020015b60608152602001906001900390816105155790505b5090506000826001600160401b0381111561054757610547611443565b604051908082528060200260200182016040528015610570578160200160208202803683370190505b5090506000805b848110156109375761058a600186611589565b81146106025760405163eed2a14760e01b8152600481018290526001600160a01b0389169063eed2a14790602401600060405180830381865afa1580156105d5573d6000803e3d6000fd5b505050506040513d6000823e601f3d908101601f191682016040526105fd9190810190611643565b61062a565b6040518060400160405280600e81526020016d125b9d985b1a59081c995cdd5b1d60921b8152505b84828151811061063c5761063c61159c565b60200260200101819052508a6001600160a01b031663613713256040518163ffffffff1660e01b8152600401602060405180830381865afa158015610685573d6000803e3d6000fd5b505050506040513d601f19601f820116820180604052508101906106a99190611626565b6001600160a01b0316634f64b2be876001600160a01b03166339dd75308e6001600160a01b031663b2016bd46040518163ffffffff1660e01b8152600401602060405180830381865afa158015610704573d6000803e3d6000fd5b505050506040513d601f19601f820116820180604052508101906107289190611626565b60405163856296f760e01b815260006004820152602481018d90526001871b60448201526001600160a01b038c169063856296f790606401602060405180830381865afa15801561077d573d6000803e3d6000fd5b505050506040513d601f19601f820116820180604052508101906107a1919061160d565b6040516001600160e01b031960e085901b1681526001600160a01b0390921660048301526024820152604401602060405180830381865afa1580156107ea573d6000803e3d6000fd5b505050506040513d601f19601f8201168201806040525081019061080e919061160d565b6040518263ffffffff1660e01b815260040161082c91815260200190565b602060405180830381865afa158015610849573d6000803e3d6000fd5b505050506040513d601f19601f8201168201806040525081019061086d9190611626565b83828151811061087f5761087f61159c565b60200260200101906001600160a01b031690816001600160a01b03168152505080600003610925578281815181106108b9576108b961159c565b60200260200101516001600160a01b03166318160ddd6040518163ffffffff1660e01b8152600401602060405180830381865afa1580156108fe573d6000803e3d6000fd5b505050506040513d601f19601f82011682018060405250810190610922919061160d565b91505b8061092f816115b2565b915050610577565b506000876001600160a01b031663c2e112d26040518163ffffffff1660e01b8152600401602060405180830381865afa158015610978573d6000803e3d6000fd5b505050506040513d601f19601f8201168201806040525081019061099c919061160d565b6001600160401b038111156109b3576109b3611443565b604051908082528060200260200182016040528015610a3a57816020015b604080516101608101825260008082526020808301829052928201819052606082018190526080820181905260a0820181905260c0820181905260e082018190526101008201819052610120820181905261014082015282526000199092019101816109d15790505b509050600081516001600160401b03811115610a5857610a58611443565b604051908082528060200260200182016040528015610a8b57816020015b6060815260200190600190039081610a765790505b509050600082516001600160401b03811115610aa957610aa9611443565b604051908082528060200260200182016040528015610ad2578160200160208202803683370190505b50905060008d6001600160a01b031663bc8802a26040518163ffffffff1660e01b8152600401602060405180830381865afa158015610b15573d6000803e3d6000fd5b505050506040513d601f19601f82011682018060405250810190610b399190611626565b905060005b8451811015610d1b5760405163255d109d60e21b815260048101829052610bba906001600160a01b038e1690639574427490602401602060405180830381865afa158015610b90573d6000803e3d6000fd5b505050506040513d601f19601f82011682018060405250810190610bb4919061160d565b83610233565b838281518110610bcc57610bcc61159c565b602002602001018181525050816001600160a01b03166395addb90848381518110610bf957610bf961159c565b60200260200101516040518263ffffffff1660e01b8152600401610c1f91815260200190565b61016060405180830381865afa158015610c3d573d6000803e3d6000fd5b505050506040513d601f19601f82011682018060405250810190610c6191906116ea565b858281518110610c7357610c7361159c565b602090810291909101015260405163149281dd60e11b8152600481018290526001600160a01b038d169063292503ba90602401600060405180830381865afa158015610cc3573d6000803e3d6000fd5b505050506040513d6000823e601f3d908101601f19168201604052610ceb9190810190611643565b848281518110610cfd57610cfd61159c565b60200260200101819052508080610d13906115b2565b915050610b3e565b5050604051806101c001604052808d6001600160a01b031681526020018b6001600160a01b031663e6bfd26a6040518163ffffffff1660e01b8152600401600060405180830381865afa158015610d76573d6000803e3d6000fd5b505050506040513d6000823e601f3d908101601f19168201604052610d9e9190810190611643565b81526020018781526020018681526020018581526020018b6001600160a01b031663a384d6ff6040518163ffffffff1660e01b8152600401602060405180830381865afa158015610df3573d6000803e3d6000fd5b505050506040513d601f19601f82011682018060405250810190610e17919061160d565b81526020018b6001600160a01b031663b09ad8a06040518163ffffffff1660e01b8152600401602060405180830381865afa158015610e5a573d6000803e3d6000fd5b505050506040513d601f19601f82011682018060405250810190610e7e919061160d565b81526020018a81526020018b6001600160a01b031663b06a5c526040518163ffffffff1660e01b8152600401602060405180830381865afa158015610ec7573d6000803e3d6000fd5b505050506040513d601f19601f82011682018060405250810190610eeb919061160d565b81526020018b6001600160a01b0316637aa77f296040518163ffffffff1660e01b8152600401602060405180830381865afa158015610f2e573d6000803e3d6000fd5b505050506040513d601f19601f82011682018060405250810190610f52919061160d565b815260200184815260200182815260200183815260200160008a6001600160a01b031663dd34de678d6040518263ffffffff1660e01b8152600401610f9991815260200190565b602060405180830381865afa158015610fb6573d6000803e3d6000fd5b505050506040513d601f19601f82011682018060405250810190610fda919061160d565b1190529d9c50505050505050505050505050565b604051806101c0016040528060006001600160a01b031681526020016060815260200160608152602001606081526020016000815260200160008152602001600081526020016000801916815260200160008019168152602001600081526020016060815260200160608152602001606081526020016000151581525090565b6001600160a01b038116811461108357600080fd5b50565b6000806040838503121561109957600080fd5b8235915060208301356110ab8161106e565b809150509250929050565b60005b838110156110d15781810151838201526020016110b9565b50506000910152565b600081518084526110f28160208601602086016110b6565b601f01601f19169290920160200192915050565b600082825180855260208086019550808260051b84010181860160005b8481101561115157601f1986840301895261113f8383516110da565b98840198925090830190600101611123565b5090979650505050505050565b600081518084526020808501945080840160005b838110156111975781516001600160a01b031687529582019590820190600101611172565b509495945050505050565b600081518084526020808501945080840160005b8381101561119757815180518852838101516001600160a01b03168489015260408082015163ffffffff908116918a01919091526060808301518216908a01526080808301519091169089015260a08082015115159089015260c0808201519089015260e0808201519089015261010080820151908901526101208082015190890152610140908101519088015261016090960195908201906001016111b6565b600081518084526020808501945080840160005b838110156111975781518752958201959082019060010161126b565b80516001600160a01b0316825260006101c060208301518160208601526112b0828601826110da565b915050604083015184820360408601526112ca8282611106565b915050606083015184820360608601526112e4828261115e565b9150506080830151608085015260a083015160a085015260c083015160c085015260e083015160e0850152610100808401518186015250610120808401518186015250610140808401518583038287015261133f83826111a2565b92505050610160808401518583038287015261135b8382611257565b9250505061018080840151858303828701526113778382611106565b925050506101a08084015161138f8287018215159052565b5090949350505050565b6000602080830181845280855180835260408601915060408160051b870101925083870160005b828110156113ee57603f198886030184526113dc858351611287565b945092850192908501906001016113c0565b5092979650505050505050565b6000806040838503121561140e57600080fd5b82356114198161106e565b915060208301356110ab8161106e565b60208152600061143c6020830184611287565b9392505050565b634e487b7160e01b600052604160045260246000fd5b60405161016081016001600160401b038111828210171561147c5761147c611443565b60405290565b604051601f8201601f191681016001600160401b03811182821017156114aa576114aa611443565b604052919050565b80516114bd8161106e565b919050565b600060208083850312156114d557600080fd5b82516001600160401b03808211156114ec57600080fd5b818501915085601f83011261150057600080fd5b81518181111561151257611512611443565b8060051b9150611523848301611482565b818152918301840191848101908884111561153d57600080fd5b938501935b8385101561156757845192506115578361106e565b8282529385019390850190611542565b98975050505050505050565b634e487b7160e01b600052601160045260246000fd5b8181038181111561022d5761022d611573565b634e487b7160e01b600052603260045260246000fd5b6000600182016115c4576115c4611573565b5060010190565b6000816115da576115da611573565b506000190190565b805180151581146114bd57600080fd5b60006020828403121561160457600080fd5b61143c826115e2565b60006020828403121561161f57600080fd5b5051919050565b60006020828403121561163857600080fd5b815161143c8161106e565b60006020828403121561165557600080fd5b81516001600160401b038082111561166c57600080fd5b818401915084601f83011261168057600080fd5b81518181111561169257611692611443565b6116a5601f8201601f1916602001611482565b91508082528560208285010111156116bc57600080fd5b6116cd8160208401602086016110b6565b50949350505050565b805163ffffffff811681146114bd57600080fd5b600061016082840312156116fd57600080fd5b611705611459565b82518152611715602084016114b2565b6020820152611726604084016116d6565b6040820152611737606084016116d6565b6060820152611748608084016116d6565b608082015261175960a084016115e2565b60a082015260c0838101519082015260e080840151908201526101008084015190820152610120808401519082015261014092830151928101929092525091905056fea26469706673582212204cb5709121eee42b8bcffd5655551d0f441db3ebc422291a8f4e2bef50b3855f64736f6c63430008140033",
  "devdoc": {
    "kind": "dev",
    "methods": {},
    "version": 1
  },
  "userdoc": {
    "kind": "user",
    "methods": {},
    "version": 1
  },
  "storageLayout": {
    "storage": [],
    "types": null
  }
}