{
  "address": "0x60Eb95536F44C696d115D943aB98C26CBfC110BF",
  "abi": [
    {
      "inputs": [],
      "name": "conditionId",
      "outputs": [
        {
          "internalType": "bytes32",
          "name": "",
          "type": "bytes32"
        }
      ],
      "stateMutability": "view",
      "type": "function"
    },
    {
      "inputs": [],
      "name": "conditionalTokensParams",
      "outputs": [
        {
          "internalType": "bytes32",
          "name": "conditionId",
          "type": "bytes32"
        },
        {
          "internalType": "bytes32",
          "name": "parentCollectionId",
          "type": "bytes32"
        },
        {
          "internalType": "uint256",
          "name": "parentOutcome",
          "type": "uint256"
        },
        {
          "internalType": "address",
          "name": "parentMarket",
          "type": "address"
        },
        {
          "internalType": "bytes32",
          "name": "questionId",
          "type": "bytes32"
        }
      ],
      "stateMutability": "view",
      "type": "function"
    },
    {
      "inputs": [
        {
          "internalType": "uint256",
          "name": "index",
          "type": "uint256"
        }
      ],
      "name": "encodedQuestions",
      "outputs": [
        {
          "internalType": "string",
          "name": "",
          "type": "string"
        }
      ],
      "stateMutability": "view",
      "type": "function"
    },
    {
      "inputs": [
        {
          "internalType": "string",
          "name": "_marketName",
          "type": "string"
        },
        {
          "internalType": "string[]",
          "name": "_outcomes",
          "type": "string[]"
        },
        {
          "internalType": "uint256",
          "name": "_lowerBound",
          "type": "uint256"
        },
        {
          "internalType": "uint256",
          "name": "_upperBound",
          "type": "uint256"
        },
        {
          "components": [
            {
              "internalType": "bytes32",
              "name": "conditionId",
              "type": "bytes32"
            },
            {
              "internalType": "bytes32",
              "name": "parentCollectionId",
              "type": "bytes32"
            },
            {
              "internalType": "uint256",
              "name": "parentOutcome",
              "type": "uint256"
            },
            {
              "internalType": "address",
              "name": "parentMarket",
              "type": "address"
            },
            {
              "internalType": "bytes32",
              "name": "questionId",
              "type": "bytes32"
            }
          ],
          "internalType": "struct Market.ConditionalTokensParams",
          "name": "_conditionalTokensParams",
          "type": "tuple"
        },
        {
          "components": [
            {
              "internalType": "bytes32[]",
              "name": "questionsIds",
              "type": "bytes32[]"
            },
            {
              "internalType": "uint256",
              "name": "templateId",
              "type": "uint256"
            },
            {
              "internalType": "string[]",
              "name": "encodedQuestions",
              "type": "string[]"
            }
          ],
          "internalType": "struct Market.RealityParams",
          "name": "_realityParams",
          "type": "tuple"
        },
        {
          "internalType": "contract RealityProxy",
          "name": "_realityProxy",
          "type": "address"
        }
      ],
      "name": "initialize",
      "outputs": [],
      "stateMutability": "nonpayable",
      "type": "function"
    },
    {
      "inputs": [],
      "name": "initialized",
      "outputs": [
        {
          "internalType": "bool",
          "name": "",
          "type": "bool"
        }
      ],
      "stateMutability": "view",
      "type": "function"
    },
    {
      "inputs": [],
      "name": "lowerBound",
      "outputs": [
        {
          "internalType": "uint256",
          "name": "",
          "type": "uint256"
        }
      ],
      "stateMutability": "view",
      "type": "function"
    },
    {
      "inputs": [],
      "name": "marketName",
      "outputs": [
        {
          "internalType": "string",
          "name": "",
          "type": "string"
        }
      ],
      "stateMutability": "view",
      "type": "function"
    },
    {
      "inputs": [],
      "name": "numOutcomes",
      "outputs": [
        {
          "internalType": "uint256",
          "name": "",
          "type": "uint256"
        }
      ],
      "stateMutability": "view",
      "type": "function"
    },
    {
      "inputs": [
        {
          "internalType": "uint256",
          "name": "",
          "type": "uint256"
        }
      ],
      "name": "outcomes",
      "outputs": [
        {
          "internalType": "string",
          "name": "",
          "type": "string"
        }
      ],
      "stateMutability": "view",
      "type": "function"
    },
    {
      "inputs": [],
      "name": "parentCollectionId",
      "outputs": [
        {
          "internalType": "bytes32",
          "name": "",
          "type": "bytes32"
        }
      ],
      "stateMutability": "view",
      "type": "function"
    },
    {
      "inputs": [],
      "name": "parentMarket",
      "outputs": [
        {
          "internalType": "address",
          "name": "",
          "type": "address"
        }
      ],
      "stateMutability": "view",
      "type": "function"
    },
    {
      "inputs": [],
      "name": "parentOutcome",
      "outputs": [
        {
          "internalType": "uint256",
          "name": "",
          "type": "uint256"
        }
      ],
      "stateMutability": "view",
      "type": "function"
    },
    {
      "inputs": [],
      "name": "questionId",
      "outputs": [
        {
          "internalType": "bytes32",
          "name": "",
          "type": "bytes32"
        }
      ],
      "stateMutability": "view",
      "type": "function"
    },
    {
      "inputs": [],
      "name": "questionsIds",
      "outputs": [
        {
          "internalType": "bytes32[]",
          "name": "",
          "type": "bytes32[]"
        }
      ],
      "stateMutability": "view",
      "type": "function"
    },
    {
      "inputs": [],
      "name": "realityParams",
      "outputs": [
        {
          "internalType": "uint256",
          "name": "templateId",
          "type": "uint256"
        }
      ],
      "stateMutability": "view",
      "type": "function"
    },
    {
      "inputs": [],
      "name": "realityProxy",
      "outputs": [
        {
          "internalType": "contract RealityProxy",
          "name": "",
          "type": "address"
        }
      ],
      "stateMutability": "view",
      "type": "function"
    },
    {
      "inputs": [],
      "name": "resolve",
      "outputs": [],
      "stateMutability": "nonpayable",
      "type": "function"
    },
    {
      "inputs": [],
      "name": "templateId",
      "outputs": [
        {
          "internalType": "uint256",
          "name": "",
          "type": "uint256"
        }
      ],
      "stateMutability": "view",
      "type": "function"
    },
    {
      "inputs": [],
      "name": "upperBound",
      "outputs": [
        {
          "internalType": "uint256",
          "name": "",
          "type": "uint256"
        }
      ],
      "stateMutability": "view",
      "type": "function"
    }
  ],
  "transactionHash": "0xa44a1fec597fe9ed155b27d653d7cf6f1d7fe0c1fa4104adb26e2437bfe3dfc9",
  "args": [],
  "numDeployments": 9,
  "solcInputHash": "440a7c4ac3123f438be7250247b7957b",
  "bytecode": "0x608060405234801561001057600080fd5b50610cdc806100206000396000f3fe608060405234801561001057600080fd5b50600436106101115760003560e01c8063455d885e116100ad578063b09ad8a011610071578063b09ad8a014610202578063d03ecc641461020b578063da2da66f1461021c578063e6bfd26a14610270578063eed2a1471461027857600080fd5b8063455d885e146101cc5780637aa77f29146101e15780638767d64e146101e9578063a384d6ff146101f1578063b06a5c52146101fa57600080fd5b80630d0e932b14610116578063158ef93e1461012d5780632810e1d61461014a578063292503ba146101545780632ddc7de7146101745780632ff8d5041461017c578063369b4f52146101a75780633eaac0b8146101b157806344bea37e146101c4575b600080fd5b6007545b6040519081526020015b60405180910390f35b60005461013a9060ff1681565b6040519015158152602001610124565b61015261028b565b005b6101676101623660046106ec565b6102ea565b6040516101249190610705565b60055461011a565b600d5461018f906001600160a01b031681565b6040516001600160a01b039091168152602001610124565b600b5461011a9081565b6101526101bf3660046109f6565b61039c565b60065461011a565b6101d46104cc565b6040516101249190610b04565b600b5461011a565b60025461011a565b61011a60035481565b60095461011a565b61011a60045481565b6008546001600160a01b031661018f565b60055460065460075460085460095461023f949392916001600160a01b03169085565b604080519586526020860194909452928401919091526001600160a01b03166060830152608082015260a001610124565b610167610527565b6101676102863660046106ec565b6105b5565b600d546040516355ea6c4760e01b81523060048201526001600160a01b03909116906355ea6c4790602401600060405180830381600087803b1580156102d057600080fd5b505af11580156102e4573d6000803e3d6000fd5b50505050565b6060600a600201828154811061030257610302610b48565b90600052602060002001805461031790610b5e565b80601f016020809104026020016040519081016040528092919081815260200182805461034390610b5e565b80156103905780601f1061036557610100808354040283529160200191610390565b820191906000526020600020905b81548152906001019060200180831161037357829003601f168201915b50505050509050919050565b60005460ff16156103ea5760405162461bcd60e51b815260206004820152601460248201527320b63932b0b23c9034b734ba34b0b634bd32b21760611b604482015260640160405180910390fd5b60016103f68882610be7565b50855161040a9060029060208901906105e0565b5060038590556004849055825160055560208084015160065560408401516007556060840151600880546001600160a01b0319166001600160a01b039092169190911790556080840151600955825180518492600a926104709284929190910190610636565b5060208281015160018301556040830151805161049392600285019201906105e0565b5050600d80546001600160a01b0319166001600160a01b03939093169290921790915550506000805460ff191660011790555050505050565b6060600a60000180548060200260200160405190810160405280929190818152602001828054801561051d57602002820191906000526020600020905b815481526020019060010190808311610509575b5050505050905090565b6001805461053490610b5e565b80601f016020809104026020016040519081016040528092919081815260200182805461056090610b5e565b80156105ad5780601f10610582576101008083540402835291602001916105ad565b820191906000526020600020905b81548152906001019060200180831161059057829003601f168201915b505050505081565b600281815481106105c557600080fd5b90600052602060002001600091509050805461053490610b5e565b828054828255906000526020600020908101928215610626579160200282015b8281111561062657825182906106169082610be7565b5091602001919060010190610600565b5061063292915061067d565b5090565b828054828255906000526020600020908101928215610671579160200282015b82811115610671578251825591602001919060010190610656565b5061063292915061069a565b8082111561063257600061069182826106af565b5060010161067d565b5b80821115610632576000815560010161069b565b5080546106bb90610b5e565b6000825580601f106106cb575050565b601f0160209004906000526020600020908101906106e9919061069a565b50565b6000602082840312156106fe57600080fd5b5035919050565b600060208083528351808285015260005b8181101561073257858101830151858201604001528201610716565b506000604082860101526040601f19601f8301168501019250505092915050565b634e487b7160e01b600052604160045260246000fd5b604051606081016001600160401b038111828210171561078b5761078b610753565b60405290565b60405160a081016001600160401b038111828210171561078b5761078b610753565b604051601f8201601f191681016001600160401b03811182821017156107db576107db610753565b604052919050565b600082601f8301126107f457600080fd5b81356001600160401b0381111561080d5761080d610753565b610820601f8201601f19166020016107b3565b81815284602083860101111561083557600080fd5b816020850160208301376000918101602001919091529392505050565b60006001600160401b0382111561086b5761086b610753565b5060051b60200190565b600082601f83011261088657600080fd5b8135602061089b61089683610852565b6107b3565b82815260059290921b840181019181810190868411156108ba57600080fd5b8286015b848110156108f95780356001600160401b038111156108dd5760008081fd5b6108eb8986838b01016107e3565b8452509183019183016108be565b509695505050505050565b6001600160a01b03811681146106e957600080fd5b60006060828403121561092b57600080fd5b610933610769565b905081356001600160401b038082111561094c57600080fd5b818401915084601f83011261096057600080fd5b8135602061097061089683610852565b82815260059290921b8401810191818101908884111561098f57600080fd5b948201945b838610156109ad57853582529482019490820190610994565b86525085810135908501525060408401359150808211156109cd57600080fd5b506109da84828501610875565b60408301525092915050565b80356109f181610904565b919050565b6000806000806000806000878903610160811215610a1357600080fd5b88356001600160401b0380821115610a2a57600080fd5b610a368c838d016107e3565b995060208b0135915080821115610a4c57600080fd5b610a588c838d01610875565b985060408b0135975060608b0135965060a0607f1984011215610a7a57600080fd5b610a82610791565b925060808b0135835260a08b0135602084015260c08b0135604084015260e08b01359150610aaf82610904565b8160608401526101008b013560808401528295506101208b0135925080831115610ad857600080fd5b5050610ae68a828b01610919565b925050610af661014089016109e6565b905092959891949750929550565b6020808252825182820181905260009190848201906040850190845b81811015610b3c57835183529284019291840191600101610b20565b50909695505050505050565b634e487b7160e01b600052603260045260246000fd5b600181811c90821680610b7257607f821691505b602082108103610b9257634e487b7160e01b600052602260045260246000fd5b50919050565b601f821115610be257600081815260208120601f850160051c81016020861015610bbf5750805b601f850160051c820191505b81811015610bde57828155600101610bcb565b5050505b505050565b81516001600160401b03811115610c0057610c00610753565b610c1481610c0e8454610b5e565b84610b98565b602080601f831160018114610c495760008415610c315750858301515b600019600386901b1c1916600185901b178555610bde565b600085815260208120601f198616915b82811015610c7857888601518255948401946001909101908401610c59565b5085821015610c965787850151600019600388901b60f8161c191681555b5050505050600190811b0190555056fea2646970667358221220836fd6d260bb96df378abf486c36acba4b7dcd39b76938c1d9e8d4bcaf0510e164736f6c63430008140033",
  "devdoc": {
    "kind": "dev",
    "methods": {
      "conditionId()": {
        "details": "Conditional Tokens conditionId"
      },
      "encodedQuestions(uint256)": {
        "details": "Encoded questions parameters, needed to create and reopen a question"
      },
      "initialize(string,string[],uint256,uint256,(bytes32,bytes32,uint256,address,bytes32),(bytes32[],uint256,string[]),address)": {
        "details": "Initializer",
        "params": {
          "_conditionalTokensParams": "Conditional Tokens params",
          "_lowerBound": "Lower bound, only used for scalar markets",
          "_marketName": "The name of the market",
          "_outcomes": "The market outcomes, doesn't include the INVALID_RESULT outcome",
          "_realityParams": "Reality params",
          "_realityProxy": "Oracle contract",
          "_upperBound": "Upper bound, only user for scalar markets"
        }
      },
      "numOutcomes()": {
        "details": "Returns the number of outcomes. Doesn't include the INVALID_RESULT outcome.",
        "returns": {
          "_0": "numOutcomes The number of outcomes"
        }
      },
      "parentCollectionId()": {
        "details": "Conditional Tokens parentCollectionId"
      },
      "parentMarket()": {
        "details": "The parent market (optional). This market redeems to an outcome token of the parent market."
      },
      "parentOutcome()": {
        "details": "The parent outcome (optional). The parent market's outcome token this market redeems for."
      },
      "questionId()": {
        "details": "Conditional Tokens questionId"
      },
      "questionsIds()": {
        "details": "Returns the Reality questions ids. Multi Scalar markets have one question for each outcome, while any other market has only one question."
      },
      "resolve()": {
        "details": "Helper function to resolve the market"
      },
      "templateId()": {
        "details": "The templateId associated to the Reality question"
      }
    },
    "version": 1
  },
  "userdoc": {
    "kind": "user",
    "methods": {},
    "version": 1
  },
  "storageLayout": {
    "storage": [
      {
        "astId": 338,
        "contract": "src/Market.sol:Market",
        "label": "initialized",
        "offset": 0,
        "slot": "0",
        "type": "t_bool"
      },
      {
        "astId": 360,
        "contract": "src/Market.sol:Market",
        "label": "marketName",
        "offset": 0,
        "slot": "1",
        "type": "t_string_storage"
      },
      {
        "astId": 363,
        "contract": "src/Market.sol:Market",
        "label": "outcomes",
        "offset": 0,
        "slot": "2",
        "type": "t_array(t_string_storage)dyn_storage"
      },
      {
        "astId": 365,
        "contract": "src/Market.sol:Market",
        "label": "lowerBound",
        "offset": 0,
        "slot": "3",
        "type": "t_uint256"
      },
      {
        "astId": 367,
        "contract": "src/Market.sol:Market",
        "label": "upperBound",
        "offset": 0,
        "slot": "4",
        "type": "t_uint256"
      },
      {
        "astId": 370,
        "contract": "src/Market.sol:Market",
        "label": "conditionalTokensParams",
        "offset": 0,
        "slot": "5",
        "type": "t_struct(ConditionalTokensParams)358_storage"
      },
      {
        "astId": 373,
        "contract": "src/Market.sol:Market",
        "label": "realityParams",
        "offset": 0,
        "slot": "10",
        "type": "t_struct(RealityParams)347_storage"
      },
      {
        "astId": 376,
        "contract": "src/Market.sol:Market",
        "label": "realityProxy",
        "offset": 0,
        "slot": "13",
        "type": "t_contract(RealityProxy)2772"
      }
    ],
    "types": {
      "t_address": {
        "encoding": "inplace",
        "label": "address",
        "numberOfBytes": "20"
      },
      "t_array(t_bytes32)dyn_storage": {
        "base": "t_bytes32",
        "encoding": "dynamic_array",
        "label": "bytes32[]",
        "numberOfBytes": "32"
      },
      "t_array(t_string_storage)dyn_storage": {
        "base": "t_string_storage",
        "encoding": "dynamic_array",
        "label": "string[]",
        "numberOfBytes": "32"
      },
      "t_bool": {
        "encoding": "inplace",
        "label": "bool",
        "numberOfBytes": "1"
      },
      "t_bytes32": {
        "encoding": "inplace",
        "label": "bytes32",
        "numberOfBytes": "32"
      },
      "t_contract(RealityProxy)2772": {
        "encoding": "inplace",
        "label": "contract RealityProxy",
        "numberOfBytes": "20"
      },
      "t_string_storage": {
        "encoding": "bytes",
        "label": "string",
        "numberOfBytes": "32"
      },
      "t_struct(ConditionalTokensParams)358_storage": {
        "encoding": "inplace",
        "label": "struct Market.ConditionalTokensParams",
        "members": [
          {
            "astId": 349,
            "contract": "src/Market.sol:Market",
            "label": "conditionId",
            "offset": 0,
            "slot": "0",
            "type": "t_bytes32"
          },
          {
            "astId": 351,
            "contract": "src/Market.sol:Market",
            "label": "parentCollectionId",
            "offset": 0,
            "slot": "1",
            "type": "t_bytes32"
          },
          {
            "astId": 353,
            "contract": "src/Market.sol:Market",
            "label": "parentOutcome",
            "offset": 0,
            "slot": "2",
            "type": "t_uint256"
          },
          {
            "astId": 355,
            "contract": "src/Market.sol:Market",
            "label": "parentMarket",
            "offset": 0,
            "slot": "3",
            "type": "t_address"
          },
          {
            "astId": 357,
            "contract": "src/Market.sol:Market",
            "label": "questionId",
            "offset": 0,
            "slot": "4",
            "type": "t_bytes32"
          }
        ],
        "numberOfBytes": "160"
      },
      "t_struct(RealityParams)347_storage": {
        "encoding": "inplace",
        "label": "struct Market.RealityParams",
        "members": [
          {
            "astId": 341,
            "contract": "src/Market.sol:Market",
            "label": "questionsIds",
            "offset": 0,
            "slot": "0",
            "type": "t_array(t_bytes32)dyn_storage"
          },
          {
            "astId": 343,
            "contract": "src/Market.sol:Market",
            "label": "templateId",
            "offset": 0,
            "slot": "1",
            "type": "t_uint256"
          },
          {
            "astId": 346,
            "contract": "src/Market.sol:Market",
            "label": "encodedQuestions",
            "offset": 0,
            "slot": "2",
            "type": "t_array(t_string_storage)dyn_storage"
          }
        ],
        "numberOfBytes": "96"
      },
      "t_uint256": {
        "encoding": "inplace",
        "label": "uint256",
        "numberOfBytes": "32"
      }
    }
  }
}