{
  "address": "0xd248807AEF8915AC44d10b122Df57A5bcc02d415",
  "abi": [
    {
      "inputs": [
        {
          "internalType": "address",
          "name": "_market",
          "type": "address"
        },
        {
          "internalType": "address",
          "name": "_arbitrator",
          "type": "address"
        },
        {
          "internalType": "contract IRealityETH_v3_0",
          "name": "_realitio",
          "type": "address"
        },
        {
          "internalType": "contract WrappedERC20Factory",
          "name": "_wrappedERC20Factory",
          "type": "address"
        },
        {
          "internalType": "contract IConditionalTokens",
          "name": "_conditionalTokens",
          "type": "address"
        },
        {
          "internalType": "address",
          "name": "_collateralToken",
          "type": "address"
        },
        {
          "internalType": "contract RealityProxy",
          "name": "_realityProxy",
          "type": "address"
        },
        {
          "internalType": "address",
          "name": "_governor",
          "type": "address"
        },
        {
          "internalType": "uint32",
          "name": "_questionTimeout",
          "type": "uint32"
        }
      ],
      "stateMutability": "nonpayable",
      "type": "constructor"
    },
    {
      "inputs": [],
      "name": "ERC1167FailedCreateClone",
      "type": "error"
    },
    {
      "anonymous": false,
      "inputs": [
        {
          "indexed": true,
          "internalType": "address",
          "name": "market",
          "type": "address"
        },
        {
          "indexed": false,
          "internalType": "string",
          "name": "marketName",
          "type": "string"
        },
        {
          "indexed": false,
          "internalType": "string[]",
          "name": "outcomes",
          "type": "string[]"
        },
        {
          "indexed": false,
          "internalType": "uint256",
          "name": "lowerBound",
          "type": "uint256"
        },
        {
          "indexed": false,
          "internalType": "uint256",
          "name": "upperBound",
          "type": "uint256"
        },
        {
          "indexed": false,
          "internalType": "bytes32",
          "name": "conditionId",
          "type": "bytes32"
        },
        {
          "indexed": false,
          "internalType": "bytes32",
          "name": "questionId",
          "type": "bytes32"
        },
        {
          "indexed": false,
          "internalType": "bytes32[]",
          "name": "questionsIds",
          "type": "bytes32[]"
        },
        {
          "indexed": false,
          "internalType": "uint256",
          "name": "templateId",
          "type": "uint256"
        },
        {
          "indexed": false,
          "internalType": "string[]",
          "name": "encodedQuestions",
          "type": "string[]"
        }
      ],
      "name": "NewMarket",
      "type": "event"
    },
    {
      "inputs": [],
      "name": "allMarkets",
      "outputs": [
        {
          "internalType": "address[]",
          "name": "",
          "type": "address[]"
        }
      ],
      "stateMutability": "view",
      "type": "function"
    },
    {
      "inputs": [],
      "name": "arbitrator",
      "outputs": [
        {
          "internalType": "address",
          "name": "",
          "type": "address"
        }
      ],
      "stateMutability": "view",
      "type": "function"
    },
    {
      "inputs": [
        {
          "internalType": "address",
          "name": "_governor",
          "type": "address"
        }
      ],
      "name": "changeGovernor",
      "outputs": [],
      "stateMutability": "nonpayable",
      "type": "function"
    },
    {
      "inputs": [
        {
          "internalType": "address",
          "name": "_market",
          "type": "address"
        }
      ],
      "name": "changeMarket",
      "outputs": [],
      "stateMutability": "nonpayable",
      "type": "function"
    },
    {
      "inputs": [
        {
          "internalType": "uint32",
          "name": "_questionTimeout",
          "type": "uint32"
        }
      ],
      "name": "changeQuestionTimeout",
      "outputs": [],
      "stateMutability": "nonpayable",
      "type": "function"
    },
    {
      "inputs": [
        {
          "internalType": "contract RealityProxy",
          "name": "_realityProxy",
          "type": "address"
        }
      ],
      "name": "changeRealityProxy",
      "outputs": [],
      "stateMutability": "nonpayable",
      "type": "function"
    },
    {
      "inputs": [],
      "name": "collateralToken",
      "outputs": [
        {
          "internalType": "address",
          "name": "",
          "type": "address"
        }
      ],
      "stateMutability": "view",
      "type": "function"
    },
    {
      "inputs": [],
      "name": "conditionalTokens",
      "outputs": [
        {
          "internalType": "contract IConditionalTokens",
          "name": "",
          "type": "address"
        }
      ],
      "stateMutability": "view",
      "type": "function"
    },
    {
      "inputs": [
        {
          "components": [
            {
              "internalType": "string",
              "name": "marketName",
              "type": "string"
            },
            {
              "internalType": "string[]",
              "name": "outcomes",
              "type": "string[]"
            },
            {
              "internalType": "string",
              "name": "questionStart",
              "type": "string"
            },
            {
              "internalType": "string",
              "name": "questionFinish",
              "type": "string"
            },
            {
              "internalType": "string",
              "name": "category",
              "type": "string"
            },
            {
              "internalType": "string",
              "name": "lang",
              "type": "string"
            },
            {
              "internalType": "uint256",
              "name": "lowerBound",
              "type": "uint256"
            },
            {
              "internalType": "uint256",
              "name": "upperBound",
              "type": "uint256"
            },
            {
              "internalType": "uint256",
              "name": "minBond",
              "type": "uint256"
            },
            {
              "internalType": "uint32",
              "name": "openingTime",
              "type": "uint32"
            },
            {
              "internalType": "string[]",
              "name": "tokenNames",
              "type": "string[]"
            }
          ],
          "internalType": "struct MarketFactory.CreateMarketParams",
          "name": "params",
          "type": "tuple"
        }
      ],
      "name": "createCategoricalMarket",
      "outputs": [
        {
          "internalType": "address",
          "name": "",
          "type": "address"
        }
      ],
      "stateMutability": "nonpayable",
      "type": "function"
    },
    {
      "inputs": [
        {
          "components": [
            {
              "internalType": "string",
              "name": "marketName",
              "type": "string"
            },
            {
              "internalType": "string[]",
              "name": "outcomes",
              "type": "string[]"
            },
            {
              "internalType": "string",
              "name": "questionStart",
              "type": "string"
            },
            {
              "internalType": "string",
              "name": "questionFinish",
              "type": "string"
            },
            {
              "internalType": "string",
              "name": "category",
              "type": "string"
            },
            {
              "internalType": "string",
              "name": "lang",
              "type": "string"
            },
            {
              "internalType": "uint256",
              "name": "lowerBound",
              "type": "uint256"
            },
            {
              "internalType": "uint256",
              "name": "upperBound",
              "type": "uint256"
            },
            {
              "internalType": "uint256",
              "name": "minBond",
              "type": "uint256"
            },
            {
              "internalType": "uint32",
              "name": "openingTime",
              "type": "uint32"
            },
            {
              "internalType": "string[]",
              "name": "tokenNames",
              "type": "string[]"
            }
          ],
          "internalType": "struct MarketFactory.CreateMarketParams",
          "name": "params",
          "type": "tuple"
        }
      ],
      "name": "createMultiCategoricalMarket",
      "outputs": [
        {
          "internalType": "address",
          "name": "",
          "type": "address"
        }
      ],
      "stateMutability": "nonpayable",
      "type": "function"
    },
    {
      "inputs": [
        {
          "components": [
            {
              "internalType": "string",
              "name": "marketName",
              "type": "string"
            },
            {
              "internalType": "string[]",
              "name": "outcomes",
              "type": "string[]"
            },
            {
              "internalType": "string",
              "name": "questionStart",
              "type": "string"
            },
            {
              "internalType": "string",
              "name": "questionFinish",
              "type": "string"
            },
            {
              "internalType": "string",
              "name": "category",
              "type": "string"
            },
            {
              "internalType": "string",
              "name": "lang",
              "type": "string"
            },
            {
              "internalType": "uint256",
              "name": "lowerBound",
              "type": "uint256"
            },
            {
              "internalType": "uint256",
              "name": "upperBound",
              "type": "uint256"
            },
            {
              "internalType": "uint256",
              "name": "minBond",
              "type": "uint256"
            },
            {
              "internalType": "uint32",
              "name": "openingTime",
              "type": "uint32"
            },
            {
              "internalType": "string[]",
              "name": "tokenNames",
              "type": "string[]"
            }
          ],
          "internalType": "struct MarketFactory.CreateMarketParams",
          "name": "params",
          "type": "tuple"
        }
      ],
      "name": "createMultiScalarMarket",
      "outputs": [
        {
          "internalType": "address",
          "name": "",
          "type": "address"
        }
      ],
      "stateMutability": "nonpayable",
      "type": "function"
    },
    {
      "inputs": [
        {
          "components": [
            {
              "internalType": "string",
              "name": "marketName",
              "type": "string"
            },
            {
              "internalType": "string[]",
              "name": "outcomes",
              "type": "string[]"
            },
            {
              "internalType": "string",
              "name": "questionStart",
              "type": "string"
            },
            {
              "internalType": "string",
              "name": "questionFinish",
              "type": "string"
            },
            {
              "internalType": "string",
              "name": "category",
              "type": "string"
            },
            {
              "internalType": "string",
              "name": "lang",
              "type": "string"
            },
            {
              "internalType": "uint256",
              "name": "lowerBound",
              "type": "uint256"
            },
            {
              "internalType": "uint256",
              "name": "upperBound",
              "type": "uint256"
            },
            {
              "internalType": "uint256",
              "name": "minBond",
              "type": "uint256"
            },
            {
              "internalType": "uint32",
              "name": "openingTime",
              "type": "uint32"
            },
            {
              "internalType": "string[]",
              "name": "tokenNames",
              "type": "string[]"
            }
          ],
          "internalType": "struct MarketFactory.CreateMarketParams",
          "name": "params",
          "type": "tuple"
        }
      ],
      "name": "createScalarMarket",
      "outputs": [
        {
          "internalType": "address",
          "name": "",
          "type": "address"
        }
      ],
      "stateMutability": "nonpayable",
      "type": "function"
    },
    {
      "inputs": [],
      "name": "governor",
      "outputs": [
        {
          "internalType": "address",
          "name": "",
          "type": "address"
        }
      ],
      "stateMutability": "view",
      "type": "function"
    },
    {
      "inputs": [],
      "name": "market",
      "outputs": [
        {
          "internalType": "address",
          "name": "",
          "type": "address"
        }
      ],
      "stateMutability": "view",
      "type": "function"
    },
    {
      "inputs": [],
      "name": "marketCount",
      "outputs": [
        {
          "internalType": "uint256",
          "name": "",
          "type": "uint256"
        }
      ],
      "stateMutability": "view",
      "type": "function"
    },
    {
      "inputs": [
        {
          "internalType": "uint256",
          "name": "",
          "type": "uint256"
        }
      ],
      "name": "markets",
      "outputs": [
        {
          "internalType": "address",
          "name": "",
          "type": "address"
        }
      ],
      "stateMutability": "view",
      "type": "function"
    },
    {
      "inputs": [],
      "name": "questionTimeout",
      "outputs": [
        {
          "internalType": "uint32",
          "name": "",
          "type": "uint32"
        }
      ],
      "stateMutability": "view",
      "type": "function"
    },
    {
      "inputs": [],
      "name": "realitio",
      "outputs": [
        {
          "internalType": "contract IRealityETH_v3_0",
          "name": "",
          "type": "address"
        }
      ],
      "stateMutability": "view",
      "type": "function"
    },
    {
      "inputs": [],
      "name": "realityProxy",
      "outputs": [
        {
          "internalType": "contract RealityProxy",
          "name": "",
          "type": "address"
        }
      ],
      "stateMutability": "view",
      "type": "function"
    },
    {
      "inputs": [],
      "name": "wrappedERC20Factory",
      "outputs": [
        {
          "internalType": "contract WrappedERC20Factory",
          "name": "",
          "type": "address"
        }
      ],
      "stateMutability": "view",
      "type": "function"
    }
  ],
  "transactionHash": "0x0183f684fe62c33e270100c82bb028014b4d1372fbe1216e1dabe3bcefbad9d2",
  "args": [
    "0x7EcE7743cc476b4343919B85B2C53AfF50ED3B15",
    "0x29F39dE98D750eb77b5FAfb31B2837f079FcE222",
    "0xE78996A233895bE74a66F451f1019cA9734205cc",
    "0x5bc8ddE5D07C6bf24911240AA6F9B0190ae3b557",
    "0xCeAfDD6bc0bEF976fdCd1112955828E00543c0Ce",
    "0xaf204776c7245bf4147c2612bf6e5972ee483701",
    "0x5BE39c00fB89688E8C38732Fb204B084ca5f8965",
    "0x4edca105188a0783ab3a6f09c50567d1e3f8591d",
    302400
  ],
  "numDeployments": 11,
  "solcInputHash": "0bc3d76ef44e34d8d3f0c4b04ee5af5a",
  "bytecode": "0x6101206040523480156200001257600080fd5b506040516200257a3803806200257a8339810160408190526200003591620000d6565b600380546001600160a01b03199081166001600160a01b039b8c161790915597891660805295881660a05293871660c05291861660e0528516610100526000805460018054909616938716939093179094556001600160c01b0319909116640100000000919094160263ffffffff19169290921763ffffffff909216919091179055620001b5565b6001600160a01b0381168114620000d357600080fd5b50565b60008060008060008060008060006101208a8c031215620000f657600080fd5b89516200010381620000bd565b60208b01519099506200011681620000bd565b60408b01519098506200012981620000bd565b60608b01519097506200013c81620000bd565b60808b01519096506200014f81620000bd565b60a08b01519095506200016281620000bd565b60c08b01519094506200017581620000bd565b60e08b01519093506200018881620000bd565b6101008b015190925063ffffffff81168114620001a457600080fd5b809150509295985092959850929598565b60805160a05160c05160e0516101005161232c6200024e600039600081816102b601526116500152600081816101e201528181611122015281816111b0015281816115c601528181611685015261178d01526000818161021c015261175e0152600081816102dd01528181610f3f01528181610faf015261105101526000818161024301528181610ee50152611082015261232c6000f3fe608060405234801561001057600080fd5b506004361061012c5760003560e01c806380f55605116100ad578063bc8802a211610071578063bc8802a2146102d8578063d2160506146102ff578063e4c0aaf414610312578063e8139cb614610325578063ec9790821461033857600080fd5b806380f5560514610265578063a2d2b2c614610278578063ad3df0da1461028b578063b1283e771461029e578063b2016bd4146102b157600080fd5b8063375a7cba116100f4578063375a7cba146101c85780635bd9e299146101dd5780635c3ef4271461020457806361371325146102175780636cc6cde11461023e57600080fd5b8063023fa716146101315780630c340a241461016157806310af50ac146101745780631ba18b9b146101895780632ff8d504146101ae575b600080fd5b61014461013f3660046118d2565b610349565b6040516001600160a01b0390911681526020015b60405180910390f35b600154610144906001600160a01b031681565b61018761018236600461192c565b610675565b005b6000546101999063ffffffff1681565b60405163ffffffff9091168152602001610158565b60005461014490600160201b90046001600160a01b031681565b6101d06106cc565b6040516101589190611949565b6101447f000000000000000000000000000000000000000000000000000000000000000081565b61018761021236600461192c565b61072e565b6101447f000000000000000000000000000000000000000000000000000000000000000081565b6101447f000000000000000000000000000000000000000000000000000000000000000081565b600354610144906001600160a01b031681565b6101446102863660046118d2565b61077a565b6101446102993660046118d2565b6109f2565b6101446102ac366004611996565b610c25565b6101447f000000000000000000000000000000000000000000000000000000000000000081565b6101447f000000000000000000000000000000000000000000000000000000000000000081565b61018761030d3660046119cc565b610c4f565b61018761032036600461192c565b610c95565b6101446103333660046118d2565b610ce1565b600254604051908152602001610158565b6000600261035a60208401846119e9565b905010156103835760405162461bcd60e51b815260040161037a90611a39565b60405180910390fd5b600061039260208401846119e9565b61039e91506001611a7f565b905060006103af60208501856119e9565b90506001600160401b038111156103c8576103c8611a92565b6040519080825280602002602001820160405280156103f1578160200160208202803683370190505b509050600061040360208601866119e9565b90506001600160401b0381111561041c5761041c611a92565b60405190808252806020026020018201604052801561044f57816020015b606081526020019060019003908161043a5790505b50905060005b61046260208701876119e9565b90508110156105f05761056561047b6040880188611aa8565b61048860208a018a6119e9565b8581811061049857610498611aee565b90506020028101906104aa9190611aa8565b6104b760608c018c611aa8565b6040516020016104cc96959493929190611b04565b60408051601f198184030181529190526104e96080890189611aa8565b8080601f01602080910402602001604051908101604052809392919081815260200183838082843760009201919091525061052b9250505060a08a018a611aa8565b8080601f016020809104026020016040519081016040528093929190818152602001838380828437600092019190915250610e4992505050565b82828151811061057757610577611aee565b60200260200101819052506105c182828151811061059757610597611aee565b602090810291909101015160016105b66101408a016101208b016119cc565b896101000135610ea9565b8382815181106105d3576105d3611aee565b6020908102919091010152806105e881611b42565b915050610455565b506000826040516020016106049190611b96565b60405160208183030381529060405280519060200120905060006106288286611107565b9050600061066961063889611d03565b856040518060a001604052808781526020018981526020018681526020018a8152602001600160ff1681525061123d565b98975050505050505050565b6001546001600160a01b0316331461069f5760405162461bcd60e51b815260040161037a90611e63565b600080546001600160a01b03909216600160201b02640100000000600160c01b0319909216919091179055565b6060600280548060200260200160405190810160405280929190818152602001828054801561072457602002820191906000526020600020905b81546001600160a01b03168152600190910190602001808311610706575b5050505050905090565b6001546001600160a01b031633146107585760405162461bcd60e51b815260040161037a90611e63565b600380546001600160a01b0319166001600160a01b0392909216919091179055565b60008160c001358260e00135116107c45760405162461bcd60e51b815260206004820152600e60248201526d496e76616c696420626f756e647360901b604482015260640161037a565b6107d16002600019611e8b565b8260e00135106108185760405162461bcd60e51b8152602060048201526012602482015271125b9d985b1a59081a1a59da081c1bda5b9d60721b604482015260640161037a565b61082560208301836119e9565b90506002146108465760405162461bcd60e51b815260040161037a90611a39565b60408051600180825281830190925260039160009190816020015b60608152602001906001900390816108615790505090506109096108858580611aa8565b8080601f0160208091040260200160405190810160405280939291908181526020018383808284376000920191909152506108c7925050506080870187611aa8565b8080601f01602080910402602001604051908101604052809392919081815260200183838082843760009201919091525061052b9250505060a0880188611aa8565b8160008151811061091c5761091c611aee565b602002602001018190525060008061096b8360008151811061094057610940611aee565b6020908102919091010151600161095f6101408a016101208b016119cc565b896101000135886113d2565b604080516001808252818301909252929450909250600091906020808301908036833701905050905082816000815181106109a8576109a8611aee565b602090810291909101015260006106696109c189611d03565b866040518060a001604052808881526020018681526020018781526020018a8152602001600160ff1681525061123d565b60006002610a0360208401846119e9565b90501015610a235760405162461bcd60e51b815260040161037a90611a39565b6000610a3260208401846119e9565b610a3e91506001611a7f565b60408051600180825281830190925291925060009190816020015b6060815260200190600190039081610a59579050509050610b48610a7d8580611aa8565b8080601f016020809104026020016040519081016040528093929190818152602001838380828437600092019190915250610abf9250505060208701876119e9565b610acc6080890189611aa8565b8080601f016020809104026020016040519081016040528093929190818152602001838380828437600092019190915250610b0e9250505060a08a018a611aa8565b8080601f0160208091040260200160405190810160405280939291908181526020018383808284376000920191909152506113f992505050565b81600081518110610b5b57610b5b611aee565b6020026020010181905250600080610b9e83600081518110610b7f57610b7f611aee565b6020908102919091010151600261095f6101408a016101208b016119cc565b60408051600180825281830190925292945090925060009190602080830190803683370190505090508281600081518110610bdb57610bdb611aee565b60209081029190910101526000610669610bf489611d03565b866040518060a001604052808881526020018681526020018781526020018a8152602001600260ff1681525061123d565b60028181548110610c3557600080fd5b6000918252602090912001546001600160a01b0316905081565b6001546001600160a01b03163314610c795760405162461bcd60e51b815260040161037a90611e63565b6000805463ffffffff191663ffffffff92909216919091179055565b6001546001600160a01b03163314610cbf5760405162461bcd60e51b815260040161037a90611e63565b600180546001600160a01b0319166001600160a01b0392909216919091179055565b60006002610cf260208401846119e9565b90501015610d125760405162461bcd60e51b815260040161037a90611a39565b6000610d2160208401846119e9565b610d2d91506001611a7f565b60408051600180825281830190925291925060009190816020015b6060815260200190600190039081610d48579050509050610d6c610a7d8580611aa8565b81600081518110610d7f57610d7f611aee565b6020026020010181905250600080610dc283600081518110610da357610da3611aee565b6020908102919091010151600361095f6101408a016101208b016119cc565b60408051600180825281830190925292945090925060009190602080830190803683370190505090508281600081518110610dff57610dff611aee565b60209081029190910101526000610669610e1889611d03565b866040518060a001604052808881526020018681526020018781526020018a8152602001600360ff1681525061123d565b60606000604051602001610e669062e2909f60e81b815260030190565b60405160208183030381529060405290508481858386604051602001610e90959493929190611ec2565b6040516020818303038152906040529150509392505050565b600080848487604051602001610ec193929190611f2d565b60408051601f198184030181528282528051602091820120600080549285018290527f0000000000000000000000000000000000000000000000000000000000000000606090811b6bffffffffffffffffffffffff199081169587019590955260e09390931b6001600160e01b0319166054860152605885018890527f0000000000000000000000000000000000000000000000000000000000000000831b841660788601523090921b909216608c84015260a083018190529092509060c00160408051808303601f19018152908290528051602090910120634f8812e360e11b82526004820181905291507f00000000000000000000000000000000000000000000000000000000000000006001600160a01b031690639f1025c690602401602060405180830381865afa158015610ffe573d6000803e3d6000fd5b505050506040513d601f19601f820116820180604052508101906110229190611f66565b63ffffffff16156110365791506110ff9050565b60008054604051631212e4f160e21b81526001600160a01b037f0000000000000000000000000000000000000000000000000000000000000000169263484b93c4926110b7928b928d927f00000000000000000000000000000000000000000000000000000000000000009263ffffffff909116918d918d90600401611faf565b6020604051808303816000875af11580156110d6573d6000803e3d6000fd5b505050506040513d601f19601f820116820180604052508101906110fa9190611fff565b925050505b949350505050565b6000805460405163365bb9d560e21b81526001600160a01b037f000000000000000000000000000000000000000000000000000000000000000081169263d96ee7549261116692600160201b9092049091169087908790600401612018565b600060405180830381600087803b15801561118057600080fd5b505af1158015611194573d6000803e3d6000fd5b5050600054604051634296357160e11b81526001600160a01b037f00000000000000000000000000000000000000000000000000000000000000008116945063852c6ae293506111f392600160201b9004169087908790600401612018565b602060405180830381865afa158015611210573d6000803e3d6000fd5b505050506040513d601f19601f820116820180604052508101906112349190611fff565b90505b92915050565b6003546000908190611257906001600160a01b0316611511565b905061127183604001518460600151876101400151611583565b806001600160a01b03166312e24aa4866000015187602001518860c001518960e00151886040015189600001518a602001518b608001518d600060049054906101000a90046001600160a01b03166040518b63ffffffff1660e01b81526004016112e49a9998979695949392919061208e565b600060405180830381600087803b1580156112fe57600080fd5b505af1158015611312573d6000803e3d6000fd5b5050865160208089015160c08a015160e08b01516040808b01518b51958c015160808d015192516001600160a01b038c169a507faadcf1e7d57b927db65a77362bc2db82150d8fa843662b079edb722342b08692995061137798979293908f9061211e565b60405180910390a2600280546001810182556000919091527f405787fa12a823e0f2b7631cc41b3ba8828b3321ca811111fa75cd3aa3bb5ace0180546001600160a01b0319166001600160a01b038316179055949350505050565b6000806113e187878787610ea9565b91506113ed8284611107565b90509550959350505050565b606060006040516020016114169062e2909f60e81b815260030190565b604051602081830303815290604052905060008686600081811061143c5761143c611aee565b905060200281019061144e9190611aa8565b60405160200161145f92919061219d565b60408051601f19818403018152919052905060015b868110156114d7578188888381811061148f5761148f611aee565b90506020028101906114a19190611aa8565b6040516020016114b3939291906121c4565b604051602081830303815290604052915080806114cf90611b42565b915050611474565b50878282848886896040516020016114f59796959493929190612203565b6040516020818303038152906040529250505095945050505050565b6000763d602d80600a3d3981f3363d3d373d3d3d363d730000008260601b60e81c176000526e5af43d82803e903d91602b57fd5bf38260781b17602052603760096000f090506001600160a01b03811661157e576040516330be1a3d60e21b815260040160405180910390fd5b919050565b6000611590600184611e8b565b905060005b838110156118cb5760405163856296f760e01b8152600060048201819052602482018790526001831b6044830152907f00000000000000000000000000000000000000000000000000000000000000006001600160a01b03169063856296f790606401602060405180830381865afa158015611615573d6000803e3d6000fd5b505050506040513d601f19601f820116820180604052508101906116399190611fff565b60405163039dd75360e41b81526001600160a01b037f000000000000000000000000000000000000000000000000000000000000000081166004830152602482018390529192506000917f000000000000000000000000000000000000000000000000000000000000000016906339dd753090604401602060405180830381865afa1580156116cc573d6000803e3d6000fd5b505050506040513d601f19601f820116820180604052508101906116f09190611fff565b90508383148061171b575084838151811061170d5761170d611aee565b602002602001015151600014155b61175c5760405162461bcd60e51b81526020600482015260126024820152714d697373696e6720746f6b656e206e616d6560701b604482015260640161037a565b7f00000000000000000000000000000000000000000000000000000000000000006001600160a01b031663bb13cd107f0000000000000000000000000000000000000000000000000000000000000000838787146117d3578887815181106117c6576117c6611aee565b6020026020010151611800565b6040518060400160405280601381526020017214d1515497d253959053125117d49154d55315606a1b8152505b8888146118265789888151811061181957611819611aee565b6020026020010151611853565b6040518060400160405280601381526020017214d1515497d253959053125117d49154d55315606a1b8152505b6040518563ffffffff1660e01b81526004016118729493929190612295565b6020604051808303816000875af1158015611891573d6000803e3d6000fd5b505050506040513d601f19601f820116820180604052508101906118b591906122d9565b50505080806118c390611b42565b915050611595565b5050505050565b6000602082840312156118e457600080fd5b81356001600160401b038111156118fa57600080fd5b8201610160818503121561190d57600080fd5b9392505050565b6001600160a01b038116811461192957600080fd5b50565b60006020828403121561193e57600080fd5b813561190d81611914565b6020808252825182820181905260009190848201906040850190845b8181101561198a5783516001600160a01b031683529284019291840191600101611965565b50909695505050505050565b6000602082840312156119a857600080fd5b5035919050565b63ffffffff8116811461192957600080fd5b803561157e816119af565b6000602082840312156119de57600080fd5b813561190d816119af565b6000808335601e19843603018112611a0057600080fd5b8301803591506001600160401b03821115611a1a57600080fd5b6020019150600581901b3603821315611a3257600080fd5b9250929050565b602080825260169082015275125b9d985b1a59081bdd5d18dbdb595cc818dbdd5b9d60521b604082015260600190565b634e487b7160e01b600052601160045260246000fd5b8082018082111561123757611237611a69565b634e487b7160e01b600052604160045260246000fd5b6000808335601e19843603018112611abf57600080fd5b8301803591506001600160401b03821115611ad957600080fd5b602001915036819003821315611a3257600080fd5b634e487b7160e01b600052603260045260246000fd5b858782376000868201600160fd1b80825286886001840137600191870191820152838560028301376000930160020192835250909695505050505050565b600060018201611b5457611b54611a69565b5060010190565b600081518084526020808501945080840160005b83811015611b8b57815187529582019590820190600101611b6f565b509495945050505050565b6020815260006112346020830184611b5b565b60405161016081016001600160401b0381118282101715611bcc57611bcc611a92565b60405290565b604051601f8201601f191681016001600160401b0381118282101715611bfa57611bfa611a92565b604052919050565b600082601f830112611c1357600080fd5b81356001600160401b03811115611c2c57611c2c611a92565b611c3f601f8201601f1916602001611bd2565b818152846020838601011115611c5457600080fd5b816020850160208301376000918101602001919091529392505050565b600082601f830112611c8257600080fd5b813560206001600160401b0380831115611c9e57611c9e611a92565b8260051b611cad838201611bd2565b9384528581018301938381019088861115611cc757600080fd5b84880192505b8583101561066957823584811115611ce55760008081fd5b611cf38a87838c0101611c02565b8352509184019190840190611ccd565b60006101608236031215611d1657600080fd5b611d1e611ba9565b82356001600160401b0380821115611d3557600080fd5b611d4136838701611c02565b83526020850135915080821115611d5757600080fd5b611d6336838701611c71565b60208401526040850135915080821115611d7c57600080fd5b611d8836838701611c02565b60408401526060850135915080821115611da157600080fd5b611dad36838701611c02565b60608401526080850135915080821115611dc657600080fd5b611dd236838701611c02565b608084015260a0850135915080821115611deb57600080fd5b611df736838701611c02565b60a084015260c085013560c084015260e085013560e0840152610100915081850135828401526101209150611e2d8286016119c1565b8284015261014091508185013581811115611e4757600080fd5b611e5336828801611c71565b8385015250505080915050919050565b6020808252600e908201526d139bdd08185d5d1a1bdc9a5e995960921b604082015260600190565b8181038181111561123757611237611a69565b60005b83811015611eb9578181015183820152602001611ea1565b50506000910152565b60008651611ed4818460208b01611e9e565b865190830190611ee8818360208b01611e9e565b8651910190611efb818360208a01611e9e565b8551910190611f0e818360208901611e9e565b8451910190611f21818360208801611e9e565b01979650505050505050565b83815263ffffffff60e01b8360e01b16602082015260008251611f57816024850160208701611e9e565b91909101602401949350505050565b600060208284031215611f7857600080fd5b815161190d816119af565b60008151808452611f9b816020860160208601611e9e565b601f01601f19169290920160200192915050565b87815260e060208201526000611fc860e0830189611f83565b6001600160a01b039790971660408301525063ffffffff948516606082015292909316608083015260a082015260c0015292915050565b60006020828403121561201157600080fd5b5051919050565b6001600160a01b039390931683526020830191909152604082015260600190565b600081518084526020808501808196508360051b8101915082860160005b8581101561208157828403895261206f848351611f83565b98850198935090840190600101612057565b5091979650505050505050565b60006101408083526120a28184018e611f83565b905082810360208401526120b6818d612039565b90508a60408401528960608401528860808401528760a084015282810360c08401526120e28188611b5b565b90508560e08401528281036101008401526120fd8186612039565b91505060018060a01b0383166101208301529b9a5050505050505050505050565b60006101208083526121328184018d611f83565b90508281036020840152612146818c612039565b90508960408401528860608401528760808401528660a084015282810360c08401526121728187611b5b565b90508460e084015282810361010084015261218d8185612039565b9c9b505050505050505050505050565b601160f91b8082526000908385600185013792909101600181019290925250600201919050565b600084516121d6818460208901611e9e565b61161160f11b90830190815283856002830137601160f91b93016002810193909352505060030192915050565b6000885160206122168285838e01611e9e565b8951918401916122298184848e01611e9e565b895192019161223b8184848d01611e9e565b885192019161224d8184848c01611e9e565b875192019161225f8184848b01611e9e565b86519201916122718184848a01611e9e565b85519201916122838184848901611e9e565b919091019a9950505050505050505050565b60018060a01b03851681528360208201526080604082015260006122bc6080830185611f83565b82810360608401526122ce8185611f83565b979650505050505050565b6000602082840312156122eb57600080fd5b815161190d8161191456fea2646970667358221220b8810e1f4a4faca48de28466f4eae4292acaf347244b107f0935eb7885bba07d64736f6c63430008140033",
  "devdoc": {
    "errors": {
      "ERC1167FailedCreateClone()": [
        {
          "details": "A clone instance deployment failed."
        }
      ]
    },
    "kind": "dev",
    "methods": {
      "constructor": {
        "details": "Constructor.",
        "params": {
          "_arbitrator": "Address of the arbitrator that is going to resolve Realitio disputes.",
          "_collateralToken": "Address of the collateral token.",
          "_conditionalTokens": "Address of the ConditionalTokens implementation.",
          "_governor": "Address of the governor of this contract.",
          "_market": "Address of the market contract that is going to be used for each new deployment.",
          "_questionTimeout": "Reality question timeout.",
          "_realitio": "Address of the Realitio implementation.",
          "_realityProxy": "Address of the RealityProxy implementation.",
          "_wrappedERC20Factory": "Address of the WrappedERC20Factory implementation."
        }
      }
    },
    "version": 1
  },
  "userdoc": {
    "kind": "user",
    "methods": {},
    "version": 1
  },
  "storageLayout": {
    "storage": [
      {
        "astId": 520,
        "contract": "src/MarketFactory.sol:MarketFactory",
        "label": "questionTimeout",
        "offset": 0,
        "slot": "0",
        "type": "t_uint32"
      },
      {
        "astId": 536,
        "contract": "src/MarketFactory.sol:MarketFactory",
        "label": "realityProxy",
        "offset": 4,
        "slot": "0",
        "type": "t_contract(RealityProxy)2116"
      },
      {
        "astId": 538,
        "contract": "src/MarketFactory.sol:MarketFactory",
        "label": "governor",
        "offset": 0,
        "slot": "1",
        "type": "t_address"
      },
      {
        "astId": 541,
        "contract": "src/MarketFactory.sol:MarketFactory",
        "label": "markets",
        "offset": 0,
        "slot": "2",
        "type": "t_array(t_address)dyn_storage"
      },
      {
        "astId": 543,
        "contract": "src/MarketFactory.sol:MarketFactory",
        "label": "market",
        "offset": 0,
        "slot": "3",
        "type": "t_address"
      }
    ],
    "types": {
      "t_address": {
        "encoding": "inplace",
        "label": "address",
        "numberOfBytes": "20"
      },
      "t_array(t_address)dyn_storage": {
        "base": "t_address",
        "encoding": "dynamic_array",
        "label": "address[]",
        "numberOfBytes": "32"
      },
      "t_contract(RealityProxy)2116": {
        "encoding": "inplace",
        "label": "contract RealityProxy",
        "numberOfBytes": "20"
      },
      "t_uint32": {
        "encoding": "inplace",
        "label": "uint32",
        "numberOfBytes": "4"
      }
    }
  }
}