{
  "address": "0xaCE2C61E250c2d019b9Ed7FEf6A441022D6Ec7d2",
  "abi": [
    {
      "inputs": [
        {
          "internalType": "contract IConditionalTokens",
          "name": "conditionalTokens",
          "type": "address"
        },
        {
          "internalType": "contract IRealityETH_v3_0",
          "name": "realitio",
          "type": "address"
        },
        {
          "internalType": "address",
          "name": "marketId",
          "type": "address"
        }
      ],
      "name": "getMarket",
      "outputs": [
        {
          "components": [
            {
              "internalType": "address",
              "name": "id",
              "type": "address"
            },
            {
              "internalType": "string",
              "name": "marketName",
              "type": "string"
            },
            {
              "internalType": "string[]",
              "name": "outcomes",
              "type": "string[]"
            },
            {
              "internalType": "uint256",
              "name": "lowerBound",
              "type": "uint256"
            },
            {
              "internalType": "uint256",
              "name": "upperBound",
              "type": "uint256"
            },
            {
              "internalType": "bytes32",
              "name": "conditionId",
              "type": "bytes32"
            },
            {
              "internalType": "bytes32",
              "name": "questionId",
              "type": "bytes32"
            },
            {
              "internalType": "uint256",
              "name": "templateId",
              "type": "uint256"
            },
            {
              "components": [
                {
                  "internalType": "bytes32",
                  "name": "content_hash",
                  "type": "bytes32"
                },
                {
                  "internalType": "address",
                  "name": "arbitrator",
                  "type": "address"
                },
                {
                  "internalType": "uint32",
                  "name": "opening_ts",
                  "type": "uint32"
                },
                {
                  "internalType": "uint32",
                  "name": "timeout",
                  "type": "uint32"
                },
                {
                  "internalType": "uint32",
                  "name": "finalize_ts",
                  "type": "uint32"
                },
                {
                  "internalType": "bool",
                  "name": "is_pending_arbitration",
                  "type": "bool"
                },
                {
                  "internalType": "uint256",
                  "name": "bounty",
                  "type": "uint256"
                },
                {
                  "internalType": "bytes32",
                  "name": "best_answer",
                  "type": "bytes32"
                },
                {
                  "internalType": "bytes32",
                  "name": "history_hash",
                  "type": "bytes32"
                },
                {
                  "internalType": "uint256",
                  "name": "bond",
                  "type": "uint256"
                },
                {
                  "internalType": "uint256",
                  "name": "min_bond",
                  "type": "uint256"
                }
              ],
              "internalType": "struct IRealityETH_v3_0.Question[]",
              "name": "questions",
              "type": "tuple[]"
            },
            {
              "internalType": "bool",
              "name": "payoutReported",
              "type": "bool"
            }
          ],
          "internalType": "struct MarketView.MarketInfo",
          "name": "",
          "type": "tuple"
        }
      ],
      "stateMutability": "view",
      "type": "function"
    },
    {
      "inputs": [
        {
          "internalType": "uint256",
          "name": "count",
          "type": "uint256"
        },
        {
          "internalType": "contract IMarketFactory",
          "name": "marketFactory",
          "type": "address"
        }
      ],
      "name": "getMarkets",
      "outputs": [
        {
          "components": [
            {
              "internalType": "address",
              "name": "id",
              "type": "address"
            },
            {
              "internalType": "string",
              "name": "marketName",
              "type": "string"
            },
            {
              "internalType": "string[]",
              "name": "outcomes",
              "type": "string[]"
            },
            {
              "internalType": "uint256",
              "name": "lowerBound",
              "type": "uint256"
            },
            {
              "internalType": "uint256",
              "name": "upperBound",
              "type": "uint256"
            },
            {
              "internalType": "bytes32",
              "name": "conditionId",
              "type": "bytes32"
            },
            {
              "internalType": "bytes32",
              "name": "questionId",
              "type": "bytes32"
            },
            {
              "internalType": "uint256",
              "name": "templateId",
              "type": "uint256"
            },
            {
              "components": [
                {
                  "internalType": "bytes32",
                  "name": "content_hash",
                  "type": "bytes32"
                },
                {
                  "internalType": "address",
                  "name": "arbitrator",
                  "type": "address"
                },
                {
                  "internalType": "uint32",
                  "name": "opening_ts",
                  "type": "uint32"
                },
                {
                  "internalType": "uint32",
                  "name": "timeout",
                  "type": "uint32"
                },
                {
                  "internalType": "uint32",
                  "name": "finalize_ts",
                  "type": "uint32"
                },
                {
                  "internalType": "bool",
                  "name": "is_pending_arbitration",
                  "type": "bool"
                },
                {
                  "internalType": "uint256",
                  "name": "bounty",
                  "type": "uint256"
                },
                {
                  "internalType": "bytes32",
                  "name": "best_answer",
                  "type": "bytes32"
                },
                {
                  "internalType": "bytes32",
                  "name": "history_hash",
                  "type": "bytes32"
                },
                {
                  "internalType": "uint256",
                  "name": "bond",
                  "type": "uint256"
                },
                {
                  "internalType": "uint256",
                  "name": "min_bond",
                  "type": "uint256"
                }
              ],
              "internalType": "struct IRealityETH_v3_0.Question[]",
              "name": "questions",
              "type": "tuple[]"
            },
            {
              "internalType": "bool",
              "name": "payoutReported",
              "type": "bool"
            }
          ],
          "internalType": "struct MarketView.MarketInfo[]",
          "name": "",
          "type": "tuple[]"
        }
      ],
      "stateMutability": "view",
      "type": "function"
    }
  ],
  "transactionHash": "0x383f798d99bde5fe4841292aeec3c74aa022f5c0af99c0fff0a88de48b0b0e7b",
  "args": [],
  "numDeployments": 3,
  "solcInputHash": "8fa93b8341f877a9a06d64eedc3bc6b6",
  "bytecode": "0x608060405234801561001057600080fd5b506110f9806100206000396000f3fe608060405234801561001057600080fd5b50600436106100365760003560e01c8063118cdf611461003b57806372b6125214610064575b600080fd5b61004e610049366004610a74565b610084565b60405161005b9190610cbe565b60405180910390f35b610077610072366004610d20565b6102ca565b60405161005b9190610d6b565b60606000826001600160a01b031663375a7cba6040518163ffffffff1660e01b8152600401600060405180830381865afa1580156100c6573d6000803e3d6000fd5b505050506040513d6000823e601f3d908101601f191682016040526100ee9190810190610e04565b90506000846001600160401b0381111561010a5761010a610d85565b60405190808252806020026020018201604052801561014357816020015b6101306109f8565b8152602001906001900390816101285790505b50905081516000036101585791506102c49050565b6000600183516101689190610ecb565b905060008684511161017b576000610188565b8684516101889190610ecb565b90506000825b8281106102bb5761027b886001600160a01b0316635bd9e2996040518163ffffffff1660e01b8152600401602060405180830381865afa1580156101d6573d6000803e3d6000fd5b505050506040513d601f19601f820116820180604052508101906101fa9190610ede565b896001600160a01b031663bc8802a26040518163ffffffff1660e01b8152600401602060405180830381865afa158015610238573d6000803e3d6000fd5b505050506040513d601f19601f8201168201806040525081019061025c9190610ede565b88848151811061026e5761026e610efb565b60200260200101516102ca565b858361028681610f11565b94508151811061029857610298610efb565b602090810291909101015280156102bb57806102b381610f2a565b91505061018e565b50929450505050505b92915050565b6102d26109f8565b60008290506000816001600160a01b0316632ddc7de76040518163ffffffff1660e01b8152600401602060405180830381865afa158015610317573d6000803e3d6000fd5b505050506040513d601f19601f8201168201806040525081019061033b9190610f41565b604051636a16e06160e11b8152600481018290529091506000906001600160a01b0388169063d42dc0c290602401602060405180830381865afa158015610386573d6000803e3d6000fd5b505050506040513d601f19601f820116820180604052508101906103aa9190610f41565b90506000816001600160401b038111156103c6576103c6610d85565b6040519080825280602002602001820160405280156103f957816020015b60608152602001906001900390816103e45790505b5090506000846001600160a01b031663a384d6ff6040518163ffffffff1660e01b8152600401602060405180830381865afa15801561043c573d6000803e3d6000fd5b505050506040513d601f19601f820116820180604052508101906104609190610f41565b90506000856001600160a01b031663b09ad8a06040518163ffffffff1660e01b8152600401602060405180830381865afa1580156104a2573d6000803e3d6000fd5b505050506040513d601f19601f820116820180604052508101906104c69190610f41565b905060005b848110156105e857821580156104df575081155b156105735760405163eed2a14760e01b8152600481018290526001600160a01b0388169063eed2a14790602401600060405180830381865afa158015610529573d6000803e3d6000fd5b505050506040513d6000823e601f3d908101601f191682016040526105519190810190610f5a565b84828151811061056357610563610efb565b60200260200101819052506105d6565b801561059b5760405180604001604052806004815260200163090d2ced60e31b8152506105b8565b604051806040016040528060038152602001624c6f7760e81b8152505b8482815181106105ca576105ca610efb565b60200260200101819052505b806105e081610f11565b9150506104cb565b506000866001600160a01b031663c2e112d26040518163ffffffff1660e01b8152600401602060405180830381865afa158015610629573d6000803e3d6000fd5b505050506040513d601f19601f8201168201806040525081019061064d9190610f41565b90506000816001600160401b0381111561066957610669610d85565b6040519080825280602002602001820160405280156106f057816020015b604080516101608101825260008082526020808301829052928201819052606082018190526080820181905260a0820181905260c0820181905260e082018190526101008201819052610120820181905261014082015282526000199092019101816106875790505b50905060005b828110156108015760405163255d109d60e21b8152600481018290526001600160a01b03808e16916395addb90918c1690639574427490602401602060405180830381865afa15801561074d573d6000803e3d6000fd5b505050506040513d601f19601f820116820180604052508101906107719190610f41565b6040518263ffffffff1660e01b815260040161078f91815260200190565b61016060405180830381865afa1580156107ad573d6000803e3d6000fd5b505050506040513d601f19601f820116820180604052508101906107d19190611011565b8282815181106107e3576107e3610efb565b602002602001018190525080806107f990610f11565b9150506106f6565b506040518061014001604052808b6001600160a01b03168152602001896001600160a01b031663e6bfd26a6040518163ffffffff1660e01b8152600401600060405180830381865afa15801561085b573d6000803e3d6000fd5b505050506040513d6000823e601f3d908101601f191682016040526108839190810190610f5a565b8152602001868152602001858152602001848152602001888152602001896001600160a01b031663b06a5c526040518163ffffffff1660e01b8152600401602060405180830381865afa1580156108de573d6000803e3d6000fd5b505050506040513d601f19601f820116820180604052508101906109029190610f41565b8152602001896001600160a01b0316637aa77f296040518163ffffffff1660e01b8152600401602060405180830381865afa158015610945573d6000803e3d6000fd5b505050506040513d601f19601f820116820180604052508101906109699190610f41565b815260200182815260200160008e6001600160a01b031663dd34de678b6040518263ffffffff1660e01b81526004016109a491815260200190565b602060405180830381865afa1580156109c1573d6000803e3d6000fd5b505050506040513d601f19601f820116820180604052508101906109e59190610f41565b1190529c9b505050505050505050505050565b60405180610140016040528060006001600160a01b0316815260200160608152602001606081526020016000815260200160008152602001600080191681526020016000801916815260200160008152602001606081526020016000151581525090565b6001600160a01b0381168114610a7157600080fd5b50565b60008060408385031215610a8757600080fd5b823591506020830135610a9981610a5c565b809150509250929050565b60005b83811015610abf578181015183820152602001610aa7565b50506000910152565b60008151808452610ae0816020860160208601610aa4565b601f01601f19169290920160200192915050565b600082825180855260208086019550808260051b84010181860160005b84811015610b3f57601f19868403018952610b2d838351610ac8565b98840198925090830190600101610b11565b5090979650505050505050565b600081518084526020808501945080840160005b83811015610c0157815180518852838101516001600160a01b03168489015260408082015163ffffffff908116918a01919091526060808301518216908a01526080808301519091169089015260a08082015115159089015260c0808201519089015260e080820151908901526101008082015190890152610120808201519089015261014090810151908801526101609096019590820190600101610b60565b509495945050505050565b80516001600160a01b0316825260006101406020830151816020860152610c3582860182610ac8565b91505060408301518482036040860152610c4f8282610af4565b915050606083015160608501526080830151608085015260a083015160a085015260c083015160c085015260e083015160e08501526101008084015185830382870152610c9c8382610b4c565b9250505061012080840151610cb48287018215159052565b5090949350505050565b6000602080830181845280855180835260408601915060408160051b870101925083870160005b82811015610d1357603f19888603018452610d01858351610c0c565b94509285019290850190600101610ce5565b5092979650505050505050565b600080600060608486031215610d3557600080fd5b8335610d4081610a5c565b92506020840135610d5081610a5c565b91506040840135610d6081610a5c565b809150509250925092565b602081526000610d7e6020830184610c0c565b9392505050565b634e487b7160e01b600052604160045260246000fd5b60405161016081016001600160401b0381118282101715610dbe57610dbe610d85565b60405290565b604051601f8201601f191681016001600160401b0381118282101715610dec57610dec610d85565b604052919050565b8051610dff81610a5c565b919050565b60006020808385031215610e1757600080fd5b82516001600160401b0380821115610e2e57600080fd5b818501915085601f830112610e4257600080fd5b815181811115610e5457610e54610d85565b8060051b9150610e65848301610dc4565b8181529183018401918481019088841115610e7f57600080fd5b938501935b83851015610ea95784519250610e9983610a5c565b8282529385019390850190610e84565b98975050505050505050565b634e487b7160e01b600052601160045260246000fd5b818103818111156102c4576102c4610eb5565b600060208284031215610ef057600080fd5b8151610d7e81610a5c565b634e487b7160e01b600052603260045260246000fd5b600060018201610f2357610f23610eb5565b5060010190565b600081610f3957610f39610eb5565b506000190190565b600060208284031215610f5357600080fd5b5051919050565b600060208284031215610f6c57600080fd5b81516001600160401b0380821115610f8357600080fd5b818401915084601f830112610f9757600080fd5b815181811115610fa957610fa9610d85565b610fbc601f8201601f1916602001610dc4565b9150808252856020828501011115610fd357600080fd5b610fe4816020840160208601610aa4565b50949350505050565b805163ffffffff81168114610dff57600080fd5b80518015158114610dff57600080fd5b6000610160828403121561102457600080fd5b61102c610d9b565b8251815261103c60208401610df4565b602082015261104d60408401610fed565b604082015261105e60608401610fed565b606082015261106f60808401610fed565b608082015261108060a08401611001565b60a082015260c0838101519082015260e080840151908201526101008084015190820152610120808401519082015261014092830151928101929092525091905056fea2646970667358221220be25baca6206ae91a1180ae8f67e9b743b08a7494118117f3fd8b95349166f2364736f6c63430008140033",
  "devdoc": {
    "kind": "dev",
    "methods": {},
    "version": 1
  },
  "userdoc": {
    "kind": "user",
    "methods": {},
    "version": 1
  },
  "storageLayout": {
    "storage": [],
    "types": null
  }
}