{
  "address": "0xf7E64845A8737466CAD5687fFD718eF242E6e9aF",
  "abi": [
    {
      "inputs": [
        {
          "internalType": "contract IConditionalTokens",
          "name": "_conditionalTokens",
          "type": "address"
        },
        {
          "internalType": "contract IRealityETH_v3_0",
          "name": "_realitio",
          "type": "address"
        }
      ],
      "stateMutability": "nonpayable",
      "type": "constructor"
    },
    {
      "inputs": [],
      "name": "conditionalTokens",
      "outputs": [
        {
          "internalType": "contract IConditionalTokens",
          "name": "",
          "type": "address"
        }
      ],
      "stateMutability": "view",
      "type": "function"
    },
    {
      "inputs": [
        {
          "internalType": "uint256",
          "name": "b",
          "type": "uint256"
        },
        {
          "internalType": "uint256",
          "name": "pos",
          "type": "uint256"
        }
      ],
      "name": "isBitSet",
      "outputs": [
        {
          "internalType": "bool",
          "name": "",
          "type": "bool"
        }
      ],
      "stateMutability": "pure",
      "type": "function"
    },
    {
      "inputs": [],
      "name": "realitio",
      "outputs": [
        {
          "internalType": "contract IRealityETH_v3_0",
          "name": "",
          "type": "address"
        }
      ],
      "stateMutability": "view",
      "type": "function"
    },
    {
      "inputs": [
        {
          "internalType": "contract Market",
          "name": "market",
          "type": "address"
        }
      ],
      "name": "resolve",
      "outputs": [],
      "stateMutability": "nonpayable",
      "type": "function"
    }
  ],
  "transactionHash": "0xe62e8c8fdd05ce76996c7423687f7e1eecce9f115a1d628b61e888d591dcb47d",
  "args": [
    "0xCeAfDD6bc0bEF976fdCd1112955828E00543c0Ce",
    "0xE78996A233895bE74a66F451f1019cA9734205cc"
  ],
  "numDeployments": 3,
  "solcInputHash": "7d55627a1de4a5f0d6407a64fdd9234f",
  "bytecode": "0x608060405234801561001057600080fd5b50604051610f33380380610f3383398101604081905261002f91610078565b600080546001600160a01b039384166001600160a01b031991821617909155600180549290931691161790556100b2565b6001600160a01b038116811461007557600080fd5b50565b6000806040838503121561008b57600080fd5b825161009681610060565b60208401519092506100a781610060565b809150509250929050565b610e72806100c16000396000f3fe608060405234801561001057600080fd5b506004361061004c5760003560e01c806355ea6c47146100515780635bd9e29914610066578063bc8802a214610096578063f871dc62146100a9575b600080fd5b61006461005f366004610d15565b6100cc565b005b600054610079906001600160a01b031681565b6040516001600160a01b0390911681526020015b60405180910390f35b600154610079906001600160a01b031681565b6100bc6100b7366004610d45565b6101de565b604051901515815260200161008d565b6000816001600160a01b0316637aa77f296040518163ffffffff1660e01b8152600401602060405180830381865afa15801561010c573d6000803e3d6000fd5b505050506040513d601f19601f820116820180604052508101906101309190610d67565b905080158061013f5750600281145b156101515761014d826101ed565b5050565b600381036101625761014d8261032a565b6001826001600160a01b031663c2e112d26040518163ffffffff1660e01b8152600401602060405180830381865afa1580156101a2573d6000803e3d6000fd5b505050506040513d601f19601f820116820180604052508101906101c69190610d67565b11156101d55761014d826105f0565b61014d82610853565b600182821c8116145b92915050565b6000816001600160a01b031663b06a5c526040518163ffffffff1660e01b8152600401602060405180830381865afa15801561022d573d6000803e3d6000fd5b505050506040513d601f19601f820116820180604052508101906102519190610d67565b905060006102c082846001600160a01b0316638767d64e6040518163ffffffff1660e01b8152600401602060405180830381865afa158015610297573d6000803e3d6000fd5b505050506040513d601f19601f820116820180604052508101906102bb9190610d67565b610b82565b600054604051633124a62b60e21b81529192506001600160a01b03169063c49298ac906102f39085908590600401610d80565b600060405180830381600087803b15801561030d57600080fd5b505af1158015610321573d6000803e3d6000fd5b50505050505050565b6000816001600160a01b0316638767d64e6040518163ffffffff1660e01b8152600401602060405180830381865afa15801561036a573d6000803e3d6000fd5b505050506040513d601f19601f8201168201806040525081019061038e9190610d67565b905060008167ffffffffffffffff8111156103ab576103ab610dce565b6040519080825280602002602001820160405280156103d4578160200160208202803683370190505b5090506000600160009054906101000a90046001600160a01b03166001600160a01b031663ab5a4e35856001600160a01b031663b06a5c526040518163ffffffff1660e01b8152600401602060405180830381865afa15801561043b573d6000803e3d6000fd5b505050506040513d601f19601f8201168201806040525081019061045f9190610d67565b6040518263ffffffff1660e01b815260040161047d91815260200190565b602060405180830381865afa15801561049a573d6000803e3d6000fd5b505050506040513d601f19601f820116820180604052508101906104be9190610d67565b905060005b83811015610515576104d582826101de565b6104e05760006104e3565b60015b60ff168382815181106104f8576104f8610de4565b60209081029190910101528061050d81610e10565b9150506104c3565b5060008054906101000a90046001600160a01b03166001600160a01b031663c49298ac856001600160a01b031663b06a5c526040518163ffffffff1660e01b8152600401602060405180830381865afa158015610576573d6000803e3d6000fd5b505050506040513d601f19601f8201168201806040525081019061059a9190610d67565b846040518363ffffffff1660e01b81526004016105b8929190610d80565b600060405180830381600087803b1580156105d257600080fd5b505af11580156105e6573d6000803e3d6000fd5b5050505050505050565b6000816001600160a01b0316638767d64e6040518163ffffffff1660e01b8152600401602060405180830381865afa158015610630573d6000803e3d6000fd5b505050506040513d601f19601f820116820180604052508101906106549190610d67565b905060008167ffffffffffffffff81111561067157610671610dce565b60405190808252806020026020018201604052801561069a578160200160208202803683370190505b50905060005b828110156107b05760015460405163255d109d60e21b8152600481018390526001600160a01b039182169163ab5a4e359190871690639574427490602401602060405180830381865afa1580156106fb573d6000803e3d6000fd5b505050506040513d601f19601f8201168201806040525081019061071f9190610d67565b6040518263ffffffff1660e01b815260040161073d91815260200190565b602060405180830381865afa15801561075a573d6000803e3d6000fd5b505050506040513d601f19601f8201168201806040525081019061077e9190610d67565b60001c82828151811061079357610793610de4565b6020908102919091010152806107a881610e10565b9150506106a0565b5060008054906101000a90046001600160a01b03166001600160a01b031663c49298ac846001600160a01b031663b06a5c526040518163ffffffff1660e01b8152600401602060405180830381865afa158015610811573d6000803e3d6000fd5b505050506040513d601f19601f820116820180604052508101906108359190610d67565b836040518363ffffffff1660e01b81526004016102f3929190610d80565b6000816001600160a01b031663a384d6ff6040518163ffffffff1660e01b8152600401602060405180830381865afa158015610893573d6000803e3d6000fd5b505050506040513d601f19601f820116820180604052508101906108b79190610d67565b90506000826001600160a01b031663b09ad8a06040518163ffffffff1660e01b8152600401602060405180830381865afa1580156108f9573d6000803e3d6000fd5b505050506040513d601f19601f8201168201806040525081019061091d9190610d67565b60408051600280825260608201835292935060009290916020830190803683370190505090506000846001600160a01b031663b06a5c526040518163ffffffff1660e01b8152600401602060405180830381865afa158015610983573d6000803e3d6000fd5b505050506040513d601f19601f820116820180604052508101906109a79190610d67565b60015460405163ab5a4e3560e01b8152600481018390529192506000916001600160a01b039091169063ab5a4e3590602401602060405180830381865afa1580156109f6573d6000803e3d6000fd5b505050506040513d601f19601f82011682018060405250810190610a1a9190610d67565b905060018101610a6b57600183600081518110610a3957610a39610de4565b602002602001018181525050600183600181518110610a5a57610a5a610de4565b602002602001018181525050610b16565b848111610aa857600183600081518110610a8757610a87610de4565b602002602001018181525050600083600181518110610a5a57610a5a610de4565b838110610ac457600083600081518110610a3957610a39610de4565b610ace8185610e29565b83600081518110610ae157610ae1610de4565b6020908102919091010152610af68582610e29565b83600181518110610b0957610b09610de4565b6020026020010181815250505b600054604051633124a62b60e21b81526001600160a01b039091169063c49298ac90610b489085908790600401610d80565b600060405180830381600087803b158015610b6257600080fd5b505af1158015610b76573d6000803e3d6000fd5b50505050505050505050565b606060008267ffffffffffffffff811115610b9f57610b9f610dce565b604051908082528060200260200182016040528015610bc8578160200160208202803683370190505b5060015460405163ab5a4e3560e01b8152600481018790529192506000916001600160a01b039091169063ab5a4e3590602401602060405180830381865afa158015610c18573d6000803e3d6000fd5b505050506040513d601f19601f82011682018060405250810190610c3c9190610d67565b905060018101610c885760005b84811015610c82576001838281518110610c6557610c65610de4565b602090810291909101015280610c7a81610e10565b915050610c49565b50610d0d565b838110610cec5760405162461bcd60e51b815260206004820152602860248201527f416e73776572206d757374206265206265747765656e203020616e64206e756d6044820152674f7574636f6d657360c01b606482015260840160405180910390fd5b6001828281518110610d0057610d00610de4565b6020026020010181815250505b509392505050565b600060208284031215610d2757600080fd5b81356001600160a01b0381168114610d3e57600080fd5b9392505050565b60008060408385031215610d5857600080fd5b50508035926020909101359150565b600060208284031215610d7957600080fd5b5051919050565b6000604082018483526020604081850152818551808452606086019150828701935060005b81811015610dc157845183529383019391830191600101610da5565b5090979650505050505050565b634e487b7160e01b600052604160045260246000fd5b634e487b7160e01b600052603260045260246000fd5b634e487b7160e01b600052601160045260246000fd5b600060018201610e2257610e22610dfa565b5060010190565b818103818111156101e7576101e7610dfa56fea264697066735822122019f70471ca3ceb82bc7708c87a1c811a88800df9cfee492b5416505f172d3fc164736f6c63430008140033",
  "devdoc": {
    "kind": "dev",
    "methods": {},
    "version": 1
  },
  "userdoc": {
    "kind": "user",
    "methods": {},
    "version": 1
  },
  "storageLayout": {
    "storage": [
      {
        "astId": 3789,
        "contract": "src/RealityProxy.sol:RealityProxy",
        "label": "conditionalTokens",
        "offset": 0,
        "slot": "0",
        "type": "t_contract(IConditionalTokens)2046"
      },
      {
        "astId": 3792,
        "contract": "src/RealityProxy.sol:RealityProxy",
        "label": "realitio",
        "offset": 0,
        "slot": "1",
        "type": "t_contract(IRealityETH_v3_0)1921"
      }
    ],
    "types": {
      "t_contract(IConditionalTokens)2046": {
        "encoding": "inplace",
        "label": "contract IConditionalTokens",
        "numberOfBytes": "20"
      },
      "t_contract(IRealityETH_v3_0)1921": {
        "encoding": "inplace",
        "label": "contract IRealityETH_v3_0",
        "numberOfBytes": "20"
      }
    }
  }
}