{
  "address": "0xDEC7c093623E971Ace6b023A15548b85A1c4a210",
  "abi": [
    {
      "inputs": [
        {
          "internalType": "contract IConditionalTokens",
          "name": "_conditionalTokens",
          "type": "address"
        },
        {
          "internalType": "contract IRealityETH_v3_0",
          "name": "_realitio",
          "type": "address"
        }
      ],
      "stateMutability": "nonpayable",
      "type": "constructor"
    },
    {
      "inputs": [],
      "name": "conditionalTokens",
      "outputs": [
        {
          "internalType": "contract IConditionalTokens",
          "name": "",
          "type": "address"
        }
      ],
      "stateMutability": "view",
      "type": "function"
    },
    {
      "inputs": [],
      "name": "realitio",
      "outputs": [
        {
          "internalType": "contract IRealityETH_v3_0",
          "name": "",
          "type": "address"
        }
      ],
      "stateMutability": "view",
      "type": "function"
    },
    {
      "inputs": [
        {
          "internalType": "contract Market",
          "name": "market",
          "type": "address"
        }
      ],
      "name": "resolve",
      "outputs": [],
      "stateMutability": "nonpayable",
      "type": "function"
    }
  ],
  "transactionHash": "0x6de5d72ece84fdf8d8e6beca8e5d6ebfeb2f87fb92d349b32f9535d453136fb7",
  "args": [
    "0xCeAfDD6bc0bEF976fdCd1112955828E00543c0Ce",
    "0xE78996A233895bE74a66F451f1019cA9734205cc"
  ],
  "numDeployments": 7,
  "solcInputHash": "c6c019684f7a3adafc10b690e3abe9bb",
  "bytecode": "0x60c060405234801561001057600080fd5b50604051610f06380380610f0683398101604081905261002f9161005e565b6001600160a01b039182166080521660a052610098565b6001600160a01b038116811461005b57600080fd5b50565b6000806040838503121561007157600080fd5b825161007c81610046565b602084015190925061008d81610046565b809150509250929050565b60805160a051610e136100f36000396000818160a30152818161034e0152818161052e0152818161078f01526109ce0152600081816060015281816104ba015281816106f0015281816109590152610b6b0152610e136000f3fe608060405234801561001057600080fd5b50600436106100415760003560e01c806355ea6c47146100465780635bd9e2991461005b578063bc8802a21461009e575b600080fd5b610059610054366004610ba2565b6100c5565b005b6100827f000000000000000000000000000000000000000000000000000000000000000081565b6040516001600160a01b03909116815260200160405180910390f35b6100827f000000000000000000000000000000000000000000000000000000000000000081565b6000816001600160a01b031663455d885e6040518163ffffffff1660e01b8152600401600060405180830381865afa158015610105573d6000803e3d6000fd5b505050506040513d6000823e601f3d908101601f1916820160405261012d9190810190610be8565b90506000826001600160a01b0316638767d64e6040518163ffffffff1660e01b8152600401602060405180830381865afa15801561016f573d6000803e3d6000fd5b505050506040513d601f19601f820116820180604052508101906101939190610ca6565b90506000836001600160a01b0316637aa77f296040518163ffffffff1660e01b8152600401602060405180830381865afa1580156101d5573d6000803e3d6000fd5b505050506040513d601f19601f820116820180604052508101906101f99190610ca6565b90506000846001600160a01b031663a384d6ff6040518163ffffffff1660e01b8152600401602060405180830381865afa15801561023b573d6000803e3d6000fd5b505050506040513d601f19601f8201168201806040525081019061025f9190610ca6565b90506000856001600160a01b031663b09ad8a06040518163ffffffff1660e01b8152600401602060405180830381865afa1580156102a1573d6000803e3d6000fd5b505050506040513d601f19601f820116820180604052508101906102c59190610ca6565b9050600085858585856040516020016102e2959493929190610cbf565b604051602081830303815290604052805190602001209050600284036103165761030d81878761034a565b50505050505050565b600384036103295761030d81878761052a565b60018651111561033e5761030d818787610727565b61030d818785856109ca565b60007f00000000000000000000000000000000000000000000000000000000000000006001600160a01b031663ab5a4e358460008151811061038e5761038e610d1e565b60200260200101516040518263ffffffff1660e01b81526004016103b491815260200190565b602060405180830381865afa1580156103d1573d6000803e3d6000fd5b505050506040513d601f19601f820116820180604052508101906103f59190610ca6565b90506000610404836001610d4a565b67ffffffffffffffff81111561041c5761041c610bd2565b604051908082528060200260200182016040528015610445578160200160208202803683370190505b5090506000198214806104585750828210155b1561048257600181848151811061047157610471610d1e565b6020026020010181815250506104a3565b600181838151811061049657610496610d1e565b6020026020010181815250505b604051633124a62b60e21b81526001600160a01b037f0000000000000000000000000000000000000000000000000000000000000000169063c49298ac906104f19088908590600401610d63565b600060405180830381600087803b15801561050b57600080fd5b505af115801561051f573d6000803e3d6000fd5b505050505050505050565b60007f00000000000000000000000000000000000000000000000000000000000000006001600160a01b031663ab5a4e358460008151811061056e5761056e610d1e565b60200260200101516040518263ffffffff1660e01b815260040161059491815260200190565b602060405180830381865afa1580156105b1573d6000803e3d6000fd5b505050506040513d601f19601f820116820180604052508101906105d59190610ca6565b905060006105e4836001610d4a565b67ffffffffffffffff8111156105fc576105fc610bd2565b604051908082528060200260200182016040528015610625578160200160208202803683370190505b5090506001820161064457600181848151811061047157610471610d1e565b600160005b848110156106b0578084901c60011683828151811061066a5761066a610d1e565b60200260200101818152505081801561069c575082818151811061069057610690610d1e565b60200260200101516000145b9150806106a881610db1565b915050610649565b5080156106d85760018285815181106106cb576106cb610d1e565b6020026020010181815250505b50604051633124a62b60e21b81526001600160a01b037f0000000000000000000000000000000000000000000000000000000000000000169063c49298ac906104f19088908590600401610d63565b6000610734826001610d4a565b67ffffffffffffffff81111561074c5761074c610bd2565b604051908082528060200260200182016040528015610775578160200160208202803683370190505b50905060016001600160801b0360005b8481101561091a577f00000000000000000000000000000000000000000000000000000000000000006001600160a01b031663ab5a4e358783815181106107ce576107ce610d1e565b60200260200101516040518263ffffffff1660e01b81526004016107f491815260200190565b602060405180830381865afa158015610811573d6000803e3d6000fd5b505050506040513d601f19601f820116820180604052508101906108359190610ca6565b60001c84828151811061084a5761084a610d1e565b602090810291909101015283516000199085908390811061086d5761086d610d1e565b60200260200101510361089f57600084828151811061088e5761088e610d1e565b6020026020010181815250506108e0565b818482815181106108b2576108b2610d1e565b602002602001015111156108e057818482815181106108d3576108d3610d1e565b6020026020010181815250505b82801561090657508381815181106108fa576108fa610d1e565b60200260200101516000145b92508061091281610db1565b915050610785565b50811561094257600183858151811061093557610935610d1e565b6020026020010181815250505b604051633124a62b60e21b81526001600160a01b037f0000000000000000000000000000000000000000000000000000000000000000169063c49298ac906109909089908790600401610d63565b600060405180830381600087803b1580156109aa57600080fd5b505af11580156109be573d6000803e3d6000fd5b50505050505050505050565b60007f00000000000000000000000000000000000000000000000000000000000000006001600160a01b031663ab5a4e3585600081518110610a0e57610a0e610d1e565b60200260200101516040518263ffffffff1660e01b8152600401610a3491815260200190565b602060405180830381865afa158015610a51573d6000803e3d6000fd5b505050506040513d601f19601f82011682018060405250810190610a759190610ca6565b60408051600380825260808201909252919250600091906020820160608036833701905050905060018201610aca57600181600281518110610ab957610ab9610d1e565b602002602001018181525050610b54565b838211610ae657600181600081518110610ab957610ab9610d1e565b828210610b0257600181600181518110610ab957610ab9610d1e565b610b0c8284610dca565b81600081518110610b1f57610b1f610d1e565b6020908102919091010152610b348483610dca565b81600181518110610b4757610b47610d1e565b6020026020010181815250505b604051633124a62b60e21b81526001600160a01b037f0000000000000000000000000000000000000000000000000000000000000000169063c49298ac906109909089908590600401610d63565b600060208284031215610bb457600080fd5b81356001600160a01b0381168114610bcb57600080fd5b9392505050565b634e487b7160e01b600052604160045260246000fd5b60006020808385031215610bfb57600080fd5b825167ffffffffffffffff80821115610c1357600080fd5b818501915085601f830112610c2757600080fd5b815181811115610c3957610c39610bd2565b8060051b604051601f19603f83011681018181108582111715610c5e57610c5e610bd2565b604052918252848201925083810185019188831115610c7c57600080fd5b938501935b82851015610c9a57845184529385019392850192610c81565b98975050505050505050565b600060208284031215610cb857600080fd5b5051919050565b60a0808252865190820181905260009060209060c0840190828a01845b82811015610cf857815184529284019290840190600101610cdc565b505050908301969096525060408101939093526060830191909152608090910152919050565b634e487b7160e01b600052603260045260246000fd5b634e487b7160e01b600052601160045260246000fd5b80820180821115610d5d57610d5d610d34565b92915050565b6000604082018483526020604081850152818551808452606086019150828701935060005b81811015610da457845183529383019391830191600101610d88565b5090979650505050505050565b600060018201610dc357610dc3610d34565b5060010190565b81810381811115610d5d57610d5d610d3456fea26469706673582212201c0bcd47ce218a376985162963877419859acaa48c7c0d6460d9aa059206eb3864736f6c63430008140033",
  "devdoc": {
    "kind": "dev",
    "methods": {
      "constructor": {
        "details": "Constructor",
        "params": {
          "_conditionalTokens": "Conditional Tokens contract address",
          "_realitio": "Reality.eth contract address"
        }
      },
      "resolve(address)": {
        "details": "Resolves the specified market",
        "params": {
          "market": "Market to resolve"
        }
      }
    },
    "version": 1
  },
  "userdoc": {
    "kind": "user",
    "methods": {},
    "version": 1
  },
  "storageLayout": {
    "storage": [],
    "types": null
  }
}