{
  "address": "0x7a797A253712c0Ac8Dfd9271e18f8CC3460607C1",
  "abi": [
    {
      "inputs": [
        {
          "internalType": "contract ISingleQuoter",
          "name": "_swaprQuoter",
          "type": "address"
        },
        {
          "internalType": "contract IConditionalTokens",
          "name": "_conditionalTokens",
          "type": "address"
        }
      ],
      "stateMutability": "nonpayable",
      "type": "constructor"
    },
    {
      "inputs": [],
      "name": "conditionalTokens",
      "outputs": [
        {
          "internalType": "contract IConditionalTokens",
          "name": "",
          "type": "address"
        }
      ],
      "stateMutability": "view",
      "type": "function"
    },
    {
      "inputs": [
        {
          "components": [
            {
              "internalType": "address",
              "name": "tokenIn",
              "type": "address"
            },
            {
              "internalType": "address",
              "name": "tokenOut",
              "type": "address"
            },
            {
              "internalType": "address",
              "name": "tokenInMarket",
              "type": "address"
            },
            {
              "internalType": "address",
              "name": "tokenOutMarket",
              "type": "address"
            },
            {
              "internalType": "uint256",
              "name": "amountIn",
              "type": "uint256"
            }
          ],
          "internalType": "struct TradeQuoter.QuoteParams",
          "name": "params",
          "type": "tuple"
        }
      ],
      "name": "quoteMintSingle",
      "outputs": [
        {
          "internalType": "uint256",
          "name": "amountOut",
          "type": "uint256"
        },
        {
          "internalType": "uint16",
          "name": "fee",
          "type": "uint16"
        }
      ],
      "stateMutability": "nonpayable",
      "type": "function"
    },
    {
      "inputs": [
        {
          "components": [
            {
              "internalType": "address",
              "name": "tokenIn",
              "type": "address"
            },
            {
              "internalType": "address",
              "name": "tokenOut",
              "type": "address"
            },
            {
              "internalType": "address",
              "name": "tokenInMarket",
              "type": "address"
            },
            {
              "internalType": "address",
              "name": "tokenOutMarket",
              "type": "address"
            },
            {
              "internalType": "uint256",
              "name": "amountIn",
              "type": "uint256"
            }
          ],
          "internalType": "struct TradeQuoter.QuoteParams",
          "name": "params",
          "type": "tuple"
        }
      ],
      "name": "quoteSwapSingle",
      "outputs": [
        {
          "internalType": "uint256",
          "name": "amountOut",
          "type": "uint256"
        },
        {
          "internalType": "uint16",
          "name": "fee",
          "type": "uint16"
        }
      ],
      "stateMutability": "nonpayable",
      "type": "function"
    },
    {
      "inputs": [],
      "name": "sDAI",
      "outputs": [
        {
          "internalType": "contract IERC4626",
          "name": "",
          "type": "address"
        }
      ],
      "stateMutability": "view",
      "type": "function"
    },
    {
      "inputs": [],
      "name": "swaprQuoter",
      "outputs": [
        {
          "internalType": "contract ISingleQuoter",
          "name": "",
          "type": "address"
        }
      ],
      "stateMutability": "view",
      "type": "function"
    },
    {
      "inputs": [],
      "name": "xDAI",
      "outputs": [
        {
          "internalType": "address",
          "name": "",
          "type": "address"
        }
      ],
      "stateMutability": "view",
      "type": "function"
    }
  ],
  "transactionHash": "0x7d541e79489cc630121cb96a613a98a1f77a083d5d9c8e6aa12ca6abd2fab412",
  "args": [
    "0xcBaD9FDf0D2814659Eb26f600EFDeAF005Eda0F7",
    "0xCeAfDD6bc0bEF976fdCd1112955828E00543c0Ce"
  ],
  "numDeployments": 1,
  "solcInputHash": "6f803d3c9135ecb8c95a2ac1a7f66ffa",
  "bytecode": "0x60c060405234801561001057600080fd5b50604051610e42380380610e4283398101604081905261002f9161005e565b6001600160a01b039182166080521660a052610098565b6001600160a01b038116811461005b57600080fd5b50565b6000806040838503121561007157600080fd5b825161007c81610046565b602084015190925061008d81610046565b809150509250929050565b60805160a051610d5c6100e66000396000818160cf01526106df0152600081816101090152818161019b015281816102f20152818161042801528181610876015261097d0152610d5c6000f3fe608060405234801561001057600080fd5b50600436106100625760003560e01c806311b300171461006757806311ef62ac146100975780635bd9e299146100ca578063916d6dd5146100f157806393cc504214610104578063de8b61491461012b575b600080fd5b61007a610075366004610acb565b610146565b6040805192835261ffff9091166020830152015b60405180910390f35b6100b273eeeeeeeeeeeeeeeeeeeeeeeeeeeeeeeeeeeeeeee81565b6040516001600160a01b03909116815260200161008e565b6100b27f000000000000000000000000000000000000000000000000000000000000000081565b61007a6100ff366004610acb565b610463565b6100b27f000000000000000000000000000000000000000000000000000000000000000081565b6100b273af204776c7245bf4147c2612bf6e5972ee48370181565b60008073eeeeeeeeeeeeeeeeeeeeeeeeeeeeeeeeeeeeeeee6001600160a01b031683600001516001600160a01b03160361029e576020830151608084015160405163ef8b30f760e01b81526001600160a01b037f00000000000000000000000000000000000000000000000000000000000000001692632d9ebd1d9273af204776c7245bf4147c2612bf6e5972ee48370192839163ef8b30f7916101f1919060040190815260200190565b602060405180830381865afa15801561020e573d6000803e3d6000fd5b505050506040513d601f19601f820116820180604052508101906102329190610b5c565b60006040518563ffffffff1660e01b81526004016102539493929190610b75565b60408051808303816000875af1158015610271573d6000803e3d6000fd5b505050506040513d601f19601f820116820180604052508101906102959190610ba0565b91509150915091565b73eeeeeeeeeeeeeeeeeeeeeeeeeeeeeeeeeeeeeeee6001600160a01b031683602001516001600160a01b0316036104055782516080840151604051632d9ebd1d60e01b815260009283926001600160a01b037f00000000000000000000000000000000000000000000000000000000000000001692632d9ebd1d9261034092909173af204776c7245bf4147c2612bf6e5972ee48370191908790600401610b75565b60408051808303816000875af115801561035e573d6000803e3d6000fd5b505050506040513d601f19601f820116820180604052508101906103829190610ba0565b60405163266d6a8360e11b815260048101839052919350915073af204776c7245bf4147c2612bf6e5972ee48370190634cdad50690602401602060405180830381865afa1580156103d7573d6000803e3d6000fd5b505050506040513d601f19601f820116820180604052508101906103fb9190610b5c565b9590945092505050565b825160208401516080850151604051632d9ebd1d60e01b81526001600160a01b037f00000000000000000000000000000000000000000000000000000000000000001693632d9ebd1d93610253939192909190600090600401610b75565b606081015160009081906001600160a01b03166104d25760405162461bcd60e51b815260206004820152602260248201527f546f6b656e206f7574206d61726b6574206d757374206e6f74206265206e756c604482015261361760f11b60648201526084015b60405180910390fd5b600083606001516001600160a01b031663d03ecc646040518163ffffffff1660e01b8152600401602060405180830381865afa158015610516573d6000803e3d6000fd5b505050506040513d601f19601f8201168201806040525081019061053a9190610bd7565b905083604001516001600160a01b0316816001600160a01b0316146105a15760405162461bcd60e51b815260206004820152601e60248201527f43616e6e6f7420757365206d696e7420666f72207468697320706169722e000060448201526064016104c9565b83516001600160a01b031673eeeeeeeeeeeeeeeeeeeeeeeeeeeeeeeeeeeeeeee146105d057836080015161064a565b608084015160405163ef8b30f760e01b8152600481019190915273af204776c7245bf4147c2612bf6e5972ee4837019063ef8b30f790602401602060405180830381865afa158015610626573d6000803e3d6000fd5b505050506040513d601f19601f8201168201806040525081019061064a9190610b5c565b846080018181525050600084606001516001600160a01b0316632ddc7de76040518163ffffffff1660e01b8152600401602060405180830381865afa158015610697573d6000803e3d6000fd5b505050506040513d601f19601f820116820180604052508101906106bb9190610b5c565b604051636a16e06160e11b8152600481018290529091506000906001600160a01b037f0000000000000000000000000000000000000000000000000000000000000000169063d42dc0c290602401602060405180830381865afa158015610726573d6000803e3d6000fd5b505050506040513d601f19601f8201168201806040525081019061074a9190610b5c565b60808701516060880151604051630315311560e31b815260006004820181905293945083916001600160a01b0316906318a988a890602401600060405180830381865afa15801561079f573d6000803e3d6000fd5b505050506040513d6000823e601f3d908101601f191682016040526107c79190810190610bfb565b50905060005b8481101561096a5760608a0151604051630315311560e31b8152600481018390526001600160a01b03909116906318a988a890602401600060405180830381865afa158015610820573d6000803e3d6000fd5b505050506040513d6000823e601f3d908101601f191682016040526108489190810190610bfb565b508092505089602001516001600160a01b0316826001600160a01b0316146109585789516001600160a01b037f0000000000000000000000000000000000000000000000000000000000000000811691632d9ebd1d9185911673eeeeeeeeeeeeeeeeeeeeeeeeeeeeeeeeeeeeeeee146108c2578c516108d8565b73af204776c7245bf4147c2612bf6e5972ee4837015b8d6080015160006040518563ffffffff1660e01b81526004016108fe9493929190610b75565b60408051808303816000875af1925050508015610938575060408051601f3d908101601f1916820190925261093591810190610ba0565b60015b15610958576109478287610cd2565b9550610953818b610ceb565b995050505b8061096281610d0d565b9150506107cd565b508215610a5e5788516001600160a01b037f0000000000000000000000000000000000000000000000000000000000000000811691632d9ebd1d911673eeeeeeeeeeeeeeeeeeeeeeeeeeeeeeeeeeeeeeee146109c7578a516109dd565b73af204776c7245bf4147c2612bf6e5972ee4837015b8b602001518660006040518563ffffffff1660e01b8152600401610a049493929190610b75565b60408051808303816000875af1925050508015610a3e575060408051601f3d908101601f19168201909252610a3b91810190610ba0565b60015b15610a5e57610a4d8285610cd2565b9350610a59818a610ceb565b985050505b819750505050505050915091565b634e487b7160e01b600052604160045260246000fd5b604051601f8201601f1916810167ffffffffffffffff81118282101715610aab57610aab610a6c565b604052919050565b6001600160a01b0381168114610ac857600080fd5b50565b600060a08284031215610add57600080fd5b60405160a0810181811067ffffffffffffffff82111715610b0057610b00610a6c565b6040528235610b0e81610ab3565b81526020830135610b1e81610ab3565b60208201526040830135610b3181610ab3565b60408201526060830135610b4481610ab3565b60608201526080928301359281019290925250919050565b600060208284031215610b6e57600080fd5b5051919050565b6001600160a01b03948516815292841660208401526040830191909152909116606082015260800190565b60008060408385031215610bb357600080fd5b82519150602083015161ffff81168114610bcc57600080fd5b809150509250929050565b600060208284031215610be957600080fd5b8151610bf481610ab3565b9392505050565b60008060408385031215610c0e57600080fd5b8251610c1981610ab3565b8092505060208084015167ffffffffffffffff80821115610c3957600080fd5b818601915086601f830112610c4d57600080fd5b815181811115610c5f57610c5f610a6c565b610c71601f8201601f19168501610a82565b91508082528784828501011115610c8757600080fd5b60005b81811015610ca5578381018501518382018601528401610c8a565b506000848284010152508093505050509250929050565b634e487b7160e01b600052601160045260246000fd5b80820180821115610ce557610ce5610cbc565b92915050565b61ffff818116838216019080821115610d0657610d06610cbc565b5092915050565b600060018201610d1f57610d1f610cbc565b506001019056fea26469706673582212202e9ace3d0f85b8522acded6b493be59557c16047344dca7c9d113d445563d03664736f6c63430008140033",
  "devdoc": {
    "details": "Contract for generating trade quotes for the Seer trade manager.",
    "kind": "dev",
    "methods": {
      "constructor": {
        "details": "Constructor.",
        "params": {
          "_conditionalTokens": "ConditionalTokens contract.",
          "_swaprQuoter": "Quoter contract."
        }
      },
      "quoteMintSingle((address,address,address,address,uint256))": {
        "details": "Generates a quote for minting full set of market outcome tokens, keep desired outcome tokens while trying to sell the rest to re-buy more desired tokens.",
        "params": {
          "params": "Quote parameters."
        },
        "returns": {
          "amountOut": "Total amount of output tokens after minting + selling/re-buying.",
          "fee": "Total fee for selling + re-buying."
        }
      },
      "quoteSwapSingle((address,address,address,address,uint256))": {
        "details": "Generates a quote for swapping tokens.",
        "params": {
          "params": "Quote parameters."
        },
        "returns": {
          "amountOut": "Amount of output tokens.",
          "fee": "Swap fee."
        }
      }
    },
    "stateVariables": {
      "conditionalTokens": {
        "details": "ConditionalTokens contract."
      },
      "sDAI": {
        "details": "SavingsXDai contract."
      },
      "swaprQuoter": {
        "details": "Quoter contract."
      },
      "xDAI": {
        "details": "Dummy address representing xDAI."
      }
    },
    "version": 1
  },
  "userdoc": {
    "kind": "user",
    "methods": {},
    "version": 1
  },
  "storageLayout": {
    "storage": [],
    "types": null
  }
}