{
  "address": "0x940B602a3891fbb41650E83b6cF8aca0F1B3C2f1",
  "abi": [
    {
      "inputs": [
        {
          "internalType": "contract Wrapped1155Factory",
          "name": "_wrapped1155Factory",
          "type": "address"
        }
      ],
      "stateMutability": "nonpayable",
      "type": "constructor"
    },
    {
      "inputs": [
        {
          "internalType": "address",
          "name": "multiToken",
          "type": "address"
        },
        {
          "internalType": "uint256",
          "name": "tokenId",
          "type": "uint256"
        },
        {
          "internalType": "string",
          "name": "tokenName",
          "type": "string"
        },
        {
          "internalType": "string",
          "name": "tokenSymbol",
          "type": "string"
        }
      ],
      "name": "createWrappedToken",
      "outputs": [
        {
          "internalType": "contract IERC20",
          "name": "",
          "type": "address"
        }
      ],
      "stateMutability": "nonpayable",
      "type": "function"
    },
    {
      "inputs": [
        {
          "internalType": "uint256",
          "name": "",
          "type": "uint256"
        }
      ],
      "name": "data",
      "outputs": [
        {
          "internalType": "bytes",
          "name": "",
          "type": "bytes"
        }
      ],
      "stateMutability": "view",
      "type": "function"
    },
    {
      "inputs": [
        {
          "internalType": "string",
          "name": "value",
          "type": "string"
        }
      ],
      "name": "toString31",
      "outputs": [
        {
          "internalType": "bytes32",
          "name": "encodedString",
          "type": "bytes32"
        }
      ],
      "stateMutability": "pure",
      "type": "function"
    },
    {
      "inputs": [
        {
          "internalType": "uint256",
          "name": "",
          "type": "uint256"
        }
      ],
      "name": "tokens",
      "outputs": [
        {
          "internalType": "contract IERC20",
          "name": "",
          "type": "address"
        }
      ],
      "stateMutability": "view",
      "type": "function"
    },
    {
      "inputs": [],
      "name": "wrapped1155Factory",
      "outputs": [
        {
          "internalType": "contract Wrapped1155Factory",
          "name": "",
          "type": "address"
        }
      ],
      "stateMutability": "view",
      "type": "function"
    }
  ],
  "transactionHash": "0xa4741ba81336068a5b260cd0b070fc4d493519c654feb460a76f92b0d5bc09ad",
  "args": [
    "0xD194319D1804C1051DD21Ba1Dc931cA72410B79f"
  ],
  "numDeployments": 6,
  "solcInputHash": "a7b6681d59548aa215c1486481ab56ee",
  "bytecode": "0x60a060405234801561001057600080fd5b506040516107c33803806107c383398101604081905261002f91610040565b6001600160a01b0316608052610070565b60006020828403121561005257600080fd5b81516001600160a01b038116811461006957600080fd5b9392505050565b60805161073261009160003960008181608601526101f101526107326000f3fe608060405234801561001057600080fd5b50600436106100565760003560e01c80627469421461005b578063150c5b97146100815780634f64b2be146100c0578063bb13cd10146100e9578063f0ba8440146100fc575b600080fd5b61006e6100693660046103f1565b61011c565b6040519081526020015b60405180910390f35b6100a87f000000000000000000000000000000000000000000000000000000000000000081565b6040516001600160a01b039091168152602001610078565b6100a86100ce36600461042e565b6000602081905290815260409020546001600160a01b031681565b6100a86100f736600461045f565b610196565b61010f61010a36600461042e565b6102b4565b6040516100789190610525565b8051600090602081106101675760405162461bcd60e51b815260206004820152600f60248201526e737472696e6720746f6f206c6f6e6760881b604482015260640160405180910390fd5b602083015191506000600382602061017f919061053f565b600019911b1b9290921660019190911b1792915050565b6000806101a28461011c565b6101ab8461011c565b604080516020810193909352820152600960f91b606082015260610160408051601f1981840301815290829052631892c08760e11b825291506000906001600160a01b037f00000000000000000000000000000000000000000000000000000000000000001690633125810e9061022a908a908a908790600401610566565b6020604051808303816000875af1158015610249573d6000803e3d6000fd5b505050506040513d601f19601f8201168201806040525081019061026d9190610596565b60008781526020818152604080832080546001600160a01b0319166001600160a01b038616179055600190915290209091506102a9838261063c565b509695505050505050565b600160205260009081526040902080546102cd906105b3565b80601f01602080910402602001604051908101604052809291908181526020018280546102f9906105b3565b80156103465780601f1061031b57610100808354040283529160200191610346565b820191906000526020600020905b81548152906001019060200180831161032957829003601f168201915b505050505081565b634e487b7160e01b600052604160045260246000fd5b600082601f83011261037557600080fd5b813567ffffffffffffffff808211156103905761039061034e565b604051601f8301601f19908116603f011681019082821181831017156103b8576103b861034e565b816040528381528660208588010111156103d157600080fd5b836020870160208301376000602085830101528094505050505092915050565b60006020828403121561040357600080fd5b813567ffffffffffffffff81111561041a57600080fd5b61042684828501610364565b949350505050565b60006020828403121561044057600080fd5b5035919050565b6001600160a01b038116811461045c57600080fd5b50565b6000806000806080858703121561047557600080fd5b843561048081610447565b935060208501359250604085013567ffffffffffffffff808211156104a457600080fd5b6104b088838901610364565b935060608701359150808211156104c657600080fd5b506104d387828801610364565b91505092959194509250565b6000815180845260005b81811015610505576020818501810151868301820152016104e9565b506000602082860101526020601f19601f83011685010191505092915050565b60208152600061053860208301846104df565b9392505050565b8181038181111561056057634e487b7160e01b600052601160045260246000fd5b92915050565b60018060a01b038416815282602082015260606040820152600061058d60608301846104df565b95945050505050565b6000602082840312156105a857600080fd5b815161053881610447565b600181811c908216806105c757607f821691505b6020821081036105e757634e487b7160e01b600052602260045260246000fd5b50919050565b601f82111561063757600081815260208120601f850160051c810160208610156106145750805b601f850160051c820191505b8181101561063357828155600101610620565b5050505b505050565b815167ffffffffffffffff8111156106565761065661034e565b61066a8161066484546105b3565b846105ed565b602080601f83116001811461069f57600084156106875750858301515b600019600386901b1c1916600185901b178555610633565b600085815260208120601f198616915b828110156106ce578886015182559484019460019091019084016106af565b50858210156106ec5787850151600019600388901b60f8161c191681555b5050505050600190811b0190555056fea2646970667358221220ffe7477f4981388e9a00bf624dc0b708f9e06dd189959eb70ef758f5d4b7819364736f6c63430008140033",
  "devdoc": {
    "kind": "dev",
    "methods": {
      "constructor": {
        "details": "Constructor.",
        "params": {
          "_wrapped1155Factory": "Address of the Wrapped1155Factory implementation."
        }
      }
    },
    "version": 1
  },
  "userdoc": {
    "kind": "user",
    "methods": {},
    "version": 1
  },
  "storageLayout": {
    "storage": [
      {
        "astId": 3753,
        "contract": "src/interaction/WrappedERC20Factory.sol:WrappedERC20Factory",
        "label": "tokens",
        "offset": 0,
        "slot": "0",
        "type": "t_mapping(t_uint256,t_contract(IERC20)472)"
      },
      {
        "astId": 3757,
        "contract": "src/interaction/WrappedERC20Factory.sol:WrappedERC20Factory",
        "label": "data",
        "offset": 0,
        "slot": "1",
        "type": "t_mapping(t_uint256,t_bytes_storage)"
      }
    ],
    "types": {
      "t_bytes_storage": {
        "encoding": "bytes",
        "label": "bytes",
        "numberOfBytes": "32"
      },
      "t_contract(IERC20)472": {
        "encoding": "inplace",
        "label": "contract IERC20",
        "numberOfBytes": "20"
      },
      "t_mapping(t_uint256,t_bytes_storage)": {
        "encoding": "mapping",
        "key": "t_uint256",
        "label": "mapping(uint256 => bytes)",
        "numberOfBytes": "32",
        "value": "t_bytes_storage"
      },
      "t_mapping(t_uint256,t_contract(IERC20)472)": {
        "encoding": "mapping",
        "key": "t_uint256",
        "label": "mapping(uint256 => contract IERC20)",
        "numberOfBytes": "32",
        "value": "t_contract(IERC20)472"
      },
      "t_uint256": {
        "encoding": "inplace",
        "label": "uint256",
        "numberOfBytes": "32"
      }
    }
  }
}