{
  "address": "0x12BB49DeB8f293435e27F6F4Ab140184604cE346",
  "abi": [
    {
      "inputs": [
        {
          "internalType": "address",
          "name": "_market",
          "type": "address"
        },
        {
          "internalType": "address",
          "name": "_arbitrator",
          "type": "address"
        },
        {
          "internalType": "contract IRealityETH_v3_0",
          "name": "_realitio",
          "type": "address"
        },
        {
          "internalType": "contract IWrapped1155Factory",
          "name": "_wrapped1155Factory",
          "type": "address"
        },
        {
          "internalType": "contract IConditionalTokens",
          "name": "_conditionalTokens",
          "type": "address"
        },
        {
          "internalType": "address",
          "name": "_collateralToken",
          "type": "address"
        },
        {
          "internalType": "contract RealityProxy",
          "name": "_realityProxy",
          "type": "address"
        },
        {
          "internalType": "uint32",
          "name": "_questionTimeout",
          "type": "uint32"
        }
      ],
      "stateMutability": "nonpayable",
      "type": "constructor"
    },
    {
      "inputs": [],
      "name": "FailedDeployment",
      "type": "error"
    },
    {
      "inputs": [
        {
          "internalType": "uint256",
          "name": "balance",
          "type": "uint256"
        },
        {
          "internalType": "uint256",
          "name": "needed",
          "type": "uint256"
        }
      ],
      "name": "InsufficientBalance",
      "type": "error"
    },
    {
      "anonymous": false,
      "inputs": [
        {
          "indexed": true,
          "internalType": "address",
          "name": "market",
          "type": "address"
        },
        {
          "indexed": false,
          "internalType": "string",
          "name": "marketName",
          "type": "string"
        },
        {
          "indexed": false,
          "internalType": "address",
          "name": "parentMarket",
          "type": "address"
        },
        {
          "indexed": false,
          "internalType": "bytes32",
          "name": "conditionId",
          "type": "bytes32"
        },
        {
          "indexed": false,
          "internalType": "bytes32",
          "name": "questionId",
          "type": "bytes32"
        },
        {
          "indexed": false,
          "internalType": "bytes32[]",
          "name": "questionsIds",
          "type": "bytes32[]"
        }
      ],
      "name": "NewMarket",
      "type": "event"
    },
    {
      "inputs": [],
      "name": "allMarkets",
      "outputs": [
        {
          "internalType": "address[]",
          "name": "",
          "type": "address[]"
        }
      ],
      "stateMutability": "view",
      "type": "function"
    },
    {
      "inputs": [],
      "name": "arbitrator",
      "outputs": [
        {
          "internalType": "address",
          "name": "",
          "type": "address"
        }
      ],
      "stateMutability": "view",
      "type": "function"
    },
    {
      "inputs": [],
      "name": "collateralToken",
      "outputs": [
        {
          "internalType": "address",
          "name": "",
          "type": "address"
        }
      ],
      "stateMutability": "view",
      "type": "function"
    },
    {
      "inputs": [],
      "name": "conditionalTokens",
      "outputs": [
        {
          "internalType": "contract IConditionalTokens",
          "name": "",
          "type": "address"
        }
      ],
      "stateMutability": "view",
      "type": "function"
    },
    {
      "inputs": [
        {
          "components": [
            {
              "internalType": "string",
              "name": "marketName",
              "type": "string"
            },
            {
              "internalType": "string[]",
              "name": "outcomes",
              "type": "string[]"
            },
            {
              "internalType": "string",
              "name": "questionStart",
              "type": "string"
            },
            {
              "internalType": "string",
              "name": "questionEnd",
              "type": "string"
            },
            {
              "internalType": "string",
              "name": "outcomeType",
              "type": "string"
            },
            {
              "internalType": "uint256",
              "name": "parentOutcome",
              "type": "uint256"
            },
            {
              "internalType": "address",
              "name": "parentMarket",
              "type": "address"
            },
            {
              "internalType": "string",
              "name": "category",
              "type": "string"
            },
            {
              "internalType": "string",
              "name": "lang",
              "type": "string"
            },
            {
              "internalType": "uint256",
              "name": "lowerBound",
              "type": "uint256"
            },
            {
              "internalType": "uint256",
              "name": "upperBound",
              "type": "uint256"
            },
            {
              "internalType": "uint256",
              "name": "minBond",
              "type": "uint256"
            },
            {
              "internalType": "uint32",
              "name": "openingTime",
              "type": "uint32"
            },
            {
              "internalType": "string[]",
              "name": "tokenNames",
              "type": "string[]"
            }
          ],
          "internalType": "struct MarketFactory.CreateMarketParams",
          "name": "params",
          "type": "tuple"
        }
      ],
      "name": "createCategoricalMarket",
      "outputs": [
        {
          "internalType": "address",
          "name": "",
          "type": "address"
        }
      ],
      "stateMutability": "nonpayable",
      "type": "function"
    },
    {
      "inputs": [
        {
          "components": [
            {
              "internalType": "string",
              "name": "marketName",
              "type": "string"
            },
            {
              "internalType": "string[]",
              "name": "outcomes",
              "type": "string[]"
            },
            {
              "internalType": "string",
              "name": "questionStart",
              "type": "string"
            },
            {
              "internalType": "string",
              "name": "questionEnd",
              "type": "string"
            },
            {
              "internalType": "string",
              "name": "outcomeType",
              "type": "string"
            },
            {
              "internalType": "uint256",
              "name": "parentOutcome",
              "type": "uint256"
            },
            {
              "internalType": "address",
              "name": "parentMarket",
              "type": "address"
            },
            {
              "internalType": "string",
              "name": "category",
              "type": "string"
            },
            {
              "internalType": "string",
              "name": "lang",
              "type": "string"
            },
            {
              "internalType": "uint256",
              "name": "lowerBound",
              "type": "uint256"
            },
            {
              "internalType": "uint256",
              "name": "upperBound",
              "type": "uint256"
            },
            {
              "internalType": "uint256",
              "name": "minBond",
              "type": "uint256"
            },
            {
              "internalType": "uint32",
              "name": "openingTime",
              "type": "uint32"
            },
            {
              "internalType": "string[]",
              "name": "tokenNames",
              "type": "string[]"
            }
          ],
          "internalType": "struct MarketFactory.CreateMarketParams",
          "name": "params",
          "type": "tuple"
        }
      ],
      "name": "createMultiCategoricalMarket",
      "outputs": [
        {
          "internalType": "address",
          "name": "",
          "type": "address"
        }
      ],
      "stateMutability": "nonpayable",
      "type": "function"
    },
    {
      "inputs": [
        {
          "components": [
            {
              "internalType": "string",
              "name": "marketName",
              "type": "string"
            },
            {
              "internalType": "string[]",
              "name": "outcomes",
              "type": "string[]"
            },
            {
              "internalType": "string",
              "name": "questionStart",
              "type": "string"
            },
            {
              "internalType": "string",
              "name": "questionEnd",
              "type": "string"
            },
            {
              "internalType": "string",
              "name": "outcomeType",
              "type": "string"
            },
            {
              "internalType": "uint256",
              "name": "parentOutcome",
              "type": "uint256"
            },
            {
              "internalType": "address",
              "name": "parentMarket",
              "type": "address"
            },
            {
              "internalType": "string",
              "name": "category",
              "type": "string"
            },
            {
              "internalType": "string",
              "name": "lang",
              "type": "string"
            },
            {
              "internalType": "uint256",
              "name": "lowerBound",
              "type": "uint256"
            },
            {
              "internalType": "uint256",
              "name": "upperBound",
              "type": "uint256"
            },
            {
              "internalType": "uint256",
              "name": "minBond",
              "type": "uint256"
            },
            {
              "internalType": "uint32",
              "name": "openingTime",
              "type": "uint32"
            },
            {
              "internalType": "string[]",
              "name": "tokenNames",
              "type": "string[]"
            }
          ],
          "internalType": "struct MarketFactory.CreateMarketParams",
          "name": "params",
          "type": "tuple"
        }
      ],
      "name": "createMultiScalarMarket",
      "outputs": [
        {
          "internalType": "address",
          "name": "",
          "type": "address"
        }
      ],
      "stateMutability": "nonpayable",
      "type": "function"
    },
    {
      "inputs": [
        {
          "components": [
            {
              "internalType": "string",
              "name": "marketName",
              "type": "string"
            },
            {
              "internalType": "string[]",
              "name": "outcomes",
              "type": "string[]"
            },
            {
              "internalType": "string",
              "name": "questionStart",
              "type": "string"
            },
            {
              "internalType": "string",
              "name": "questionEnd",
              "type": "string"
            },
            {
              "internalType": "string",
              "name": "outcomeType",
              "type": "string"
            },
            {
              "internalType": "uint256",
              "name": "parentOutcome",
              "type": "uint256"
            },
            {
              "internalType": "address",
              "name": "parentMarket",
              "type": "address"
            },
            {
              "internalType": "string",
              "name": "category",
              "type": "string"
            },
            {
              "internalType": "string",
              "name": "lang",
              "type": "string"
            },
            {
              "internalType": "uint256",
              "name": "lowerBound",
              "type": "uint256"
            },
            {
              "internalType": "uint256",
              "name": "upperBound",
              "type": "uint256"
            },
            {
              "internalType": "uint256",
              "name": "minBond",
              "type": "uint256"
            },
            {
              "internalType": "uint32",
              "name": "openingTime",
              "type": "uint32"
            },
            {
              "internalType": "string[]",
              "name": "tokenNames",
              "type": "string[]"
            }
          ],
          "internalType": "struct MarketFactory.CreateMarketParams",
          "name": "params",
          "type": "tuple"
        }
      ],
      "name": "createScalarMarket",
      "outputs": [
        {
          "internalType": "address",
          "name": "",
          "type": "address"
        }
      ],
      "stateMutability": "nonpayable",
      "type": "function"
    },
    {
      "inputs": [],
      "name": "market",
      "outputs": [
        {
          "internalType": "address",
          "name": "",
          "type": "address"
        }
      ],
      "stateMutability": "view",
      "type": "function"
    },
    {
      "inputs": [],
      "name": "marketCount",
      "outputs": [
        {
          "internalType": "uint256",
          "name": "",
          "type": "uint256"
        }
      ],
      "stateMutability": "view",
      "type": "function"
    },
    {
      "inputs": [
        {
          "internalType": "uint256",
          "name": "",
          "type": "uint256"
        }
      ],
      "name": "markets",
      "outputs": [
        {
          "internalType": "address",
          "name": "",
          "type": "address"
        }
      ],
      "stateMutability": "view",
      "type": "function"
    },
    {
      "inputs": [],
      "name": "questionTimeout",
      "outputs": [
        {
          "internalType": "uint32",
          "name": "",
          "type": "uint32"
        }
      ],
      "stateMutability": "view",
      "type": "function"
    },
    {
      "inputs": [],
      "name": "realitio",
      "outputs": [
        {
          "internalType": "contract IRealityETH_v3_0",
          "name": "",
          "type": "address"
        }
      ],
      "stateMutability": "view",
      "type": "function"
    },
    {
      "inputs": [],
      "name": "realityProxy",
      "outputs": [
        {
          "internalType": "contract RealityProxy",
          "name": "",
          "type": "address"
        }
      ],
      "stateMutability": "view",
      "type": "function"
    },
    {
      "inputs": [],
      "name": "wrapped1155Factory",
      "outputs": [
        {
          "internalType": "contract IWrapped1155Factory",
          "name": "",
          "type": "address"
        }
      ],
      "stateMutability": "view",
      "type": "function"
    }
  ],
  "transactionHash": "0x247c42d02687a19c08f400bcc70ad758bf991dd27b6769ab8b1b2be10835d665",
  "args": [
    "0xAb797C4C6022A401c31543E316D3cd04c67a87fC",
    "0x0000000000000000000000000000000000000000",
    "0x0eF940F7f053a2eF5D6578841072488aF0c7d89A",
    "0xd194319d1804c1051dd21ba1dc931ca72410b79f",
    "0x8bdC504dC3A05310059c1c67E0A2667309D27B93",
    "0xb5b2dc7fd34c249f4be7fb1fcea07950784229e0",
    "0xfE8bF5140F00de6F75BAFa3Ca0f4ebf2084A46B2",
    302400
  ],
  "numDeployments": 1,
  "solcInputHash": "1956f874b7d1788e92cca2a771e1af4e",
  "bytecode": "0x6101806040523480156200001257600080fd5b50604051620028ed380380620028ed833981016040819052620000359162000091565b6001600160a01b039788166101605295871660a05293861660c05291851660e0528416610100528316610120529091166101405263ffffffff166080526200015a565b6001600160a01b03811681146200008e57600080fd5b50565b600080600080600080600080610100898b031215620000af57600080fd5b8851620000bc8162000078565b60208a0151909850620000cf8162000078565b60408a0151909750620000e28162000078565b60608a0151909650620000f58162000078565b60808a0151909550620001088162000078565b60a08a01519094506200011b8162000078565b60c08a01519093506200012e8162000078565b60e08a015190925063ffffffff811681146200014957600080fd5b809150509295985092959890939650565b60805160a05160c05160e051610100516101205161014051610160516126a26200024b6000396000818161020f0152610c6e01526000818161015f01528181610cc2015281816114a101526115f801526000818161025c01526117bf0152600081816101ae01528181610ea4015281816114720152818161153a015281816115cb01528181611735015281816117f401526119ae01526000818160df01526119810152600081816102830152818161128b015281816112fd015261139b0152600081816101d50152818161122201526113cc0152600081816101230152818161125a01526113ee01526126a26000f3fe608060405234801561001057600080fd5b50600436106100d55760003560e01c80637ca5cb3e116100875780637ca5cb3e146101f757806380f556051461020a5780638770b18014610231578063b1283e7714610244578063b2016bd414610257578063bc8802a21461027e578063ec979082146102a5578063ff08d88f146102b657600080fd5b8063150c5b97146100da5780631ba18b9b1461011e5780632ff8d5041461015a5780633412a3f914610181578063375a7cba146101945780635bd9e299146101a95780636cc6cde1146101d0575b600080fd5b6101017f000000000000000000000000000000000000000000000000000000000000000081565b6040516001600160a01b0390911681526020015b60405180910390f35b6101457f000000000000000000000000000000000000000000000000000000000000000081565b60405163ffffffff9091168152602001610115565b6101017f000000000000000000000000000000000000000000000000000000000000000081565b61010161018f366004611b9e565b6102c9565b61019c6104b6565b6040516101159190611bd9565b6101017f000000000000000000000000000000000000000000000000000000000000000081565b6101017f000000000000000000000000000000000000000000000000000000000000000081565b610101610205366004611b9e565b610518565b6101017f000000000000000000000000000000000000000000000000000000000000000081565b61010161023f366004611b9e565b6107da565b610101610252366004611c26565b6108eb565b6101017f000000000000000000000000000000000000000000000000000000000000000081565b6101017f000000000000000000000000000000000000000000000000000000000000000081565b600054604051908152602001610115565b6101016102c4366004611b9e565b610915565b600060026102da6020840184611c3f565b905010156103035760405162461bcd60e51b81526004016102fa90611c88565b60405180910390fd5b604080516001808252818301909252600091816020015b606081526020019060019003908161031a57905050905061040a61033e8480611cd3565b8080601f016020809104026020016040519081016040528093929190818152602001838380828437600092019190915250610380925050506020860186611c3f565b61038d60e0880188611cd3565b8080601f0160208091040260200160405190810160405280939291908181526020018383808284376000920191909152506103d092505050610100890189611cd3565b8080601f016020809104026020016040519081016040528093929190818152602001838380828437600092019190915250610b3c92505050565b8160008151811061041d5761041d611d19565b60200260200101819052506104af8361043590611eda565b61043f8580611cd3565b8080601f01602080910402602001604051908101604052809392919081815260200183838082843760009201919091525050604080516060810190915286815291505060208082019061049490890189611c3f565b6104a091506001612094565b81526003602090910152610c54565b9392505050565b6060600080548060200260200160405190810160405280929190818152602001828054801561050e57602002820191906000526020600020905b81546001600160a01b031681526001909101906020018083116104f0575b5050505050905090565b6000816101200135826101400135116105855760405162461bcd60e51b815260206004820152602960248201527f7570706572426f756e64206d75737420626520686967686572207468616e206c6044820152681bddd95c909bdd5b9960ba1b60648201526084016102fa565b61059260026000196120a7565b826101400135106105fa5760405162461bcd60e51b815260206004820152602c60248201527f7570706572426f756e64206d757374206265206c657373207468616e2075696e60448201526b3a191a9b1736b0bc1016901960a11b60648201526084016102fa565b6106076020830183611c3f565b90506002146106535760405162461bcd60e51b815260206004820152601860248201527727baba31b7b6b2b99031b7bab73a1036bab9ba103132901960411b60448201526064016102fa565b604080516001808252818301909252600091816020015b606081526020019060019003908161066a57905050905061074d61068e8480611cd3565b8080601f0160208091040260200160405190810160405280939291908181526020018383808284376000920191909152506106d09250505060e0860186611cd3565b8080601f01602080910402602001604051908101604052809392919081815260200183838082843760009201919091525061071392505050610100870187611cd3565b8080601f016020809104026020016040519081016040528093929190818152602001838380828437600092019190915250610ddc92505050565b8160008151811061076057610760611d19565b60200260200101819052506104af8361077890611eda565b6107828580611cd3565b8080601f0160208091040260200160405190810160405280939291908181526020018383808284376000920191909152505060408051606081018252878152600360208201526001918101919091529150610c549050565b600060026107eb6020840184611c3f565b9050101561080b5760405162461bcd60e51b81526004016102fa90611c88565b604080516001808252818301909252600091816020015b606081526020019060019003908161082257905050905061084661033e8480611cd3565b8160008151811061085957610859611d19565b60200260200101819052506104af8361087190611eda565b61087b8580611cd3565b8080601f0160208091040260200160405190810160405280939291908181526020018383808284376000920191909152505060408051606081019091528681529150506020808201906108d090890189611c3f565b6108dc91506001612094565b81526002602090910152610c54565b600081815481106108fb57600080fd5b6000918252602090912001546001600160a01b0316905081565b600060026109266020840184611c3f565b905010156109465760405162461bcd60e51b81526004016102fa90611c88565b60006109556020840184611c3f565b90506001600160401b0381111561096e5761096e611cbd565b6040519080825280602002602001820160405280156109a157816020015b606081526020019060019003908161098c5790505b50905060005b6109b46020850185611c3f565b9050811015610aae57610a7e6109cd6040860186611cd3565b6109da6020880188611c3f565b858181106109ea576109ea611d19565b90506020028101906109fc9190611cd3565b610a0960608a018a611cd3565b604051602001610a1e969594939291906120ba565b60408051601f19818403018152919052610a3b60e0870187611cd3565b8080601f01602080910402602001604051908101604052809392919081815260200183838082843760009201919091525061071392505050610100880188611cd3565b828281518110610a9057610a90611d19565b60200260200101819052508080610aa6906120ea565b9150506109a7565b506104af610abb84611eda565b610ac86040860186611cd3565b610ad56080880188611cd3565b610ae260608a018a611cd3565b604051602001610af796959493929190612103565b60408051601f198184030181526060830190915284825290602081810190610b2190890189611c3f565b610b2d91506001612094565b81526001602090910152610c54565b60606000604051602001610b599062e2909f60e81b815260030190565b6040516020818303038152906040529050600086866000818110610b7f57610b7f611d19565b9050602002810190610b919190611cd3565b604051602001610ba2929190612145565b60408051601f19818403018152919052905060015b86811015610c1a5781888883818110610bd257610bd2611d19565b9050602002810190610be49190611cd3565b604051602001610bf693929190612190565b60405160208183030381529060405291508080610c12906120ea565b915050610bb7565b5087828284888689604051602001610c3897969594939291906121cf565b6040516020818303038152906040529250505095945050505050565b6000806000610c638685610e3c565b915091506000610c9b7f00000000000000000000000000000000000000000000000000000000000000006001600160a01b03166111c9565b9050806001600160a01b031663d0e2ca658789602001518a61012001518b610140015188887f00000000000000000000000000000000000000000000000000000000000000006040518863ffffffff1660e01b8152600401610d03979695949392919061235e565b600060405180830381600087803b158015610d1d57600080fd5b505af1158015610d31573d6000803e3d6000fd5b50505060c08801518451608086015185516040516001600160a01b03871695507f109e5ac06d4835cca9a97d9014f7bb1bfafb85a2de6d4af1ad22aa8730e12c8794610d82948d9491939092612464565b60405180910390a2600080546001810182559080527f290decd9548b62a8d60345a988386fc84ba6bc95484008f6362f93160ef3e5630180546001600160a01b0319166001600160a01b0383161790559695505050505050565b60606000604051602001610df99062e2909f60e81b815260030190565b60405160208183030381529060405290508481858386604051602001610e239594939291906124a6565b6040516020818303038152906040529150509392505050565b6040805160e0810182526000808252602080830182905282840182905260608084018390526080840183905260a0840181905260c084018190528451808201865281815291820192909252928301529060c08401516000906001600160a01b031615611018577f00000000000000000000000000000000000000000000000000000000000000006001600160a01b031663856296f78660c001516001600160a01b03166344bea37e6040518163ffffffff1660e01b8152600401602060405180830381865afa158015610f13573d6000803e3d6000fd5b505050506040513d601f19601f82011682018060405250810190610f379190612511565b8760c001516001600160a01b0316632ddc7de76040518163ffffffff1660e01b8152600401602060405180830381865afa158015610f79573d6000803e3d6000fd5b505050506040513d601f19601f82011682018060405250810190610f9d9190612511565b60a08901516040516001600160e01b031960e086901b168152600481019390935260248301919091526001901b6044820152606401602060405180830381865afa158015610fef573d6000803e3d6000fd5b505050506040513d601f19601f820116820180604052508101906110139190612511565b61101b565b60005b905060008460000151516001600160401b0381111561103c5761103c611cbd565b604051908082528060200260200182016040528015611065578160200160208202803683370190505b50905060005b8551518110156110db576110ac8660000151828151811061108e5761108e611d19565b602002602001015187604001518961018001518a61016001516111dc565b8282815181106110be576110be611d19565b6020908102919091010152806110d3816120ea565b91505061106b565b5060008187602001515187604001518961012001518a610140015160405160200161110a95949392919061252a565b604051602081830303815290604052805190602001209050600061113282886020015161146d565b905060008061114c86848b602001518d6101a0015161165d565b915091506040518060e001604052808481526020018781526020018b60a0015181526020018b60c001516001600160a01b031681526020018581526020018381526020018281525060405180606001604052808781526020018b6040015181526020018b60000151815250975097505050505050505b9250929050565b60006111d6826000611a92565b92915050565b6000808484876040516020016111f493929190612561565b60408051601f1981840301815282825280516020918201209083018190526bffffffffffffffffffffffff197f0000000000000000000000000000000000000000000000000000000000000000606090811b8216938501939093526001600160e01b03197f000000000000000000000000000000000000000000000000000000000000000060e01b166054850152605884018790527f0000000000000000000000000000000000000000000000000000000000000000831b811660788501523090921b909116608c830152600060a083018190529092509060c00160408051808303601f19018152908290528051602090910120634f8812e360e11b82526004820181905291507f00000000000000000000000000000000000000000000000000000000000000006001600160a01b031690639f1025c690602401602060405180830381865afa15801561134c573d6000803e3d6000fd5b505050506040513d601f19601f82011682018060405250810190611370919061259a565b63ffffffff16156113845791506114659050565b604051631212e4f160e21b81526001600160a01b037f0000000000000000000000000000000000000000000000000000000000000000169063484b93c49061141d9089908b907f0000000000000000000000000000000000000000000000000000000000000000907f0000000000000000000000000000000000000000000000000000000000000000908c906000908d906004016125b7565b6020604051808303816000875af115801561143c573d6000803e3d6000fd5b505050506040513d601f19601f820116820180604052508101906114609190612511565b925050505b949350505050565b6000807f00000000000000000000000000000000000000000000000000000000000000006001600160a01b031663852c6ae27f000000000000000000000000000000000000000000000000000000000000000086866040518463ffffffff1660e01b81526004016114e093929190612607565b602060405180830381865afa1580156114fd573d6000803e3d6000fd5b505050506040513d601f19601f820116820180604052508101906115219190612511565b604051636a16e06160e11b8152600481018290529091507f00000000000000000000000000000000000000000000000000000000000000006001600160a01b03169063d42dc0c290602401602060405180830381865afa158015611589573d6000803e3d6000fd5b505050506040513d601f19601f820116820180604052508101906115ad9190612511565b6000036104af5760405163365bb9d560e21b81526001600160a01b037f0000000000000000000000000000000000000000000000000000000000000000169063d96ee75490611624907f00000000000000000000000000000000000000000000000000000000000000009088908890600401612607565b600060405180830381600087803b15801561163e57600080fd5b505af1158015611652573d6000803e3d6000fd5b505050509392505050565b606080600061166d6001866120a7565b9050846001600160401b0381111561168757611687611cbd565b6040519080825280602002602001820160405280156116b0578160200160208202803683370190505b509250846001600160401b038111156116cb576116cb611cbd565b6040519080825280602002602001820160405280156116fe57816020015b60608152602001906001900390816116e95790505b50915060005b85811015611a875760405163856296f760e01b815260048101899052602481018890526001821b60448201526000907f00000000000000000000000000000000000000000000000000000000000000006001600160a01b03169063856296f790606401602060405180830381865afa158015611784573d6000803e3d6000fd5b505050506040513d601f19601f820116820180604052508101906117a89190612511565b60405163039dd75360e41b81526001600160a01b037f000000000000000000000000000000000000000000000000000000000000000081166004830152602482018390529192506000917f000000000000000000000000000000000000000000000000000000000000000016906339dd753090604401602060405180830381865afa15801561183b573d6000803e3d6000fd5b505050506040513d601f19601f8201168201806040525081019061185f9190612511565b90508383148061188a575086838151811061187c5761187c611d19565b602002602001015151600014155b6118cb5760405162461bcd60e51b81526020600482015260126024820152714d697373696e6720746f6b656e206e616d6560701b60448201526064016102fa565b600061191f8585146118f6578885815181106118e9576118e9611d19565b6020026020010151611b28565b6040518060400160405280600b81526020016a14d1548b5253959053125160aa1b815250611b28565b61193b8686146118f6578986815181106118e9576118e9611d19565b604080516020810193909352820152600960f91b606082015260610160408051601f1981840301815290829052631892c08760e11b825291506000906001600160a01b037f00000000000000000000000000000000000000000000000000000000000000001690633125810e906119da907f00000000000000000000000000000000000000000000000000000000000000009087908790600401612628565b6020604051808303816000875af11580156119f9573d6000803e3d6000fd5b505050506040513d601f19601f82011682018060405250810190611a1d919061264f565b905080888681518110611a3257611a32611d19565b60200260200101906001600160a01b031690816001600160a01b03168152505081878681518110611a6557611a65611d19565b6020026020010181905250505050508080611a7f906120ea565b915050611704565b505094509492505050565b600081471015611abe5760405163cf47918160e01b8152476004820152602481018390526044016102fa565b763d602d80600a3d3981f3363d3d373d3d3d363d730000008360601b60e81c176000526e5af43d82803e903d91602b57fd5bf38360781b176020526037600983f090506001600160a01b0381166111d65760405163b06ebf3d60e01b815260040160405180910390fd5b805160009060208110611b6f5760405162461bcd60e51b815260206004820152600f60248201526e737472696e6720746f6f206c6f6e6760881b60448201526064016102fa565b6020830151915060006003826020611b8791906120a7565b600019911b1b9290921660019190911b1792915050565b600060208284031215611bb057600080fd5b81356001600160401b03811115611bc657600080fd5b82016101c081850312156104af57600080fd5b6020808252825182820181905260009190848201906040850190845b81811015611c1a5783516001600160a01b031683529284019291840191600101611bf5565b50909695505050505050565b600060208284031215611c3857600080fd5b5035919050565b6000808335601e19843603018112611c5657600080fd5b8301803591506001600160401b03821115611c7057600080fd5b6020019150600581901b36038213156111c257600080fd5b6020808252818101527f4f7574636f6d657320636f756e74206d7573742062652032206f72206d6f7265604082015260600190565b634e487b7160e01b600052604160045260246000fd5b6000808335601e19843603018112611cea57600080fd5b8301803591506001600160401b03821115611d0457600080fd5b6020019150368190038213156111c257600080fd5b634e487b7160e01b600052603260045260246000fd5b6040516101c081016001600160401b0381118282101715611d5257611d52611cbd565b60405290565b604051601f8201601f191681016001600160401b0381118282101715611d8057611d80611cbd565b604052919050565b600082601f830112611d9957600080fd5b81356001600160401b03811115611db257611db2611cbd565b611dc5601f8201601f1916602001611d58565b818152846020838601011115611dda57600080fd5b816020850160208301376000918101602001919091529392505050565b600082601f830112611e0857600080fd5b813560206001600160401b0380831115611e2457611e24611cbd565b8260051b611e33838201611d58565b9384528581018301938381019088861115611e4d57600080fd5b84880192505b85831015611e8957823584811115611e6b5760008081fd5b611e798a87838c0101611d88565b8352509184019190840190611e53565b98975050505050505050565b6001600160a01b0381168114611eaa57600080fd5b50565b8035611eb881611e95565b919050565b63ffffffff81168114611eaa57600080fd5b8035611eb881611ebd565b60006101c08236031215611eed57600080fd5b611ef5611d2f565b82356001600160401b0380821115611f0c57600080fd5b611f1836838701611d88565b83526020850135915080821115611f2e57600080fd5b611f3a36838701611df7565b60208401526040850135915080821115611f5357600080fd5b611f5f36838701611d88565b60408401526060850135915080821115611f7857600080fd5b611f8436838701611d88565b60608401526080850135915080821115611f9d57600080fd5b611fa936838701611d88565b608084015260a085013560a0840152611fc460c08601611ead565b60c084015260e0850135915080821115611fdd57600080fd5b611fe936838701611d88565b60e08401526101009150818501358181111561200457600080fd5b61201036828801611d88565b928401929092526101208581013590840152610140808601359084015261016080860135908401526101809150612048828601611ecf565b828401526101a09150818501358181111561206257600080fd5b61206e36828801611df7565b8385015250505080915050919050565b634e487b7160e01b600052601160045260246000fd5b808201808211156111d6576111d661207e565b818103818111156111d6576111d661207e565b85878237600086820160008152858782376000908601908152838582376000930192835250909695505050505050565b6000600182016120fc576120fc61207e565b5060010190565b858782376000868201605b60f81b815285876001830137605d60f81b600191870191820152838560028301376000930160020192835250909695505050505050565b601160f91b8082526000908385600185013792909101600181019290925250600201919050565b60005b8381101561218757818101518382015260200161216f565b50506000910152565b600084516121a281846020890161216c565b61161160f11b90830190815283856002830137601160f91b93016002810193909352505060030192915050565b6000885160206121e28285838e0161216c565b8951918401916121f58184848e0161216c565b89519201916122078184848d0161216c565b88519201916122198184848c0161216c565b875192019161222b8184848b0161216c565b865192019161223d8184848a0161216c565b855192019161224f818484890161216c565b919091019a9950505050505050505050565b6000815180845261227981602086016020860161216c565b601f01601f19169290920160200192915050565b600081518084526020808501808196508360051b8101915082860160005b858110156122d55782840389526122c3848351612261565b988501989350908401906001016122ab565b5091979650505050505050565b600081518084526020808501945080840160005b83811015612312578151875295820195908201906001016122f6565b509495945050505050565b600081516060845261233260608501826122e2565b90506020830151602085015260408301518482036040860152612355828261228d565b95945050505050565b60e08152600061237160e083018a612261565b602083820381850152612384828b61228d565b9150886040850152876060850152838203608085015260e0820187518352818801518284015260408801516040840152606088015160018060a01b03808216606086015260808a0151608086015260a08a0151915060e060a0860152828251808552610100870191508584019450600093505b80841015612419578451831682529385019360019390930192908501906123f7565b5060c08b0151945085810360c0870152612433818661228d565b9550505050505082810360a084015261244c818661231d565b915050611e8960c08301846001600160a01b03169052565b60a08152600061247760a0830188612261565b6001600160a01b038716602084015260408301869052606083018590528281036080840152611e8981856122e2565b600086516124b8818460208b0161216c565b8651908301906124cc818360208b0161216c565b86519101906124df818360208a0161216c565b85519101906124f281836020890161216c565b845191019061250581836020880161216c565b01979650505050505050565b60006020828403121561252357600080fd5b5051919050565b60a08152600061253d60a08301886122e2565b90508560208301528460408301528360608301528260808301529695505050505050565b83815263ffffffff60e01b8360e01b1660208201526000825161258b81602485016020870161216c565b91909101602401949350505050565b6000602082840312156125ac57600080fd5b81516104af81611ebd565b87815260e0602082015260006125d060e0830189612261565b6001600160a01b039790971660408301525063ffffffff948516606082015292909316608083015260a082015260c0015292915050565b6001600160a01b039390931683526020830191909152604082015260600190565b60018060a01b03841681528260208201526060604082015260006123556060830184612261565b60006020828403121561266157600080fd5b81516104af81611e9556fea264697066735822122047ad13d5ce5368fbdf8b6f1624ebee6ee80c3111ce449e24bea47adb40a985fd64736f6c63430008140033",
  "devdoc": {
    "errors": {
      "FailedDeployment()": [
        {
          "details": "The deployment failed."
        }
      ],
      "InsufficientBalance(uint256,uint256)": [
        {
          "details": "The ETH balance of the account is not enough to perform the operation."
        }
      ]
    },
    "events": {
      "NewMarket(address,string,address,bytes32,bytes32,bytes32[])": {
        "details": "To be emitted when a new market is created.",
        "params": {
          "conditionId": "Conditional Tokens conditionId.",
          "market": "The new market address.",
          "marketName": "The name of the market.",
          "parentMarket": "Conditional market to use.",
          "questionId": "Conditional Tokens questionId.",
          "questionsIds": "Reality questions ids."
        }
      }
    },
    "kind": "dev",
    "methods": {
      "allMarkets()": {
        "details": "Returns all the markets created by this factory.",
        "returns": {
          "_0": "The addresses of the markets."
        }
      },
      "constructor": {
        "details": "Constructor.",
        "params": {
          "_arbitrator": "Address of the arbitrator that is going to resolve Realitio disputes.",
          "_collateralToken": "Address of the collateral token.",
          "_conditionalTokens": "Address of the ConditionalTokens implementation.",
          "_market": "Address of the market contract that is going to be used for each new deployment.",
          "_questionTimeout": "Reality question timeout.",
          "_realitio": "Address of the Realitio implementation.",
          "_realityProxy": "Address of the RealityProxy implementation.",
          "_wrapped1155Factory": "Address of the Wrapped1155Factory implementation."
        }
      },
      "createCategoricalMarket((string,string[],string,string,string,uint256,address,string,string,uint256,uint256,uint256,uint32,string[]))": {
        "details": "Creates a Categorical market.",
        "params": {
          "params": "CreateMarketParams instance."
        },
        "returns": {
          "_0": "The new market address."
        }
      },
      "createMultiCategoricalMarket((string,string[],string,string,string,uint256,address,string,string,uint256,uint256,uint256,uint32,string[]))": {
        "details": "Creates a Multi Categorical market.",
        "params": {
          "params": "CreateMarketParams instance."
        },
        "returns": {
          "_0": "The new market address."
        }
      },
      "createMultiScalarMarket((string,string[],string,string,string,uint256,address,string,string,uint256,uint256,uint256,uint32,string[]))": {
        "details": "Creates a Multi Scalar market.",
        "params": {
          "params": "CreateMarketParams instance."
        },
        "returns": {
          "_0": "The new market address."
        }
      },
      "createScalarMarket((string,string[],string,string,string,uint256,address,string,string,uint256,uint256,uint256,uint32,string[]))": {
        "details": "Creates a Scalar market.",
        "params": {
          "params": "CreateMarketParams instance."
        },
        "returns": {
          "_0": "The new market address."
        }
      },
      "marketCount()": {
        "returns": {
          "_0": "The amount of markets."
        }
      }
    },
    "stateVariables": {
      "REALITY_MULTI_SELECT_TEMPLATE": {
        "details": "Template for multi categorical markets."
      },
      "REALITY_SINGLE_SELECT_TEMPLATE": {
        "details": "Template for categorical markets."
      },
      "REALITY_UINT_TEMPLATE": {
        "details": "Template for scalar and multi scalar markets."
      },
      "arbitrator": {
        "details": "Arbitrator contract."
      },
      "collateralToken": {
        "details": "Conditional Tokens collateral token contract."
      },
      "conditionalTokens": {
        "details": "Conditional Tokens contract."
      },
      "market": {
        "details": "Market contract."
      },
      "markets": {
        "details": "Markets created by this factory."
      },
      "questionTimeout": {
        "details": "Reality question timeout."
      },
      "realitio": {
        "details": "Reality.eth contract."
      },
      "realityProxy": {
        "details": "Oracle contract."
      },
      "wrapped1155Factory": {
        "details": "Wrapped1155Factory contract."
      }
    },
    "version": 1
  },
  "userdoc": {
    "kind": "user",
    "methods": {
      "createCategoricalMarket((string,string[],string,string,string,uint256,address,string,string,uint256,uint256,uint256,uint32,string[]))": {
        "notice": "Categorical markets are associated with a Reality question that has only one answer."
      },
      "createMultiCategoricalMarket((string,string[],string,string,string,uint256,address,string,string,uint256,uint256,uint256,uint32,string[]))": {
        "notice": "Multi Categorical markets are associated with a Reality question that has one or more answers."
      },
      "createMultiScalarMarket((string,string[],string,string,string,uint256,address,string,string,uint256,uint256,uint256,uint32,string[]))": {
        "notice": "Multi Scalar markets are associated with two or more Reality questions, and each one of them resolves to a numeric value."
      },
      "createScalarMarket((string,string[],string,string,string,uint256,address,string,string,uint256,uint256,uint256,uint32,string[]))": {
        "notice": "Scalar markets are associated with a Reality question that resolves to a numeric value."
      },
      "marketCount()": {
        "notice": "Returns the amount of markets created by this factory."
      }
    },
    "version": 1
  },
  "storageLayout": {
    "storage": [
      {
        "astId": 4658,
        "contract": "src/MarketFactory.sol:MarketFactory",
        "label": "markets",
        "offset": 0,
        "slot": "0",
        "type": "t_array(t_address)dyn_storage"
      }
    ],
    "types": {
      "t_address": {
        "encoding": "inplace",
        "label": "address",
        "numberOfBytes": "20"
      },
      "t_array(t_address)dyn_storage": {
        "base": "t_address",
        "encoding": "dynamic_array",
        "label": "address[]",
        "numberOfBytes": "32"
      }
    }
  }
}