{
  "_format": "hh-sol-artifact-1",
  "contractName": "AlgebraCommunityVault",
  "sourceName": "contracts/AlgebraCommunityVault.sol",
  "abi": [
    {
      "inputs": [
        {
          "internalType": "address",
          "name": "_factory",
          "type": "address"
        },
        {
          "internalType": "address",
          "name": "_algebraFeeManager",
          "type": "address"
        }
      ],
      "stateMutability": "nonpayable",
      "type": "constructor"
    },
    {
      "inputs": [],
      "name": "transferFailed",
      "type": "error"
    },
    {
      "anonymous": false,
      "inputs": [
        {
          "indexed": false,
          "internalType": "uint16",
          "name": "newAlgebraFee",
          "type": "uint16"
        }
      ],
      "name": "AlgebraFee",
      "type": "event"
    },
    {
      "anonymous": false,
      "inputs": [
        {
          "indexed": false,
          "internalType": "address",
          "name": "newAlgebraFeeManager",
          "type": "address"
        }
      ],
      "name": "AlgebraFeeManager",
      "type": "event"
    },
    {
      "anonymous": false,
      "inputs": [
        {
          "indexed": false,
          "internalType": "uint16",
          "name": "proposedNewAlgebraFee",
          "type": "uint16"
        }
      ],
      "name": "AlgebraFeeProposal",
      "type": "event"
    },
    {
      "anonymous": false,
      "inputs": [
        {
          "indexed": false,
          "internalType": "address",
          "name": "newAlgebraFeeReceiver",
          "type": "address"
        }
      ],
      "name": "AlgebraFeeReceiver",
      "type": "event"
    },
    {
      "anonymous": false,
      "inputs": [
        {
          "indexed": true,
          "internalType": "address",
          "name": "token",
          "type": "address"
        },
        {
          "indexed": true,
          "internalType": "address",
          "name": "to",
          "type": "address"
        },
        {
          "indexed": false,
          "internalType": "uint256",
          "name": "amount",
          "type": "uint256"
        }
      ],
      "name": "AlgebraTokensWithdrawal",
      "type": "event"
    },
    {
      "anonymous": false,
      "inputs": [],
      "name": "CancelAlgebraFeeProposal",
      "type": "event"
    },
    {
      "anonymous": false,
      "inputs": [
        {
          "indexed": false,
          "internalType": "address",
          "name": "newCommunityFeeReceiver",
          "type": "address"
        }
      ],
      "name": "CommunityFeeReceiver",
      "type": "event"
    },
    {
      "anonymous": false,
      "inputs": [
        {
          "indexed": false,
          "internalType": "address",
          "name": "pendingAlgebraFeeManager",
          "type": "address"
        }
      ],
      "name": "PendingAlgebraFeeManager",
      "type": "event"
    },
    {
      "anonymous": false,
      "inputs": [
        {
          "indexed": true,
          "internalType": "address",
          "name": "token",
          "type": "address"
        },
        {
          "indexed": true,
          "internalType": "address",
          "name": "to",
          "type": "address"
        },
        {
          "indexed": false,
          "internalType": "uint256",
          "name": "amount",
          "type": "uint256"
        }
      ],
      "name": "TokensWithdrawal",
      "type": "event"
    },
    {
      "inputs": [],
      "name": "COMMUNITY_FEE_VAULT_ADMINISTRATOR",
      "outputs": [
        {
          "internalType": "bytes32",
          "name": "",
          "type": "bytes32"
        }
      ],
      "stateMutability": "view",
      "type": "function"
    },
    {
      "inputs": [],
      "name": "COMMUNITY_FEE_WITHDRAWER_ROLE",
      "outputs": [
        {
          "internalType": "bytes32",
          "name": "",
          "type": "bytes32"
        }
      ],
      "stateMutability": "view",
      "type": "function"
    },
    {
      "inputs": [
        {
          "internalType": "uint16",
          "name": "newAlgebraFee",
          "type": "uint16"
        }
      ],
      "name": "acceptAlgebraFeeChangeProposal",
      "outputs": [],
      "stateMutability": "nonpayable",
      "type": "function"
    },
    {
      "inputs": [],
      "name": "acceptAlgebraFeeManagerRole",
      "outputs": [],
      "stateMutability": "nonpayable",
      "type": "function"
    },
    {
      "inputs": [],
      "name": "algebraFee",
      "outputs": [
        {
          "internalType": "uint16",
          "name": "",
          "type": "uint16"
        }
      ],
      "stateMutability": "view",
      "type": "function"
    },
    {
      "inputs": [],
      "name": "algebraFeeManager",
      "outputs": [
        {
          "internalType": "address",
          "name": "",
          "type": "address"
        }
      ],
      "stateMutability": "view",
      "type": "function"
    },
    {
      "inputs": [],
      "name": "algebraFeeReceiver",
      "outputs": [
        {
          "internalType": "address",
          "name": "",
          "type": "address"
        }
      ],
      "stateMutability": "view",
      "type": "function"
    },
    {
      "inputs": [],
      "name": "cancelAlgebraFeeChangeProposal",
      "outputs": [],
      "stateMutability": "nonpayable",
      "type": "function"
    },
    {
      "inputs": [
        {
          "internalType": "address",
          "name": "newAlgebraFeeReceiver",
          "type": "address"
        }
      ],
      "name": "changeAlgebraFeeReceiver",
      "outputs": [],
      "stateMutability": "nonpayable",
      "type": "function"
    },
    {
      "inputs": [
        {
          "internalType": "address",
          "name": "newCommunityFeeReceiver",
          "type": "address"
        }
      ],
      "name": "changeCommunityFeeReceiver",
      "outputs": [],
      "stateMutability": "nonpayable",
      "type": "function"
    },
    {
      "inputs": [],
      "name": "communityFeeReceiver",
      "outputs": [
        {
          "internalType": "address",
          "name": "",
          "type": "address"
        }
      ],
      "stateMutability": "view",
      "type": "function"
    },
    {
      "inputs": [],
      "name": "hasNewAlgebraFeeProposal",
      "outputs": [
        {
          "internalType": "bool",
          "name": "",
          "type": "bool"
        }
      ],
      "stateMutability": "view",
      "type": "function"
    },
    {
      "inputs": [
        {
          "internalType": "uint16",
          "name": "newAlgebraFee",
          "type": "uint16"
        }
      ],
      "name": "proposeAlgebraFeeChange",
      "outputs": [],
      "stateMutability": "nonpayable",
      "type": "function"
    },
    {
      "inputs": [],
      "name": "proposedNewAlgebraFee",
      "outputs": [
        {
          "internalType": "uint16",
          "name": "",
          "type": "uint16"
        }
      ],
      "stateMutability": "view",
      "type": "function"
    },
    {
      "inputs": [
        {
          "internalType": "address",
          "name": "_newAlgebraFeeManager",
          "type": "address"
        }
      ],
      "name": "transferAlgebraFeeManagerRole",
      "outputs": [],
      "stateMutability": "nonpayable",
      "type": "function"
    },
    {
      "inputs": [
        {
          "internalType": "address",
          "name": "token",
          "type": "address"
        },
        {
          "internalType": "uint256",
          "name": "amount",
          "type": "uint256"
        }
      ],
      "name": "withdraw",
      "outputs": [],
      "stateMutability": "nonpayable",
      "type": "function"
    },
    {
      "inputs": [
        {
          "components": [
            {
              "internalType": "address",
              "name": "token",
              "type": "address"
            },
            {
              "internalType": "uint256",
              "name": "amount",
              "type": "uint256"
            }
          ],
          "internalType": "struct IAlgebraCommunityVault.WithdrawTokensParams[]",
          "name": "params",
          "type": "tuple[]"
        }
      ],
      "name": "withdrawTokens",
      "outputs": [],
      "stateMutability": "nonpayable",
      "type": "function"
    }
  ],
  "bytecode": "0x60a060405234801561001057600080fd5b5060405161122338038061122383398101604081905261002f91610070565b600280546001600160a01b0319166001600160a01b03928316179055166080526100a3565b80516001600160a01b038116811461006b57600080fd5b919050565b6000806040838503121561008357600080fd5b61008c83610054565b915061009a60208401610054565b90509250929050565b6080516111506100d3600039600081816104fa01528181610819015281816109970152610aaa01526111506000f3fe608060405234801561001057600080fd5b506004361061011b5760003560e01c8063ad6129ac116100b2578063d17bc78311610081578063dfadc79411610066578063dfadc79414610291578063f3fef3a3146102a4578063ff3c43e1146102b757600080fd5b8063d17bc78314610276578063d9fb43531461027e57600080fd5b8063ad6129ac14610210578063b5f680ae14610218578063bbac3b8d1461022b578063c53b3fbe1461025257600080fd5b806350eea0c8116100ee57806350eea0c8146101ad57806362744405146101c05780639d754dde146101e85780639f856b8d146101fb57600080fd5b80631de4161314610120578063371abc951461015a5780634738761c1461018557806348a50fcf14610198575b600080fd5b6101477fb77a63f119f4dc2174dc6c76fc1a1565fa4f2b0dde50ed5c0465471cd9b331f681565b6040519081526020015b60405180910390f35b60005461016d906001600160a01b031681565b6040516001600160a01b039091168152602001610151565b60015461016d906001600160a01b031681565b6101ab6101a6366004610ff0565b6102ca565b005b6101ab6101bb366004610ff0565b6103ac565b6000546101d590600160b81b900461ffff1681565b60405161ffff9091168152602001610151565b60025461016d906001600160a01b031681565b6000546101d590600160a01b900461ffff1681565b6101ab610454565b6101ab610226366004610ff0565b6104bf565b6101477f63e58c34d94475ba3fc063e19800b940485850d84d09cd3c1f2c14192c559a6881565b60005461026690600160b01b900460ff1681565b6040519015158152602001610151565b6101ab610635565b6101ab61028c36600461100b565b6106c7565b6101ab61029f36600461102f565b6107ca565b6101ab6102b23660046110a4565b610948565b6101ab6102c536600461100b565b610a6f565b6002546001600160a01b031633146103295760405162461bcd60e51b815260206004820152601860248201527f6f6e6c7920616c676562726120666565206d616e61676572000000000000000060448201526064015b60405180910390fd5b6001600160a01b03811661033c57600080fd5b6001546001600160a01b039081169082160361035757600080fd5b600180546001600160a01b0319166001600160a01b0383169081179091556040519081527f34d1b5ef1c1c2c03a5000b91bef5c465790244c6751c794e5b45bed7657c38fd906020015b60405180910390a150565b6002546001600160a01b031633146104065760405162461bcd60e51b815260206004820152601860248201527f6f6e6c7920616c676562726120666565206d616e6167657200000000000000006044820152606401610320565b600380546001600160a01b0319166001600160a01b0383169081179091556040519081527fab6918ba7303f2f81e46e324b5f34af4bda562577c1da710e2034980fee1e82a906020016103a1565b6003546001600160a01b0316331461046b57600080fd5b60028054336001600160a01b031991821681179092556003805490911690556040519081527fecf97a11fb2f2bcc38d1b6881865ecc04405af2d8b953004c79b3ab398732d029060200160405180910390a1565b60405163e8ae2b6960e01b81527f63e58c34d94475ba3fc063e19800b940485850d84d09cd3c1f2c14192c559a6860048201523360248201527f00000000000000000000000000000000000000000000000000000000000000006001600160a01b03169063e8ae2b6990604401602060405180830381865afa158015610549573d6000803e3d6000fd5b505050506040513d601f19601f8201168201806040525081019061056d91906110ce565b6105b95760405162461bcd60e51b815260206004820152601260248201527f6f6e6c792061646d696e6973747261746f7200000000000000000000000000006044820152606401610320565b6001600160a01b0381166105cc57600080fd5b6000546001600160a01b03908116908216036105e757600080fd5b600080546001600160a01b0319166001600160a01b0383169081179091556040519081527f2f4db788b994a5908051d68a2340153f49870447185a244d2326861e60cc4186906020016103a1565b6002546001600160a01b0316331461068f5760405162461bcd60e51b815260206004820152601860248201527f6f6e6c7920616c676562726120666565206d616e6167657200000000000000006044820152606401610320565b6000805462ffffff60b01b191681556040517f9f4bbade0736edbd2ec12c598bdac4573af13a3b57820ae4c7da5c61703eaaff9190a1565b6002546001600160a01b031633146107215760405162461bcd60e51b815260206004820152601860248201527f6f6e6c7920616c676562726120666565206d616e6167657200000000000000006044820152606401610320565b6103e861ffff8216111561073457600080fd5b60005461ffff828116600160b81b9092041614801590610764575060005461ffff828116600160a01b9092041614155b61076d57600080fd5b6000805461ffff8316600160b81b0262ffffff60b01b1990911617600160b01b1790556040517f2d6ac59d6da98f80c7ea481d17c670ea310b000fff5cf1732d94d93652dd25b7906103a190839061ffff91909116815260200190565b6002546001600160a01b031633148061088c575060405163e8ae2b6960e01b81527fb77a63f119f4dc2174dc6c76fc1a1565fa4f2b0dde50ed5c0465471cd9b331f660048201523360248201527f00000000000000000000000000000000000000000000000000000000000000006001600160a01b03169063e8ae2b6990604401602060405180830381865afa158015610868573d6000803e3d6000fd5b505050506040513d601f19601f8201168201806040525081019061088c91906110ce565b6108ca5760405162461bcd60e51b815260206004820152600f60248201526e37b7363c903bb4ba34323930bbb2b960891b6044820152606401610320565b80600080806108d7610c94565b92509250925060005b8481101561093f576109378787838181106108fd576108fd6110f0565b6109139260206040909202019081019150610ff0565b83898985818110610926576109266110f0565b905060400201602001358787610d6a565b6001016108e0565b50505050505050565b6002546001600160a01b0316331480610a0a575060405163e8ae2b6960e01b81527fb77a63f119f4dc2174dc6c76fc1a1565fa4f2b0dde50ed5c0465471cd9b331f660048201523360248201527f00000000000000000000000000000000000000000000000000000000000000006001600160a01b03169063e8ae2b6990604401602060405180830381865afa1580156109e6573d6000803e3d6000fd5b505050506040513d601f19601f82011682018060405250810190610a0a91906110ce565b610a485760405162461bcd60e51b815260206004820152600f60248201526e37b7363c903bb4ba34323930bbb2b960891b6044820152606401610320565b6000806000610a55610c94565b925092509250610a688582868686610d6a565b5050505050565b60405163e8ae2b6960e01b81527f63e58c34d94475ba3fc063e19800b940485850d84d09cd3c1f2c14192c559a6860048201523360248201527f00000000000000000000000000000000000000000000000000000000000000006001600160a01b03169063e8ae2b6990604401602060405180830381865afa158015610af9573d6000803e3d6000fd5b505050506040513d601f19601f82011682018060405250810190610b1d91906110ce565b610b695760405162461bcd60e51b815260206004820152601260248201527f6f6e6c792061646d696e6973747261746f7200000000000000000000000000006044820152606401610320565b600054600160b01b900460ff16610bc25760405162461bcd60e51b815260206004820152600c60248201527f6e6f742070726f706f73656400000000000000000000000000000000000000006044820152606401610320565b60005461ffff828116600160b81b9092041614610c215760405162461bcd60e51b815260206004820152600f60248201527f696e76616c6964206e65772066656500000000000000000000000000000000006044820152606401610320565b600080547fffffffffffffff0000000000ffffffffffffffffffffffffffffffffffffffff16600160a01b61ffff841690810262ffffff60b01b1916919091179091556040519081527fda1e1a9a6410acc0398b3b64e0c0110b8df57e29bfe69a419cdd9ae12718c307906020016103a1565b60005460015461ffff600160a01b830416916001600160a01b0391821691168215610d0f576001600160a01b038216610d0f5760405162461bcd60e51b815260206004820152601c60248201527f696e76616c696420616c676562726120666565207265636569766572000000006044820152606401610320565b6001600160a01b038116610d655760405162461bcd60e51b815260206004820152601060248201527f696e76616c6964207265636569766572000000000000000000000000000000006044820152606401610320565b909192565b8261ffff831615610df0576000610d888261ffff86166103e8610e50565b9050610d948183611106565b9150610da1878483610ed1565b826001600160a01b0316876001600160a01b03167fb7ee7fc9dacb957cfa93faeb8ca1826292de295e18e287a347dddfde7ab48b4083604051610de691815260200190565b60405180910390a3505b610dfb868683610ed1565b846001600160a01b0316866001600160a01b03167f7a629b77ef27ad337abe438773206187960a90abfb43607826bef77d650e84b983604051610e4091815260200190565b60405180910390a3505050505050565b6000831580610e7157505082820282848281610e6e57610e6e61112d565b04145b15610e925760008211610e8357600080fd5b81810490829006151501610eca565b610e9d848484610f3b565b905060008280610eaf57610eaf61112d565b8486091115610eca576000198110610ec657600080fd5b6001015b9392505050565b600060405163a9059cbb60e01b6000526001600160a01b03841660045282602452602060006044600080895af19150813d1560203d146001600051141617169150806040525080610f3557604051637232c81f60e11b815260040160405180910390fd5b50505050565b60008383028160001985870982811083820303915050808411610f5d57600080fd5b80600003610f7057508290049050610eca565b8385870960008581038616958690049560026003880281188089028203028089028203028089028203028089028203028089028203028089029091030291819003819004600101858411909403939093029190930391909104170290509392505050565b80356001600160a01b0381168114610feb57600080fd5b919050565b60006020828403121561100257600080fd5b610eca82610fd4565b60006020828403121561101d57600080fd5b813561ffff81168114610eca57600080fd5b6000806020838503121561104257600080fd5b823567ffffffffffffffff8082111561105a57600080fd5b818501915085601f83011261106e57600080fd5b81358181111561107d57600080fd5b8660208260061b850101111561109257600080fd5b60209290920196919550909350505050565b600080604083850312156110b757600080fd5b6110c083610fd4565b946020939093013593505050565b6000602082840312156110e057600080fd5b81518015158114610eca57600080fd5b634e487b7160e01b600052603260045260246000fd5b8181038181111561112757634e487b7160e01b600052601160045260246000fd5b92915050565b634e487b7160e01b600052601260045260246000fdfea164736f6c6343000814000a",
  "linkReferences": {},
  "deployedLinkReferences": {}
}