{
  "_format": "hh-sol-artifact-1",
  "contractName": "Quoter",
  "sourceName": "contracts/lens/Quoter.sol",
  "abi": [
    {
      "inputs": [
        {
          "internalType": "address",
          "name": "_factory",
          "type": "address"
        },
        {
          "internalType": "address",
          "name": "_WNativeToken",
          "type": "address"
        },
        {
          "internalType": "address",
          "name": "_poolDeployer",
          "type": "address"
        }
      ],
      "stateMutability": "nonpayable",
      "type": "constructor"
    },
    {
      "inputs": [],
      "name": "WNativeToken",
      "outputs": [
        {
          "internalType": "address",
          "name": "",
          "type": "address"
        }
      ],
      "stateMutability": "view",
      "type": "function"
    },
    {
      "inputs": [
        {
          "internalType": "int256",
          "name": "amount0Delta",
          "type": "int256"
        },
        {
          "internalType": "int256",
          "name": "amount1Delta",
          "type": "int256"
        },
        {
          "internalType": "bytes",
          "name": "path",
          "type": "bytes"
        }
      ],
      "name": "algebraSwapCallback",
      "outputs": [],
      "stateMutability": "view",
      "type": "function"
    },
    {
      "inputs": [],
      "name": "factory",
      "outputs": [
        {
          "internalType": "address",
          "name": "",
          "type": "address"
        }
      ],
      "stateMutability": "view",
      "type": "function"
    },
    {
      "inputs": [],
      "name": "poolDeployer",
      "outputs": [
        {
          "internalType": "address",
          "name": "",
          "type": "address"
        }
      ],
      "stateMutability": "view",
      "type": "function"
    },
    {
      "inputs": [
        {
          "internalType": "bytes",
          "name": "path",
          "type": "bytes"
        },
        {
          "internalType": "uint256",
          "name": "amountIn",
          "type": "uint256"
        }
      ],
      "name": "quoteExactInput",
      "outputs": [
        {
          "internalType": "uint256",
          "name": "amountOut",
          "type": "uint256"
        },
        {
          "internalType": "uint16[]",
          "name": "fees",
          "type": "uint16[]"
        }
      ],
      "stateMutability": "nonpayable",
      "type": "function"
    },
    {
      "inputs": [
        {
          "internalType": "address",
          "name": "tokenIn",
          "type": "address"
        },
        {
          "internalType": "address",
          "name": "tokenOut",
          "type": "address"
        },
        {
          "internalType": "uint256",
          "name": "amountIn",
          "type": "uint256"
        },
        {
          "internalType": "uint160",
          "name": "limitSqrtPrice",
          "type": "uint160"
        }
      ],
      "name": "quoteExactInputSingle",
      "outputs": [
        {
          "internalType": "uint256",
          "name": "amountOut",
          "type": "uint256"
        },
        {
          "internalType": "uint16",
          "name": "fee",
          "type": "uint16"
        }
      ],
      "stateMutability": "nonpayable",
      "type": "function"
    },
    {
      "inputs": [
        {
          "internalType": "bytes",
          "name": "path",
          "type": "bytes"
        },
        {
          "internalType": "uint256",
          "name": "amountOut",
          "type": "uint256"
        }
      ],
      "name": "quoteExactOutput",
      "outputs": [
        {
          "internalType": "uint256",
          "name": "amountIn",
          "type": "uint256"
        },
        {
          "internalType": "uint16[]",
          "name": "fees",
          "type": "uint16[]"
        }
      ],
      "stateMutability": "nonpayable",
      "type": "function"
    },
    {
      "inputs": [
        {
          "internalType": "address",
          "name": "tokenIn",
          "type": "address"
        },
        {
          "internalType": "address",
          "name": "tokenOut",
          "type": "address"
        },
        {
          "internalType": "uint256",
          "name": "amountOut",
          "type": "uint256"
        },
        {
          "internalType": "uint160",
          "name": "limitSqrtPrice",
          "type": "uint160"
        }
      ],
      "name": "quoteExactOutputSingle",
      "outputs": [
        {
          "internalType": "uint256",
          "name": "amountIn",
          "type": "uint256"
        },
        {
          "internalType": "uint16",
          "name": "fee",
          "type": "uint16"
        }
      ],
      "stateMutability": "nonpayable",
      "type": "function"
    }
  ],
  "bytecode": "0x60e060405234801561001057600080fd5b50604051620014993803806200149983398101604081905261003191610073565b6001600160601b0319606093841b811660805290831b811660a052911b1660c0526100b5565b80516001600160a01b038116811461006e57600080fd5b919050565b600080600060608486031215610087578283fd5b61009084610057565b925061009e60208501610057565b91506100ac60408501610057565b90509250925092565b60805160601c60a05160601c60c05160601c6113a4620000f560003980610571525080610165528061054d528061086652508061074252506113a46000f3fe608060405234801561001057600080fd5b50600436106100885760003560e01c80638af3ac851161005b5780638af3ac85146101025780639e73c81d1461010a578063c45a01551461011d578063cdca17531461012557610088565b80632c8958f61461008d5780632d9ebd1d146100a25780632f80bb1d146100cc5780633119049a146100ed575b600080fd5b6100a061009b366004610fb6565b610138565b005b6100b56100b0366004610efe565b6102e0565b6040516100c39291906112cc565b60405180910390f35b6100df6100da366004610f50565b610476565b6040516100c392919061127b565b6100f561054b565b6040516100c391906111be565b6100f561056f565b6100b5610118366004610efe565b610593565b6100f5610740565b6100df610133366004610f50565b610764565b60008313806101475750600082135b61015057600080fd5b60008061015c83610821565b9150915061018b7f00000000000000000000000000000000000000000000000000000000000000008383610842565b5060008060008088136101d1578473ffffffffffffffffffffffffffffffffffffffff168473ffffffffffffffffffffffffffffffffffffffff16108789600003610206565b8373ffffffffffffffffffffffffffffffffffffffff168573ffffffffffffffffffffffffffffffffffffffff161088886000035b9250925092506000610218868661085f565b905060008173ffffffffffffffffffffffffffffffffffffffff1663e76c01e46040518163ffffffff1660e01b815260040160e06040518083038186803b15801561026257600080fd5b505afa158015610276573d6000803e3d6000fd5b505050506040513d601f19601f8201168201806040525081019061029a9190611077565b505050509250505084156102b957604051838152816020820152604081fd5b600054156102cf5760005483146102cf57600080fd5b604051848152816020820152604081fd5b60008073ffffffffffffffffffffffffffffffffffffffff80861690871610610309878761085f565b73ffffffffffffffffffffffffffffffffffffffff1663128acb08308361032f8961089d565b73ffffffffffffffffffffffffffffffffffffffff8916156103515788610377565b856103705773fffd8963efd1fc6a506488495d951d5263988d25610377565b6401000276a45b8c8c60405160200161038a929190611184565b6040516020818303038152906040526040518663ffffffff1660e01b81526004016103b99594939291906111df565b6040805180830381600087803b1580156103d257600080fd5b505af1925050508015610420575060408051601f3d9081017fffffffffffffffffffffffffffffffffffffffffffffffffffffffffffffffe016820190925261041d91810190610f93565b60015b610469573d80801561044e576040519150601f19603f3d011682016040523d82523d6000602084013e610453565b606091505b5061045d816108cf565b909450925061046c9050565b50505b5094509492505050565b600060606104838461098a565b67ffffffffffffffff8111801561049957600080fd5b506040519080825280602002602001820160405280156104c3578160200160208202803683370190505b50905060005b60006104d4866109a2565b90506000806104e288610821565b915091506104f38183896000610593565b8686815181106104ff57fe5b602002602001018161ffff1661ffff168152508198505050821561052d57610526886109aa565b9750610539565b86955050505050610544565b5050506001016104c9565b9250929050565b7f000000000000000000000000000000000000000000000000000000000000000081565b7f000000000000000000000000000000000000000000000000000000000000000081565b60008073ffffffffffffffffffffffffffffffffffffffff808616878216109084166105bf5760008590555b6105c9878761085f565b73ffffffffffffffffffffffffffffffffffffffff1663128acb0830836105ef8961089d565b60000373ffffffffffffffffffffffffffffffffffffffff891615610614578861063a565b856106335773fffd8963efd1fc6a506488495d951d5263988d2561063a565b6401000276a45b8b8d60405160200161064d929190611184565b6040516020818303038152906040526040518663ffffffff1660e01b815260040161067c9594939291906111df565b6040805180830381600087803b15801561069557600080fd5b505af19250505080156106e3575060408051601f3d9081017fffffffffffffffffffffffffffffffffffffffffffffffffffffffffffffffe01682019092526106e091810190610f93565b60015b610469573d808015610711576040519150601f19603f3d011682016040523d82523d6000602084013e610716565b606091505b5073ffffffffffffffffffffffffffffffffffffffff851661073757600080555b61045d816108cf565b7f000000000000000000000000000000000000000000000000000000000000000081565b600060606107718461098a565b67ffffffffffffffff8111801561078757600080fd5b506040519080825280602002602001820160405280156107b1578160200160208202803683370190505b50905060005b60006107c2866109a2565b90506000806107d088610821565b915091506107e182828960006102e0565b8686815181106107ed57fe5b602002602001018161ffff1661ffff168152508198505050821561052d57610814886109aa565b97505050506001016107b7565b60008061082e83826109c5565b915061083b8360146109c5565b9050915091565b6000610857846108528585610ac5565b610b34565b949350505050565b60006108947f000000000000000000000000000000000000000000000000000000000000000061088f8585610ac5565b610b64565b90505b92915050565b60007f800000000000000000000000000000000000000000000000000000000000000082106108cb57600080fd5b5090565b600080825160401461096d57604483511015610920576040517f08c379a000000000000000000000000000000000000000000000000000000000815260040161091790611244565b60405180910390fd5b6004830192508280602001905181019061093a9190611004565b6040517f08c379a00000000000000000000000000000000000000000000000000000000081526004016109179190611231565b82806020019051810190610981919061110f565b91509150915091565b60006014808351038161099957fe5b0490505b919050565b51603c111590565b606061089760148084510384610c8c9092919063ffffffff16565b600081826014011015610a3957604080517f08c379a000000000000000000000000000000000000000000000000000000000815260206004820152601260248201527f746f416464726573735f6f766572666c6f770000000000000000000000000000604482015290519081900360640190fd5b8160140183511015610aac57604080517f08c379a000000000000000000000000000000000000000000000000000000000815260206004820152601560248201527f746f416464726573735f6f75744f66426f756e64730000000000000000000000604482015290519081900360640190fd5b5001602001516c01000000000000000000000000900490565b610acd610e73565b8173ffffffffffffffffffffffffffffffffffffffff168373ffffffffffffffffffffffffffffffffffffffff161115610b05579091905b506040805180820190915273ffffffffffffffffffffffffffffffffffffffff92831681529116602082015290565b6000610b408383610b64565b90503373ffffffffffffffffffffffffffffffffffffffff82161461089757600080fd5b6000816020015173ffffffffffffffffffffffffffffffffffffffff16826000015173ffffffffffffffffffffffffffffffffffffffff1610610ba657600080fd5b5080516020918201516040805173ffffffffffffffffffffffffffffffffffffffff938416818601529290911682820152805180830382018152606080840183528151918501919091207fff00000000000000000000000000000000000000000000000000000000000000608085015294901b7fffffffffffffffffffffffffffffffffffffffff00000000000000000000000016608183015260958201939093527f6ec6c9c8091d160c0aa74b2b14ba9c1717e95093bd3ac085cee99a49aab294a460b5808301919091528351808303909101815260d5909101909252815191012090565b60608182601f011015610d0057604080517f08c379a000000000000000000000000000000000000000000000000000000000815260206004820152600e60248201527f736c6963655f6f766572666c6f77000000000000000000000000000000000000604482015290519081900360640190fd5b828284011015610d7157604080517f08c379a000000000000000000000000000000000000000000000000000000000815260206004820152600e60248201527f736c6963655f6f766572666c6f77000000000000000000000000000000000000604482015290519081900360640190fd5b81830184511015610de357604080517f08c379a000000000000000000000000000000000000000000000000000000000815260206004820152601160248201527f736c6963655f6f75744f66426f756e6473000000000000000000000000000000604482015290519081900360640190fd5b606082158015610e025760405191506000825260208201604052610e6a565b6040519150601f8416801560200281840101858101878315602002848b0101015b81831015610e3b578051835260209283019201610e23565b5050858452601f017fffffffffffffffffffffffffffffffffffffffffffffffffffffffffffffffe016604052505b50949350505050565b604080518082019091526000808252602082015290565b600082601f830112610e9a578081fd5b8135610ead610ea882611302565b6112de565b818152846020838601011115610ec1578283fd5b816020850160208301379081016020019190915292915050565b805161ffff8116811461099d57600080fd5b805160ff8116811461099d57600080fd5b60008060008060808587031215610f13578384fd5b8435610f1e81611372565b93506020850135610f2e81611372565b9250604085013591506060850135610f4581611372565b939692955090935050565b60008060408385031215610f62578182fd5b823567ffffffffffffffff811115610f78578283fd5b610f8485828601610e8a565b95602094909401359450505050565b60008060408385031215610fa5578182fd5b505080516020909101519092909150565b600080600060608486031215610fca578283fd5b8335925060208401359150604084013567ffffffffffffffff811115610fee578182fd5b610ffa86828701610e8a565b9150509250925092565b600060208284031215611015578081fd5b815167ffffffffffffffff81111561102b578182fd5b8201601f8101841361103b578182fd5b8051611049610ea882611302565b81815285602083850101111561105d578384fd5b61106e826020830160208601611342565b95945050505050565b600080600080600080600060e0888a031215611091578283fd5b875161109c81611372565b8097505060208801518060020b81146110b3578384fd5b95506110c160408901610edb565b94506110cf60608901610edb565b93506110dd60808901610eed565b92506110eb60a08901610eed565b915060c088015180151581146110ff578182fd5b8091505092959891949750929550565b60008060408385031215611121578182fd5b8251915061113160208401610edb565b90509250929050565b60008151808452611152816020860160208601611342565b601f017fffffffffffffffffffffffffffffffffffffffffffffffffffffffffffffffe0169290920160200192915050565b7fffffffffffffffffffffffffffffffffffffffff000000000000000000000000606093841b811682529190921b16601482015260280190565b73ffffffffffffffffffffffffffffffffffffffff91909116815260200190565b600073ffffffffffffffffffffffffffffffffffffffff8088168352861515602084015285604084015280851660608401525060a0608083015261122660a083018461113a565b979650505050505050565b600060208252610894602083018461113a565b60208082526010908201527f556e6578706563746564206572726f7200000000000000000000000000000000604082015260600190565b60006040820184835260206040818501528185518084526060860191508287019350845b818110156112bf57845161ffff168352938301939183019160010161129f565b5090979650505050505050565b91825261ffff16602082015260400190565b60405181810167ffffffffffffffff811182821017156112fa57fe5b604052919050565b600067ffffffffffffffff82111561131657fe5b50601f017fffffffffffffffffffffffffffffffffffffffffffffffffffffffffffffffe01660200190565b60005b8381101561135d578181015183820152602001611345565b8381111561136c576000848401525b50505050565b73ffffffffffffffffffffffffffffffffffffffff8116811461139457600080fd5b5056fea164736f6c6343000706000a",
  "linkReferences": {},
  "deployedLinkReferences": {}
}