{
  "_format": "hh-sol-artifact-1",
  "contractName": "SwapRouter",
  "sourceName": "contracts/SwapRouter.sol",
  "abi": [
    {
      "inputs": [
        {
          "internalType": "address",
          "name": "_factory",
          "type": "address"
        },
        {
          "internalType": "address",
          "name": "_WNativeToken",
          "type": "address"
        },
        {
          "internalType": "address",
          "name": "_poolDeployer",
          "type": "address"
        }
      ],
      "stateMutability": "nonpayable",
      "type": "constructor"
    },
    {
      "inputs": [],
      "name": "WNativeToken",
      "outputs": [
        {
          "internalType": "address",
          "name": "",
          "type": "address"
        }
      ],
      "stateMutability": "view",
      "type": "function"
    },
    {
      "inputs": [
        {
          "internalType": "int256",
          "name": "amount0Delta",
          "type": "int256"
        },
        {
          "internalType": "int256",
          "name": "amount1Delta",
          "type": "int256"
        },
        {
          "internalType": "bytes",
          "name": "_data",
          "type": "bytes"
        }
      ],
      "name": "algebraSwapCallback",
      "outputs": [],
      "stateMutability": "nonpayable",
      "type": "function"
    },
    {
      "inputs": [
        {
          "components": [
            {
              "internalType": "bytes",
              "name": "path",
              "type": "bytes"
            },
            {
              "internalType": "address",
              "name": "recipient",
              "type": "address"
            },
            {
              "internalType": "uint256",
              "name": "deadline",
              "type": "uint256"
            },
            {
              "internalType": "uint256",
              "name": "amountIn",
              "type": "uint256"
            },
            {
              "internalType": "uint256",
              "name": "amountOutMinimum",
              "type": "uint256"
            }
          ],
          "internalType": "struct ISwapRouter.ExactInputParams",
          "name": "params",
          "type": "tuple"
        }
      ],
      "name": "exactInput",
      "outputs": [
        {
          "internalType": "uint256",
          "name": "amountOut",
          "type": "uint256"
        }
      ],
      "stateMutability": "payable",
      "type": "function"
    },
    {
      "inputs": [
        {
          "components": [
            {
              "internalType": "address",
              "name": "tokenIn",
              "type": "address"
            },
            {
              "internalType": "address",
              "name": "tokenOut",
              "type": "address"
            },
            {
              "internalType": "address",
              "name": "deployer",
              "type": "address"
            },
            {
              "internalType": "address",
              "name": "recipient",
              "type": "address"
            },
            {
              "internalType": "uint256",
              "name": "deadline",
              "type": "uint256"
            },
            {
              "internalType": "uint256",
              "name": "amountIn",
              "type": "uint256"
            },
            {
              "internalType": "uint256",
              "name": "amountOutMinimum",
              "type": "uint256"
            },
            {
              "internalType": "uint160",
              "name": "limitSqrtPrice",
              "type": "uint160"
            }
          ],
          "internalType": "struct ISwapRouter.ExactInputSingleParams",
          "name": "params",
          "type": "tuple"
        }
      ],
      "name": "exactInputSingle",
      "outputs": [
        {
          "internalType": "uint256",
          "name": "amountOut",
          "type": "uint256"
        }
      ],
      "stateMutability": "payable",
      "type": "function"
    },
    {
      "inputs": [
        {
          "components": [
            {
              "internalType": "address",
              "name": "tokenIn",
              "type": "address"
            },
            {
              "internalType": "address",
              "name": "tokenOut",
              "type": "address"
            },
            {
              "internalType": "address",
              "name": "deployer",
              "type": "address"
            },
            {
              "internalType": "address",
              "name": "recipient",
              "type": "address"
            },
            {
              "internalType": "uint256",
              "name": "deadline",
              "type": "uint256"
            },
            {
              "internalType": "uint256",
              "name": "amountIn",
              "type": "uint256"
            },
            {
              "internalType": "uint256",
              "name": "amountOutMinimum",
              "type": "uint256"
            },
            {
              "internalType": "uint160",
              "name": "limitSqrtPrice",
              "type": "uint160"
            }
          ],
          "internalType": "struct ISwapRouter.ExactInputSingleParams",
          "name": "params",
          "type": "tuple"
        }
      ],
      "name": "exactInputSingleSupportingFeeOnTransferTokens",
      "outputs": [
        {
          "internalType": "uint256",
          "name": "amountOut",
          "type": "uint256"
        }
      ],
      "stateMutability": "payable",
      "type": "function"
    },
    {
      "inputs": [
        {
          "components": [
            {
              "internalType": "bytes",
              "name": "path",
              "type": "bytes"
            },
            {
              "internalType": "address",
              "name": "recipient",
              "type": "address"
            },
            {
              "internalType": "uint256",
              "name": "deadline",
              "type": "uint256"
            },
            {
              "internalType": "uint256",
              "name": "amountOut",
              "type": "uint256"
            },
            {
              "internalType": "uint256",
              "name": "amountInMaximum",
              "type": "uint256"
            }
          ],
          "internalType": "struct ISwapRouter.ExactOutputParams",
          "name": "params",
          "type": "tuple"
        }
      ],
      "name": "exactOutput",
      "outputs": [
        {
          "internalType": "uint256",
          "name": "amountIn",
          "type": "uint256"
        }
      ],
      "stateMutability": "payable",
      "type": "function"
    },
    {
      "inputs": [
        {
          "components": [
            {
              "internalType": "address",
              "name": "tokenIn",
              "type": "address"
            },
            {
              "internalType": "address",
              "name": "tokenOut",
              "type": "address"
            },
            {
              "internalType": "address",
              "name": "deployer",
              "type": "address"
            },
            {
              "internalType": "address",
              "name": "recipient",
              "type": "address"
            },
            {
              "internalType": "uint256",
              "name": "deadline",
              "type": "uint256"
            },
            {
              "internalType": "uint256",
              "name": "amountOut",
              "type": "uint256"
            },
            {
              "internalType": "uint256",
              "name": "amountInMaximum",
              "type": "uint256"
            },
            {
              "internalType": "uint160",
              "name": "limitSqrtPrice",
              "type": "uint160"
            }
          ],
          "internalType": "struct ISwapRouter.ExactOutputSingleParams",
          "name": "params",
          "type": "tuple"
        }
      ],
      "name": "exactOutputSingle",
      "outputs": [
        {
          "internalType": "uint256",
          "name": "amountIn",
          "type": "uint256"
        }
      ],
      "stateMutability": "payable",
      "type": "function"
    },
    {
      "inputs": [],
      "name": "factory",
      "outputs": [
        {
          "internalType": "address",
          "name": "",
          "type": "address"
        }
      ],
      "stateMutability": "view",
      "type": "function"
    },
    {
      "inputs": [
        {
          "internalType": "bytes[]",
          "name": "data",
          "type": "bytes[]"
        }
      ],
      "name": "multicall",
      "outputs": [
        {
          "internalType": "bytes[]",
          "name": "results",
          "type": "bytes[]"
        }
      ],
      "stateMutability": "payable",
      "type": "function"
    },
    {
      "inputs": [],
      "name": "poolDeployer",
      "outputs": [
        {
          "internalType": "address",
          "name": "",
          "type": "address"
        }
      ],
      "stateMutability": "view",
      "type": "function"
    },
    {
      "inputs": [],
      "name": "refundNativeToken",
      "outputs": [],
      "stateMutability": "payable",
      "type": "function"
    },
    {
      "inputs": [
        {
          "internalType": "address",
          "name": "token",
          "type": "address"
        },
        {
          "internalType": "uint256",
          "name": "value",
          "type": "uint256"
        },
        {
          "internalType": "uint256",
          "name": "deadline",
          "type": "uint256"
        },
        {
          "internalType": "uint8",
          "name": "v",
          "type": "uint8"
        },
        {
          "internalType": "bytes32",
          "name": "r",
          "type": "bytes32"
        },
        {
          "internalType": "bytes32",
          "name": "s",
          "type": "bytes32"
        }
      ],
      "name": "selfPermit",
      "outputs": [],
      "stateMutability": "payable",
      "type": "function"
    },
    {
      "inputs": [
        {
          "internalType": "address",
          "name": "token",
          "type": "address"
        },
        {
          "internalType": "uint256",
          "name": "nonce",
          "type": "uint256"
        },
        {
          "internalType": "uint256",
          "name": "expiry",
          "type": "uint256"
        },
        {
          "internalType": "uint8",
          "name": "v",
          "type": "uint8"
        },
        {
          "internalType": "bytes32",
          "name": "r",
          "type": "bytes32"
        },
        {
          "internalType": "bytes32",
          "name": "s",
          "type": "bytes32"
        }
      ],
      "name": "selfPermitAllowed",
      "outputs": [],
      "stateMutability": "payable",
      "type": "function"
    },
    {
      "inputs": [
        {
          "internalType": "address",
          "name": "token",
          "type": "address"
        },
        {
          "internalType": "uint256",
          "name": "nonce",
          "type": "uint256"
        },
        {
          "internalType": "uint256",
          "name": "expiry",
          "type": "uint256"
        },
        {
          "internalType": "uint8",
          "name": "v",
          "type": "uint8"
        },
        {
          "internalType": "bytes32",
          "name": "r",
          "type": "bytes32"
        },
        {
          "internalType": "bytes32",
          "name": "s",
          "type": "bytes32"
        }
      ],
      "name": "selfPermitAllowedIfNecessary",
      "outputs": [],
      "stateMutability": "payable",
      "type": "function"
    },
    {
      "inputs": [
        {
          "internalType": "address",
          "name": "token",
          "type": "address"
        },
        {
          "internalType": "uint256",
          "name": "value",
          "type": "uint256"
        },
        {
          "internalType": "uint256",
          "name": "deadline",
          "type": "uint256"
        },
        {
          "internalType": "uint8",
          "name": "v",
          "type": "uint8"
        },
        {
          "internalType": "bytes32",
          "name": "r",
          "type": "bytes32"
        },
        {
          "internalType": "bytes32",
          "name": "s",
          "type": "bytes32"
        }
      ],
      "name": "selfPermitIfNecessary",
      "outputs": [],
      "stateMutability": "payable",
      "type": "function"
    },
    {
      "inputs": [
        {
          "internalType": "address",
          "name": "token",
          "type": "address"
        },
        {
          "internalType": "uint256",
          "name": "amountMinimum",
          "type": "uint256"
        },
        {
          "internalType": "address",
          "name": "recipient",
          "type": "address"
        }
      ],
      "name": "sweepToken",
      "outputs": [],
      "stateMutability": "payable",
      "type": "function"
    },
    {
      "inputs": [
        {
          "internalType": "address",
          "name": "token",
          "type": "address"
        },
        {
          "internalType": "uint256",
          "name": "amountMinimum",
          "type": "uint256"
        },
        {
          "internalType": "address",
          "name": "recipient",
          "type": "address"
        },
        {
          "internalType": "uint256",
          "name": "feeBips",
          "type": "uint256"
        },
        {
          "internalType": "address",
          "name": "feeRecipient",
          "type": "address"
        }
      ],
      "name": "sweepTokenWithFee",
      "outputs": [],
      "stateMutability": "payable",
      "type": "function"
    },
    {
      "inputs": [
        {
          "internalType": "uint256",
          "name": "amountMinimum",
          "type": "uint256"
        },
        {
          "internalType": "address",
          "name": "recipient",
          "type": "address"
        }
      ],
      "name": "unwrapWNativeToken",
      "outputs": [],
      "stateMutability": "payable",
      "type": "function"
    },
    {
      "inputs": [
        {
          "internalType": "uint256",
          "name": "amountMinimum",
          "type": "uint256"
        },
        {
          "internalType": "address",
          "name": "recipient",
          "type": "address"
        },
        {
          "internalType": "uint256",
          "name": "feeBips",
          "type": "uint256"
        },
        {
          "internalType": "address",
          "name": "feeRecipient",
          "type": "address"
        }
      ],
      "name": "unwrapWNativeTokenWithFee",
      "outputs": [],
      "stateMutability": "payable",
      "type": "function"
    },
    {
      "stateMutability": "payable",
      "type": "receive"
    },
    {
      "inputs": [],
      "name": "alreadyInitialized",
      "type": "error"
    },
    {
      "inputs": [],
      "name": "arithmeticError",
      "type": "error"
    },
    {
      "inputs": [],
      "name": "bottomTickLowerThanMIN",
      "type": "error"
    },
    {
      "inputs": [],
      "name": "dynamicFeeActive",
      "type": "error"
    },
    {
      "inputs": [],
      "name": "dynamicFeeDisabled",
      "type": "error"
    },
    {
      "inputs": [],
      "name": "flashInsufficientPaid0",
      "type": "error"
    },
    {
      "inputs": [],
      "name": "flashInsufficientPaid1",
      "type": "error"
    },
    {
      "inputs": [],
      "name": "incorrectPluginFee",
      "type": "error"
    },
    {
      "inputs": [],
      "name": "insufficientInputAmount",
      "type": "error"
    },
    {
      "inputs": [],
      "name": "invalidAmountRequired",
      "type": "error"
    },
    {
      "inputs": [
        {
          "internalType": "bytes4",
          "name": "expectedSelector",
          "type": "bytes4"
        }
      ],
      "name": "invalidHookResponse",
      "type": "error"
    },
    {
      "inputs": [],
      "name": "invalidLimitSqrtPrice",
      "type": "error"
    },
    {
      "inputs": [],
      "name": "invalidNewCommunityFee",
      "type": "error"
    },
    {
      "inputs": [],
      "name": "invalidNewTickSpacing",
      "type": "error"
    },
    {
      "inputs": [],
      "name": "liquidityAdd",
      "type": "error"
    },
    {
      "inputs": [],
      "name": "liquidityOverflow",
      "type": "error"
    },
    {
      "inputs": [],
      "name": "liquiditySub",
      "type": "error"
    },
    {
      "inputs": [],
      "name": "locked",
      "type": "error"
    },
    {
      "inputs": [],
      "name": "notAllowed",
      "type": "error"
    },
    {
      "inputs": [],
      "name": "notInitialized",
      "type": "error"
    },
    {
      "inputs": [],
      "name": "pluginIsNotConnected",
      "type": "error"
    },
    {
      "inputs": [],
      "name": "priceOutOfRange",
      "type": "error"
    },
    {
      "inputs": [],
      "name": "tickInvalidLinks",
      "type": "error"
    },
    {
      "inputs": [],
      "name": "tickIsNotInitialized",
      "type": "error"
    },
    {
      "inputs": [],
      "name": "tickIsNotSpaced",
      "type": "error"
    },
    {
      "inputs": [],
      "name": "tickOutOfRange",
      "type": "error"
    },
    {
      "inputs": [],
      "name": "topTickAboveMAX",
      "type": "error"
    },
    {
      "inputs": [],
      "name": "topTickLowerOrEqBottomTick",
      "type": "error"
    },
    {
      "inputs": [],
      "name": "transferFailed",
      "type": "error"
    },
    {
      "inputs": [],
      "name": "zeroAmountRequired",
      "type": "error"
    },
    {
      "inputs": [],
      "name": "zeroLiquidityActual",
      "type": "error"
    },
    {
      "inputs": [],
      "name": "zeroLiquidityDesired",
      "type": "error"
    }
  ],
  "bytecode": "0x60e06040526000196000553480156200001757600080fd5b5060405162003245380380620032458339810160408190526200003a9162000074565b6001600160a01b03928316608052821660a0521660c052620000be565b80516001600160a01b03811681146200006f57600080fd5b919050565b6000806000606084860312156200008a57600080fd5b620000958462000057565b9250620000a56020850162000057565b9150620000b56040850162000057565b90509250925092565b60805160a05160c0516131116200013460003960008181610165015281816102fd0152818161096801528181610a2d015281816110f20152818161121301528181611aba01528181611b1a0152611be2015260008181610263015281816107920152611e7c0152600061038a01526131116000f3fe6080604052600436106101485760003560e01c8063a4a78f0c116100c0578063c60696ec11610074578063e0e189a011610059578063e0e189a0146103d2578063f28c0498146103e5578063f3995c67146103f857600080fd5b8063c60696ec146103ac578063df2ab5bb146103bf57600080fd5b8063c04b8d59116100a5578063c04b8d5914610352578063c2e3140a14610365578063c45a01551461037857600080fd5b8063a4a78f0c1461031f578063ac9650d81461033257600080fd5b8063418652701161011757806369bc35b2116100fc57806369bc35b2146102c55780636eb38adc146102d85780638af3ac85146102eb57600080fd5b806341865270146102aa5780634659a494146102b257600080fd5b80631679c792146101f85780631764babc1461021e5780632c8958f6146102315780633119049a1461025157600080fd5b366101f3573373ffffffffffffffffffffffffffffffffffffffff7f000000000000000000000000000000000000000000000000000000000000000016146101f1576040517f08c379a000000000000000000000000000000000000000000000000000000000815260206004820152601060248201527f4e6f7420574e6174697665546f6b656e0000000000000000000000000000000060448201526064015b60405180910390fd5b005b600080fd5b61020b610206366004612771565b61040b565b6040519081526020015b60405180910390f35b61020b61022c366004612771565b61056a565b34801561023d57600080fd5b506101f161024c366004612795565b6106f0565b34801561025d57600080fd5b506102857f000000000000000000000000000000000000000000000000000000000000000081565b60405173ffffffffffffffffffffffffffffffffffffffff9091168152602001610215565b6101f16108a0565b6101f16102c0366004612837565b6108b2565b6101f16102d3366004612899565b610961565b61020b6102e6366004612771565b610aad565b3480156102f757600080fd5b506102857f000000000000000000000000000000000000000000000000000000000000000081565b6101f161032d366004612837565b610e00565b6103456103403660046128c9565b610e46565b60405161021591906129ac565b61020b610360366004612b2f565b610f67565b6101f1610373366004612837565b611089565b34801561038457600080fd5b506102857f000000000000000000000000000000000000000000000000000000000000000081565b6101f16103ba366004612bd3565b6110a7565b6101f16103cd366004612c1d565b6112cb565b6101f16103e0366004612c5f565b611359565b61020b6103f3366004612cbe565b6114bf565b6101f1610406366004612837565b6115b6565b6000816080013561041b81611633565b6104f460a08401356104336080860160608701612cf9565b610444610100870160e08801612cf9565b604080518082019091528061045c60208a018a612cf9565b61046c60608b0160408c01612cf9565b61047c60408c0160208d01612cf9565b6040517fffffffffffffffffffffffffffffffffffffffff000000000000000000000000606094851b8116602083015292841b83166034820152921b166048820152605c0160405160208183030381529060405281526020013373ffffffffffffffffffffffffffffffffffffffff168152506116a0565b91508260c00135821015610564576040517f08c379a000000000000000000000000000000000000000000000000000000000815260206004820152601360248201527f546f6f206c6974746c652072656365697665640000000000000000000000000060448201526064016101e8565b50919050565b6000816080013561057a81611633565b61065660a08401356105926080860160608701612cf9565b6105a3610100870160e08801612cf9565b60405180604001604052808860200160208101906105c19190612cf9565b6105d160608b0160408c01612cf9565b6105de60208c018c612cf9565b6040517fffffffffffffffffffffffffffffffffffffffff000000000000000000000000606094851b8116602083015292841b83166034820152921b166048820152605c0160405160208183030381529060405281526020013373ffffffffffffffffffffffffffffffffffffffff16815250611830565b91508260c001358211156106c6576040517f08c379a000000000000000000000000000000000000000000000000000000000815260206004820152601260248201527f546f6f206d75636820726571756573746564000000000000000000000000000060448201526064016101e8565b507fffffffffffffffffffffffffffffffffffffffffffffffffffffffffffffffff600055919050565b60008413806106ff5750600083135b610765576040517f08c379a000000000000000000000000000000000000000000000000000000000815260206004820152601360248201527f5a65726f206c697175696469747920737761700000000000000000000000000060448201526064016101e8565b600061077382840184612d16565b905060008060006107878460000151611a5f565b9250925092506107b97f0000000000000000000000000000000000000000000000000000000000000000838584611a99565b5060008060008a136107fa578473ffffffffffffffffffffffffffffffffffffffff168373ffffffffffffffffffffffffffffffffffffffff16108961082b565b8273ffffffffffffffffffffffffffffffffffffffff168573ffffffffffffffffffffffffffffffffffffffff16108a5b91509150811561084a576108458587602001513384611ab8565b610894565b855161085590611c92565b1561087a57855161086590611cca565b86526108748133600089611830565b50610894565b806000819055508294506108948587602001513384611ab8565b50505050505050505050565b47156108b0576108b03347611cff565b565b6040517f8fcbaf0c00000000000000000000000000000000000000000000000000000000815233600482015230602482015260448101869052606481018590526001608482015260ff841660a482015260c4810183905260e4810182905273ffffffffffffffffffffffffffffffffffffffff871690638fcbaf0c90610104015b600060405180830381600087803b15801561094d57600080fd5b505af1158015610894573d6000803e3d6000fd5b600061098c7f0000000000000000000000000000000000000000000000000000000000000000611de3565b9050828110156109f8576040517f08c379a000000000000000000000000000000000000000000000000000000000815260206004820152601960248201527f496e73756666696369656e7420574e6174697665546f6b656e0000000000000060448201526064016101e8565b8015610aa8576040517f2e1a7d4d000000000000000000000000000000000000000000000000000000008152600481018290527f000000000000000000000000000000000000000000000000000000000000000073ffffffffffffffffffffffffffffffffffffffff1690632e1a7d4d90602401600060405180830381600087803b158015610a8657600080fd5b505af1158015610a9a573d6000803e3d6000fd5b50505050610aa88282611cff565b505050565b60008160800135610abd81611633565b6040805180820190915260009080610ad86020870187612cf9565b610ae86060880160408901612cf9565b610af86040890160208a01612cf9565b6040517fffffffffffffffffffffffffffffffffffffffff000000000000000000000000606094851b8116602083015292841b83166034820152921b166048820152605c01604080518083037fffffffffffffffffffffffffffffffffffffffffffffffffffffffffffffffe00181529190528152336020909101529050600080610b896080870160608801612cf9565b73ffffffffffffffffffffffffffffffffffffffff1614610bb957610bb46080860160608701612cf9565b610bbb565b305b90506000610bcf6040870160208801612cf9565b73ffffffffffffffffffffffffffffffffffffffff16610bf26020880188612cf9565b73ffffffffffffffffffffffffffffffffffffffff16109050600080610c43610c2160608a0160408b01612cf9565b610c2e60208b018b612cf9565b610c3e60408c0160208d01612cf9565b611e75565b73ffffffffffffffffffffffffffffffffffffffff16639e4e0227338686610c6e8d60a00135611eb3565b8d60e0016020810190610c819190612cf9565b73ffffffffffffffffffffffffffffffffffffffff1615610cb4578d60e0016020810190610caf9190612cf9565b610ce8565b88610cd857610caf600173fffd8963efd1fc6a506488495d951d5263988d26612ddf565b610ce86401000276a36001612e0c565b8b604051602001610cf99190612e39565b6040516020818303038152906040526040518763ffffffff1660e01b8152600401610d2996959493929190612e81565b60408051808303816000875af1158015610d47573d6000803e3d6000fd5b505050506040513d601f19601f82011682018060405250810190610d6b9190612edc565b9150915082610d7a5781610d7c565b805b610d8590612f00565b96508760c00135871015610df5576040517f08c379a000000000000000000000000000000000000000000000000000000000815260206004820152601360248201527f546f6f206c6974746c652072656365697665640000000000000000000000000060448201526064016101e8565b505050505050919050565b7fffffffffffffffffffffffffffffffffffffffffffffffffffffffffffffffff610e2a87611ec7565b1015610e3e57610e3e8686868686866108b2565b505050505050565b60608167ffffffffffffffff811115610e6157610e61612a2c565b604051908082528060200260200182016040528015610e9457816020015b6060815260200190600190039081610e7f5790505b50905060005b82811015610f605760008030868685818110610eb857610eb8612f38565b9050602002810190610eca9190612f67565b604051610ed8929190612fd3565b600060405180830381855af49150503d8060008114610f13576040519150601f19603f3d011682016040523d82523d6000602084013e610f18565b606091505b509150915081610f38576000815111610f3057600080fd5b805181602001fd5b80848481518110610f4b57610f4b612f38565b60209081029190910101525050600101610e9a565b5092915050565b60008160400151610f7781611633565b335b6000610f888560000151611c92565b9050610fe1856060015182610fa1578660200151610fa3565b305b60006040518060400160405280610fbd8b60000151611f22565b81526020018773ffffffffffffffffffffffffffffffffffffffff168152506116a0565b60608601528015611001578451309250610ffa90611cca565b855261100e565b8460600151935050611014565b50610f79565b8360800151831015611082576040517f08c379a000000000000000000000000000000000000000000000000000000000815260206004820152601360248201527f546f6f206c6974746c652072656365697665640000000000000000000000000060448201526064016101e8565b5050919050565b8461109387611ec7565b1015610e3e57610e3e8686868686866115b6565b6000821180156110b8575060648211155b6110c157600080fd5b6040517f70a082310000000000000000000000000000000000000000000000000000000081523060048201526000907f000000000000000000000000000000000000000000000000000000000000000073ffffffffffffffffffffffffffffffffffffffff16906370a0823190602401602060405180830381865afa15801561114e573d6000803e3d6000fd5b505050506040513d601f19601f820116820180604052508101906111729190612fe3565b9050848110156111de576040517f08c379a000000000000000000000000000000000000000000000000000000000815260206004820152601960248201527f496e73756666696369656e7420574e6174697665546f6b656e0000000000000060448201526064016101e8565b80156112c4576040517f2e1a7d4d000000000000000000000000000000000000000000000000000000008152600481018290527f000000000000000000000000000000000000000000000000000000000000000073ffffffffffffffffffffffffffffffffffffffff1690632e1a7d4d90602401600060405180830381600087803b15801561126c57600080fd5b505af1158015611280573d6000803e3d6000fd5b50505050600061271084836112959190612ffc565b61129f9190613013565b905080156112b1576112b18382611cff565b610e3e856112bf838561304e565b611cff565b5050505050565b60006112d684611de3565b905082811015611342576040517f08c379a000000000000000000000000000000000000000000000000000000000815260206004820152601260248201527f496e73756666696369656e7420746f6b656e000000000000000000000000000060448201526064016101e8565b801561135357611353848383611f3f565b50505050565b60008211801561136a575060648211155b61137357600080fd5b6040517f70a0823100000000000000000000000000000000000000000000000000000000815230600482015260009073ffffffffffffffffffffffffffffffffffffffff8716906370a0823190602401602060405180830381865afa1580156113e0573d6000803e3d6000fd5b505050506040513d601f19601f820116820180604052508101906114049190612fe3565b905084811015611470576040517f08c379a000000000000000000000000000000000000000000000000000000000815260206004820152601260248201527f496e73756666696369656e7420746f6b656e000000000000000000000000000060448201526064016101e8565b8015610e3e5760006127106114858584612ffc565b61148f9190613013565b905080156114a2576114a2878483611f3f565b6114b687866114b1848661304e565b611f3f565b50505050505050565b600081604001356114cf81611633565b61154260608401356114e76040860160208701612cf9565b60408051808201909152600090806114ff8980612f67565b8080601f01602080910402602001604051908101604052809392919081815260200183838082843760009201919091525050509082525033602090910152611830565b50600054915082608001358211156106c6576040517f08c379a000000000000000000000000000000000000000000000000000000000815260206004820152601260248201527f546f6f206d75636820726571756573746564000000000000000000000000000060448201526064016101e8565b6040517fd505accf000000000000000000000000000000000000000000000000000000008152336004820152306024820152604481018690526064810185905260ff8416608482015260a4810183905260c4810182905273ffffffffffffffffffffffffffffffffffffffff87169063d505accf9060e401610933565b8042111561169d576040517f08c379a000000000000000000000000000000000000000000000000000000000815260206004820152601360248201527f5472616e73616374696f6e20746f6f206f6c640000000000000000000000000060448201526064016101e8565b50565b600073ffffffffffffffffffffffffffffffffffffffff84166116c1573093505b60008060006116d38560000151611a5f565b9194509250905073ffffffffffffffffffffffffffffffffffffffff80821690841610600080611704858786611e75565b73ffffffffffffffffffffffffffffffffffffffff1663128acb088b8561172a8f611eb3565b73ffffffffffffffffffffffffffffffffffffffff8e161561174c578d611785565b8761177557611770600173fffd8963efd1fc6a506488495d951d5263988d26612ddf565b611785565b6117856401000276a36001612e0c565b8d6040516020016117969190612e39565b6040516020818303038152906040526040518663ffffffff1660e01b81526004016117c5959493929190613061565b60408051808303816000875af11580156117e3573d6000803e3d6000fd5b505050506040513d601f19601f820116820180604052508101906118079190612edc565b91509150826118165781611818565b805b61182190612f00565b9b9a5050505050505050505050565b600073ffffffffffffffffffffffffffffffffffffffff8416611851573093505b60008060006118638560000151611a5f565b9194509250905073ffffffffffffffffffffffffffffffffffffffff80841690821610600080611894858588611e75565b73ffffffffffffffffffffffffffffffffffffffff1663128acb088b856118ba8f611eb3565b6118c390612f00565b73ffffffffffffffffffffffffffffffffffffffff8e16156118e5578d61191e565b8761190e57611909600173fffd8963efd1fc6a506488495d951d5263988d26612ddf565b61191e565b61191e6401000276a36001612e0c565b8d60405160200161192f9190612e39565b6040516020818303038152906040526040518663ffffffff1660e01b815260040161195e959493929190613061565b60408051808303816000875af115801561197c573d6000803e3d6000fd5b505050506040513d601f19601f820116820180604052508101906119a09190612edc565b915091506000836119ba57816119b584612f00565b6119c4565b826119c483612f00565b909850905073ffffffffffffffffffffffffffffffffffffffff8a16600003611a50578b8114611a50576040517f08c379a000000000000000000000000000000000000000000000000000000000815260206004820152601b60248201527f4e6f742072656365697665642066756c6c20616d6f756e744f7574000000000060448201526064016101e8565b50505050505050949350505050565b60008080611a6d84826120a8565b9250611a7a8460146120a8565b9150611a91611a8a6014806130b3565b85906120a8565b929491935050565b6000611aaf85611aaa868686612131565b6121bf565b95945050505050565b7f000000000000000000000000000000000000000000000000000000000000000073ffffffffffffffffffffffffffffffffffffffff168473ffffffffffffffffffffffffffffffffffffffff16148015611b135750804710155b15611c59577f000000000000000000000000000000000000000000000000000000000000000073ffffffffffffffffffffffffffffffffffffffff1663d0e30db0826040518263ffffffff1660e01b81526004016000604051808303818588803b158015611b8057600080fd5b505af1158015611b94573d6000803e3d6000fd5b50506040517fa9059cbb00000000000000000000000000000000000000000000000000000000815273ffffffffffffffffffffffffffffffffffffffff8681166004830152602482018690527f000000000000000000000000000000000000000000000000000000000000000016935063a9059cbb925060440190506020604051808303816000875af1158015611c2f573d6000803e3d6000fd5b505050506040513d601f19601f82011682018060405250810190611c5391906130c6565b50611353565b3073ffffffffffffffffffffffffffffffffffffffff841603611c8657611c81848383611f3f565b611353565b6113538484848461224c565b6000611c9f6014806130b3565b6014611cab81806130b3565b611cb591906130b3565b611cbf91906130b3565b825110159050919050565b6060611cf9611cda6014806130b3565b611ce56014806130b3565b8451611cf1919061304e565b8491906123bd565b92915050565b6040805160008082526020820190925273ffffffffffffffffffffffffffffffffffffffff8416908390604051611d3691906130e8565b60006040518083038185875af1925050503d8060008114611d73576040519150601f19603f3d011682016040523d82523d6000602084013e611d78565b606091505b5050905080610aa8576040517f08c379a000000000000000000000000000000000000000000000000000000000815260206004820152600360248201527f535445000000000000000000000000000000000000000000000000000000000060448201526064016101e8565b6040517f70a0823100000000000000000000000000000000000000000000000000000000815230600482015260009073ffffffffffffffffffffffffffffffffffffffff8316906370a08231906024015b602060405180830381865afa158015611e51573d6000803e3d6000fd5b505050506040513d601f19601f82011682018060405250810190611cf99190612fe3565b6000611eab7f0000000000000000000000000000000000000000000000000000000000000000611ea6868686612131565b612529565b949350505050565b806000811215611ec257600080fd5b919050565b6040517fdd62ed3e00000000000000000000000000000000000000000000000000000000815233600482015230602482015260009073ffffffffffffffffffffffffffffffffffffffff83169063dd62ed3e90604401611e34565b6060611cf960006014611f3581806130b3565b611cf191906130b3565b6040805173ffffffffffffffffffffffffffffffffffffffff8481166024830152604480830185905283518084039091018152606490920183526020820180517bffffffffffffffffffffffffffffffffffffffffffffffffffffffff167fa9059cbb000000000000000000000000000000000000000000000000000000001790529151600092839290871691611fd691906130e8565b6000604051808303816000865af19150503d8060008114612013576040519150601f19603f3d011682016040523d82523d6000602084013e612018565b606091505b509150915081801561204257508051158061204257508080602001905181019061204291906130c6565b6112c4576040517f08c379a000000000000000000000000000000000000000000000000000000000815260206004820152600260248201527f535400000000000000000000000000000000000000000000000000000000000060448201526064016101e8565b60008160140183511015612118576040517f08c379a000000000000000000000000000000000000000000000000000000000815260206004820152601560248201527f746f416464726573735f6f75744f66426f756e6473000000000000000000000060448201526064016101e8565b5001602001516c01000000000000000000000000900490565b60408051606081018252600080825260208201819052918101919091528173ffffffffffffffffffffffffffffffffffffffff168373ffffffffffffffffffffffffffffffffffffffff161115612186579091905b506040805160608101825273ffffffffffffffffffffffffffffffffffffffff9485168152928416602084015292169181019190915290565b60006121cb8383612529565b90503373ffffffffffffffffffffffffffffffffffffffff821614611cf9576040517f08c379a000000000000000000000000000000000000000000000000000000000815260206004820152601a60248201527f496e76616c69642063616c6c6572206f662063616c6c6261636b00000000000060448201526064016101e8565b6040805173ffffffffffffffffffffffffffffffffffffffff85811660248301528481166044830152606480830185905283518084039091018152608490920183526020820180517bffffffffffffffffffffffffffffffffffffffffffffffffffffffff167f23b872dd0000000000000000000000000000000000000000000000000000000017905291516000928392908816916122eb91906130e8565b6000604051808303816000865af19150503d8060008114612328576040519150601f19603f3d011682016040523d82523d6000602084013e61232d565b606091505b509150915081801561235757508051158061235757508080602001905181019061235791906130c6565b610e3e576040517f08c379a000000000000000000000000000000000000000000000000000000000815260206004820152600360248201527f535446000000000000000000000000000000000000000000000000000000000060448201526064016101e8565b60608182601f01101561242c576040517f08c379a000000000000000000000000000000000000000000000000000000000815260206004820152600e60248201527f736c6963655f6f766572666c6f7700000000000000000000000000000000000060448201526064016101e8565b81830184511015612499576040517f08c379a000000000000000000000000000000000000000000000000000000000815260206004820152601160248201527f736c6963655f6f75744f66426f756e647300000000000000000000000000000060448201526064016101e8565b6060821580156124b85760405191506000825260208201604052612520565b6040519150601f8416801560200281840101858101878315602002848b0101015b818310156124f15780518352602092830192016124d9565b5050858452601f017fffffffffffffffffffffffffffffffffffffffffffffffffffffffffffffffe016604052505b50949350505050565b6000816040015173ffffffffffffffffffffffffffffffffffffffff16826020015173ffffffffffffffffffffffffffffffffffffffff16106125c8576040517f08c379a000000000000000000000000000000000000000000000000000000000815260206004820152601760248201527f496e76616c6964206f72646572206f6620746f6b656e7300000000000000000060448201526064016101e8565b8151839073ffffffffffffffffffffffffffffffffffffffff1615612641578251602080850151604080870151905161262d94930173ffffffffffffffffffffffffffffffffffffffff93841681529183166020830152909116604082015260600190565b60405160208183030381529060405261268b565b602080840151604080860151905161267b930173ffffffffffffffffffffffffffffffffffffffff92831681529116602082015260400190565b6040516020818303038152906040525b805160209182012060405161272193927fb3fc09be5eb433d99b1ec89fd8435aaf5ffea75c1879e19028aa2414a14b3c8591017fff00000000000000000000000000000000000000000000000000000000000000815260609390931b7fffffffffffffffffffffffffffffffffffffffff0000000000000000000000001660018401526015830191909152603582015260550190565b604080517fffffffffffffffffffffffffffffffffffffffffffffffffffffffffffffffe081840301815291905280516020909101209392505050565b6000610100828403121561056457600080fd5b6000610100828403121561278457600080fd5b61278e838361275e565b9392505050565b600080600080606085870312156127ab57600080fd5b8435935060208501359250604085013567ffffffffffffffff808211156127d157600080fd5b818701915087601f8301126127e557600080fd5b8135818111156127f457600080fd5b88602082850101111561280657600080fd5b95989497505060200194505050565b73ffffffffffffffffffffffffffffffffffffffff8116811461169d57600080fd5b60008060008060008060c0878903121561285057600080fd5b863561285b81612815565b95506020870135945060408701359350606087013560ff8116811461287f57600080fd5b9598949750929560808101359460a0909101359350915050565b600080604083850312156128ac57600080fd5b8235915060208301356128be81612815565b809150509250929050565b600080602083850312156128dc57600080fd5b823567ffffffffffffffff808211156128f457600080fd5b818501915085601f83011261290857600080fd5b81358181111561291757600080fd5b8660208260051b850101111561292c57600080fd5b60209290920196919550909350505050565b60005b83811015612959578181015183820152602001612941565b50506000910152565b6000815180845261297a81602086016020860161293e565b601f017fffffffffffffffffffffffffffffffffffffffffffffffffffffffffffffffe0169290920160200192915050565b6000602080830181845280855180835260408601915060408160051b870101925083870160005b82811015612a1f577fffffffffffffffffffffffffffffffffffffffffffffffffffffffffffffffc0888603018452612a0d858351612962565b945092850192908501906001016129d3565b5092979650505050505050565b7f4e487b7100000000000000000000000000000000000000000000000000000000600052604160045260246000fd5b60405160a0810167ffffffffffffffff81118282101715612a7e57612a7e612a2c565b60405290565b600082601f830112612a9557600080fd5b813567ffffffffffffffff80821115612ab057612ab0612a2c565b604051601f83017fffffffffffffffffffffffffffffffffffffffffffffffffffffffffffffffe0908116603f01168101908282118183101715612af657612af6612a2c565b81604052838152866020858801011115612b0f57600080fd5b836020870160208301376000602085830101528094505050505092915050565b600060208284031215612b4157600080fd5b813567ffffffffffffffff80821115612b5957600080fd5b9083019060a08286031215612b6d57600080fd5b612b75612a5b565b823582811115612b8457600080fd5b612b9087828601612a84565b82525060208301359150612ba382612815565b81602082015260408301356040820152606083013560608201526080830135608082015280935050505092915050565b60008060008060808587031215612be957600080fd5b843593506020850135612bfb81612815565b9250604085013591506060850135612c1281612815565b939692955090935050565b600080600060608486031215612c3257600080fd5b8335612c3d81612815565b9250602084013591506040840135612c5481612815565b809150509250925092565b600080600080600060a08688031215612c7757600080fd5b8535612c8281612815565b9450602086013593506040860135612c9981612815565b9250606086013591506080860135612cb081612815565b809150509295509295909350565b600060208284031215612cd057600080fd5b813567ffffffffffffffff811115612ce757600080fd5b820160a0818503121561278e57600080fd5b600060208284031215612d0b57600080fd5b813561278e81612815565b600060208284031215612d2857600080fd5b813567ffffffffffffffff80821115612d4057600080fd5b9083019060408286031215612d5457600080fd5b604051604081018181108382111715612d6f57612d6f612a2c565b604052823582811115612d8157600080fd5b612d8d87828601612a84565b82525060208301359250612da083612815565b6020810192909252509392505050565b7f4e487b7100000000000000000000000000000000000000000000000000000000600052601160045260246000fd5b73ffffffffffffffffffffffffffffffffffffffff828116828216039080821115610f6057610f60612db0565b73ffffffffffffffffffffffffffffffffffffffff818116838216019080821115610f6057610f60612db0565b602081526000825160406020840152612e556060840182612962565b905073ffffffffffffffffffffffffffffffffffffffff60208501511660408401528091505092915050565b600073ffffffffffffffffffffffffffffffffffffffff80891683528088166020840152861515604084015285606084015280851660808401525060c060a0830152612ed060c0830184612962565b98975050505050505050565b60008060408385031215612eef57600080fd5b505080516020909101519092909150565b60007f80000000000000000000000000000000000000000000000000000000000000008203612f3157612f31612db0565b5060000390565b7f4e487b7100000000000000000000000000000000000000000000000000000000600052603260045260246000fd5b60008083357fffffffffffffffffffffffffffffffffffffffffffffffffffffffffffffffe1843603018112612f9c57600080fd5b83018035915067ffffffffffffffff821115612fb757600080fd5b602001915036819003821315612fcc57600080fd5b9250929050565b8183823760009101908152919050565b600060208284031215612ff557600080fd5b5051919050565b8082028115828204841417611cf957611cf9612db0565b600082613049577f4e487b7100000000000000000000000000000000000000000000000000000000600052601260045260246000fd5b500490565b81810381811115611cf957611cf9612db0565b600073ffffffffffffffffffffffffffffffffffffffff8088168352861515602084015285604084015280851660608401525060a060808301526130a860a0830184612962565b979650505050505050565b80820180821115611cf957611cf9612db0565b6000602082840312156130d857600080fd5b8151801515811461278e57600080fd5b600082516130fa81846020870161293e565b919091019291505056fea164736f6c6343000814000a",
  "linkReferences": {},
  "deployedLinkReferences": {}
}