{
  "address": "0x886Ef0A78faBbAE942F1dA1791A8ed02a5aF8BC6",
  "abi": [
    {
      "inputs": [
        {
          "internalType": "contract IConditionalTokens",
          "name": "_conditionalTokens",
          "type": "address"
        },
        {
          "internalType": "contract IWrapped1155Factory",
          "name": "_wrapped1155Factory",
          "type": "address"
        }
      ],
      "stateMutability": "nonpayable",
      "type": "constructor"
    },
    {
      "inputs": [],
      "name": "DAI",
      "outputs": [
        {
          "internalType": "contract IERC20",
          "name": "",
          "type": "address"
        }
      ],
      "stateMutability": "view",
      "type": "function"
    },
    {
      "inputs": [],
      "name": "conditionalTokens",
      "outputs": [
        {
          "internalType": "contract IConditionalTokens",
          "name": "",
          "type": "address"
        }
      ],
      "stateMutability": "view",
      "type": "function"
    },
    {
      "inputs": [
        {
          "internalType": "contract IERC20",
          "name": "collateralToken",
          "type": "address"
        },
        {
          "internalType": "bytes32",
          "name": "parentCollectionId",
          "type": "bytes32"
        },
        {
          "internalType": "bytes32",
          "name": "conditionId",
          "type": "bytes32"
        },
        {
          "internalType": "uint256",
          "name": "indexSet",
          "type": "uint256"
        }
      ],
      "name": "getTokenId",
      "outputs": [
        {
          "internalType": "uint256",
          "name": "",
          "type": "uint256"
        }
      ],
      "stateMutability": "view",
      "type": "function"
    },
    {
      "inputs": [
        {
          "internalType": "bytes32",
          "name": "conditionId",
          "type": "bytes32"
        }
      ],
      "name": "getWinningOutcomes",
      "outputs": [
        {
          "internalType": "bool[]",
          "name": "",
          "type": "bool[]"
        }
      ],
      "stateMutability": "view",
      "type": "function"
    },
    {
      "inputs": [
        {
          "internalType": "contract IERC20",
          "name": "collateralToken",
          "type": "address"
        },
        {
          "internalType": "contract Market",
          "name": "market",
          "type": "address"
        },
        {
          "internalType": "uint256",
          "name": "amount",
          "type": "uint256"
        }
      ],
      "name": "mergePositions",
      "outputs": [],
      "stateMutability": "nonpayable",
      "type": "function"
    },
    {
      "inputs": [
        {
          "internalType": "contract Market",
          "name": "market",
          "type": "address"
        },
        {
          "internalType": "uint256",
          "name": "amount",
          "type": "uint256"
        }
      ],
      "name": "mergeToDai",
      "outputs": [],
      "stateMutability": "nonpayable",
      "type": "function"
    },
    {
      "inputs": [
        {
          "internalType": "address",
          "name": "",
          "type": "address"
        },
        {
          "internalType": "address",
          "name": "",
          "type": "address"
        },
        {
          "internalType": "uint256[]",
          "name": "",
          "type": "uint256[]"
        },
        {
          "internalType": "uint256[]",
          "name": "",
          "type": "uint256[]"
        },
        {
          "internalType": "bytes",
          "name": "",
          "type": "bytes"
        }
      ],
      "name": "onERC1155BatchReceived",
      "outputs": [
        {
          "internalType": "bytes4",
          "name": "",
          "type": "bytes4"
        }
      ],
      "stateMutability": "nonpayable",
      "type": "function"
    },
    {
      "inputs": [
        {
          "internalType": "address",
          "name": "",
          "type": "address"
        },
        {
          "internalType": "address",
          "name": "",
          "type": "address"
        },
        {
          "internalType": "uint256",
          "name": "",
          "type": "uint256"
        },
        {
          "internalType": "uint256",
          "name": "",
          "type": "uint256"
        },
        {
          "internalType": "bytes",
          "name": "",
          "type": "bytes"
        }
      ],
      "name": "onERC1155Received",
      "outputs": [
        {
          "internalType": "bytes4",
          "name": "",
          "type": "bytes4"
        }
      ],
      "stateMutability": "nonpayable",
      "type": "function"
    },
    {
      "inputs": [
        {
          "internalType": "contract IERC20",
          "name": "collateralToken",
          "type": "address"
        },
        {
          "internalType": "contract Market",
          "name": "market",
          "type": "address"
        },
        {
          "internalType": "uint256[]",
          "name": "outcomeIndexes",
          "type": "uint256[]"
        },
        {
          "internalType": "uint256[]",
          "name": "amounts",
          "type": "uint256[]"
        }
      ],
      "name": "redeemPositions",
      "outputs": [],
      "stateMutability": "nonpayable",
      "type": "function"
    },
    {
      "inputs": [
        {
          "internalType": "contract Market",
          "name": "market",
          "type": "address"
        },
        {
          "internalType": "uint256[]",
          "name": "outcomeIndexes",
          "type": "uint256[]"
        },
        {
          "internalType": "uint256[]",
          "name": "amounts",
          "type": "uint256[]"
        }
      ],
      "name": "redeemToDai",
      "outputs": [],
      "stateMutability": "nonpayable",
      "type": "function"
    },
    {
      "inputs": [],
      "name": "sDAI",
      "outputs": [
        {
          "internalType": "contract ISavingsDai",
          "name": "",
          "type": "address"
        }
      ],
      "stateMutability": "view",
      "type": "function"
    },
    {
      "inputs": [
        {
          "internalType": "contract Market",
          "name": "market",
          "type": "address"
        },
        {
          "internalType": "uint256",
          "name": "amount",
          "type": "uint256"
        }
      ],
      "name": "splitFromDai",
      "outputs": [],
      "stateMutability": "nonpayable",
      "type": "function"
    },
    {
      "inputs": [
        {
          "internalType": "contract IERC20",
          "name": "collateralToken",
          "type": "address"
        },
        {
          "internalType": "contract Market",
          "name": "market",
          "type": "address"
        },
        {
          "internalType": "uint256",
          "name": "amount",
          "type": "uint256"
        }
      ],
      "name": "splitPosition",
      "outputs": [],
      "stateMutability": "nonpayable",
      "type": "function"
    },
    {
      "inputs": [
        {
          "internalType": "bytes4",
          "name": "interfaceId",
          "type": "bytes4"
        }
      ],
      "name": "supportsInterface",
      "outputs": [
        {
          "internalType": "bool",
          "name": "",
          "type": "bool"
        }
      ],
      "stateMutability": "view",
      "type": "function"
    },
    {
      "inputs": [],
      "name": "wrapped1155Factory",
      "outputs": [
        {
          "internalType": "contract IWrapped1155Factory",
          "name": "",
          "type": "address"
        }
      ],
      "stateMutability": "view",
      "type": "function"
    }
  ],
  "transactionHash": "0x9642a62a06cad436ecc26cf4e3b4a42af78eeaee413bc59211e50439992a401e",
  "args": [
    "0xC59b0e4De5F1248C1140964E0fF287B192407E0C",
    "0xD194319D1804C1051DD21Ba1Dc931cA72410B79f"
  ],
  "numDeployments": 1,
  "solcInputHash": "e5551da2abe3840e61141321020a7e5f",
  "bytecode": "0x60c06040523480156200001157600080fd5b5060405162002c8838038062002c88833981016040819052620000349162000065565b6001600160a01b039182166080521660a052620000a4565b6001600160a01b03811681146200006257600080fd5b50565b600080604083850312156200007957600080fd5b825162000086816200004c565b602084015190925062000099816200004c565b809150509250929050565b60805160a051612b0162000187600039600081816101270152818161103d015281816112b901528181611661015281816118fa01528181611c9001526120510152600081816101a4015281816102f4015281816103cb015281816104b90152818161053e01528181610e6e0152818161106a015281816110fa0152818161118b0152818161128a01528181611481015281816115460152818161168e0152818161171c015281816117a2015281816118cb01528181611cbf01528181611d8101528181611e1201528181611ea201528181611f3001526120290152612b016000f3fe608060405234801561001057600080fd5b50600436106100d55760003560e01c80637abef8d1116100875780637abef8d1146101c6578063865955a0146101d9578063b6fefc75146101ec578063bc197c81146101ff578063d5f8228014610237578063de8b61491461024a578063e0bab4c41461025f578063f23a6e611461027a57600080fd5b806301ffc9a7146100da57806302bd74c314610102578063150c5b97146101225780631a09424a146101565780634c95d98d1461017757806359a89d8b1461018c5780635bd9e2991461019f575b600080fd5b6100ed6100e836600461223b565b610299565b60405190151581526020015b60405180910390f35b61011561011036600461226c565b6102d0565b6040516100f99190612285565b6101497f000000000000000000000000000000000000000000000000000000000000000081565b6040516100f991906122cb565b6101696101643660046122f7565b610488565b6040519081526020016100f9565b61018a610185366004612332565b6105c0565b005b61018a61019a366004612332565b610656565b6101497f000000000000000000000000000000000000000000000000000000000000000081565b61018a6101d436600461235e565b6107f4565b61018a6101e73660046123ea565b610900565b61018a6101fa36600461247e565b610b10565b61021e61020d366004612642565b63bc197c8160e01b95945050505050565b6040516001600160e01b031990911681526020016100f9565b61018a61024536600461235e565b610cb0565b610149600080516020612aac83398151915281565b610149736b175474e89094c44da98b954eedeac495271d0f81565b61021e6102883660046126ef565b63f23a6e6160e01b95945050505050565b60006001600160e01b03198216630271189760e51b14806102ca57506301ffc9a760e01b6001600160e01b03198316145b92915050565b604051636a16e06160e11b8152600481018290526060906000906001600160a01b037f0000000000000000000000000000000000000000000000000000000000000000169063d42dc0c290602401602060405180830381865afa15801561033b573d6000803e3d6000fd5b505050506040513d601f19601f8201168201806040525081019061035f9190612757565b6001600160401b0381111561037657610376612500565b60405190808252806020026020018201604052801561039f578160200160208202803683370190505b50905060005b815181101561048157604051630141320560e21b815260048101859052602481018290527f00000000000000000000000000000000000000000000000000000000000000006001600160a01b031690630504c81490604401602060405180830381865afa15801561041a573d6000803e3d6000fd5b505050506040513d601f19601f8201168201806040525081019061043e9190612757565b1561044a57600161044d565b60005b82828151811061045f5761045f612770565b91151560209283029190910190910152806104798161279c565b9150506103a5565b5092915050565b60405163856296f760e01b815260048101849052602481018390526044810182905260009081906001600160a01b037f0000000000000000000000000000000000000000000000000000000000000000169063856296f790606401602060405180830381865afa158015610500573d6000803e3d6000fd5b505050506040513d601f19601f820116820180604052508101906105249190612757565b60405163039dd75360e41b81529091506001600160a01b037f000000000000000000000000000000000000000000000000000000000000000016906339dd75309061057590899085906004016127b5565b602060405180830381865afa158015610592573d6000803e3d6000fd5b505050506040513d601f19601f820116820180604052508101906105b69190612757565b9695505050505050565b6105d9600080516020612aac8339815191528383610d9b565b604051635d043b2960e11b8152600080516020612aac8339815191529063ba0876529061060e908490339030906004016127ce565b6020604051808303816000875af115801561062d573d6000803e3d6000fd5b505050506040513d601f19601f820116820180604052508101906106519190612757565b505050565b6040516323b872dd60e01b8152736b175474e89094c44da98b954eedeac495271d0f906323b872dd90610691903390309086906004016127ed565b6020604051808303816000875af11580156106b0573d6000803e3d6000fd5b505050506040513d601f19601f820116820180604052508101906106d49190612811565b5060405163095ea7b360e01b8152736b175474e89094c44da98b954eedeac495271d0f9063095ea7b39061071c90600080516020612aac8339815191529085906004016127b5565b6020604051808303816000875af115801561073b573d6000803e3d6000fd5b505050506040513d601f19601f8201168201806040525081019061075f9190612811565b50604051636e553f6560e01b815260048101829052306024820152600090600080516020612aac83398151915290636e553f65906044016020604051808303816000875af11580156107b5573d6000803e3d6000fd5b505050506040513d601f19601f820116820180604052508101906107d99190612757565b9050610651600080516020612aac83398151915284836113ae565b6107ff838383610d9b565b6000801b826001600160a01b03166344bea37e6040518163ffffffff1660e01b8152600401602060405180830381865afa158015610841573d6000803e3d6000fd5b505050506040513d601f19601f820116820180604052508101906108659190612757565b036106515760405163a9059cbb60e01b81526001600160a01b0384169063a9059cbb9061089890339085906004016127b5565b6020604051808303816000875af11580156108b7573d6000803e3d6000fd5b505050506040513d601f19601f820116820180604052508101906108db9190612811565b6106515760405162461bcd60e51b81526004016108f790612833565b60405180910390fd5b6000856001600160a01b03166344bea37e6040518163ffffffff1660e01b8152600401602060405180830381865afa158015610940573d6000803e3d6000fd5b505050506040513d601f19601f820116820180604052508101906109649190612757565b90506000816109df576040516370a0823160e01b81526001600160a01b038916906370a08231906109999030906004016122cb565b6020604051808303816000875af11580156109b8573d6000803e3d6000fd5b505050506040513d601f19601f820116820180604052508101906109dc9190612757565b90505b6109ed8888888888886119fd565b81610b06576040516370a0823160e01b81526000906001600160a01b038a16906370a0823190610a219030906004016122cb565b6020604051808303816000875af1158015610a40573d6000803e3d6000fd5b505050506040513d601f19601f82011682018060405250810190610a649190612757565b905081811115610b04576001600160a01b03891663a9059cbb33610a88858561286a565b6040518363ffffffff1660e01b8152600401610aa59291906127b5565b6020604051808303816000875af1158015610ac4573d6000803e3d6000fd5b505050506040513d601f19601f82011682018060405250810190610ae89190612811565b610b045760405162461bcd60e51b81526004016108f790612833565b505b5050505050505050565b6040516370a0823160e01b8152600090600080516020612aac833981519152906370a0823190610b449030906004016122cb565b6020604051808303816000875af1158015610b63573d6000803e3d6000fd5b505050506040513d601f19601f82011682018060405250810190610b879190612757565b9050610ba5600080516020612aac83398151915287878787876119fd565b6040516370a0823160e01b8152600090600080516020612aac833981519152906370a0823190610bd99030906004016122cb565b6020604051808303816000875af1158015610bf8573d6000803e3d6000fd5b505050506040513d601f19601f82011682018060405250810190610c1c9190612757565b905081811115610ca757600080516020612aac83398151915263ba087652610c44848461286a565b33306040518463ffffffff1660e01b8152600401610c64939291906127ce565b6020604051808303816000875af1158015610c83573d6000803e3d6000fd5b505050506040513d601f19601f82011682018060405250810190610b069190612757565b50505050505050565b6000801b826001600160a01b03166344bea37e6040518163ffffffff1660e01b8152600401602060405180830381865afa158015610cf2573d6000803e3d6000fd5b505050506040513d601f19601f82011682018060405250810190610d169190612757565b03610d90576040516323b872dd60e01b81526001600160a01b038416906323b872dd90610d4b903390309086906004016127ed565b6020604051808303816000875af1158015610d6a573d6000803e3d6000fd5b505050506040513d601f19601f82011682018060405250810190610d8e9190612811565b505b6106518383836113ae565b6000826001600160a01b03166344bea37e6040518163ffffffff1660e01b8152600401602060405180830381865afa158015610ddb573d6000803e3d6000fd5b505050506040513d601f19601f82011682018060405250810190610dff9190612757565b90506000836001600160a01b0316632ddc7de76040518163ffffffff1660e01b8152600401602060405180830381865afa158015610e41573d6000803e3d6000fd5b505050506040513d601f19601f82011682018060405250810190610e659190612757565b90506000610f007f00000000000000000000000000000000000000000000000000000000000000006001600160a01b031663d42dc0c2846040518263ffffffff1660e01b8152600401610eba91815260200190565b602060405180830381865afa158015610ed7573d6000803e3d6000fd5b505050506040513d601f19601f82011682018060405250810190610efb9190612757565b6121b4565b905060005b81518110156110e2576000610f35888686868681518110610f2857610f28612770565b6020026020010151610488565b9050600080886001600160a01b03166318a988a8856040518263ffffffff1660e01b8152600401610f6891815260200190565b600060405180830381865afa158015610f85573d6000803e3d6000fd5b505050506040513d6000823e601f3d908101601f19168201604052610fad91908101906128a1565b6040516323b872dd60e01b815291935091506001600160a01b038316906323b872dd90610fe290339030908d906004016127ed565b6020604051808303816000875af1158015611001573d6000803e3d6000fd5b505050506040513d601f19601f820116820180604052508101906110259190612811565b506040516314abb2c960e21b81526001600160a01b037f000000000000000000000000000000000000000000000000000000000000000016906352aecb249061109a907f00000000000000000000000000000000000000000000000000000000000000009087908d9030908890600401612959565b600060405180830381600087803b1580156110b457600080fd5b505af11580156110c8573d6000803e3d6000fd5b5050505050505080806110da9061279c565b915050610f05565b50604051639e7212ad60e01b81526001600160a01b037f00000000000000000000000000000000000000000000000000000000000000001690639e7212ad906111379089908790879087908b906004016129ce565b600060405180830381600087803b15801561115157600080fd5b505af1158015611165573d6000803e3d6000fd5b5050841591506113a690505760405163039dd75360e41b81526000906001600160a01b037f000000000000000000000000000000000000000000000000000000000000000016906339dd7530906111c2908a9088906004016127b5565b602060405180830381865afa1580156111df573d6000803e3d6000fd5b505050506040513d601f19601f820116820180604052508101906112039190612757565b9050600080876001600160a01b0316636fc4eddd6040518163ffffffff1660e01b8152600401600060405180830381865afa158015611246573d6000803e3d6000fd5b505050506040513d6000823e601f3d908101601f1916820160405261126e91908101906128a1565b604051637921219560e11b815291935091506001600160a01b037f0000000000000000000000000000000000000000000000000000000000000000169063f242432a906112e79030907f00000000000000000000000000000000000000000000000000000000000000009088908d908890600401612a0d565b600060405180830381600087803b15801561130157600080fd5b505af1158015611315573d6000803e3d6000fd5b505060405163a9059cbb60e01b81526001600160a01b038516925063a9059cbb91506113479033908b906004016127b5565b6020604051808303816000875af1158015611366573d6000803e3d6000fd5b505050506040513d601f19601f8201168201806040525081019061138a9190612811565b610b045760405162461bcd60e51b81526004016108f790612a47565b505050505050565b6000826001600160a01b03166344bea37e6040518163ffffffff1660e01b8152600401602060405180830381865afa1580156113ee573d6000803e3d6000fd5b505050506040513d601f19601f820116820180604052508101906114129190612757565b90506000836001600160a01b0316632ddc7de76040518163ffffffff1660e01b8152600401602060405180830381865afa158015611454573d6000803e3d6000fd5b505050506040513d601f19601f820116820180604052508101906114789190612757565b905060006114cd7f00000000000000000000000000000000000000000000000000000000000000006001600160a01b031663d42dc0c2846040518263ffffffff1660e01b8152600401610eba91815260200190565b905082156116f857600080866001600160a01b0316636fc4eddd6040518163ffffffff1660e01b8152600401600060405180830381865afa158015611516573d6000803e3d6000fd5b505050506040513d6000823e601f3d908101601f1916820160405261153e91908101906128a1565b9150915060007f00000000000000000000000000000000000000000000000000000000000000006001600160a01b03166339dd75308a886040518363ffffffff1660e01b81526004016115929291906127b5565b602060405180830381865afa1580156115af573d6000803e3d6000fd5b505050506040513d601f19601f820116820180604052508101906115d39190612757565b6040516323b872dd60e01b81529091506001600160a01b038416906323b872dd9061160690339030908c906004016127ed565b6020604051808303816000875af1158015611625573d6000803e3d6000fd5b505050506040513d601f19601f820116820180604052508101906116499190612811565b506040516314abb2c960e21b81526001600160a01b037f000000000000000000000000000000000000000000000000000000000000000016906352aecb24906116be907f00000000000000000000000000000000000000000000000000000000000000009085908c9030908990600401612959565b600060405180830381600087803b1580156116d857600080fd5b505af11580156116ec573d6000803e3d6000fd5b5050505050505061178b565b60405163095ea7b360e01b81526001600160a01b0387169063095ea7b390611746907f00000000000000000000000000000000000000000000000000000000000000009088906004016127b5565b6020604051808303816000875af1158015611765573d6000803e3d6000fd5b505050506040513d601f19601f820116820180604052508101906117899190612811565b505b6040516372ce427560e01b81526001600160a01b037f000000000000000000000000000000000000000000000000000000000000000016906372ce4275906117df9089908790879087908b906004016129ce565b600060405180830381600087803b1580156117f957600080fd5b505af115801561180d573d6000803e3d6000fd5b5050505060005b8151811015610ca7576000611837888686868681518110610f2857610f28612770565b9050600080886001600160a01b03166318a988a8856040518263ffffffff1660e01b815260040161186a91815260200190565b600060405180830381865afa158015611887573d6000803e3d6000fd5b505050506040513d6000823e601f3d908101601f191682016040526118af91908101906128a1565b604051637921219560e11b815291935091506001600160a01b037f0000000000000000000000000000000000000000000000000000000000000000169063f242432a906119289030907f00000000000000000000000000000000000000000000000000000000000000009088908e908890600401612a0d565b600060405180830381600087803b15801561194257600080fd5b505af1158015611956573d6000803e3d6000fd5b505060405163a9059cbb60e01b81526001600160a01b038516925063a9059cbb91506119889033908c906004016127b5565b6020604051808303816000875af11580156119a7573d6000803e3d6000fd5b505050506040513d601f19601f820116820180604052508101906119cb9190612811565b6119e75760405162461bcd60e51b81526004016108f790612a47565b50505080806119f59061279c565b915050611814565b6000856001600160a01b03166344bea37e6040518163ffffffff1660e01b8152600401602060405180830381865afa158015611a3d573d6000803e3d6000fd5b505050506040513d601f19601f82011682018060405250810190611a619190612757565b90506000866001600160a01b0316632ddc7de76040518163ffffffff1660e01b8152600401602060405180830381865afa158015611aa3573d6000803e3d6000fd5b505050506040513d601f19601f82011682018060405250810190611ac79190612757565b9050600080866001600160401b03811115611ae457611ae4612500565b604051908082528060200260200182016040528015611b0d578160200160208202803683370190505b50905060005b87811015611d6157888882818110611b2d57611b2d612770565b905060200201356001901b828281518110611b4a57611b4a612770565b602002602001018181525050611b6e8b8686858581518110610f2857610f28612770565b92506000808b6001600160a01b03166318a988a88c8c86818110611b9457611b94612770565b905060200201356040518263ffffffff1660e01b8152600401611bb991815260200190565b600060405180830381865afa158015611bd6573d6000803e3d6000fd5b505050506040513d6000823e601f3d908101601f19168201604052611bfe91908101906128a1565b91509150816001600160a01b03166323b872dd33308c8c88818110611c2557611c25612770565b905060200201356040518463ffffffff1660e01b8152600401611c4a939291906127ed565b6020604051808303816000875af1158015611c69573d6000803e3d6000fd5b505050506040513d601f19601f82011682018060405250810190611c8d9190612811565b507f00000000000000000000000000000000000000000000000000000000000000006001600160a01b03166352aecb247f0000000000000000000000000000000000000000000000000000000000000000878c8c88818110611cf157611cf1612770565b9050602002013530866040518663ffffffff1660e01b8152600401611d1a959493929190612959565b600060405180830381600087803b158015611d3457600080fd5b505af1158015611d48573d6000803e3d6000fd5b5050505050508080611d599061279c565b915050611b13565b5060008415611e8c5760405163039dd75360e41b81526001600160a01b037f000000000000000000000000000000000000000000000000000000000000000016906339dd753090611db8908e9089906004016127b5565b602060405180830381865afa158015611dd5573d6000803e3d6000fd5b505050506040513d601f19601f82011682018060405250810190611df99190612757565b604051627eeac760e11b81529093506001600160a01b037f0000000000000000000000000000000000000000000000000000000000000000169062fdd58e90611e4890309087906004016127b5565b602060405180830381865afa158015611e65573d6000803e3d6000fd5b505050506040513d601f19601f82011682018060405250810190611e899190612757565b90505b604051626dc0df60e21b81526001600160a01b037f000000000000000000000000000000000000000000000000000000000000000016906301b7037c90611edd908e90899089908890600401612a7e565b600060405180830381600087803b158015611ef757600080fd5b505af1158015611f0b573d6000803e3d6000fd5b5050861591506121a7905057604051627eeac760e11b81526000906001600160a01b037f0000000000000000000000000000000000000000000000000000000000000000169062fdd58e90611f6690309088906004016127b5565b602060405180830381865afa158015611f83573d6000803e3d6000fd5b505050506040513d601f19601f82011682018060405250810190611fa79190612757565b9050818111156121a5576000808c6001600160a01b0316636fc4eddd6040518163ffffffff1660e01b8152600401600060405180830381865afa158015611ff2573d6000803e3d6000fd5b505050506040513d6000823e601f3d908101601f1916820160405261201a91908101906128a1565b90925090506001600160a01b037f00000000000000000000000000000000000000000000000000000000000000001663f242432a307f00000000000000000000000000000000000000000000000000000000000000008961207b898961286a565b866040518663ffffffff1660e01b815260040161209c959493929190612a0d565b600060405180830381600087803b1580156120b657600080fd5b505af11580156120ca573d6000803e3d6000fd5b50505050816001600160a01b031663a9059cbb3386866120ea919061286a565b6040518363ffffffff1660e01b81526004016121079291906127b5565b6020604051808303816000875af1158015612126573d6000803e3d6000fd5b505050506040513d601f19601f8201168201806040525081019061214a9190612811565b6121a25760405162461bcd60e51b8152602060048201526024808201527f506172656e74207772617070656420746f6b656e207472616e736665722066616044820152631a5b195960e21b60648201526084016108f7565b50505b505b5050505050505050505050565b60606000826001600160401b038111156121d0576121d0612500565b6040519080825280602002602001820160405280156121f9578160200160208202803683370190505b50905060005b8381101561048157806001901b82828151811061221e5761221e612770565b6020908102919091010152806122338161279c565b9150506121ff565b60006020828403121561224d57600080fd5b81356001600160e01b03198116811461226557600080fd5b9392505050565b60006020828403121561227e57600080fd5b5035919050565b6020808252825182820181905260009190848201906040850190845b818110156122bf5783511515835292840192918401916001016122a1565b50909695505050505050565b6001600160a01b0391909116815260200190565b6001600160a01b03811681146122f457600080fd5b50565b6000806000806080858703121561230d57600080fd5b8435612318816122df565b966020860135965060408601359560600135945092505050565b6000806040838503121561234557600080fd5b8235612350816122df565b946020939093013593505050565b60008060006060848603121561237357600080fd5b833561237e816122df565b9250602084013561238e816122df565b929592945050506040919091013590565b60008083601f8401126123b157600080fd5b5081356001600160401b038111156123c857600080fd5b6020830191508360208260051b85010111156123e357600080fd5b9250929050565b6000806000806000806080878903121561240357600080fd5b863561240e816122df565b9550602087013561241e816122df565b945060408701356001600160401b038082111561243a57600080fd5b6124468a838b0161239f565b9096509450606089013591508082111561245f57600080fd5b5061246c89828a0161239f565b979a9699509497509295939492505050565b60008060008060006060868803121561249657600080fd5b85356124a1816122df565b945060208601356001600160401b03808211156124bd57600080fd5b6124c989838a0161239f565b909650945060408801359150808211156124e257600080fd5b506124ef8882890161239f565b969995985093965092949392505050565b634e487b7160e01b600052604160045260246000fd5b604051601f8201601f191681016001600160401b038111828210171561253e5761253e612500565b604052919050565b600082601f83011261255757600080fd5b813560206001600160401b0382111561257257612572612500565b8160051b612581828201612516565b928352848101820192828101908785111561259b57600080fd5b83870192505b848310156125ba578235825291830191908301906125a1565b979650505050505050565b60006001600160401b038211156125de576125de612500565b50601f01601f191660200190565b600082601f8301126125fd57600080fd5b813561261061260b826125c5565b612516565b81815284602083860101111561262557600080fd5b816020850160208301376000918101602001919091529392505050565b600080600080600060a0868803121561265a57600080fd5b8535612665816122df565b94506020860135612675816122df565b935060408601356001600160401b038082111561269157600080fd5b61269d89838a01612546565b945060608801359150808211156126b357600080fd5b6126bf89838a01612546565b935060808801359150808211156126d557600080fd5b506126e2888289016125ec565b9150509295509295909350565b600080600080600060a0868803121561270757600080fd5b8535612712816122df565b94506020860135612722816122df565b9350604086013592506060860135915060808601356001600160401b0381111561274b57600080fd5b6126e2888289016125ec565b60006020828403121561276957600080fd5b5051919050565b634e487b7160e01b600052603260045260246000fd5b634e487b7160e01b600052601160045260246000fd5b6000600182016127ae576127ae612786565b5060010190565b6001600160a01b03929092168252602082015260400190565b9283526001600160a01b03918216602084015216604082015260600190565b6001600160a01b039384168152919092166020820152604081019190915260600190565b60006020828403121561282357600080fd5b8151801515811461226557600080fd5b6020808252601a908201527f436f6c6c61746572616c207472616e73666572206661696c6564000000000000604082015260600190565b818103818111156102ca576102ca612786565b60005b83811015612898578181015183820152602001612880565b50506000910152565b600080604083850312156128b457600080fd5b82516128bf816122df565b60208401519092506001600160401b038111156128db57600080fd5b8301601f810185136128ec57600080fd5b80516128fa61260b826125c5565b81815286602083850101111561290f57600080fd5b61292082602083016020860161287d565b8093505050509250929050565b6000815180845261294581602086016020860161287d565b601f01601f19169290920160200192915050565b6001600160a01b03868116825260208201869052604082018590528316606082015260a0608082018190526000906125ba9083018461292d565b600081518084526020808501945080840160005b838110156129c3578151875295820195908201906001016129a7565b509495945050505050565b60018060a01b038616815284602082015283604082015260a0606082015260006129fb60a0830185612993565b90508260808301529695505050505050565b6001600160a01b03868116825285166020820152604081018490526060810183905260a0608082018190526000906125ba9083018461292d565b6020808252601d908201527f5772617070656420746f6b656e207472616e73666572206661696c6564000000604082015260600190565b60018060a01b03851681528360208201528260408201526080606082015260006105b6608083018461299356fe00000000000000000000000083f20f44975d03b1b09e64809b757c47f942beeaa2646970667358221220919ed64080872cc9cb50be3ce875aec75f77ef0b01049a1ca674f0301c7fe73564736f6c63430008140033",
  "devdoc": {
    "details": "Router implementation with functions to interact with DAI on Ethereum Mainnet.",
    "kind": "dev",
    "methods": {
      "constructor": {
        "details": "Constructor.",
        "params": {
          "_conditionalTokens": "Conditional Tokens contract.",
          "_wrapped1155Factory": "Wrapped1155Factory contract."
        }
      },
      "getTokenId(address,bytes32,bytes32,uint256)": {
        "params": {
          "collateralToken": "The address of the ERC20 used as collateral.",
          "conditionId": "The id of the condition used to redeem.",
          "indexSet": "Index set of the outcome collection to combine with the parent outcome collection.",
          "parentCollectionId": "The Conditional Tokens parent collection id."
        },
        "returns": {
          "_0": "The token id."
        }
      },
      "getWinningOutcomes(bytes32)": {
        "params": {
          "conditionId": "The id of the condition."
        },
        "returns": {
          "_0": "An array of outcomes where a true value indicates that the outcome is redeemable."
        }
      },
      "mergePositions(address,address,uint256)": {
        "details": "The ERC20 associated to each outcome must be previously created on the wrapped1155Factory.Collateral tokens are withdrawn only if we are not merging a deep position (parentCollectionId is bytes32(0)).",
        "params": {
          "amount": "The amount of outcome tokens to merge.",
          "collateralToken": "The address of the ERC20 used as collateral.",
          "market": "The Market to merge."
        }
      },
      "mergeToDai(address,uint256)": {
        "details": "The ERC20 associated to each outcome must be previously created on the wrapped1155Factory.",
        "params": {
          "amount": "The amount of outcome tokens to merge.",
          "market": "The Market to merge."
        }
      },
      "redeemPositions(address,address,uint256[],uint256[])": {
        "details": "The ERC20 associated to each outcome must be previously created on the wrapped1155Factory.Collateral tokens are withdrawn only if we are not redeeming a deep position (parentCollectionId is bytes32(0)).",
        "params": {
          "amounts": "Amount to redeem of each outcome.",
          "collateralToken": "The address of the ERC20 used as collateral.",
          "market": "The Market to redeem.",
          "outcomeIndexes": "The index of the outcomes to redeem."
        }
      },
      "redeemToDai(address,uint256[],uint256[])": {
        "details": "The ERC20 associated to each outcome must be previously created on the wrapped1155Factory.",
        "params": {
          "amounts": "Amount to redeem of each outcome.",
          "market": "The Market to redeem.",
          "outcomeIndexes": "The index of the outcomes to redeem."
        }
      },
      "splitFromDai(address,uint256)": {
        "details": "The ERC20 associated to each outcome must be previously created on the wrapped1155Factory.",
        "params": {
          "amount": "The amount of collateral to split.",
          "market": "The Market to split."
        }
      },
      "splitPosition(address,address,uint256)": {
        "details": "The ERC20 associated to each outcome must be previously created on the wrapped1155Factory.Collateral tokens are deposited only if we are not splitting a deep position (parentCollectionId is bytes32(0)).",
        "params": {
          "amount": "The amount of collateral to split.",
          "collateralToken": "The address of the ERC20 used as collateral.",
          "market": "The Market to split."
        }
      },
      "supportsInterface(bytes4)": {
        "details": "See {IERC165-supportsInterface}."
      }
    },
    "stateVariables": {
      "DAI": {
        "details": "DAI address."
      },
      "sDAI": {
        "details": "SavingsDai address."
      }
    },
    "version": 1
  },
  "userdoc": {
    "kind": "user",
    "methods": {
      "getTokenId(address,bytes32,bytes32,uint256)": {
        "notice": "Constructs a tokenId from a collateral token and an outcome collection."
      },
      "getWinningOutcomes(bytes32)": {
        "notice": "Helper function used to know the redeemable outcomes associated to a conditionId."
      },
      "mergePositions(address,address,uint256)": {
        "notice": "Merges positions and sends the collateral tokens to the user."
      },
      "mergeToDai(address,uint256)": {
        "notice": "Merges positions and sends DAI to the user."
      },
      "redeemPositions(address,address,uint256[],uint256[])": {
        "notice": "Redeems positions and sends the collateral tokens to the user."
      },
      "redeemToDai(address,uint256[],uint256[])": {
        "notice": "Redeems positions and sends DAI to the user."
      },
      "splitFromDai(address,uint256)": {
        "notice": "Splits a position using DAI and sends the ERC20 outcome tokens back to the user."
      },
      "splitPosition(address,address,uint256)": {
        "notice": "Transfers the collateral to the Router, splits the position and sends the ERC20 outcome tokens back to the user."
      }
    },
    "version": 1
  },
  "storageLayout": {
    "storage": [],
    "types": null
  }
}