{
  "address": "0x1F728c2fD6a3008935c1446a965a313E657b7904",
  "abi": [
    {
      "inputs": [
        {
          "internalType": "address",
          "name": "_market",
          "type": "address"
        },
        {
          "internalType": "address",
          "name": "_arbitrator",
          "type": "address"
        },
        {
          "internalType": "contract IRealityETH_v3_0",
          "name": "_realitio",
          "type": "address"
        },
        {
          "internalType": "contract IWrapped1155Factory",
          "name": "_wrapped1155Factory",
          "type": "address"
        },
        {
          "internalType": "contract IConditionalTokens",
          "name": "_conditionalTokens",
          "type": "address"
        },
        {
          "internalType": "address",
          "name": "_collateralToken",
          "type": "address"
        },
        {
          "internalType": "contract RealityProxy",
          "name": "_realityProxy",
          "type": "address"
        },
        {
          "internalType": "uint32",
          "name": "_questionTimeout",
          "type": "uint32"
        }
      ],
      "stateMutability": "nonpayable",
      "type": "constructor"
    },
    {
      "inputs": [],
      "name": "ERC1167FailedCreateClone",
      "type": "error"
    },
    {
      "anonymous": false,
      "inputs": [
        {
          "indexed": true,
          "internalType": "address",
          "name": "market",
          "type": "address"
        },
        {
          "indexed": false,
          "internalType": "string",
          "name": "marketName",
          "type": "string"
        },
        {
          "indexed": false,
          "internalType": "address",
          "name": "parentMarket",
          "type": "address"
        },
        {
          "indexed": false,
          "internalType": "bytes32",
          "name": "conditionId",
          "type": "bytes32"
        },
        {
          "indexed": false,
          "internalType": "bytes32",
          "name": "questionId",
          "type": "bytes32"
        },
        {
          "indexed": false,
          "internalType": "bytes32[]",
          "name": "questionsIds",
          "type": "bytes32[]"
        }
      ],
      "name": "NewMarket",
      "type": "event"
    },
    {
      "inputs": [],
      "name": "allMarkets",
      "outputs": [
        {
          "internalType": "address[]",
          "name": "",
          "type": "address[]"
        }
      ],
      "stateMutability": "view",
      "type": "function"
    },
    {
      "inputs": [],
      "name": "arbitrator",
      "outputs": [
        {
          "internalType": "address",
          "name": "",
          "type": "address"
        }
      ],
      "stateMutability": "view",
      "type": "function"
    },
    {
      "inputs": [],
      "name": "collateralToken",
      "outputs": [
        {
          "internalType": "address",
          "name": "",
          "type": "address"
        }
      ],
      "stateMutability": "view",
      "type": "function"
    },
    {
      "inputs": [],
      "name": "conditionalTokens",
      "outputs": [
        {
          "internalType": "contract IConditionalTokens",
          "name": "",
          "type": "address"
        }
      ],
      "stateMutability": "view",
      "type": "function"
    },
    {
      "inputs": [
        {
          "components": [
            {
              "internalType": "string",
              "name": "marketName",
              "type": "string"
            },
            {
              "internalType": "string[]",
              "name": "outcomes",
              "type": "string[]"
            },
            {
              "internalType": "string",
              "name": "questionStart",
              "type": "string"
            },
            {
              "internalType": "string",
              "name": "questionEnd",
              "type": "string"
            },
            {
              "internalType": "string",
              "name": "outcomeType",
              "type": "string"
            },
            {
              "internalType": "uint256",
              "name": "parentOutcome",
              "type": "uint256"
            },
            {
              "internalType": "address",
              "name": "parentMarket",
              "type": "address"
            },
            {
              "internalType": "string",
              "name": "category",
              "type": "string"
            },
            {
              "internalType": "string",
              "name": "lang",
              "type": "string"
            },
            {
              "internalType": "uint256",
              "name": "lowerBound",
              "type": "uint256"
            },
            {
              "internalType": "uint256",
              "name": "upperBound",
              "type": "uint256"
            },
            {
              "internalType": "uint256",
              "name": "minBond",
              "type": "uint256"
            },
            {
              "internalType": "uint32",
              "name": "openingTime",
              "type": "uint32"
            },
            {
              "internalType": "string[]",
              "name": "tokenNames",
              "type": "string[]"
            }
          ],
          "internalType": "struct MarketFactory.CreateMarketParams",
          "name": "params",
          "type": "tuple"
        }
      ],
      "name": "createCategoricalMarket",
      "outputs": [
        {
          "internalType": "address",
          "name": "",
          "type": "address"
        }
      ],
      "stateMutability": "nonpayable",
      "type": "function"
    },
    {
      "inputs": [
        {
          "components": [
            {
              "internalType": "string",
              "name": "marketName",
              "type": "string"
            },
            {
              "internalType": "string[]",
              "name": "outcomes",
              "type": "string[]"
            },
            {
              "internalType": "string",
              "name": "questionStart",
              "type": "string"
            },
            {
              "internalType": "string",
              "name": "questionEnd",
              "type": "string"
            },
            {
              "internalType": "string",
              "name": "outcomeType",
              "type": "string"
            },
            {
              "internalType": "uint256",
              "name": "parentOutcome",
              "type": "uint256"
            },
            {
              "internalType": "address",
              "name": "parentMarket",
              "type": "address"
            },
            {
              "internalType": "string",
              "name": "category",
              "type": "string"
            },
            {
              "internalType": "string",
              "name": "lang",
              "type": "string"
            },
            {
              "internalType": "uint256",
              "name": "lowerBound",
              "type": "uint256"
            },
            {
              "internalType": "uint256",
              "name": "upperBound",
              "type": "uint256"
            },
            {
              "internalType": "uint256",
              "name": "minBond",
              "type": "uint256"
            },
            {
              "internalType": "uint32",
              "name": "openingTime",
              "type": "uint32"
            },
            {
              "internalType": "string[]",
              "name": "tokenNames",
              "type": "string[]"
            }
          ],
          "internalType": "struct MarketFactory.CreateMarketParams",
          "name": "params",
          "type": "tuple"
        }
      ],
      "name": "createMultiCategoricalMarket",
      "outputs": [
        {
          "internalType": "address",
          "name": "",
          "type": "address"
        }
      ],
      "stateMutability": "nonpayable",
      "type": "function"
    },
    {
      "inputs": [
        {
          "components": [
            {
              "internalType": "string",
              "name": "marketName",
              "type": "string"
            },
            {
              "internalType": "string[]",
              "name": "outcomes",
              "type": "string[]"
            },
            {
              "internalType": "string",
              "name": "questionStart",
              "type": "string"
            },
            {
              "internalType": "string",
              "name": "questionEnd",
              "type": "string"
            },
            {
              "internalType": "string",
              "name": "outcomeType",
              "type": "string"
            },
            {
              "internalType": "uint256",
              "name": "parentOutcome",
              "type": "uint256"
            },
            {
              "internalType": "address",
              "name": "parentMarket",
              "type": "address"
            },
            {
              "internalType": "string",
              "name": "category",
              "type": "string"
            },
            {
              "internalType": "string",
              "name": "lang",
              "type": "string"
            },
            {
              "internalType": "uint256",
              "name": "lowerBound",
              "type": "uint256"
            },
            {
              "internalType": "uint256",
              "name": "upperBound",
              "type": "uint256"
            },
            {
              "internalType": "uint256",
              "name": "minBond",
              "type": "uint256"
            },
            {
              "internalType": "uint32",
              "name": "openingTime",
              "type": "uint32"
            },
            {
              "internalType": "string[]",
              "name": "tokenNames",
              "type": "string[]"
            }
          ],
          "internalType": "struct MarketFactory.CreateMarketParams",
          "name": "params",
          "type": "tuple"
        }
      ],
      "name": "createMultiScalarMarket",
      "outputs": [
        {
          "internalType": "address",
          "name": "",
          "type": "address"
        }
      ],
      "stateMutability": "nonpayable",
      "type": "function"
    },
    {
      "inputs": [
        {
          "components": [
            {
              "internalType": "string",
              "name": "marketName",
              "type": "string"
            },
            {
              "internalType": "string[]",
              "name": "outcomes",
              "type": "string[]"
            },
            {
              "internalType": "string",
              "name": "questionStart",
              "type": "string"
            },
            {
              "internalType": "string",
              "name": "questionEnd",
              "type": "string"
            },
            {
              "internalType": "string",
              "name": "outcomeType",
              "type": "string"
            },
            {
              "internalType": "uint256",
              "name": "parentOutcome",
              "type": "uint256"
            },
            {
              "internalType": "address",
              "name": "parentMarket",
              "type": "address"
            },
            {
              "internalType": "string",
              "name": "category",
              "type": "string"
            },
            {
              "internalType": "string",
              "name": "lang",
              "type": "string"
            },
            {
              "internalType": "uint256",
              "name": "lowerBound",
              "type": "uint256"
            },
            {
              "internalType": "uint256",
              "name": "upperBound",
              "type": "uint256"
            },
            {
              "internalType": "uint256",
              "name": "minBond",
              "type": "uint256"
            },
            {
              "internalType": "uint32",
              "name": "openingTime",
              "type": "uint32"
            },
            {
              "internalType": "string[]",
              "name": "tokenNames",
              "type": "string[]"
            }
          ],
          "internalType": "struct MarketFactory.CreateMarketParams",
          "name": "params",
          "type": "tuple"
        }
      ],
      "name": "createScalarMarket",
      "outputs": [
        {
          "internalType": "address",
          "name": "",
          "type": "address"
        }
      ],
      "stateMutability": "nonpayable",
      "type": "function"
    },
    {
      "inputs": [],
      "name": "market",
      "outputs": [
        {
          "internalType": "address",
          "name": "",
          "type": "address"
        }
      ],
      "stateMutability": "view",
      "type": "function"
    },
    {
      "inputs": [],
      "name": "marketCount",
      "outputs": [
        {
          "internalType": "uint256",
          "name": "",
          "type": "uint256"
        }
      ],
      "stateMutability": "view",
      "type": "function"
    },
    {
      "inputs": [
        {
          "internalType": "uint256",
          "name": "",
          "type": "uint256"
        }
      ],
      "name": "markets",
      "outputs": [
        {
          "internalType": "address",
          "name": "",
          "type": "address"
        }
      ],
      "stateMutability": "view",
      "type": "function"
    },
    {
      "inputs": [],
      "name": "questionTimeout",
      "outputs": [
        {
          "internalType": "uint32",
          "name": "",
          "type": "uint32"
        }
      ],
      "stateMutability": "view",
      "type": "function"
    },
    {
      "inputs": [],
      "name": "realitio",
      "outputs": [
        {
          "internalType": "contract IRealityETH_v3_0",
          "name": "",
          "type": "address"
        }
      ],
      "stateMutability": "view",
      "type": "function"
    },
    {
      "inputs": [],
      "name": "realityProxy",
      "outputs": [
        {
          "internalType": "contract RealityProxy",
          "name": "",
          "type": "address"
        }
      ],
      "stateMutability": "view",
      "type": "function"
    },
    {
      "inputs": [],
      "name": "wrapped1155Factory",
      "outputs": [
        {
          "internalType": "contract IWrapped1155Factory",
          "name": "",
          "type": "address"
        }
      ],
      "stateMutability": "view",
      "type": "function"
    }
  ],
  "transactionHash": "0x52b5e5721fcd70a9dfcb06530fdd46780fbaa6377db1fe5c6c95a99da2706230",
  "args": [
    "0x8bdC504dC3A05310059c1c67E0A2667309D27B93",
    "0x2018038203aEE8e7a29dABd73771b0355D4F85ad",
    "0x5b7dd1e86623548af054a4985f7fc8ccbb554e2c",
    "0xD194319D1804C1051DD21Ba1Dc931cA72410B79f",
    "0xC59b0e4De5F1248C1140964E0fF287B192407E0C",
    "0x83F20F44975D03b1b09e64809B757c47f942BEeA",
    "0xC72f738e331b6B7A5d77661277074BB60Ca0Ca9E",
    302400
  ],
  "numDeployments": 1,
  "solcInputHash": "e5551da2abe3840e61141321020a7e5f",
  "bytecode": "0x6101806040523480156200001257600080fd5b50604051620028b4380380620028b4833981016040819052620000359162000091565b6001600160a01b039788166101605295871660a05293861660c05291851660e0528416610100528316610120529091166101405263ffffffff166080526200015a565b6001600160a01b03811681146200008e57600080fd5b50565b600080600080600080600080610100898b031215620000af57600080fd5b8851620000bc8162000078565b60208a0151909850620000cf8162000078565b60408a0151909750620000e28162000078565b60608a0151909650620000f58162000078565b60808a0151909550620001088162000078565b60a08a01519094506200011b8162000078565b60c08a01519093506200012e8162000078565b60e08a015190925063ffffffff811681146200014957600080fd5b809150509295985092959890939650565b60805160a05160c05160e051610100516101205161014051610160516126696200024b6000396000818161020f0152610c6e01526000818161015f01528181610cc201528181611500015261165701526000818161025c01526118210152600081816101ae01528181610ea4015281816114d1015281816115990152818161162a01528181611797015281816118560152611a1001526000818160df01526119e3015260008181610283015281816112ea0152818161135c01526113fa0152600081816101d501528181611281015261142b015260008181610123015281816112b9015261144d01526126696000f3fe608060405234801561001057600080fd5b50600436106100d55760003560e01c80637ca5cb3e116100875780637ca5cb3e146101f757806380f556051461020a5780638770b18014610231578063b1283e7714610244578063b2016bd414610257578063bc8802a21461027e578063ec979082146102a5578063ff08d88f146102b657600080fd5b8063150c5b97146100da5780631ba18b9b1461011e5780632ff8d5041461015a5780633412a3f914610181578063375a7cba146101945780635bd9e299146101a95780636cc6cde1146101d0575b600080fd5b6101017f000000000000000000000000000000000000000000000000000000000000000081565b6040516001600160a01b0390911681526020015b60405180910390f35b6101457f000000000000000000000000000000000000000000000000000000000000000081565b60405163ffffffff9091168152602001610115565b6101017f000000000000000000000000000000000000000000000000000000000000000081565b61010161018f366004611b6a565b6102c9565b61019c6104b6565b6040516101159190611ba5565b6101017f000000000000000000000000000000000000000000000000000000000000000081565b6101017f000000000000000000000000000000000000000000000000000000000000000081565b610101610205366004611b6a565b610518565b6101017f000000000000000000000000000000000000000000000000000000000000000081565b61010161023f366004611b6a565b6107da565b610101610252366004611bf2565b6108eb565b6101017f000000000000000000000000000000000000000000000000000000000000000081565b6101017f000000000000000000000000000000000000000000000000000000000000000081565b600054604051908152602001610115565b6101016102c4366004611b6a565b610915565b600060026102da6020840184611c0b565b905010156103035760405162461bcd60e51b81526004016102fa90611c54565b60405180910390fd5b604080516001808252818301909252600091816020015b606081526020019060019003908161031a57905050905061040a61033e8480611c9f565b8080601f016020809104026020016040519081016040528093929190818152602001838380828437600092019190915250610380925050506020860186611c0b565b61038d60e0880188611c9f565b8080601f0160208091040260200160405190810160405280939291908181526020018383808284376000920191909152506103d092505050610100890189611c9f565b8080601f016020809104026020016040519081016040528093929190818152602001838380828437600092019190915250610b3c92505050565b8160008151811061041d5761041d611ce5565b60200260200101819052506104af8361043590611ea1565b61043f8580611c9f565b8080601f01602080910402602001604051908101604052809392919081815260200183838082843760009201919091525050604080516060810190915286815291505060208082019061049490890189611c0b565b6104a09150600161205b565b81526003602090910152610c54565b9392505050565b6060600080548060200260200160405190810160405280929190818152602001828054801561050e57602002820191906000526020600020905b81546001600160a01b031681526001909101906020018083116104f0575b5050505050905090565b6000816101200135826101400135116105855760405162461bcd60e51b815260206004820152602960248201527f7570706572426f756e64206d75737420626520686967686572207468616e206c6044820152681bddd95c909bdd5b9960ba1b60648201526084016102fa565b610592600260001961206e565b826101400135106105fa5760405162461bcd60e51b815260206004820152602c60248201527f7570706572426f756e64206d757374206265206c657373207468616e2075696e60448201526b3a191a9b1736b0bc1016901960a11b60648201526084016102fa565b6106076020830183611c0b565b90506002146106535760405162461bcd60e51b815260206004820152601860248201527727baba31b7b6b2b99031b7bab73a1036bab9ba103132901960411b60448201526064016102fa565b604080516001808252818301909252600091816020015b606081526020019060019003908161066a57905050905061074d61068e8480611c9f565b8080601f0160208091040260200160405190810160405280939291908181526020018383808284376000920191909152506106d09250505060e0860186611c9f565b8080601f01602080910402602001604051908101604052809392919081815260200183838082843760009201919091525061071392505050610100870187611c9f565b8080601f016020809104026020016040519081016040528093929190818152602001838380828437600092019190915250610ddc92505050565b8160008151811061076057610760611ce5565b60200260200101819052506104af8361077890611ea1565b6107828580611c9f565b8080601f0160208091040260200160405190810160405280939291908181526020018383808284376000920191909152505060408051606081018252878152600360208201526001918101919091529150610c549050565b600060026107eb6020840184611c0b565b9050101561080b5760405162461bcd60e51b81526004016102fa90611c54565b604080516001808252818301909252600091816020015b606081526020019060019003908161082257905050905061084661033e8480611c9f565b8160008151811061085957610859611ce5565b60200260200101819052506104af8361087190611ea1565b61087b8580611c9f565b8080601f0160208091040260200160405190810160405280939291908181526020018383808284376000920191909152505060408051606081019091528681529150506020808201906108d090890189611c0b565b6108dc9150600161205b565b81526002602090910152610c54565b600081815481106108fb57600080fd5b6000918252602090912001546001600160a01b0316905081565b600060026109266020840184611c0b565b905010156109465760405162461bcd60e51b81526004016102fa90611c54565b60006109556020840184611c0b565b90506001600160401b0381111561096e5761096e611c89565b6040519080825280602002602001820160405280156109a157816020015b606081526020019060019003908161098c5790505b50905060005b6109b46020850185611c0b565b9050811015610aae57610a7e6109cd6040860186611c9f565b6109da6020880188611c0b565b858181106109ea576109ea611ce5565b90506020028101906109fc9190611c9f565b610a0960608a018a611c9f565b604051602001610a1e96959493929190612081565b60408051601f19818403018152919052610a3b60e0870187611c9f565b8080601f01602080910402602001604051908101604052809392919081815260200183838082843760009201919091525061071392505050610100880188611c9f565b828281518110610a9057610a90611ce5565b60200260200101819052508080610aa6906120b1565b9150506109a7565b506104af610abb84611ea1565b610ac86040860186611c9f565b610ad56080880188611c9f565b610ae260608a018a611c9f565b604051602001610af7969594939291906120ca565b60408051601f198184030181526060830190915284825290602081810190610b2190890189611c0b565b610b2d9150600161205b565b81526001602090910152610c54565b60606000604051602001610b599062e2909f60e81b815260030190565b6040516020818303038152906040529050600086866000818110610b7f57610b7f611ce5565b9050602002810190610b919190611c9f565b604051602001610ba292919061210c565b60408051601f19818403018152919052905060015b86811015610c1a5781888883818110610bd257610bd2611ce5565b9050602002810190610be49190611c9f565b604051602001610bf693929190612157565b60405160208183030381529060405291508080610c12906120b1565b915050610bb7565b5087828284888689604051602001610c389796959493929190612196565b6040516020818303038152906040529250505095945050505050565b6000806000610c638685610e3c565b915091506000610c9b7f00000000000000000000000000000000000000000000000000000000000000006001600160a01b03166111c9565b9050806001600160a01b031663d0e2ca658789602001518a61012001518b610140015188887f00000000000000000000000000000000000000000000000000000000000000006040518863ffffffff1660e01b8152600401610d039796959493929190612325565b600060405180830381600087803b158015610d1d57600080fd5b505af1158015610d31573d6000803e3d6000fd5b50505060c08801518451608086015185516040516001600160a01b03871695507f109e5ac06d4835cca9a97d9014f7bb1bfafb85a2de6d4af1ad22aa8730e12c8794610d82948d949193909261242b565b60405180910390a2600080546001810182559080527f290decd9548b62a8d60345a988386fc84ba6bc95484008f6362f93160ef3e5630180546001600160a01b0319166001600160a01b0383161790559695505050505050565b60606000604051602001610df99062e2909f60e81b815260030190565b60405160208183030381529060405290508481858386604051602001610e2395949392919061246d565b6040516020818303038152906040529150509392505050565b6040805160e0810182526000808252602080830182905282840182905260608084018390526080840183905260a0840181905260c084018190528451808201865281815291820192909252928301529060c08401516000906001600160a01b031615611018577f00000000000000000000000000000000000000000000000000000000000000006001600160a01b031663856296f78660c001516001600160a01b03166344bea37e6040518163ffffffff1660e01b8152600401602060405180830381865afa158015610f13573d6000803e3d6000fd5b505050506040513d601f19601f82011682018060405250810190610f3791906124d8565b8760c001516001600160a01b0316632ddc7de76040518163ffffffff1660e01b8152600401602060405180830381865afa158015610f79573d6000803e3d6000fd5b505050506040513d601f19601f82011682018060405250810190610f9d91906124d8565b60a08901516040516001600160e01b031960e086901b168152600481019390935260248301919091526001901b6044820152606401602060405180830381865afa158015610fef573d6000803e3d6000fd5b505050506040513d601f19601f8201168201806040525081019061101391906124d8565b61101b565b60005b905060008460000151516001600160401b0381111561103c5761103c611c89565b604051908082528060200260200182016040528015611065578160200160208202803683370190505b50905060005b8551518110156110db576110ac8660000151828151811061108e5761108e611ce5565b602002602001015187604001518961018001518a610160015161123b565b8282815181106110be576110be611ce5565b6020908102919091010152806110d3816120b1565b91505061106b565b5060008187602001515187604001518961012001518a610140015160405160200161110a9594939291906124f1565b60405160208183030381529060405280519060200120905060006111328288602001516114cc565b905060008061114c86848b602001518d6101a001516116bf565b915091506040518060e001604052808481526020018781526020018b60a0015181526020018b60c001516001600160a01b031681526020018581526020018381526020018281525060405180606001604052808781526020018b6040015181526020018b60000151815250975097505050505050505b9250929050565b6000763d602d80600a3d3981f3363d3d373d3d3d363d730000008260601b60e81c176000526e5af43d82803e903d91602b57fd5bf38260781b17602052603760096000f090506001600160a01b038116611236576040516330be1a3d60e21b815260040160405180910390fd5b919050565b60008084848760405160200161125393929190612528565b60408051601f1981840301815282825280516020918201209083018190526bffffffffffffffffffffffff197f0000000000000000000000000000000000000000000000000000000000000000606090811b8216938501939093526001600160e01b03197f000000000000000000000000000000000000000000000000000000000000000060e01b166054850152605884018790527f0000000000000000000000000000000000000000000000000000000000000000831b811660788501523090921b909116608c830152600060a083018190529092509060c00160408051808303601f19018152908290528051602090910120634f8812e360e11b82526004820181905291507f00000000000000000000000000000000000000000000000000000000000000006001600160a01b031690639f1025c690602401602060405180830381865afa1580156113ab573d6000803e3d6000fd5b505050506040513d601f19601f820116820180604052508101906113cf9190612561565b63ffffffff16156113e35791506114c49050565b604051631212e4f160e21b81526001600160a01b037f0000000000000000000000000000000000000000000000000000000000000000169063484b93c49061147c9089908b907f0000000000000000000000000000000000000000000000000000000000000000907f0000000000000000000000000000000000000000000000000000000000000000908c906000908d9060040161257e565b6020604051808303816000875af115801561149b573d6000803e3d6000fd5b505050506040513d601f19601f820116820180604052508101906114bf91906124d8565b925050505b949350505050565b6000807f00000000000000000000000000000000000000000000000000000000000000006001600160a01b031663852c6ae27f000000000000000000000000000000000000000000000000000000000000000086866040518463ffffffff1660e01b815260040161153f939291906125ce565b602060405180830381865afa15801561155c573d6000803e3d6000fd5b505050506040513d601f19601f8201168201806040525081019061158091906124d8565b604051636a16e06160e11b8152600481018290529091507f00000000000000000000000000000000000000000000000000000000000000006001600160a01b03169063d42dc0c290602401602060405180830381865afa1580156115e8573d6000803e3d6000fd5b505050506040513d601f19601f8201168201806040525081019061160c91906124d8565b6000036116b65760405163365bb9d560e21b81526001600160a01b037f0000000000000000000000000000000000000000000000000000000000000000169063d96ee75490611683907f000000000000000000000000000000000000000000000000000000000000000090889088906004016125ce565b600060405180830381600087803b15801561169d57600080fd5b505af11580156116b1573d6000803e3d6000fd5b505050505b90505b92915050565b60608060006116cf60018661206e565b9050846001600160401b038111156116e9576116e9611c89565b604051908082528060200260200182016040528015611712578160200160208202803683370190505b509250846001600160401b0381111561172d5761172d611c89565b60405190808252806020026020018201604052801561176057816020015b606081526020019060019003908161174b5790505b50915060005b85811015611ae95760405163856296f760e01b815260048101899052602481018890526001821b60448201526000907f00000000000000000000000000000000000000000000000000000000000000006001600160a01b03169063856296f790606401602060405180830381865afa1580156117e6573d6000803e3d6000fd5b505050506040513d601f19601f8201168201806040525081019061180a91906124d8565b60405163039dd75360e41b81526001600160a01b037f000000000000000000000000000000000000000000000000000000000000000081166004830152602482018390529192506000917f000000000000000000000000000000000000000000000000000000000000000016906339dd753090604401602060405180830381865afa15801561189d573d6000803e3d6000fd5b505050506040513d601f19601f820116820180604052508101906118c191906124d8565b9050838314806118ec57508683815181106118de576118de611ce5565b602002602001015151600014155b61192d5760405162461bcd60e51b81526020600482015260126024820152714d697373696e6720746f6b656e206e616d6560701b60448201526064016102fa565b60006119818585146119585788858151811061194b5761194b611ce5565b6020026020010151611af4565b6040518060400160405280600b81526020016a14d1548b5253959053125160aa1b815250611af4565b61199d8686146119585789868151811061194b5761194b611ce5565b604080516020810193909352820152600960f91b606082015260610160408051601f1981840301815290829052631892c08760e11b825291506000906001600160a01b037f00000000000000000000000000000000000000000000000000000000000000001690633125810e90611a3c907f000000000000000000000000000000000000000000000000000000000000000090879087906004016125ef565b6020604051808303816000875af1158015611a5b573d6000803e3d6000fd5b505050506040513d601f19601f82011682018060405250810190611a7f9190612616565b905080888681518110611a9457611a94611ce5565b60200260200101906001600160a01b031690816001600160a01b03168152505081878681518110611ac757611ac7611ce5565b6020026020010181905250505050508080611ae1906120b1565b915050611766565b505094509492505050565b805160009060208110611b3b5760405162461bcd60e51b815260206004820152600f60248201526e737472696e6720746f6f206c6f6e6760881b60448201526064016102fa565b6020830151915060006003826020611b53919061206e565b600019911b1b9290921660019190911b1792915050565b600060208284031215611b7c57600080fd5b81356001600160401b03811115611b9257600080fd5b82016101c081850312156116b657600080fd5b6020808252825182820181905260009190848201906040850190845b81811015611be65783516001600160a01b031683529284019291840191600101611bc1565b50909695505050505050565b600060208284031215611c0457600080fd5b5035919050565b6000808335601e19843603018112611c2257600080fd5b8301803591506001600160401b03821115611c3c57600080fd5b6020019150600581901b36038213156111c257600080fd5b6020808252818101527f4f7574636f6d657320636f756e74206d7573742062652032206f72206d6f7265604082015260600190565b634e487b7160e01b600052604160045260246000fd5b6000808335601e19843603018112611cb657600080fd5b8301803591506001600160401b03821115611cd057600080fd5b6020019150368190038213156111c257600080fd5b634e487b7160e01b600052603260045260246000fd5b6040516101c081016001600160401b0381118282101715611d1e57611d1e611c89565b60405290565b604051601f8201601f191681016001600160401b0381118282101715611d4c57611d4c611c89565b604052919050565b600082601f830112611d6557600080fd5b81356001600160401b03811115611d7e57611d7e611c89565b611d91601f8201601f1916602001611d24565b818152846020838601011115611da657600080fd5b816020850160208301376000918101602001919091529392505050565b600082601f830112611dd457600080fd5b813560206001600160401b0380831115611df057611df0611c89565b8260051b611dff838201611d24565b9384528581018301938381019088861115611e1957600080fd5b84880192505b85831015611e5557823584811115611e375760008081fd5b611e458a87838c0101611d54565b8352509184019190840190611e1f565b98975050505050505050565b6001600160a01b0381168114611e7657600080fd5b50565b803561123681611e61565b63ffffffff81168114611e7657600080fd5b803561123681611e84565b60006101c08236031215611eb457600080fd5b611ebc611cfb565b82356001600160401b0380821115611ed357600080fd5b611edf36838701611d54565b83526020850135915080821115611ef557600080fd5b611f0136838701611dc3565b60208401526040850135915080821115611f1a57600080fd5b611f2636838701611d54565b60408401526060850135915080821115611f3f57600080fd5b611f4b36838701611d54565b60608401526080850135915080821115611f6457600080fd5b611f7036838701611d54565b608084015260a085013560a0840152611f8b60c08601611e79565b60c084015260e0850135915080821115611fa457600080fd5b611fb036838701611d54565b60e084015261010091508185013581811115611fcb57600080fd5b611fd736828801611d54565b92840192909252610120858101359084015261014080860135908401526101608086013590840152610180915061200f828601611e96565b828401526101a09150818501358181111561202957600080fd5b61203536828801611dc3565b8385015250505080915050919050565b634e487b7160e01b600052601160045260246000fd5b808201808211156116b9576116b9612045565b818103818111156116b9576116b9612045565b85878237600086820160008152858782376000908601908152838582376000930192835250909695505050505050565b6000600182016120c3576120c3612045565b5060010190565b858782376000868201605b60f81b815285876001830137605d60f81b600191870191820152838560028301376000930160020192835250909695505050505050565b601160f91b8082526000908385600185013792909101600181019290925250600201919050565b60005b8381101561214e578181015183820152602001612136565b50506000910152565b60008451612169818460208901612133565b61161160f11b90830190815283856002830137601160f91b93016002810193909352505060030192915050565b6000885160206121a98285838e01612133565b8951918401916121bc8184848e01612133565b89519201916121ce8184848d01612133565b88519201916121e08184848c01612133565b87519201916121f28184848b01612133565b86519201916122048184848a01612133565b85519201916122168184848901612133565b919091019a9950505050505050505050565b60008151808452612240816020860160208601612133565b601f01601f19169290920160200192915050565b600081518084526020808501808196508360051b8101915082860160005b8581101561229c57828403895261228a848351612228565b98850198935090840190600101612272565b5091979650505050505050565b600081518084526020808501945080840160005b838110156122d9578151875295820195908201906001016122bd565b509495945050505050565b60008151606084526122f960608501826122a9565b9050602083015160208501526040830151848203604086015261231c8282612254565b95945050505050565b60e08152600061233860e083018a612228565b60208382038185015261234b828b612254565b9150886040850152876060850152838203608085015260e0820187518352818801518284015260408801516040840152606088015160018060a01b03808216606086015260808a0151608086015260a08a0151915060e060a0860152828251808552610100870191508584019450600093505b808410156123e0578451831682529385019360019390930192908501906123be565b5060c08b0151945085810360c08701526123fa8186612254565b9550505050505082810360a084015261241381866122e4565b915050611e5560c08301846001600160a01b03169052565b60a08152600061243e60a0830188612228565b6001600160a01b038716602084015260408301869052606083018590528281036080840152611e5581856122a9565b6000865161247f818460208b01612133565b865190830190612493818360208b01612133565b86519101906124a6818360208a01612133565b85519101906124b9818360208901612133565b84519101906124cc818360208801612133565b01979650505050505050565b6000602082840312156124ea57600080fd5b5051919050565b60a08152600061250460a08301886122a9565b90508560208301528460408301528360608301528260808301529695505050505050565b83815263ffffffff60e01b8360e01b16602082015260008251612552816024850160208701612133565b91909101602401949350505050565b60006020828403121561257357600080fd5b81516116b681611e84565b87815260e06020820152600061259760e0830189612228565b6001600160a01b039790971660408301525063ffffffff948516606082015292909316608083015260a082015260c0015292915050565b6001600160a01b039390931683526020830191909152604082015260600190565b60018060a01b038416815282602082015260606040820152600061231c6060830184612228565b60006020828403121561262857600080fd5b81516116b681611e6156fea26469706673582212203da16d07f23bea98f51d67a9c2d98f668cf635d62ddad6fdb686a3da921f46a964736f6c63430008140033",
  "devdoc": {
    "errors": {
      "ERC1167FailedCreateClone()": [
        {
          "details": "A clone instance deployment failed."
        }
      ]
    },
    "events": {
      "NewMarket(address,string,address,bytes32,bytes32,bytes32[])": {
        "details": "To be emitted when a new market is created.",
        "params": {
          "conditionId": "Conditional Tokens conditionId.",
          "market": "The new market address.",
          "marketName": "The name of the market.",
          "parentMarket": "Conditional market to use.",
          "questionId": "Conditional Tokens questionId.",
          "questionsIds": "Reality questions ids."
        }
      }
    },
    "kind": "dev",
    "methods": {
      "allMarkets()": {
        "details": "Returns all the markets created by this factory.",
        "returns": {
          "_0": "The addresses of the markets."
        }
      },
      "constructor": {
        "details": "Constructor.",
        "params": {
          "_arbitrator": "Address of the arbitrator that is going to resolve Realitio disputes.",
          "_collateralToken": "Address of the collateral token.",
          "_conditionalTokens": "Address of the ConditionalTokens implementation.",
          "_market": "Address of the market contract that is going to be used for each new deployment.",
          "_questionTimeout": "Reality question timeout.",
          "_realitio": "Address of the Realitio implementation.",
          "_realityProxy": "Address of the RealityProxy implementation.",
          "_wrapped1155Factory": "Address of the Wrapped1155Factory implementation."
        }
      },
      "createCategoricalMarket((string,string[],string,string,string,uint256,address,string,string,uint256,uint256,uint256,uint32,string[]))": {
        "details": "Creates a Categorical market.",
        "params": {
          "params": "CreateMarketParams instance."
        },
        "returns": {
          "_0": "The new market address."
        }
      },
      "createMultiCategoricalMarket((string,string[],string,string,string,uint256,address,string,string,uint256,uint256,uint256,uint32,string[]))": {
        "details": "Creates a Multi Categorical market.",
        "params": {
          "params": "CreateMarketParams instance."
        },
        "returns": {
          "_0": "The new market address."
        }
      },
      "createMultiScalarMarket((string,string[],string,string,string,uint256,address,string,string,uint256,uint256,uint256,uint32,string[]))": {
        "details": "Creates a Multi Scalar market.",
        "params": {
          "params": "CreateMarketParams instance."
        },
        "returns": {
          "_0": "The new market address."
        }
      },
      "createScalarMarket((string,string[],string,string,string,uint256,address,string,string,uint256,uint256,uint256,uint32,string[]))": {
        "details": "Creates a Scalar market.",
        "params": {
          "params": "CreateMarketParams instance."
        },
        "returns": {
          "_0": "The new market address."
        }
      },
      "marketCount()": {
        "returns": {
          "_0": "The amount of markets."
        }
      }
    },
    "stateVariables": {
      "REALITY_MULTI_SELECT_TEMPLATE": {
        "details": "Template for multi categorical markets."
      },
      "REALITY_SINGLE_SELECT_TEMPLATE": {
        "details": "Template for categorical markets."
      },
      "REALITY_UINT_TEMPLATE": {
        "details": "Template for scalar and multi scalar markets."
      },
      "arbitrator": {
        "details": "Arbitrator contract."
      },
      "collateralToken": {
        "details": "Conditional Tokens collateral token contract."
      },
      "conditionalTokens": {
        "details": "Conditional Tokens contract."
      },
      "market": {
        "details": "Market contract."
      },
      "markets": {
        "details": "Markets created by this factory."
      },
      "questionTimeout": {
        "details": "Reality question timeout."
      },
      "realitio": {
        "details": "Reality.eth contract."
      },
      "realityProxy": {
        "details": "Oracle contract."
      },
      "wrapped1155Factory": {
        "details": "Wrapped1155Factory contract."
      }
    },
    "version": 1
  },
  "userdoc": {
    "kind": "user",
    "methods": {
      "createCategoricalMarket((string,string[],string,string,string,uint256,address,string,string,uint256,uint256,uint256,uint32,string[]))": {
        "notice": "Categorical markets are associated with a Reality question that has only one answer."
      },
      "createMultiCategoricalMarket((string,string[],string,string,string,uint256,address,string,string,uint256,uint256,uint256,uint32,string[]))": {
        "notice": "Multi Categorical markets are associated with a Reality question that has one or more answers."
      },
      "createMultiScalarMarket((string,string[],string,string,string,uint256,address,string,string,uint256,uint256,uint256,uint32,string[]))": {
        "notice": "Multi Scalar markets are associated with two or more Reality questions, and each one of them resolves to a numeric value."
      },
      "createScalarMarket((string,string[],string,string,string,uint256,address,string,string,uint256,uint256,uint256,uint32,string[]))": {
        "notice": "Scalar markets are associated with a Reality question that resolves to a numeric value."
      },
      "marketCount()": {
        "notice": "Returns the amount of markets created by this factory."
      }
    },
    "version": 1
  },
  "storageLayout": {
    "storage": [
      {
        "astId": 1263,
        "contract": "src/MarketFactory.sol:MarketFactory",
        "label": "markets",
        "offset": 0,
        "slot": "0",
        "type": "t_array(t_address)dyn_storage"
      }
    ],
    "types": {
      "t_address": {
        "encoding": "inplace",
        "label": "address",
        "numberOfBytes": "20"
      },
      "t_array(t_address)dyn_storage": {
        "base": "t_address",
        "encoding": "dynamic_array",
        "label": "address[]",
        "numberOfBytes": "32"
      }
    }
  }
}