{
  "address": "0x0000000000000000000000000000000000000000",
  "abi": [
    {
      "inputs": [
        {
          "internalType": "address",
          "name": "_market",
          "type": "address"
        },
        {
          "internalType": "address",
          "name": "_arbitrator",
          "type": "address"
        },
        {
          "internalType": "contract IRealityETH_v3_0",
          "name": "_realitio",
          "type": "address"
        },
        {
          "internalType": "contract WrappedERC20Factory",
          "name": "_wrappedERC20Factory",
          "type": "address"
        },
        {
          "internalType": "contract IConditionalTokens",
          "name": "_conditionalTokens",
          "type": "address"
        },
        {
          "internalType": "address",
          "name": "_collateralToken",
          "type": "address"
        },
        {
          "internalType": "contract RealityProxy",
          "name": "_realityProxy",
          "type": "address"
        },
        {
          "internalType": "address",
          "name": "_governor",
          "type": "address"
        }
      ],
      "stateMutability": "nonpayable",
      "type": "constructor"
    },
    {
      "inputs": [],
      "name": "ERC1167FailedCreateClone",
      "type": "error"
    },
    {
      "anonymous": false,
      "inputs": [
        {
          "indexed": true,
          "internalType": "address",
          "name": "market",
          "type": "address"
        }
      ],
      "name": "NewMarket",
      "type": "event"
    },
    {
      "inputs": [],
      "name": "QUESTION_TIMEOUT",
      "outputs": [
        {
          "internalType": "uint32",
          "name": "",
          "type": "uint32"
        }
      ],
      "stateMutability": "view",
      "type": "function"
    },
    {
      "inputs": [],
      "name": "allMarkets",
      "outputs": [
        {
          "internalType": "address[]",
          "name": "",
          "type": "address[]"
        }
      ],
      "stateMutability": "view",
      "type": "function"
    },
    {
      "inputs": [],
      "name": "arbitrator",
      "outputs": [
        {
          "internalType": "address",
          "name": "",
          "type": "address"
        }
      ],
      "stateMutability": "view",
      "type": "function"
    },
    {
      "inputs": [
        {
          "internalType": "address",
          "name": "_governor",
          "type": "address"
        }
      ],
      "name": "changeGovernor",
      "outputs": [],
      "stateMutability": "nonpayable",
      "type": "function"
    },
    {
      "inputs": [
        {
          "internalType": "address",
          "name": "_market",
          "type": "address"
        }
      ],
      "name": "changeMarket",
      "outputs": [],
      "stateMutability": "nonpayable",
      "type": "function"
    },
    {
      "inputs": [],
      "name": "collateralToken",
      "outputs": [
        {
          "internalType": "address",
          "name": "",
          "type": "address"
        }
      ],
      "stateMutability": "view",
      "type": "function"
    },
    {
      "inputs": [],
      "name": "conditionalTokens",
      "outputs": [
        {
          "internalType": "contract IConditionalTokens",
          "name": "",
          "type": "address"
        }
      ],
      "stateMutability": "view",
      "type": "function"
    },
    {
      "inputs": [
        {
          "components": [
            {
              "internalType": "string",
              "name": "marketName",
              "type": "string"
            },
            {
              "internalType": "string[]",
              "name": "encodedQuestions",
              "type": "string[]"
            },
            {
              "internalType": "string[]",
              "name": "outcomes",
              "type": "string[]"
            },
            {
              "internalType": "uint256",
              "name": "lowerBound",
              "type": "uint256"
            },
            {
              "internalType": "uint256",
              "name": "upperBound",
              "type": "uint256"
            },
            {
              "internalType": "uint256",
              "name": "minBond",
              "type": "uint256"
            },
            {
              "internalType": "uint32",
              "name": "openingTime",
              "type": "uint32"
            }
          ],
          "internalType": "struct MarketFactory.CreateMarketParams",
          "name": "params",
          "type": "tuple"
        }
      ],
      "name": "createCategoricalMarket",
      "outputs": [
        {
          "internalType": "address",
          "name": "",
          "type": "address"
        }
      ],
      "stateMutability": "nonpayable",
      "type": "function"
    },
    {
      "inputs": [
        {
          "components": [
            {
              "internalType": "string",
              "name": "marketName",
              "type": "string"
            },
            {
              "internalType": "string[]",
              "name": "encodedQuestions",
              "type": "string[]"
            },
            {
              "internalType": "string[]",
              "name": "outcomes",
              "type": "string[]"
            },
            {
              "internalType": "uint256",
              "name": "lowerBound",
              "type": "uint256"
            },
            {
              "internalType": "uint256",
              "name": "upperBound",
              "type": "uint256"
            },
            {
              "internalType": "uint256",
              "name": "minBond",
              "type": "uint256"
            },
            {
              "internalType": "uint32",
              "name": "openingTime",
              "type": "uint32"
            }
          ],
          "internalType": "struct MarketFactory.CreateMarketParams",
          "name": "params",
          "type": "tuple"
        }
      ],
      "name": "createMultiScalarMarket",
      "outputs": [
        {
          "internalType": "address",
          "name": "",
          "type": "address"
        }
      ],
      "stateMutability": "nonpayable",
      "type": "function"
    },
    {
      "inputs": [
        {
          "components": [
            {
              "internalType": "string",
              "name": "marketName",
              "type": "string"
            },
            {
              "internalType": "string[]",
              "name": "encodedQuestions",
              "type": "string[]"
            },
            {
              "internalType": "string[]",
              "name": "outcomes",
              "type": "string[]"
            },
            {
              "internalType": "uint256",
              "name": "lowerBound",
              "type": "uint256"
            },
            {
              "internalType": "uint256",
              "name": "upperBound",
              "type": "uint256"
            },
            {
              "internalType": "uint256",
              "name": "minBond",
              "type": "uint256"
            },
            {
              "internalType": "uint32",
              "name": "openingTime",
              "type": "uint32"
            }
          ],
          "internalType": "struct MarketFactory.CreateMarketParams",
          "name": "params",
          "type": "tuple"
        }
      ],
      "name": "createScalarMarket",
      "outputs": [
        {
          "internalType": "address",
          "name": "",
          "type": "address"
        }
      ],
      "stateMutability": "nonpayable",
      "type": "function"
    },
    {
      "inputs": [],
      "name": "governor",
      "outputs": [
        {
          "internalType": "address",
          "name": "",
          "type": "address"
        }
      ],
      "stateMutability": "view",
      "type": "function"
    },
    {
      "inputs": [],
      "name": "market",
      "outputs": [
        {
          "internalType": "address",
          "name": "",
          "type": "address"
        }
      ],
      "stateMutability": "view",
      "type": "function"
    },
    {
      "inputs": [],
      "name": "marketCount",
      "outputs": [
        {
          "internalType": "uint256",
          "name": "",
          "type": "uint256"
        }
      ],
      "stateMutability": "view",
      "type": "function"
    },
    {
      "inputs": [
        {
          "internalType": "uint256",
          "name": "",
          "type": "uint256"
        }
      ],
      "name": "markets",
      "outputs": [
        {
          "internalType": "address",
          "name": "",
          "type": "address"
        }
      ],
      "stateMutability": "view",
      "type": "function"
    },
    {
      "inputs": [],
      "name": "realitio",
      "outputs": [
        {
          "internalType": "contract IRealityETH_v3_0",
          "name": "",
          "type": "address"
        }
      ],
      "stateMutability": "view",
      "type": "function"
    },
    {
      "inputs": [],
      "name": "realityProxy",
      "outputs": [
        {
          "internalType": "contract RealityProxy",
          "name": "",
          "type": "address"
        }
      ],
      "stateMutability": "view",
      "type": "function"
    },
    {
      "inputs": [],
      "name": "wrappedERC20Factory",
      "outputs": [
        {
          "internalType": "contract WrappedERC20Factory",
          "name": "",
          "type": "address"
        }
      ],
      "stateMutability": "view",
      "type": "function"
    }
  ],
  "transactionHash": "0x54559ab0e47b3db49b22f7bb70ca2375def50b52fdbfea7b1894652415c10bb9",
  "args": [
    "0x03d03464BF9Eb20059Ca6eF6391E9C5d79d5E012",
    "0xe40DD83a262da3f56976038F1554Fe541Fa75ecd",
    "0xE78996A233895bE74a66F451f1019cA9734205cc",
    "0xFb4c45a988F70D0f8eFb5Ab3A7feB00D463c16B7",
    "0xCeAfDD6bc0bEF976fdCd1112955828E00543c0Ce",
    "0xaf204776c7245bf4147c2612bf6e5972ee483701",
    "0xdEB5dC052e55bf81C6d75CD47C961e0b280B3791",
    "0x4edca105188a0783ab3a6f09c50567d1e3f8591d"
  ],
  "numDeployments": 2,
  "solcInputHash": "15f9634b15fc59ed27943a3fced3d1f5",
  "bytecode": "0x6101406040523480156200001257600080fd5b5060405162001b1538038062001b158339810160408190526200003591620000a4565b600280546001600160a01b03998a166001600160a01b03199182161790915596881660805294871660a05292861660c05290851660e0528416610100528316610120526000805491909316911617905562000165565b6001600160a01b0381168114620000a157600080fd5b50565b600080600080600080600080610100898b031215620000c257600080fd5b8851620000cf816200008b565b60208a0151909850620000e2816200008b565b60408a0151909750620000f5816200008b565b60608a015190965062000108816200008b565b60808a01519095506200011b816200008b565b60a08a01519094506200012e816200008b565b60c08a015190935062000141816200008b565b60e08a015190925062000154816200008b565b809150509295985092959890939650565b60805160a05160c05160e05161010051610120516118f06200022560003960008181610125015281816104f5015281816106060152818161077d0152610c160152600081816102430152610e8201526000818161018001528181610a8801528181610b0801528181610daf01528181610eb70152610fa70152600081816101bc0152610f7a01526000818161027d015281816108a90152818161091b01526109b90152600081816101e30152818161086801526109ea01526118f06000f3fe608060405234801561001057600080fd5b50600436106100eb5760003560e01c8063738cc3f011610092578063738cc3f01461020557806380f5560514610218578063b1283e771461022b578063b2016bd41461023e578063b7083ac514610265578063bc8802a214610278578063e4c0aaf41461029f578063ec979082146102b2578063fdf13b04146102c357600080fd5b80630c340a24146100f05780632ff8d50414610120578063375a7cba146101475780634a3382e51461015c5780635bd9e2991461017b5780635c3ef427146101a257806361371325146101b75780636cc6cde1146101de575b600080fd5b600054610103906001600160a01b031681565b6040516001600160a01b0390911681526020015b60405180910390f35b6101037f000000000000000000000000000000000000000000000000000000000000000081565b61014f6102d6565b604051610117919061122b565b6101666201fa4081565b60405163ffffffff9091168152602001610117565b6101037f000000000000000000000000000000000000000000000000000000000000000081565b6101b56101b0366004611290565b610338565b005b6101037f000000000000000000000000000000000000000000000000000000000000000081565b6101037f000000000000000000000000000000000000000000000000000000000000000081565b61010361021336600461144c565b61038d565b600254610103906001600160a01b031681565b61010361023936600461152f565b61055d565b6101037f000000000000000000000000000000000000000000000000000000000000000081565b61010361027336600461144c565b610587565b6101037f000000000000000000000000000000000000000000000000000000000000000081565b6101b56102ad366004611290565b6106a7565b600154604051908152602001610117565b6101036102d136600461144c565b6106f3565b6060600180548060200260200160405190810160405280929190818152602001828054801561032e57602002820191906000526020600020905b81546001600160a01b03168152600190910190602001808311610310575b5050505050905090565b6000546001600160a01b0316331461036b5760405162461bcd60e51b815260040161036290611548565b60405180910390fd5b600280546001600160a01b0319166001600160a01b0392909216919091179055565b6000816020015151826040015151146103da5760405162461bcd60e51b815260206004820152600f60248201526e098cadcced0e840dad2e6dac2e8c6d608b1b6044820152606401610362565b60008260400151516001600160401b038111156103f9576103f96112b4565b604051908082528060200260200182016040528015610422578160200160208202803683370190505b5090506000805b8460400151518110156104e6576104688560200151828151811061044f5761044f611570565b602002602001015160018760c001518860a00151610822565b83828151811061047a5761047a611570565b6020026020010181815250508183828151811061049957610499611570565b60200260200101516040516020016104bb929190918252602082015260400190565b60405160208183030381529060405280519060200120915080806104de9061159c565b915050610429565b506000610519828660400151517f0000000000000000000000000000000000000000000000000000000000000000610a6e565b90506000610553866040518060a0016040528086815260200187815260200185815260200189604001515181526020016001815250610b84565b9695505050505050565b6001818154811061056d57600080fd5b6000918252602090912001546001600160a01b0316905081565b600081606001518260800151116105d15760405162461bcd60e51b815260206004820152600e60248201526d496e76616c696420626f756e647360901b6044820152606401610362565b60008061062a84602001516000815181106105ee576105ee611570565b602002602001015160018660c001518760a0015160027f0000000000000000000000000000000000000000000000000000000000000000610cf7565b6040805160018082528183019092529294509092506000919060208083019080368337019050509050828160008151811061066757610667611570565b6020026020010181815250506000610553866040518060a00160405280878152602001858152602001868152602001600281526020016001815250610b84565b6000546001600160a01b031633146106d15760405162461bcd60e51b815260040161036290611548565b600080546001600160a01b0319166001600160a01b0392909216919091179055565b6000600282604001515110156107445760405162461bcd60e51b8152602060048201526016602482015275125b9d985b1a59081bdd5d18dbdb595cc818dbdd5b9d60521b6044820152606401610362565b6000806107a1846020015160008151811061076157610761611570565b602002602001015160028660c001518760a001518860400151517f0000000000000000000000000000000000000000000000000000000000000000610cf7565b604080516001808252818301909252929450909250600091906020808301908036833701905050905082816000815181106107de576107de611570565b6020026020010181815250506000610553866040518060a0016040528087815260200185815260200186815260200189604001515181526020016002815250610b84565b60008084848760405160200161083a939291906115d9565b60408051601f1981840301815282825280516020918201209083018190526bffffffffffffffffffffffff197f0000000000000000000000000000000000000000000000000000000000000000606090811b8216938501939093526107e960e61b6054850152605884018790527f0000000000000000000000000000000000000000000000000000000000000000831b811660788501523090921b909116608c830152600060a083018190529092509060c00160408051808303601f19018152908290528051602090910120634f8812e360e11b82526004820181905291507f00000000000000000000000000000000000000000000000000000000000000006001600160a01b031690639f1025c690602401602060405180830381865afa15801561096a573d6000803e3d6000fd5b505050506040513d601f19601f8201168201806040525081019061098e9190611612565b63ffffffff16156109a2579150610a669050565b604051631212e4f160e21b81526001600160a01b037f0000000000000000000000000000000000000000000000000000000000000000169063484b93c490610a1e9089908b907f0000000000000000000000000000000000000000000000000000000000000000906201fa40908c906000908d9060040161165b565b6020604051808303816000875af1158015610a3d573d6000803e3d6000fd5b505050506040513d601f19601f82011682018060405250810190610a6191906116ab565b925050505b949350505050565b60405163365bb9d560e21b81526000906001600160a01b037f0000000000000000000000000000000000000000000000000000000000000000169063d96ee75490610ac1908590889088906004016116c4565b600060405180830381600087803b158015610adb57600080fd5b505af1158015610aef573d6000803e3d6000fd5b5050604051634296357160e11b81526001600160a01b037f000000000000000000000000000000000000000000000000000000000000000016925063852c6ae29150610b43908590889088906004016116c4565b602060405180830381865afa158015610b60573d6000803e3d6000fd5b505050506040513d601f19601f82011682018060405250810190610a6691906116ab565b6002546000908190610b9e906001600160a01b0316610d20565b6040840151606085015160018054939450610bc193610bbc916116e5565b610d92565b835160408086015160608701516080808901518885015189516020808c0151948c0151908d015197516304b892a960e21b81526001600160a01b038b16996312e24aa499610c3e9991989197919695949391927f00000000000000000000000000000000000000000000000000000000000000009060040161174d565b600060405180830381600087803b158015610c5857600080fd5b505af1158015610c6c573d6000803e3d6000fd5b50506040516001600160a01b03841692507f6cbab6250b188d6d9b0b6c7b0246bd61d23de28520080c27e417bf27e4c47b3d9150600090a26001805480820182556000919091527fb10e2d527612073b26eecdfd717e6a320cf44b4afac2b0732d9fcbe2b7fa0cf60180546001600160a01b0319166001600160a01b03831617905590505b92915050565b600080610d0688888888610822565b9150610d13828585610a6e565b9050965096945050505050565b6000763d602d80600a3d3981f3363d3d373d3d3d363d730000008260601b60e81c176000526e5af43d82803e903d91602b57fd5bf38260781b17602052603760096000f090506001600160a01b038116610d8d576040516330be1a3d60e21b815260040160405180910390fd5b919050565b6000610d9d83611036565b905060005b815181101561102f5760007f00000000000000000000000000000000000000000000000000000000000000006001600160a01b031663856296f76000801b88868681518110610df357610df3611570565b60200260200101516040518463ffffffff1660e01b8152600401610e2a939291909283526020830191909152604082015260600190565b602060405180830381865afa158015610e47573d6000803e3d6000fd5b505050506040513d601f19601f82011682018060405250810190610e6b91906116ab565b60405163039dd75360e41b81526001600160a01b037f000000000000000000000000000000000000000000000000000000000000000081166004830152602482018390529192506000917f000000000000000000000000000000000000000000000000000000000000000016906339dd753090604401602060405180830381865afa158015610efe573d6000803e3d6000fd5b505050506040513d601f19601f82011682018060405250810190610f2291906116ab565b90506000610f2f866110c1565b610f42610f3d8660016116e5565b6110c1565b604051602001610f5392919061180c565b60408051601f1981840301815290829052630bb13cd160e41b825291506001600160a01b037f0000000000000000000000000000000000000000000000000000000000000000169063bb13cd1090610fd5907f000000000000000000000000000000000000000000000000000000000000000090869086908190600401611859565b6020604051808303816000875af1158015610ff4573d6000803e3d6000fd5b505050506040513d601f19601f82011682018060405250810190611018919061189d565b5050505080806110279061159c565b915050610da2565b5050505050565b6060816001600160401b03811115611050576110506112b4565b604051908082528060200260200182016040528015611079578160200160208202803683370190505b50905060005b828110156110bb57806001901b82828151811061109e5761109e611570565b6020908102919091010152806110b38161159c565b91505061107f565b50919050565b606060006110ce83611153565b60010190506000816001600160401b038111156110ed576110ed6112b4565b6040519080825280601f01601f191660200182016040528015611117576020820181803683370190505b5090508181016020015b600019016f181899199a1a9b1b9c1cb0b131b232b360811b600a86061a8153600a850494508461112157509392505050565b60008072184f03e93ff9f4daa797ed6e38ed64bf6a1f0160401b83106111925772184f03e93ff9f4daa797ed6e38ed64bf6a1f0160401b830492506040015b6d04ee2d6d415b85acef810000000083106111be576d04ee2d6d415b85acef8100000000830492506020015b662386f26fc1000083106111dc57662386f26fc10000830492506010015b6305f5e10083106111f4576305f5e100830492506008015b612710831061120857612710830492506004015b6064831061121a576064830492506002015b600a8310610cf15760010192915050565b6020808252825182820181905260009190848201906040850190845b8181101561126c5783516001600160a01b031683529284019291840191600101611247565b50909695505050505050565b6001600160a01b038116811461128d57600080fd5b50565b6000602082840312156112a257600080fd5b81356112ad81611278565b9392505050565b634e487b7160e01b600052604160045260246000fd5b60405160e081016001600160401b03811182821017156112ec576112ec6112b4565b60405290565b604051601f8201601f191681016001600160401b038111828210171561131a5761131a6112b4565b604052919050565b600082601f83011261133357600080fd5b81356001600160401b0381111561134c5761134c6112b4565b61135f601f8201601f19166020016112f2565b81815284602083860101111561137457600080fd5b816020850160208301376000918101602001919091529392505050565b600082601f8301126113a257600080fd5b813560206001600160401b03808311156113be576113be6112b4565b8260051b6113cd8382016112f2565b93845285810183019383810190888611156113e757600080fd5b84880192505b85831015611423578235848111156114055760008081fd5b6114138a87838c0101611322565b83525091840191908401906113ed565b98975050505050505050565b63ffffffff8116811461128d57600080fd5b8035610d8d8161142f565b60006020828403121561145e57600080fd5b81356001600160401b038082111561147557600080fd5b9083019060e0828603121561148957600080fd5b6114916112ca565b8235828111156114a057600080fd5b6114ac87828601611322565b8252506020830135828111156114c157600080fd5b6114cd87828601611391565b6020830152506040830135828111156114e557600080fd5b6114f187828601611391565b604083015250606083013560608201526080830135608082015260a083013560a082015261152160c08401611441565b60c082015295945050505050565b60006020828403121561154157600080fd5b5035919050565b6020808252600e908201526d139bdd08185d5d1a1bdc9a5e995960921b604082015260600190565b634e487b7160e01b600052603260045260246000fd5b634e487b7160e01b600052601160045260246000fd5b6000600182016115ae576115ae611586565b5060010190565b60005b838110156115d05781810151838201526020016115b8565b50506000910152565b83815263ffffffff60e01b8360e01b166020820152600082516116038160248501602087016115b5565b91909101602401949350505050565b60006020828403121561162457600080fd5b81516112ad8161142f565b600081518084526116478160208601602086016115b5565b601f01601f19169290920160200192915050565b87815260e06020820152600061167460e083018961162f565b6001600160a01b039790971660408301525063ffffffff948516606082015292909316608083015260a082015260c0015292915050565b6000602082840312156116bd57600080fd5b5051919050565b6001600160a01b039390931683526020830191909152604082015260600190565b80820180821115610cf157610cf1611586565b600081518084526020808501808196508360051b8101915082860160005b8581101561174057828403895261172e84835161162f565b98850198935090840190600101611716565b5091979650505050505050565b60006101408083526117618184018e61162f565b9050602083820381850152611776828e6116f8565b91508b60408501528a60608501528960808501528860a085015283820360c08501528188518084528284019150828a01935060005b818110156117c7578451835293830193918301916001016117ab565b50508760e08601528481036101008601526117e281886116f8565b93505050506117fd6101208301846001600160a01b03169052565b9b9a5050505050505050505050565b64534545525f60d81b81526000835161182c8160058501602088016115b5565b605f60f81b600591840191820152835161184d8160068401602088016115b5565b01600601949350505050565b60018060a01b0385168152836020820152608060408201526000611880608083018561162f565b8281036060840152611892818561162f565b979650505050505050565b6000602082840312156118af57600080fd5b81516112ad8161127856fea2646970667358221220ada27f0dc3cd17ca8749c1756d21866caf1bcc3fc94db4a0ad510f6d96113e8764736f6c63430008140033",
  "devdoc": {
    "errors": {
      "ERC1167FailedCreateClone()": [
        {
          "details": "A clone instance deployment failed."
        }
      ]
    },
    "kind": "dev",
    "methods": {
      "constructor": {
        "details": "Constructor.",
        "params": {
          "_arbitrator": "Address of the arbitrator that is going to resolve Realitio disputes.",
          "_collateralToken": "Address of the collateral token.",
          "_conditionalTokens": "Address of the ConditionalTokens implementation.",
          "_governor": "Address of the governor of this contract.",
          "_market": "Address of the market contract that is going to be used for each new deployment.",
          "_realitio": "Address of the Realitio implementation.",
          "_realityProxy": "Address of the RealityProxy implementation.",
          "_wrappedERC20Factory": "Address of the WrappedERC20Factory implementation."
        }
      }
    },
    "version": 1
  },
  "userdoc": {
    "kind": "user",
    "methods": {},
    "version": 1
  },
  "storageLayout": {
    "storage": [
      {
        "astId": 2509,
        "contract": "src/MarketFactory.sol:MarketFactory",
        "label": "governor",
        "offset": 0,
        "slot": "0",
        "type": "t_address"
      },
      {
        "astId": 2512,
        "contract": "src/MarketFactory.sol:MarketFactory",
        "label": "markets",
        "offset": 0,
        "slot": "1",
        "type": "t_array(t_address)dyn_storage"
      },
      {
        "astId": 2514,
        "contract": "src/MarketFactory.sol:MarketFactory",
        "label": "market",
        "offset": 0,
        "slot": "2",
        "type": "t_address"
      }
    ],
    "types": {
      "t_address": {
        "encoding": "inplace",
        "label": "address",
        "numberOfBytes": "20"
      },
      "t_array(t_address)dyn_storage": {
        "base": "t_address",
        "encoding": "dynamic_array",
        "label": "address[]",
        "numberOfBytes": "32"
      }
    }
  }
}