{
  "address": "0x2Dbe07d6A22C8D7E397DF5a01888148857582467",
  "abi": [
    {
      "inputs": [
        {
          "internalType": "address",
          "name": "_market",
          "type": "address"
        },
        {
          "internalType": "address",
          "name": "_arbitrator",
          "type": "address"
        },
        {
          "internalType": "contract IRealityETH_v3_0",
          "name": "_realitio",
          "type": "address"
        },
        {
          "internalType": "contract WrappedERC20Factory",
          "name": "_wrappedERC20Factory",
          "type": "address"
        },
        {
          "internalType": "contract IConditionalTokens",
          "name": "_conditionalTokens",
          "type": "address"
        },
        {
          "internalType": "address",
          "name": "_collateralToken",
          "type": "address"
        },
        {
          "internalType": "contract RealityProxy",
          "name": "_realityProxy",
          "type": "address"
        },
        {
          "internalType": "uint32",
          "name": "_questionTimeout",
          "type": "uint32"
        }
      ],
      "stateMutability": "nonpayable",
      "type": "constructor"
    },
    {
      "inputs": [],
      "name": "ERC1167FailedCreateClone",
      "type": "error"
    },
    {
      "anonymous": false,
      "inputs": [
        {
          "indexed": true,
          "internalType": "address",
          "name": "market",
          "type": "address"
        },
        {
          "indexed": false,
          "internalType": "string",
          "name": "marketName",
          "type": "string"
        },
        {
          "indexed": false,
          "internalType": "address",
          "name": "parentMarket",
          "type": "address"
        },
        {
          "indexed": false,
          "internalType": "bytes32",
          "name": "conditionId",
          "type": "bytes32"
        },
        {
          "indexed": false,
          "internalType": "bytes32",
          "name": "questionId",
          "type": "bytes32"
        },
        {
          "indexed": false,
          "internalType": "bytes32[]",
          "name": "questionsIds",
          "type": "bytes32[]"
        }
      ],
      "name": "NewMarket",
      "type": "event"
    },
    {
      "inputs": [],
      "name": "allMarkets",
      "outputs": [
        {
          "internalType": "address[]",
          "name": "",
          "type": "address[]"
        }
      ],
      "stateMutability": "view",
      "type": "function"
    },
    {
      "inputs": [],
      "name": "arbitrator",
      "outputs": [
        {
          "internalType": "address",
          "name": "",
          "type": "address"
        }
      ],
      "stateMutability": "view",
      "type": "function"
    },
    {
      "inputs": [],
      "name": "collateralToken",
      "outputs": [
        {
          "internalType": "address",
          "name": "",
          "type": "address"
        }
      ],
      "stateMutability": "view",
      "type": "function"
    },
    {
      "inputs": [],
      "name": "conditionalTokens",
      "outputs": [
        {
          "internalType": "contract IConditionalTokens",
          "name": "",
          "type": "address"
        }
      ],
      "stateMutability": "view",
      "type": "function"
    },
    {
      "inputs": [
        {
          "components": [
            {
              "internalType": "string",
              "name": "marketName",
              "type": "string"
            },
            {
              "internalType": "string[]",
              "name": "outcomes",
              "type": "string[]"
            },
            {
              "internalType": "string",
              "name": "questionStart",
              "type": "string"
            },
            {
              "internalType": "string",
              "name": "questionEnd",
              "type": "string"
            },
            {
              "internalType": "string",
              "name": "outcomeType",
              "type": "string"
            },
            {
              "internalType": "uint256",
              "name": "parentOutcome",
              "type": "uint256"
            },
            {
              "internalType": "address",
              "name": "parentMarket",
              "type": "address"
            },
            {
              "internalType": "string",
              "name": "category",
              "type": "string"
            },
            {
              "internalType": "string",
              "name": "lang",
              "type": "string"
            },
            {
              "internalType": "uint256",
              "name": "lowerBound",
              "type": "uint256"
            },
            {
              "internalType": "uint256",
              "name": "upperBound",
              "type": "uint256"
            },
            {
              "internalType": "uint256",
              "name": "minBond",
              "type": "uint256"
            },
            {
              "internalType": "uint32",
              "name": "openingTime",
              "type": "uint32"
            },
            {
              "internalType": "string[]",
              "name": "tokenNames",
              "type": "string[]"
            }
          ],
          "internalType": "struct MarketFactory.CreateMarketParams",
          "name": "params",
          "type": "tuple"
        }
      ],
      "name": "createCategoricalMarket",
      "outputs": [
        {
          "internalType": "address",
          "name": "",
          "type": "address"
        }
      ],
      "stateMutability": "nonpayable",
      "type": "function"
    },
    {
      "inputs": [
        {
          "components": [
            {
              "internalType": "string",
              "name": "marketName",
              "type": "string"
            },
            {
              "internalType": "string[]",
              "name": "outcomes",
              "type": "string[]"
            },
            {
              "internalType": "string",
              "name": "questionStart",
              "type": "string"
            },
            {
              "internalType": "string",
              "name": "questionEnd",
              "type": "string"
            },
            {
              "internalType": "string",
              "name": "outcomeType",
              "type": "string"
            },
            {
              "internalType": "uint256",
              "name": "parentOutcome",
              "type": "uint256"
            },
            {
              "internalType": "address",
              "name": "parentMarket",
              "type": "address"
            },
            {
              "internalType": "string",
              "name": "category",
              "type": "string"
            },
            {
              "internalType": "string",
              "name": "lang",
              "type": "string"
            },
            {
              "internalType": "uint256",
              "name": "lowerBound",
              "type": "uint256"
            },
            {
              "internalType": "uint256",
              "name": "upperBound",
              "type": "uint256"
            },
            {
              "internalType": "uint256",
              "name": "minBond",
              "type": "uint256"
            },
            {
              "internalType": "uint32",
              "name": "openingTime",
              "type": "uint32"
            },
            {
              "internalType": "string[]",
              "name": "tokenNames",
              "type": "string[]"
            }
          ],
          "internalType": "struct MarketFactory.CreateMarketParams",
          "name": "params",
          "type": "tuple"
        }
      ],
      "name": "createMultiCategoricalMarket",
      "outputs": [
        {
          "internalType": "address",
          "name": "",
          "type": "address"
        }
      ],
      "stateMutability": "nonpayable",
      "type": "function"
    },
    {
      "inputs": [
        {
          "components": [
            {
              "internalType": "string",
              "name": "marketName",
              "type": "string"
            },
            {
              "internalType": "string[]",
              "name": "outcomes",
              "type": "string[]"
            },
            {
              "internalType": "string",
              "name": "questionStart",
              "type": "string"
            },
            {
              "internalType": "string",
              "name": "questionEnd",
              "type": "string"
            },
            {
              "internalType": "string",
              "name": "outcomeType",
              "type": "string"
            },
            {
              "internalType": "uint256",
              "name": "parentOutcome",
              "type": "uint256"
            },
            {
              "internalType": "address",
              "name": "parentMarket",
              "type": "address"
            },
            {
              "internalType": "string",
              "name": "category",
              "type": "string"
            },
            {
              "internalType": "string",
              "name": "lang",
              "type": "string"
            },
            {
              "internalType": "uint256",
              "name": "lowerBound",
              "type": "uint256"
            },
            {
              "internalType": "uint256",
              "name": "upperBound",
              "type": "uint256"
            },
            {
              "internalType": "uint256",
              "name": "minBond",
              "type": "uint256"
            },
            {
              "internalType": "uint32",
              "name": "openingTime",
              "type": "uint32"
            },
            {
              "internalType": "string[]",
              "name": "tokenNames",
              "type": "string[]"
            }
          ],
          "internalType": "struct MarketFactory.CreateMarketParams",
          "name": "params",
          "type": "tuple"
        }
      ],
      "name": "createMultiScalarMarket",
      "outputs": [
        {
          "internalType": "address",
          "name": "",
          "type": "address"
        }
      ],
      "stateMutability": "nonpayable",
      "type": "function"
    },
    {
      "inputs": [
        {
          "components": [
            {
              "internalType": "string",
              "name": "marketName",
              "type": "string"
            },
            {
              "internalType": "string[]",
              "name": "outcomes",
              "type": "string[]"
            },
            {
              "internalType": "string",
              "name": "questionStart",
              "type": "string"
            },
            {
              "internalType": "string",
              "name": "questionEnd",
              "type": "string"
            },
            {
              "internalType": "string",
              "name": "outcomeType",
              "type": "string"
            },
            {
              "internalType": "uint256",
              "name": "parentOutcome",
              "type": "uint256"
            },
            {
              "internalType": "address",
              "name": "parentMarket",
              "type": "address"
            },
            {
              "internalType": "string",
              "name": "category",
              "type": "string"
            },
            {
              "internalType": "string",
              "name": "lang",
              "type": "string"
            },
            {
              "internalType": "uint256",
              "name": "lowerBound",
              "type": "uint256"
            },
            {
              "internalType": "uint256",
              "name": "upperBound",
              "type": "uint256"
            },
            {
              "internalType": "uint256",
              "name": "minBond",
              "type": "uint256"
            },
            {
              "internalType": "uint32",
              "name": "openingTime",
              "type": "uint32"
            },
            {
              "internalType": "string[]",
              "name": "tokenNames",
              "type": "string[]"
            }
          ],
          "internalType": "struct MarketFactory.CreateMarketParams",
          "name": "params",
          "type": "tuple"
        }
      ],
      "name": "createScalarMarket",
      "outputs": [
        {
          "internalType": "address",
          "name": "",
          "type": "address"
        }
      ],
      "stateMutability": "nonpayable",
      "type": "function"
    },
    {
      "inputs": [],
      "name": "market",
      "outputs": [
        {
          "internalType": "address",
          "name": "",
          "type": "address"
        }
      ],
      "stateMutability": "view",
      "type": "function"
    },
    {
      "inputs": [],
      "name": "marketCount",
      "outputs": [
        {
          "internalType": "uint256",
          "name": "",
          "type": "uint256"
        }
      ],
      "stateMutability": "view",
      "type": "function"
    },
    {
      "inputs": [
        {
          "internalType": "uint256",
          "name": "",
          "type": "uint256"
        }
      ],
      "name": "markets",
      "outputs": [
        {
          "internalType": "address",
          "name": "",
          "type": "address"
        }
      ],
      "stateMutability": "view",
      "type": "function"
    },
    {
      "inputs": [],
      "name": "questionTimeout",
      "outputs": [
        {
          "internalType": "uint32",
          "name": "",
          "type": "uint32"
        }
      ],
      "stateMutability": "view",
      "type": "function"
    },
    {
      "inputs": [],
      "name": "realitio",
      "outputs": [
        {
          "internalType": "contract IRealityETH_v3_0",
          "name": "",
          "type": "address"
        }
      ],
      "stateMutability": "view",
      "type": "function"
    },
    {
      "inputs": [],
      "name": "realityProxy",
      "outputs": [
        {
          "internalType": "contract RealityProxy",
          "name": "",
          "type": "address"
        }
      ],
      "stateMutability": "view",
      "type": "function"
    },
    {
      "inputs": [],
      "name": "wrappedERC20Factory",
      "outputs": [
        {
          "internalType": "contract WrappedERC20Factory",
          "name": "",
          "type": "address"
        }
      ],
      "stateMutability": "view",
      "type": "function"
    }
  ],
  "transactionHash": "0x99f71554d0982c1565a6ab70fc9eeee3269ba4e4dd146460a7217ab1305d8a6c",
  "args": [
    "0x60Eb95536F44C696d115D943aB98C26CBfC110BF",
    "0x29F39dE98D750eb77b5FAfb31B2837f079FcE222",
    "0xE78996A233895bE74a66F451f1019cA9734205cc",
    "0x5bc8ddE5D07C6bf24911240AA6F9B0190ae3b557",
    "0xCeAfDD6bc0bEF976fdCd1112955828E00543c0Ce",
    "0xaf204776c7245bf4147c2612bf6e5972ee483701",
    "0xDEC7c093623E971Ace6b023A15548b85A1c4a210",
    302400
  ],
  "numDeployments": 23,
  "solcInputHash": "b2bf23290ce24a39063df69127dd2e02",
  "bytecode": "0x6101806040523480156200001257600080fd5b50604051620026fc380380620026fc833981016040819052620000359162000091565b6001600160a01b039788166101605295871660a05293861660c05291851660e0528416610100528316610120529091166101405263ffffffff166080526200015a565b6001600160a01b03811681146200008e57600080fd5b50565b600080600080600080600080610100898b031215620000af57600080fd5b8851620000bc8162000078565b60208a0151909850620000cf8162000078565b60408a0151909750620000e28162000078565b60608a0151909650620000f58162000078565b60808a0151909550620001088162000078565b60a08a01519094506200011b8162000078565b60c08a01519093506200012e8162000078565b60e08a015190925063ffffffff811681146200014957600080fd5b809150509295985092959890939650565b60805160a05160c05160e051610100516101205161014051610160516124b16200024b6000396000818161020f0152610c8b01526000818161012001528181610cdf01528181611842015261199901526000818161025c015261128801526000818161018701528181610ec0015281816111fe015281816112bd015281816113c501528181611813015281816118db015261196c0152600081816101ae01526113960152600081816102830152818161162c0152818161169e015261173c0152600081816101d5015281816115c3015261176d01526000818160df015281816115fb015261178f01526124b16000f3fe608060405234801561001057600080fd5b50600436106100d55760003560e01c80637ca5cb3e116100875780637ca5cb3e146101f757806380f556051461020a5780638770b18014610231578063b1283e7714610244578063b2016bd414610257578063bc8802a21461027e578063ec979082146102a5578063ff08d88f146102b657600080fd5b80631ba18b9b146100da5780632ff8d5041461011b5780633412a3f91461015a578063375a7cba1461016d5780635bd9e2991461018257806361371325146101a95780636cc6cde1146101d0575b600080fd5b6101017f000000000000000000000000000000000000000000000000000000000000000081565b60405163ffffffff90911681526020015b60405180910390f35b6101427f000000000000000000000000000000000000000000000000000000000000000081565b6040516001600160a01b039091168152602001610112565b610142610168366004611a01565b6102c9565b6101756104b6565b6040516101129190611a3c565b6101427f000000000000000000000000000000000000000000000000000000000000000081565b6101427f000000000000000000000000000000000000000000000000000000000000000081565b6101427f000000000000000000000000000000000000000000000000000000000000000081565b610142610205366004611a01565b610518565b6101427f000000000000000000000000000000000000000000000000000000000000000081565b61014261023f366004611a01565b6107da565b610142610252366004611a89565b6108eb565b6101427f000000000000000000000000000000000000000000000000000000000000000081565b6101427f000000000000000000000000000000000000000000000000000000000000000081565b600054604051908152602001610112565b6101426102c4366004611a01565b610915565b600060026102da6020840184611aa2565b905010156103035760405162461bcd60e51b81526004016102fa90611aeb565b60405180910390fd5b604080516001808252818301909252600091816020015b606081526020019060019003908161031a57905050905061040a61033e8480611b36565b8080601f016020809104026020016040519081016040528093929190818152602001838380828437600092019190915250610380925050506020860186611aa2565b61038d60e0880188611b36565b8080601f0160208091040260200160405190810160405280939291908181526020018383808284376000920191909152506103d092505050610100890189611b36565b8080601f016020809104026020016040519081016040528093929190818152602001838380828437600092019190915250610b3c92505050565b8160008151811061041d5761041d611b7c565b60200260200101819052506104af8361043590611d38565b61043f8580611b36565b8080601f01602080910402602001604051908101604052809392919081815260200183838082843760009201919091525050604080516060810190915286815291505060208082019061049490890189611aa2565b6104a091506001611ef2565b81526003602090910152610c54565b9392505050565b6060600080548060200260200160405190810160405280929190818152602001828054801561050e57602002820191906000526020600020905b81546001600160a01b031681526001909101906020018083116104f0575b5050505050905090565b6000816101200135826101400135116105855760405162461bcd60e51b815260206004820152602960248201527f7570706572426f756e64206d75737420626520686967686572207468616e206c6044820152681bddd95c909bdd5b9960ba1b60648201526084016102fa565b6105926002600019611f05565b826101400135106105fa5760405162461bcd60e51b815260206004820152602c60248201527f7570706572426f756e64206d757374206265206c657373207468616e2075696e60448201526b3a191a9b1736b0bc1016901960a11b60648201526084016102fa565b6106076020830183611aa2565b90506002146106535760405162461bcd60e51b815260206004820152601860248201527727baba31b7b6b2b99031b7bab73a1036bab9ba103132901960411b60448201526064016102fa565b604080516001808252818301909252600091816020015b606081526020019060019003908161066a57905050905061074d61068e8480611b36565b8080601f0160208091040260200160405190810160405280939291908181526020018383808284376000920191909152506106d09250505060e0860186611b36565b8080601f01602080910402602001604051908101604052809392919081815260200183838082843760009201919091525061071392505050610100870187611b36565b8080601f016020809104026020016040519081016040528093929190818152602001838380828437600092019190915250610df992505050565b8160008151811061076057610760611b7c565b60200260200101819052506104af8361077890611d38565b6107828580611b36565b8080601f0160208091040260200160405190810160405280939291908181526020018383808284376000920191909152505060408051606081018252878152600360208201526001918101919091529150610c549050565b600060026107eb6020840184611aa2565b9050101561080b5760405162461bcd60e51b81526004016102fa90611aeb565b604080516001808252818301909252600091816020015b606081526020019060019003908161082257905050905061084661033e8480611b36565b8160008151811061085957610859611b7c565b60200260200101819052506104af8361087190611d38565b61087b8580611b36565b8080601f0160208091040260200160405190810160405280939291908181526020018383808284376000920191909152505060408051606081019091528681529150506020808201906108d090890189611aa2565b6108dc91506001611ef2565b81526002602090910152610c54565b600081815481106108fb57600080fd5b6000918252602090912001546001600160a01b0316905081565b600060026109266020840184611aa2565b905010156109465760405162461bcd60e51b81526004016102fa90611aeb565b60006109556020840184611aa2565b90506001600160401b0381111561096e5761096e611b20565b6040519080825280602002602001820160405280156109a157816020015b606081526020019060019003908161098c5790505b50905060005b6109b46020850185611aa2565b9050811015610aae57610a7e6109cd6040860186611b36565b6109da6020880188611aa2565b858181106109ea576109ea611b7c565b90506020028101906109fc9190611b36565b610a0960608a018a611b36565b604051602001610a1e96959493929190611f18565b60408051601f19818403018152919052610a3b60e0870187611b36565b8080601f01602080910402602001604051908101604052809392919081815260200183838082843760009201919091525061071392505050610100880188611b36565b828281518110610a9057610a90611b7c565b60200260200101819052508080610aa690611f48565b9150506109a7565b506104af610abb84611d38565b610ac86040860186611b36565b610ad56080880188611b36565b610ae260608a018a611b36565b604051602001610af796959493929190611f61565b60408051601f198184030181526060830190915284825290602081810190610b2190890189611aa2565b610b2d91506001611ef2565b81526001602090910152610c54565b60606000604051602001610b599062e2909f60e81b815260030190565b6040516020818303038152906040529050600086866000818110610b7f57610b7f611b7c565b9050602002810190610b919190611b36565b604051602001610ba2929190611fa3565b60408051601f19818403018152919052905060015b86811015610c1a5781888883818110610bd257610bd2611b7c565b9050602002810190610be49190611b36565b604051602001610bf693929190611fee565b60405160208183030381529060405291508080610c1290611f48565b915050610bb7565b5087828284888689604051602001610c38979695949392919061202d565b6040516020818303038152906040529250505095945050505050565b6000806000610c638685610e59565b91509150610c84826020015183600001518660200151896101a001516111bb565b6000610cb87f00000000000000000000000000000000000000000000000000000000000000006001600160a01b031661150b565b9050806001600160a01b0316633eaac0b88789602001518a61012001518b610140015188887f00000000000000000000000000000000000000000000000000000000000000006040518863ffffffff1660e01b8152600401610d2097969594939291906121bc565b600060405180830381600087803b158015610d3a57600080fd5b505af1158015610d4e573d6000803e3d6000fd5b50505060c08801518451608086015185516040516001600160a01b03871695507f109e5ac06d4835cca9a97d9014f7bb1bfafb85a2de6d4af1ad22aa8730e12c8794610d9f948d9491939092612256565b60405180910390a2600080546001810182559080527f290decd9548b62a8d60345a988386fc84ba6bc95484008f6362f93160ef3e5630180546001600160a01b0319166001600160a01b0383161790559695505050505050565b60606000604051602001610e169062e2909f60e81b815260030190565b60405160208183030381529060405290508481858386604051602001610e40959493929190612298565b6040516020818303038152906040529150509392505050565b6040805160a081018252600080825260208201819052918101829052606081018290526080810191909152610ea860405180606001604052806060815260200160008152602001606081525090565b60c08401516000906001600160a01b031615611034577f00000000000000000000000000000000000000000000000000000000000000006001600160a01b031663856296f78660c001516001600160a01b03166344bea37e6040518163ffffffff1660e01b8152600401602060405180830381865afa158015610f2f573d6000803e3d6000fd5b505050506040513d601f19601f82011682018060405250810190610f539190612303565b8760c001516001600160a01b0316632ddc7de76040518163ffffffff1660e01b8152600401602060405180830381865afa158015610f95573d6000803e3d6000fd5b505050506040513d601f19601f82011682018060405250810190610fb99190612303565b60a08901516040516001600160e01b031960e086901b168152600481019390935260248301919091526001901b6044820152606401602060405180830381865afa15801561100b573d6000803e3d6000fd5b505050506040513d601f19601f8201168201806040525081019061102f9190612303565b611037565b60005b905060008460000151516001600160401b0381111561105857611058611b20565b604051908082528060200260200182016040528015611081578160200160208202803683370190505b50905060005b8551518110156110f7576110c8866000015182815181106110aa576110aa611b7c565b602002602001015187604001518961018001518a610160015161157d565b8282815181106110da576110da611b7c565b6020908102919091010152806110ef81611f48565b915050611087565b5060008187602001515187604001518961012001518a610140015160405160200161112695949392919061231c565b604051602081830303815290604052805190602001209050600061114e82886020015161180e565b90506040518060a001604052808281526020018581526020018960a0015181526020018960c001516001600160a01b0316815260200183815250604051806060016040528085815260200189604001518152602001896000015181525095509550505050505b9250929050565b60006111c8600184611f05565b905060005b838110156115035760405163856296f760e01b815260048101879052602481018690526001821b60448201526000907f00000000000000000000000000000000000000000000000000000000000000006001600160a01b03169063856296f790606401602060405180830381865afa15801561124d573d6000803e3d6000fd5b505050506040513d601f19601f820116820180604052508101906112719190612303565b60405163039dd75360e41b81526001600160a01b037f000000000000000000000000000000000000000000000000000000000000000081166004830152602482018390529192506000917f000000000000000000000000000000000000000000000000000000000000000016906339dd753090604401602060405180830381865afa158015611304573d6000803e3d6000fd5b505050506040513d601f19601f820116820180604052508101906113289190612303565b905083831480611353575084838151811061134557611345611b7c565b602002602001015151600014155b6113945760405162461bcd60e51b81526020600482015260126024820152714d697373696e6720746f6b656e206e616d6560701b60448201526064016102fa565b7f00000000000000000000000000000000000000000000000000000000000000006001600160a01b031663bb13cd107f00000000000000000000000000000000000000000000000000000000000000008387871461140b578887815181106113fe576113fe611b7c565b6020026020010151611438565b6040518060400160405280601381526020017214d1515497d253959053125117d49154d55315606a1b8152505b88881461145e5789888151811061145157611451611b7c565b602002602001015161148b565b6040518060400160405280601381526020017214d1515497d253959053125117d49154d55315606a1b8152505b6040518563ffffffff1660e01b81526004016114aa9493929190612353565b6020604051808303816000875af11580156114c9573d6000803e3d6000fd5b505050506040513d601f19601f820116820180604052508101906114ed9190612397565b50505080806114fb90611f48565b9150506111cd565b505050505050565b6000763d602d80600a3d3981f3363d3d373d3d3d363d730000008260601b60e81c176000526e5af43d82803e903d91602b57fd5bf38260781b17602052603760096000f090506001600160a01b038116611578576040516330be1a3d60e21b815260040160405180910390fd5b919050565b600080848487604051602001611595939291906123b4565b60408051601f1981840301815282825280516020918201209083018190526bffffffffffffffffffffffff197f0000000000000000000000000000000000000000000000000000000000000000606090811b8216938501939093526001600160e01b03197f000000000000000000000000000000000000000000000000000000000000000060e01b166054850152605884018790527f0000000000000000000000000000000000000000000000000000000000000000831b811660788501523090921b909116608c830152600060a083018190529092509060c00160408051808303601f19018152908290528051602090910120634f8812e360e11b82526004820181905291507f00000000000000000000000000000000000000000000000000000000000000006001600160a01b031690639f1025c690602401602060405180830381865afa1580156116ed573d6000803e3d6000fd5b505050506040513d601f19601f8201168201806040525081019061171191906123ed565b63ffffffff16156117255791506118069050565b604051631212e4f160e21b81526001600160a01b037f0000000000000000000000000000000000000000000000000000000000000000169063484b93c4906117be9089908b907f0000000000000000000000000000000000000000000000000000000000000000907f0000000000000000000000000000000000000000000000000000000000000000908c906000908d9060040161240a565b6020604051808303816000875af11580156117dd573d6000803e3d6000fd5b505050506040513d601f19601f820116820180604052508101906118019190612303565b925050505b949350505050565b6000807f00000000000000000000000000000000000000000000000000000000000000006001600160a01b031663852c6ae27f000000000000000000000000000000000000000000000000000000000000000086866040518463ffffffff1660e01b81526004016118819392919061245a565b602060405180830381865afa15801561189e573d6000803e3d6000fd5b505050506040513d601f19601f820116820180604052508101906118c29190612303565b604051636a16e06160e11b8152600481018290529091507f00000000000000000000000000000000000000000000000000000000000000006001600160a01b03169063d42dc0c290602401602060405180830381865afa15801561192a573d6000803e3d6000fd5b505050506040513d601f19601f8201168201806040525081019061194e9190612303565b6000036119f85760405163365bb9d560e21b81526001600160a01b037f0000000000000000000000000000000000000000000000000000000000000000169063d96ee754906119c5907f0000000000000000000000000000000000000000000000000000000000000000908890889060040161245a565b600060405180830381600087803b1580156119df57600080fd5b505af11580156119f3573d6000803e3d6000fd5b505050505b90505b92915050565b600060208284031215611a1357600080fd5b81356001600160401b03811115611a2957600080fd5b82016101c081850312156119f857600080fd5b6020808252825182820181905260009190848201906040850190845b81811015611a7d5783516001600160a01b031683529284019291840191600101611a58565b50909695505050505050565b600060208284031215611a9b57600080fd5b5035919050565b6000808335601e19843603018112611ab957600080fd5b8301803591506001600160401b03821115611ad357600080fd5b6020019150600581901b36038213156111b457600080fd5b6020808252818101527f4f7574636f6d657320636f756e74206d7573742062652032206f72206d6f7265604082015260600190565b634e487b7160e01b600052604160045260246000fd5b6000808335601e19843603018112611b4d57600080fd5b8301803591506001600160401b03821115611b6757600080fd5b6020019150368190038213156111b457600080fd5b634e487b7160e01b600052603260045260246000fd5b6040516101c081016001600160401b0381118282101715611bb557611bb5611b20565b60405290565b604051601f8201601f191681016001600160401b0381118282101715611be357611be3611b20565b604052919050565b600082601f830112611bfc57600080fd5b81356001600160401b03811115611c1557611c15611b20565b611c28601f8201601f1916602001611bbb565b818152846020838601011115611c3d57600080fd5b816020850160208301376000918101602001919091529392505050565b600082601f830112611c6b57600080fd5b813560206001600160401b0380831115611c8757611c87611b20565b8260051b611c96838201611bbb565b9384528581018301938381019088861115611cb057600080fd5b84880192505b85831015611cec57823584811115611cce5760008081fd5b611cdc8a87838c0101611beb565b8352509184019190840190611cb6565b98975050505050505050565b6001600160a01b0381168114611d0d57600080fd5b50565b803561157881611cf8565b63ffffffff81168114611d0d57600080fd5b803561157881611d1b565b60006101c08236031215611d4b57600080fd5b611d53611b92565b82356001600160401b0380821115611d6a57600080fd5b611d7636838701611beb565b83526020850135915080821115611d8c57600080fd5b611d9836838701611c5a565b60208401526040850135915080821115611db157600080fd5b611dbd36838701611beb565b60408401526060850135915080821115611dd657600080fd5b611de236838701611beb565b60608401526080850135915080821115611dfb57600080fd5b611e0736838701611beb565b608084015260a085013560a0840152611e2260c08601611d10565b60c084015260e0850135915080821115611e3b57600080fd5b611e4736838701611beb565b60e084015261010091508185013581811115611e6257600080fd5b611e6e36828801611beb565b928401929092526101208581013590840152610140808601359084015261016080860135908401526101809150611ea6828601611d2d565b828401526101a091508185013581811115611ec057600080fd5b611ecc36828801611c5a565b8385015250505080915050919050565b634e487b7160e01b600052601160045260246000fd5b808201808211156119fb576119fb611edc565b818103818111156119fb576119fb611edc565b85878237600086820160008152858782376000908601908152838582376000930192835250909695505050505050565b600060018201611f5a57611f5a611edc565b5060010190565b858782376000868201605b60f81b815285876001830137605d60f81b600191870191820152838560028301376000930160020192835250909695505050505050565b601160f91b8082526000908385600185013792909101600181019290925250600201919050565b60005b83811015611fe5578181015183820152602001611fcd565b50506000910152565b60008451612000818460208901611fca565b61161160f11b90830190815283856002830137601160f91b93016002810193909352505060030192915050565b6000885160206120408285838e01611fca565b8951918401916120538184848e01611fca565b89519201916120658184848d01611fca565b88519201916120778184848c01611fca565b87519201916120898184848b01611fca565b865192019161209b8184848a01611fca565b85519201916120ad8184848901611fca565b919091019a9950505050505050505050565b600081518084526120d7816020860160208601611fca565b601f01601f19169290920160200192915050565b600081518084526020808501808196508360051b8101915082860160005b858110156121335782840389526121218483516120bf565b98850198935090840190600101612109565b5091979650505050505050565b600081518084526020808501945080840160005b8381101561217057815187529582019590820190600101612154565b509495945050505050565b60008151606084526121906060850182612140565b905060208301516020850152604083015184820360408601526121b382826120eb565b95945050505050565b60006101608083526121d08184018b6120bf565b905082810360208401526121e4818a6120eb565b905087604084015286606084015285516080840152602086015160a0840152604086015160c084015260018060a01b0360608701511660e0840152608086015161010084015282810361012084015261223d818661217b565b915050611cec6101408301846001600160a01b03169052565b60a08152600061226960a08301886120bf565b6001600160a01b038716602084015260408301869052606083018590528281036080840152611cec8185612140565b600086516122aa818460208b01611fca565b8651908301906122be818360208b01611fca565b86519101906122d1818360208a01611fca565b85519101906122e4818360208901611fca565b84519101906122f7818360208801611fca565b01979650505050505050565b60006020828403121561231557600080fd5b5051919050565b60a08152600061232f60a0830188612140565b90508560208301528460408301528360608301528260808301529695505050505050565b60018060a01b038516815283602082015260806040820152600061237a60808301856120bf565b828103606084015261238c81856120bf565b979650505050505050565b6000602082840312156123a957600080fd5b81516119f881611cf8565b83815263ffffffff60e01b8360e01b166020820152600082516123de816024850160208701611fca565b91909101602401949350505050565b6000602082840312156123ff57600080fd5b81516119f881611d1b565b87815260e06020820152600061242360e08301896120bf565b6001600160a01b039790971660408301525063ffffffff948516606082015292909316608083015260a082015260c0015292915050565b6001600160a01b03939093168352602083019190915260408201526060019056fea264697066735822122003ddfa53f354e46fce558ae426cae260780017c67bf157a79739eaec2c70a03364736f6c63430008140033",
  "devdoc": {
    "errors": {
      "ERC1167FailedCreateClone()": [
        {
          "details": "A clone instance deployment failed."
        }
      ]
    },
    "events": {
      "NewMarket(address,string,address,bytes32,bytes32,bytes32[])": {
        "details": "To be emitted when a new market is created"
      }
    },
    "kind": "dev",
    "methods": {
      "allMarkets()": {
        "details": "Returns all the markets created by this factory",
        "returns": {
          "_0": "The addresses of the markets"
        }
      },
      "constructor": {
        "details": "Constructor.",
        "params": {
          "_arbitrator": "Address of the arbitrator that is going to resolve Realitio disputes.",
          "_collateralToken": "Address of the collateral token.",
          "_conditionalTokens": "Address of the ConditionalTokens implementation.",
          "_market": "Address of the market contract that is going to be used for each new deployment.",
          "_questionTimeout": "Reality question timeout.",
          "_realitio": "Address of the Realitio implementation.",
          "_realityProxy": "Address of the RealityProxy implementation.",
          "_wrappedERC20Factory": "Address of the WrappedERC20Factory implementation."
        }
      },
      "createCategoricalMarket((string,string[],string,string,string,uint256,address,string,string,uint256,uint256,uint256,uint32,string[]))": {
        "details": "Creates a Categorical market. Reverts if a market with the same question already exists."
      },
      "createMultiCategoricalMarket((string,string[],string,string,string,uint256,address,string,string,uint256,uint256,uint256,uint32,string[]))": {
        "details": "Creates a Multi Categorical market."
      },
      "createMultiScalarMarket((string,string[],string,string,string,uint256,address,string,string,uint256,uint256,uint256,uint32,string[]))": {
        "details": "Creates a Multi Scalar market"
      },
      "createScalarMarket((string,string[],string,string,string,uint256,address,string,string,uint256,uint256,uint256,uint32,string[]))": {
        "details": "Creates a Scalar market."
      },
      "marketCount()": {
        "returns": {
          "_0": "The amount of markets"
        }
      }
    },
    "version": 1
  },
  "userdoc": {
    "kind": "user",
    "methods": {
      "createCategoricalMarket((string,string[],string,string,string,uint256,address,string,string,uint256,uint256,uint256,uint32,string[]))": {
        "notice": "Categorical markets are associated with a Reality question that has only one answer"
      },
      "createMultiCategoricalMarket((string,string[],string,string,string,uint256,address,string,string,uint256,uint256,uint256,uint32,string[]))": {
        "notice": "Multi Categorical markets are associated with a Reality question that has one or more answers"
      },
      "createMultiScalarMarket((string,string[],string,string,string,uint256,address,string,string,uint256,uint256,uint256,uint32,string[]))": {
        "notice": "Multi Scalar markets are associated with two or more Reality questions, and each one of them resolves to a numeric value"
      },
      "createScalarMarket((string,string[],string,string,string,uint256,address,string,string,uint256,uint256,uint256,uint32,string[]))": {
        "notice": "Scalar markets are associated with a Reality question that resolves to a numeric value"
      },
      "marketCount()": {
        "notice": "Returns the amount of markets created by this factory"
      }
    },
    "version": 1
  },
  "storageLayout": {
    "storage": [
      {
        "astId": 625,
        "contract": "src/MarketFactory.sol:MarketFactory",
        "label": "markets",
        "offset": 0,
        "slot": "0",
        "type": "t_array(t_address)dyn_storage"
      }
    ],
    "types": {
      "t_address": {
        "encoding": "inplace",
        "label": "address",
        "numberOfBytes": "20"
      },
      "t_array(t_address)dyn_storage": {
        "base": "t_address",
        "encoding": "dynamic_array",
        "label": "address[]",
        "numberOfBytes": "32"
      }
    }
  }
}